{
	"data": {
		"bytecode": {
			"linkReferences": {},
			"object": "60c060405234801561001057600080fd5b5060405161348c38038061348c83398101604081905261002f9161034b565b338282600061003e8382610470565b50600161004b8282610470565b50506001600655506007805460ff191690556001600160a01b03811661008c57604051631e4fbdf760e01b8152600060048201526024015b60405180910390fd5b6100958161017a565b506001600160a01b03851615806100b357506001600160a01b038416155b806100c557506001600160a01b038316155b156100e35760405163d92e233d60e01b815260040160405180910390fd5b6100eb6101d4565b50506001600160a01b0392831660805290821660a05260108054919092166c01000000000000000000000000026001600160601b0390911617905560008052600b602052437fdf7de25b7f1fd6d0b5205f0e18f1f35bd7b8d84cce336588d184533ce43a6f7855427fdf7de25b7f1fd6d0b5205f0e18f1f35bd7b8d84cce336588d184533ce43a6f775561052e565b600780546001600160a01b03838116610100818102610100600160a81b031985161790945560405193909204169182907f8be0079c531659141344cd1fd0a4f28419497f9722a3daafe3b4186f6b6457e090600090a35050565b6101dc61022e565b6007805460ff191660011790557f62e78cea01bee320cd4e420270b5ea74000d11b0c9f74754ebdbfc544b05a2586102113390565b6040516001600160a01b03909116815260200160405180910390a1565b60075460ff16156102745760405162461bcd60e51b815260206004820152601060248201526f14185d5cd8589b194e881c185d5cd95960821b6044820152606401610083565b565b80516001600160a01b038116811461028d57600080fd5b919050565b634e487b7160e01b600052604160045260246000fd5b600082601f8301126102b957600080fd5b81516001600160401b038111156102d2576102d2610292565b604051601f8201601f19908116603f011681016001600160401b038111828210171561030057610300610292565b60405281815283820160200185101561031857600080fd5b60005b828110156103375760208186018101518383018201520161031b565b506000918101602001919091529392505050565b600080600080600060a0868803121561036357600080fd5b61036c86610276565b945061037a60208701610276565b935061038860408701610276565b60608701519093506001600160401b038111156103a457600080fd5b6103b0888289016102a8565b608088015190935090506001600160401b038111156103ce57600080fd5b6103da888289016102a8565b9150509295509295909350565b600181811c908216806103fb57607f821691505b60208210810361041b57634e487b7160e01b600052602260045260246000fd5b50919050565b601f82111561046b57806000526020600020601f840160051c810160208510156104485750805b601f840160051c820191505b818110156104685760008155600101610454565b50505b505050565b81516001600160401b0381111561048957610489610292565b61049d8161049784546103e7565b84610421565b6020601f8211600181146104d157600083156104b95750848201515b600019600385901b1c1916600184901b178455610468565b600084815260208120601f198516915b8281101561050157878501518255602094850194600190920191016104e1565b508482101561051f5786840151600019600387901b60f8161c191681555b50505050600190811b01905550565b60805160a051612f2061056c600039600050506000818161092501528181610be101528181610c6701528181610cc7015261106c0152612f206000f3fe608060405234801561001057600080fd5b50600436106101fb5760003560e01c80638ad4c4471161011a578063b88d4fde116100ad578063c87b56dd1161007c578063c87b56dd146104cc578063e58f5947146104df578063e985e9c5146104ff578063f2fde38b14610512578063f52a36f71461052557600080fd5b8063b88d4fde1461048b578063bbe33ea51461049e578063c3d686cb146104b1578063c5b1c7d0146104c457600080fd5b806395d89b41116100e957806395d89b41146104345780639b7d02ad1461043c578063a22cb46514610465578063b54373f81461047857600080fd5b80638ad4c447146103c45780638b25e8c1146104025780638da5cb5b14610415578063900cf0cf1461042b57600080fd5b806342842e0e116101925780635c975abb116101615780635c975abb1461038b5780636352211e1461039657806370a08231146103a9578063715018a6146103bc57600080fd5b806342842e0e146102d357806344acb42a146102e657806345154ffa146103575780635312ea8e1461037857600080fd5b806320a194b8116101ce57806320a194b81461027d57806323b872dd14610288578063268dc1991461029b5780632e1a7d4d146102c057600080fd5b806301ffc9a71461020057806306fdde0314610228578063081812fc1461023d578063095ea7b314610268575b600080fd5b61021361020e366004612880565b61055d565b60405190151581526020015b60405180910390f35b6102306105af565b60405161021f91906128ed565b61025061024b366004612900565b610641565b6040516001600160a01b03909116815260200161021f565b61027b610276366004612935565b61066a565b005b60115460ff16610213565b61027b61029636600461295f565b610679565b6010546001600160601b03165b6040516001600160601b03909116815260200161021f565b61027b6102ce366004612900565b610709565b61027b6102e136600461295f565b6109b0565b61032f6102f436600461299c565b600e602090815260009283526040808420909152908252902080546001820154600290920154600f82810b93600160801b909304900b919084565b60408051600f95860b81529390940b602084015292820152606081019190915260800161021f565b61036a6103653660046129d5565b6109d0565b60405190815260200161021f565b61027b610386366004612900565b610fa6565b60075460ff16610213565b6102506103a4366004612900565b6110f0565b61036a6103b7366004612a2d565b6110fb565b61027b611143565b61032f6103d2366004612900565b600b60205260009081526040902080546001820154600290920154600f82810b93600160801b909304900b919084565b6102a8610410366004612900565b611157565b60075461010090046001600160a01b0316610250565b61036a600c5481565b610230611204565b61036a61044a366004612a2d565b6001600160a01b03166000908152600a602052604090205490565b61027b610473366004612a48565b611213565b61036a61048636600461299c565b61121e565b61027b610499366004612a9a565b6112e4565b61027b6104ac366004612b7e565b6112fc565b61036a6104bf366004612900565b61170c565b61027b611768565b6102306104da366004612900565b6117ce565b61036a6104ed366004612900565b600d6020526000908152604090205481565b61021361050d366004612bfa565b611842565b61027b610520366004612a2d565b611870565b61054a610533366004612900565b600f60208190526000918252604090912054900b81565b604051600f9190910b815260200161021f565b60006001600160e01b031982166380ac58cd60e01b148061058e57506001600160e01b03198216635b5e139f60e01b145b806105a957506301ffc9a760e01b6001600160e01b03198316145b92915050565b6060600080546105be90612c2d565b80601f01602080910402602001604051908101604052809291908181526020018280546105ea90612c2d565b80156106375780601f1061060c57610100808354040283529160200191610637565b820191906000526020600020905b81548152906001019060200180831161061a57829003601f168201915b5050505050905090565b600061064c826118ab565b506000828152600460205260409020546001600160a01b03166105a9565b6106758282336118e4565b5050565b6001600160a01b0382166106a857604051633250574960e11b8152600060048201526024015b60405180910390fd5b60006106b58383336118f1565b9050836001600160a01b0316816001600160a01b031614610703576040516364283d7b60e01b81526001600160a01b038086166004830152602482018490528216604482015260640161069f565b50505050565b6107116119ea565b6000818152600260205260409020546001600160a01b03168061074657604051626f708760e21b815260040160405180910390fd5b6001600160a01b038116331461076f576040516359dc379f60e01b815260040160405180910390fd5b6000828152600960209081526040808320815160808101835290546001600160601b0380821680845263ffffffff600160601b8404811696850196909652600160801b830490951693830193909352600160a01b9004909116606082015291036107ec57604051632254ea3d60e11b815260040160405180910390fd5b806020015163ffffffff164210156108175760405163342ad40160e11b815260040160405180910390fd5b80516040805180820182526001600160601b038316600f0b815260208085015163ffffffff1681830152600087815260099091529182208290559061085b86611157565b90506000670de0b6b3a764000061087e6001600160601b03808516908716612c7d565b6108889190612caa565b6010805491925082916000906108a89084906001600160601b0316612cbe565b92506101000a8154816001600160601b0302191690836001600160601b031602179055506108f0878460405180604001604052806000600f0b81526020016000815250611a43565b6000878152600d602052604081205561090887611a5d565b336000818152600a60205260409020805460001901905561095d907f00000000000000000000000000000000000000000000000000000000000000006001600160a01b0316906001600160601b038716611a98565b6040516001600160601b0385168152879033907f3fdaa3faecb5c69ec12e404183e885a2bcab0970befa4016e0351b20adcdeccb9060200160405180910390a35050505050506109ad6001600655565b50565b6109cb838383604051806020016040528060008152506112e4565b505050565b60006109da6119ea565b6109e2611af7565b8280421115610a0457604051631ab7da6b60e01b815260040160405180910390fd5b856001600160601b0316600003610a2e5760405163162908e360e11b815260040160405180910390fd5b63ffffffff85161580610a49575062ed4e0063ffffffff8616115b15610a6757604051637616640160e01b815260040160405180910390fd5b336000908152600a6020526040902054606411610a975760405163133cbc4f60e01b815260040160405180910390fd5b6000610aa38642612cdd565b9050600062ed4e00610ac5670de0b6b3a7640000673782dace9d900000612cbe565b6001600160601b0316896001600160601b0316610ae29190612c7d565b610aec9190612caa565b90506001600160601b03811115610b165760405163162908e360e11b815260040160405180910390fd5b806000610b3263ffffffff8a166001600160601b038416612c7d565b610b4490670de0b6b3a7640000612cf9565b9050866001600160601b0316816001600160601b03161015610b7957604051638199f5f360e01b815260040160405180910390fd5b600060405180604001604052808c6001600160601b0316600f0b81526020018663ffffffff168152509050610bc9600060405180604001604052806000600f0b8152602001600081525083611a43565b6040516370a0823160e01b81523060048201526000907f00000000000000000000000000000000000000000000000000000000000000006001600160a01b0316906370a0823190602401602060405180830381865afa158015610c30573d6000803e3d6000fd5b505050506040513d601f19601f82011682018060405250810190610c549190612d0c565b9050610c9f33308e6001600160601b03167f00000000000000000000000000000000000000000000000000000000000000006001600160a01b0316611b3d909392919063ffffffff16565b610cb26001600160601b038d1682612cf9565b6040516370a0823160e01b81523060048201527f00000000000000000000000000000000000000000000000000000000000000006001600160a01b0316906370a0823190602401602060405180830381865afa158015610d16573d6000803e3d6000fd5b505050506040513d601f19601f82011682018060405250810190610d3a9190612d0c565b14610d58576040516312171d8360e31b815260040160405180910390fd5b60088054600190810191829055336000818152600a602052604090208054909201909155909850610d899089611b76565b60405180608001604052808d6001600160601b031681526020018763ffffffff1681526020014263ffffffff168152602001856001600160601b0316815250600960008a815260200190815260200160002060008201518160000160006101000a8154816001600160601b0302191690836001600160601b03160217905550602082015181600001600c6101000a81548163ffffffff021916908363ffffffff16021790555060408201518160000160106101000a81548163ffffffff021916908363ffffffff16021790555060608201518160000160146101000a8154816001600160601b0302191690836001600160601b031602179055509050506000670de0b6b3a76400006001600160601b0316846001600160601b03168e6001600160601b0316610eb89190612c7d565b610ec29190612caa565b90506001600160601b03811115610eec5760405163162908e360e11b815260040160405180910390fd5b60108054829190600090610f0a9084906001600160601b0316612d25565b92506101000a8154816001600160601b0302191690836001600160601b0316021790555088336001600160a01b03167f63b11d2d0f505949e8b2bfab72ea3694320f1a8cdc3c647e4faa33f78a4c1c538f8a604051610f849291906001600160601b0392909216825263ffffffff16602082015260400190565b60405180910390a35050505050505050610f9e6001600655565b949350505050565b610fae6119ea565b60115460ff16610ff85760405162461bcd60e51b81526020600482015260156024820152744e6f7420696e20656d657267656e6379206d6f646560581b604482015260640161069f565b33611002826110f0565b6001600160a01b031614611029576040516359dc379f60e01b815260040160405180910390fd5b60008181526009602052604081208054918155906001600160601b031661104f83611a5d565b336000818152600a6020526040902080546000190190556110a4907f00000000000000000000000000000000000000000000000000000000000000006001600160a01b0316906001600160601b038416611a98565b6040516001600160601b0382168152839033907f2aee7f4bf5426b3f27c0f0b56cc84ac995b27a53ce05063152830b27da5f89579060200160405180910390a350506109ad6001600655565b60006105a9826118ab565b60006001600160a01b038216611127576040516322718ad960e21b81526000600482015260240161069f565b506001600160a01b031660009081526003602052604090205490565b61114b611b90565b6111556000611bc3565b565b6000818152600960209081526040808320815160808101835290546001600160601b03808216835263ffffffff600160601b83048116958401869052600160801b83041693830193909352600160a01b900490911660608201529042106111c85750670de0b6b3a764000092915050565b600042826020015163ffffffff160390508082606001516001600160601b03166111f29190612c7d565b610f9e90670de0b6b3a7640000612cf9565b6060600180546105be90612c2d565b610675338383611c1d565b6000828152600d602052604081205480820361123e5760009150506105a9565b6000848152600e6020908152604080832084845282529182902082516080810184528154600f81810b8352600160801b909104900b928101929092526001810154928201839052600201546060820152906112999085612d44565b81602001516112a89190612d57565b815182906112b7908390612d7e565b600f90810b90915282516000910b121590506112d257600081525b516001600160801b0316949350505050565b6112ef848484610679565b6107033385858585611cbc565b6113046119ea565b61130c611af7565b808042111561132e57604051631ab7da6b60e01b815260040160405180910390fd5b60028310156113505760405163162908e360e11b815260040160405180910390fd5b60008060005b85811015611427573361138088888481811061137457611374612dab565b905060200201356110f0565b6001600160a01b0316146113a7576040516359dc379f60e01b815260040160405180910390fd5b6000600960008989858181106113bf576113bf612dab565b6020908102929092013583525081019190915260400160002080549091506113f0906001600160601b031685612d25565b815490945063ffffffff808516600160601b90920416111561141e578054600160601b900463ffffffff1692505b50600101611356565b5060006114344283612dc1565b905062ed4e0063ffffffff8216111561146057604051637616640160e01b815260040160405180910390fd5b600062ed4e00611480670de0b6b3a7640000673782dace9d900000612cbe565b6001600160601b0316856001600160601b031661149d9190612c7d565b6114a79190612caa565b90506001600160601b038111156114d15760405163162908e360e11b815260040160405180910390fd5b600081905060006008600081546114e790612ddd565b918290555090506114f83382611b76565b60005b898110156115a05760008b8b8381811061151757611517612dab565b6020908102929092013560008181526009845260408082208151808301835281546001600160601b038116600f0b8252600160601b900463ffffffff168188015282518084019093528383529582019290925291945092915061157d9084908390611a43565b60008381526009602052604081205561159583611a5d565b5050506001016114fb565b5060006040518060400160405280886001600160601b0316600f0b81526020018763ffffffff1681525090506115f08260405180604001604052806000600f0b8152602001600081525083611a43565b604080516080810182526001600160601b03808a16825263ffffffff808a1660208085019182524283168587019081528985166060870190815260008a815260098452888120975188549551935192518816600160a01b026001600160a01b03938816600160801b02939093166001600160801b0394909716600160601b026001600160801b03199096169716969096179390931716929092171790925533808252600a90925282902080548d9003600101905590518391907f63b11d2d0f505949e8b2bfab72ea3694320f1a8cdc3c647e4faa33f78a4c1c53906116f2908b908b906001600160601b0392909216825263ffffffff16602082015260400190565b60405180910390a350505050505050506109cb6001600655565b600c546000908152600b6020908152604080832081516080810183528154600f81810b8352600160801b909104900b938101939093526001810154918301919091526002015460608201526117618184611de7565b9392505050565b611770611b90565b6011805460ff19166001179055611785611ee2565b601054604051600160601b9091046001600160a01b031681527fc0a1c7e9f05b4d536e1ff8606bae9b847cdb43ef4a9b2d7a503a88cee08dccdb906020015b60405180910390a1565b60606117d9826118ab565b5060006117f160408051602081019091526000815290565b905060008151116118115760405180602001604052806000815250611761565b8061181b84611f37565b60405160200161182c929190612df6565b6040516020818303038152906040529392505050565b6001600160a01b03918216600090815260056020908152604080832093909416825291909152205460ff1690565b611878611b90565b6001600160a01b0381166118a257604051631e4fbdf760e01b81526000600482015260240161069f565b6109ad81611bc3565b6000818152600260205260408120546001600160a01b0316806105a957604051637e27328960e01b81526004810184905260240161069f565b6109cb8383836001611fca565b6000828152600260205260408120546001600160a01b039081169083161561191e5761191e8184866120d0565b6001600160a01b0381161561195c5761193b600085600080611fca565b6001600160a01b038116600090815260036020526040902080546000190190555b6001600160a01b0385161561198b576001600160a01b0385166000908152600360205260409020805460010190555b60008481526002602052604080822080546001600160a01b0319166001600160a01b0389811691821790925591518793918516917fddf252ad1be2c89b69c2b068fc378daa952ba7f163c4a11628f55a4df523b3ef91a4949350505050565b600260065403611a3c5760405162461bcd60e51b815260206004820152601f60248201527f5265656e7472616e637947756172643a207265656e7472616e742063616c6c00604482015260640161069f565b6002600655565b611a4b612134565b5082156109cb576109cb838383612230565b6000611a6c60008360006118f1565b90506001600160a01b03811661067557604051637e27328960e01b81526004810183905260240161069f565b6040516001600160a01b038381166024830152604482018390526109cb91859182169063a9059cbb906064015b604051602081830303815290604052915060e01b6020820180516001600160e01b038381831617835250505050612397565b60075460ff16156111555760405162461bcd60e51b815260206004820152601060248201526f14185d5cd8589b194e881c185d5cd95960821b604482015260640161069f565b6040516001600160a01b0384811660248301528381166044830152606482018390526107039186918216906323b872dd90608401611ac5565b610675828260405180602001604052806000815250612408565b6007546001600160a01b036101009091041633146111555760405163118cdaa760e01b815233600482015260240161069f565b600780546001600160a01b03838116610100818102610100600160a81b031985161790945560405193909204169182907f8be0079c531659141344cd1fd0a4f28419497f9722a3daafe3b4186f6b6457e090600090a35050565b6001600160a01b038216611c4f57604051630b61174360e31b81526001600160a01b038316600482015260240161069f565b6001600160a01b03838116600081815260056020908152604080832094871680845294825291829020805460ff191686151590811790915591519182527f17307eab39ab6107e8899845ad3d59bd9653f200f220920489ca2b5937696c31910160405180910390a3505050565b6001600160a01b0383163b15611de057604051630a85bd0160e11b81526001600160a01b0384169063150b7a0290611cfe908890889087908790600401612e25565b6020604051808303816000875af1925050508015611d39575060408051601f3d908101601f19168201909252611d3691810190612e62565b60015b611da2573d808015611d67576040519150601f19603f3d011682016040523d82523d6000602084013e611d6c565b606091505b508051600003611d9a57604051633250574960e11b81526001600160a01b038516600482015260240161069f565b805181602001fd5b6001600160e01b03198116630a85bd0160e11b14611dde57604051633250574960e11b81526001600160a01b038516600482015260240161069f565b505b5050505050565b60408201516000908390829062093a8090611e03908290612caa565b611e0d9190612c7d565b905060005b60ff811015611eba57611e2862093a8083612cf9565b9150600085831115611e3c57859250611e52565b506000828152600f6020819052604090912054900b5b6040840151611e619084612d44565b8460200151611e709190612d57565b84518590611e7f908390612d7e565b600f0b905250858303611e925750611eba565b8084602001818151611ea49190612e7f565b600f0b9052505060408301829052600101611e12565b5060008260000151600f0b1215611ed057600082525b50516001600160801b03169392505050565b611eea611af7565b6007805460ff191660011790557f62e78cea01bee320cd4e420270b5ea74000d11b0c9f74754ebdbfc544b05a258611f1f3390565b6040516001600160a01b0390911681526020016117c4565b60606000611f4483612420565b600101905060008167ffffffffffffffff811115611f6457611f64612a84565b6040519080825280601f01601f191660200182016040528015611f8e576020820181803683370190505b5090508181016020015b600019016f181899199a1a9b1b9c1cb0b131b232b360811b600a86061a8153600a8504945084611f9857509392505050565b8080611fde57506001600160a01b03821615155b156120a0576000611fee846118ab565b90506001600160a01b0383161580159061201a5750826001600160a01b0316816001600160a01b031614155b801561202d575061202b8184611842565b155b156120565760405163a9fbf51f60e01b81526001600160a01b038416600482015260240161069f565b811561209e5783856001600160a01b0316826001600160a01b03167f8c5be1e5ebec7d5bd14f71427d1e84f3dd0314c0f7b2291e5b200ac8c7c3b92560405160405180910390a45b505b5050600090815260046020526040902080546001600160a01b0319166001600160a01b0392909216919091179055565b6120db8383836124f8565b6109cb576001600160a01b03831661210957604051637e27328960e01b81526004810182905260240161069f565b60405163177e802f60e01b81526001600160a01b03831660048201526024810182905260440161069f565b61213c61283c565b600c5480156121a557600b6000612154600184612d44565b8152602080820192909252604090810160002081516080810183528154600f81810b8352600160801b909104900b9381019390935260018101549183019190915260020154606082015291506121ca565b6040805160808101825260008082526020820152429181019190915243606082015291505b60408201516000428210156122165760408401516121e89042612d44565b60608501516121f79043612d44565b61220990670de0b6b3a7640000612c7d565b6122139190612caa565b90505b6122228483838661255b565b600c93909355509092915050565b61223861283c565b61224061283c565b42846020015111801561225a575060008460000151600f0b135b1561229e57835161226f9062ed4e0090612eac565b600f0b602080840191909152840151612289904290612d44565b82602001516122989190612d57565b600f0b82525b4283602001511180156122b8575060008360000151600f0b135b156122fc5782516122cd9062ed4e0090612eac565b600f0b6020808301919091528301516122e7904290612d44565b81602001516122f69190612d57565b600f0b81525b6123108484846020015184602001516126e0565b6000858152600d602052604081205461232a906001612cf9565b6000878152600d602090815260408083208490554286820190815243606088019081529a8452600e8352818420948452938252909120845194909101516001600160801b03908116600160801b029416939093178355516001830155509351600290940193909355505050565b600080602060008451602086016000885af1806123ba576040513d6000823e3d81fd5b50506000513d915081156123d25780600114156123df565b6001600160a01b0384163b155b1561070357604051635274afe760e01b81526001600160a01b038516600482015260240161069f565b61241283836127d7565b6109cb336000858585611cbc565b60008072184f03e93ff9f4daa797ed6e38ed64bf6a1f0160401b831061245f5772184f03e93ff9f4daa797ed6e38ed64bf6a1f0160401b830492506040015b6d04ee2d6d415b85acef8100000000831061248b576d04ee2d6d415b85acef8100000000830492506020015b662386f26fc1000083106124a957662386f26fc10000830492506010015b6305f5e10083106124c1576305f5e100830492506008015b61271083106124d557612710830492506004015b606483106124e7576064830492506002015b600a83106105a95760010192915050565b60006001600160a01b03831615801590610f9e5750826001600160a01b0316846001600160a01b0316148061253257506125328484611842565b80610f9e5750506000908152600460205260409020546001600160a01b03908116911614919050565b61256361283c565b84600062093a806125748188612caa565b61257e9190612c7d565b905060005b60ff8110156126d45761259962093a8083612cf9565b91506000428311156125ad574292506125c3565b506000828152600f6020819052604090912054900b5b6125cd8884612d44565b89602001516125dc9190612d57565b89518a906125eb908390612d7e565b600f0b905250602089018051829190612605908390612e7f565b600f0b9052506040808a01849052840151670de0b6b3a76400009061262a9085612d44565b6126349089612c7d565b61263e9190612caa565b846060015161264d9190612cf9565b60608a015242830361266557504360608901526126d4565b88600b6000846126768a6001612cf9565b6126809190612cf9565b815260208082019290925260409081016000208351928401516001600160801b03908116600160801b0293169290921782558201516001820155606090910151600290910155509095508590600101612583565b50959695505050505050565b428460200151111561275f576020808501516000908152600f918290526040902054900b61270e8382612e7f565b9050846020015184602001510361272c576127298282612d7e565b90505b6020858101516000908152600f9091526040902080546001600160801b0319166001600160801b03929092169190911790555b428360200151111561070357836020015183602001511115610703576020808401516000908152600f918290526040902054900b61279d8282612d7e565b6020808601516000908152600f9091526040902080546001600160801b039092166001600160801b03199092169190911790555050505050565b6001600160a01b03821661280157604051633250574960e11b81526000600482015260240161069f565b600061280f838360006118f1565b90506001600160a01b038116156109cb576040516339e3563760e11b81526000600482015260240161069f565b60405180608001604052806000600f0b81526020016000600f0b815260200160008152602001600081525090565b6001600160e01b0319811681146109ad57600080fd5b60006020828403121561289257600080fd5b81356117618161286a565b60005b838110156128b85781810151838201526020016128a0565b50506000910152565b600081518084526128d981602086016020860161289d565b601f01601f19169290920160200192915050565b60208152600061176160208301846128c1565b60006020828403121561291257600080fd5b5035919050565b80356001600160a01b038116811461293057600080fd5b919050565b6000806040838503121561294857600080fd5b61295183612919565b946020939093013593505050565b60008060006060848603121561297457600080fd5b61297d84612919565b925061298b60208501612919565b929592945050506040919091013590565b600080604083850312156129af57600080fd5b50508035926020909101359150565b80356001600160601b038116811461293057600080fd5b600080600080608085870312156129eb57600080fd5b6129f4856129be565b9350602085013563ffffffff81168114612a0d57600080fd5b925060408501359150612a22606086016129be565b905092959194509250565b600060208284031215612a3f57600080fd5b61176182612919565b60008060408385031215612a5b57600080fd5b612a6483612919565b915060208301358015158114612a7957600080fd5b809150509250929050565b634e487b7160e01b600052604160045260246000fd5b60008060008060808587031215612ab057600080fd5b612ab985612919565b9350612ac760208601612919565b925060408501359150606085013567ffffffffffffffff811115612aea57600080fd5b8501601f81018713612afb57600080fd5b803567ffffffffffffffff811115612b1557612b15612a84565b604051601f8201601f19908116603f0116810167ffffffffffffffff81118282101715612b4457612b44612a84565b604052818152828201602001891015612b5c57600080fd5b8160208401602083013760006020838301015280935050505092959194509250565b600080600060408486031215612b9357600080fd5b833567ffffffffffffffff811115612baa57600080fd5b8401601f81018613612bbb57600080fd5b803567ffffffffffffffff811115612bd257600080fd5b8660208260051b8401011115612be757600080fd5b6020918201979096509401359392505050565b60008060408385031215612c0d57600080fd5b612c1683612919565b9150612c2460208401612919565b90509250929050565b600181811c90821680612c4157607f821691505b602082108103612c6157634e487b7160e01b600052602260045260246000fd5b50919050565b634e487b7160e01b600052601160045260246000fd5b80820281158282048414176105a9576105a9612c67565b634e487b7160e01b600052601260045260246000fd5b600082612cb957612cb9612c94565b500490565b6001600160601b0382811682821603908111156105a9576105a9612c67565b63ffffffff81811683821601908111156105a9576105a9612c67565b808201808211156105a9576105a9612c67565b600060208284031215612d1e57600080fd5b5051919050565b6001600160601b0381811683821601908111156105a9576105a9612c67565b818103818111156105a9576105a9612c67565b600082600f0b82600f0b0280600f0b9150808214612d7757612d77612c67565b5092915050565b600f82810b9082900b0360016001607f1b0319811260016001607f1b03821317156105a9576105a9612c67565b634e487b7160e01b600052603260045260246000fd5b63ffffffff82811682821603908111156105a9576105a9612c67565b600060018201612def57612def612c67565b5060010190565b60008351612e0881846020880161289d565b835190830190612e1c81836020880161289d565b01949350505050565b6001600160a01b0385811682528416602082015260408101839052608060608201819052600090612e58908301846128c1565b9695505050505050565b600060208284031215612e7457600080fd5b81516117618161286a565b600f81810b9083900b0160016001607f1b03811360016001607f1b0319821217156105a9576105a9612c67565b600081600f0b83600f0b80612ec357612ec3612c94565b60016001607f1b0319821460001982141615612ee157612ee1612c67565b9005939250505056fea2646970667358221220104704ab1b7f0ce5b31cdc2c284b5f73faa8823a830cfdfa2566d104120d55e864736f6c634300081b0033",
			"opcodes": "PUSH1 0xC0 PUSH1 0x40 MSTORE CALLVALUE DUP1 ISZERO PUSH2 0x10 JUMPI PUSH1 0x0 DUP1 REVERT JUMPDEST POP PUSH1 0x40 MLOAD PUSH2 0x348C CODESIZE SUB DUP1 PUSH2 0x348C DUP4 CODECOPY DUP2 ADD PUSH1 0x40 DUP2 SWAP1 MSTORE PUSH2 0x2F SWAP2 PUSH2 0x34B JUMP JUMPDEST CALLER DUP3 DUP3 PUSH1 0x0 PUSH2 0x3E DUP4 DUP3 PUSH2 0x470 JUMP JUMPDEST POP PUSH1 0x1 PUSH2 0x4B DUP3 DUP3 PUSH2 0x470 JUMP JUMPDEST POP POP PUSH1 0x1 PUSH1 0x6 SSTORE POP PUSH1 0x7 DUP1 SLOAD PUSH1 0xFF NOT AND SWAP1 SSTORE PUSH1 0x1 PUSH1 0x1 PUSH1 0xA0 SHL SUB DUP2 AND PUSH2 0x8C JUMPI PUSH1 0x40 MLOAD PUSH4 0x1E4FBDF7 PUSH1 0xE0 SHL DUP2 MSTORE PUSH1 0x0 PUSH1 0x4 DUP3 ADD MSTORE PUSH1 0x24 ADD JUMPDEST PUSH1 0x40 MLOAD DUP1 SWAP2 SUB SWAP1 REVERT JUMPDEST PUSH2 0x95 DUP2 PUSH2 0x17A JUMP JUMPDEST POP PUSH1 0x1 PUSH1 0x1 PUSH1 0xA0 SHL SUB DUP6 AND ISZERO DUP1 PUSH2 0xB3 JUMPI POP PUSH1 0x1 PUSH1 0x1 PUSH1 0xA0 SHL SUB DUP5 AND ISZERO JUMPDEST DUP1 PUSH2 0xC5 JUMPI POP PUSH1 0x1 PUSH1 0x1 PUSH1 0xA0 SHL SUB DUP4 AND ISZERO JUMPDEST ISZERO PUSH2 0xE3 JUMPI PUSH1 0x40 MLOAD PUSH4 0xD92E233D PUSH1 0xE0 SHL DUP2 MSTORE PUSH1 0x4 ADD PUSH1 0x40 MLOAD DUP1 SWAP2 SUB SWAP1 REVERT JUMPDEST PUSH2 0xEB PUSH2 0x1D4 JUMP JUMPDEST POP POP PUSH1 0x1 PUSH1 0x1 PUSH1 0xA0 SHL SUB SWAP3 DUP4 AND PUSH1 0x80 MSTORE SWAP1 DUP3 AND PUSH1 0xA0 MSTORE PUSH1 0x10 DUP1 SLOAD SWAP2 SWAP1 SWAP3 AND PUSH13 0x1000000000000000000000000 MUL PUSH1 0x1 PUSH1 0x1 PUSH1 0x60 SHL SUB SWAP1 SWAP2 AND OR SWAP1 SSTORE PUSH1 0x0 DUP1 MSTORE PUSH1 0xB PUSH1 0x20 MSTORE NUMBER PUSH32 0xDF7DE25B7F1FD6D0B5205F0E18F1F35BD7B8D84CCE336588D184533CE43A6F78 SSTORE TIMESTAMP PUSH32 0xDF7DE25B7F1FD6D0B5205F0E18F1F35BD7B8D84CCE336588D184533CE43A6F77 SSTORE PUSH2 0x52E JUMP JUMPDEST PUSH1 0x7 DUP1 SLOAD PUSH1 0x1 PUSH1 0x1 PUSH1 0xA0 SHL SUB DUP4 DUP2 AND PUSH2 0x100 DUP2 DUP2 MUL PUSH2 0x100 PUSH1 0x1 PUSH1 0xA8 SHL SUB NOT DUP6 AND OR SWAP1 SWAP5 SSTORE PUSH1 0x40 MLOAD SWAP4 SWAP1 SWAP3 DIV AND SWAP2 DUP3 SWAP1 PUSH32 0x8BE0079C531659141344CD1FD0A4F28419497F9722A3DAAFE3B4186F6B6457E0 SWAP1 PUSH1 0x0 SWAP1 LOG3 POP POP JUMP JUMPDEST PUSH2 0x1DC PUSH2 0x22E JUMP JUMPDEST PUSH1 0x7 DUP1 SLOAD PUSH1 0xFF NOT AND PUSH1 0x1 OR SWAP1 SSTORE PUSH32 0x62E78CEA01BEE320CD4E420270B5EA74000D11B0C9F74754EBDBFC544B05A258 PUSH2 0x211 CALLER SWAP1 JUMP JUMPDEST PUSH1 0x40 MLOAD PUSH1 0x1 PUSH1 0x1 PUSH1 0xA0 SHL SUB SWAP1 SWAP2 AND DUP2 MSTORE PUSH1 0x20 ADD PUSH1 0x40 MLOAD DUP1 SWAP2 SUB SWAP1 LOG1 JUMP JUMPDEST PUSH1 0x7 SLOAD PUSH1 0xFF AND ISZERO PUSH2 0x274 JUMPI PUSH1 0x40 MLOAD PUSH3 0x461BCD PUSH1 0xE5 SHL DUP2 MSTORE PUSH1 0x20 PUSH1 0x4 DUP3 ADD MSTORE PUSH1 0x10 PUSH1 0x24 DUP3 ADD MSTORE PUSH16 0x14185D5CD8589B194E881C185D5CD959 PUSH1 0x82 SHL PUSH1 0x44 DUP3 ADD MSTORE PUSH1 0x64 ADD PUSH2 0x83 JUMP JUMPDEST JUMP JUMPDEST DUP1 MLOAD PUSH1 0x1 PUSH1 0x1 PUSH1 0xA0 SHL SUB DUP2 AND DUP2 EQ PUSH2 0x28D JUMPI PUSH1 0x0 DUP1 REVERT JUMPDEST SWAP2 SWAP1 POP JUMP JUMPDEST PUSH4 0x4E487B71 PUSH1 0xE0 SHL PUSH1 0x0 MSTORE PUSH1 0x41 PUSH1 0x4 MSTORE PUSH1 0x24 PUSH1 0x0 REVERT JUMPDEST PUSH1 0x0 DUP3 PUSH1 0x1F DUP4 ADD SLT PUSH2 0x2B9 JUMPI PUSH1 0x0 DUP1 REVERT JUMPDEST DUP2 MLOAD PUSH1 0x1 PUSH1 0x1 PUSH1 0x40 SHL SUB DUP2 GT ISZERO PUSH2 0x2D2 JUMPI PUSH2 0x2D2 PUSH2 0x292 JUMP JUMPDEST PUSH1 0x40 MLOAD PUSH1 0x1F DUP3 ADD PUSH1 0x1F NOT SWAP1 DUP2 AND PUSH1 0x3F ADD AND DUP2 ADD PUSH1 0x1 PUSH1 0x1 PUSH1 0x40 SHL SUB DUP2 GT DUP3 DUP3 LT OR ISZERO PUSH2 0x300 JUMPI PUSH2 0x300 PUSH2 0x292 JUMP JUMPDEST PUSH1 0x40 MSTORE DUP2 DUP2 MSTORE DUP4 DUP3 ADD PUSH1 0x20 ADD DUP6 LT ISZERO PUSH2 0x318 JUMPI PUSH1 0x0 DUP1 REVERT JUMPDEST PUSH1 0x0 JUMPDEST DUP3 DUP2 LT ISZERO PUSH2 0x337 JUMPI PUSH1 0x20 DUP2 DUP7 ADD DUP2 ADD MLOAD DUP4 DUP4 ADD DUP3 ADD MSTORE ADD PUSH2 0x31B JUMP JUMPDEST POP PUSH1 0x0 SWAP2 DUP2 ADD PUSH1 0x20 ADD SWAP2 SWAP1 SWAP2 MSTORE SWAP4 SWAP3 POP POP POP JUMP JUMPDEST PUSH1 0x0 DUP1 PUSH1 0x0 DUP1 PUSH1 0x0 PUSH1 0xA0 DUP7 DUP9 SUB SLT ISZERO PUSH2 0x363 JUMPI PUSH1 0x0 DUP1 REVERT JUMPDEST PUSH2 0x36C DUP7 PUSH2 0x276 JUMP JUMPDEST SWAP5 POP PUSH2 0x37A PUSH1 0x20 DUP8 ADD PUSH2 0x276 JUMP JUMPDEST SWAP4 POP PUSH2 0x388 PUSH1 0x40 DUP8 ADD PUSH2 0x276 JUMP JUMPDEST PUSH1 0x60 DUP8 ADD MLOAD SWAP1 SWAP4 POP PUSH1 0x1 PUSH1 0x1 PUSH1 0x40 SHL SUB DUP2 GT ISZERO PUSH2 0x3A4 JUMPI PUSH1 0x0 DUP1 REVERT JUMPDEST PUSH2 0x3B0 DUP9 DUP3 DUP10 ADD PUSH2 0x2A8 JUMP JUMPDEST PUSH1 0x80 DUP9 ADD MLOAD SWAP1 SWAP4 POP SWAP1 POP PUSH1 0x1 PUSH1 0x1 PUSH1 0x40 SHL SUB DUP2 GT ISZERO PUSH2 0x3CE JUMPI PUSH1 0x0 DUP1 REVERT JUMPDEST PUSH2 0x3DA DUP9 DUP3 DUP10 ADD PUSH2 0x2A8 JUMP JUMPDEST SWAP2 POP POP SWAP3 SWAP6 POP SWAP3 SWAP6 SWAP1 SWAP4 POP JUMP JUMPDEST PUSH1 0x1 DUP2 DUP2 SHR SWAP1 DUP3 AND DUP1 PUSH2 0x3FB JUMPI PUSH1 0x7F DUP3 AND SWAP2 POP JUMPDEST PUSH1 0x20 DUP3 LT DUP2 SUB PUSH2 0x41B JUMPI PUSH4 0x4E487B71 PUSH1 0xE0 SHL PUSH1 0x0 MSTORE PUSH1 0x22 PUSH1 0x4 MSTORE PUSH1 0x24 PUSH1 0x0 REVERT JUMPDEST POP SWAP2 SWAP1 POP JUMP JUMPDEST PUSH1 0x1F DUP3 GT ISZERO PUSH2 0x46B JUMPI DUP1 PUSH1 0x0 MSTORE PUSH1 0x20 PUSH1 0x0 KECCAK256 PUSH1 0x1F DUP5 ADD PUSH1 0x5 SHR DUP2 ADD PUSH1 0x20 DUP6 LT ISZERO PUSH2 0x448 JUMPI POP DUP1 JUMPDEST PUSH1 0x1F DUP5 ADD PUSH1 0x5 SHR DUP3 ADD SWAP2 POP JUMPDEST DUP2 DUP2 LT ISZERO PUSH2 0x468 JUMPI PUSH1 0x0 DUP2 SSTORE PUSH1 0x1 ADD PUSH2 0x454 JUMP JUMPDEST POP POP JUMPDEST POP POP POP JUMP JUMPDEST DUP2 MLOAD PUSH1 0x1 PUSH1 0x1 PUSH1 0x40 SHL SUB DUP2 GT ISZERO PUSH2 0x489 JUMPI PUSH2 0x489 PUSH2 0x292 JUMP JUMPDEST PUSH2 0x49D DUP2 PUSH2 0x497 DUP5 SLOAD PUSH2 0x3E7 JUMP JUMPDEST DUP5 PUSH2 0x421 JUMP JUMPDEST PUSH1 0x20 PUSH1 0x1F DUP3 GT PUSH1 0x1 DUP2 EQ PUSH2 0x4D1 JUMPI PUSH1 0x0 DUP4 ISZERO PUSH2 0x4B9 JUMPI POP DUP5 DUP3 ADD MLOAD JUMPDEST PUSH1 0x0 NOT PUSH1 0x3 DUP6 SWAP1 SHL SHR NOT AND PUSH1 0x1 DUP5 SWAP1 SHL OR DUP5 SSTORE PUSH2 0x468 JUMP JUMPDEST PUSH1 0x0 DUP5 DUP2 MSTORE PUSH1 0x20 DUP2 KECCAK256 PUSH1 0x1F NOT DUP6 AND SWAP2 JUMPDEST DUP3 DUP2 LT ISZERO PUSH2 0x501 JUMPI DUP8 DUP6 ADD MLOAD DUP3 SSTORE PUSH1 0x20 SWAP5 DUP6 ADD SWAP5 PUSH1 0x1 SWAP1 SWAP3 ADD SWAP2 ADD PUSH2 0x4E1 JUMP JUMPDEST POP DUP5 DUP3 LT ISZERO PUSH2 0x51F JUMPI DUP7 DUP5 ADD MLOAD PUSH1 0x0 NOT PUSH1 0x3 DUP8 SWAP1 SHL PUSH1 0xF8 AND SHR NOT AND DUP2 SSTORE JUMPDEST POP POP POP POP PUSH1 0x1 SWAP1 DUP2 SHL ADD SWAP1 SSTORE POP JUMP JUMPDEST PUSH1 0x80 MLOAD PUSH1 0xA0 MLOAD PUSH2 0x2F20 PUSH2 0x56C PUSH1 0x0 CODECOPY PUSH1 0x0 POP POP PUSH1 0x0 DUP2 DUP2 PUSH2 0x925 ADD MSTORE DUP2 DUP2 PUSH2 0xBE1 ADD MSTORE DUP2 DUP2 PUSH2 0xC67 ADD MSTORE DUP2 DUP2 PUSH2 0xCC7 ADD MSTORE PUSH2 0x106C ADD MSTORE PUSH2 0x2F20 PUSH1 0x0 RETURN INVALID PUSH1 0x80 PUSH1 0x40 MSTORE CALLVALUE DUP1 ISZERO PUSH2 0x10 JUMPI PUSH1 0x0 DUP1 REVERT JUMPDEST POP PUSH1 0x4 CALLDATASIZE LT PUSH2 0x1FB JUMPI PUSH1 0x0 CALLDATALOAD PUSH1 0xE0 SHR DUP1 PUSH4 0x8AD4C447 GT PUSH2 0x11A JUMPI DUP1 PUSH4 0xB88D4FDE GT PUSH2 0xAD JUMPI DUP1 PUSH4 0xC87B56DD GT PUSH2 0x7C JUMPI DUP1 PUSH4 0xC87B56DD EQ PUSH2 0x4CC JUMPI DUP1 PUSH4 0xE58F5947 EQ PUSH2 0x4DF JUMPI DUP1 PUSH4 0xE985E9C5 EQ PUSH2 0x4FF JUMPI DUP1 PUSH4 0xF2FDE38B EQ PUSH2 0x512 JUMPI DUP1 PUSH4 0xF52A36F7 EQ PUSH2 0x525 JUMPI PUSH1 0x0 DUP1 REVERT JUMPDEST DUP1 PUSH4 0xB88D4FDE EQ PUSH2 0x48B JUMPI DUP1 PUSH4 0xBBE33EA5 EQ PUSH2 0x49E JUMPI DUP1 PUSH4 0xC3D686CB EQ PUSH2 0x4B1 JUMPI DUP1 PUSH4 0xC5B1C7D0 EQ PUSH2 0x4C4 JUMPI PUSH1 0x0 DUP1 REVERT JUMPDEST DUP1 PUSH4 0x95D89B41 GT PUSH2 0xE9 JUMPI DUP1 PUSH4 0x95D89B41 EQ PUSH2 0x434 JUMPI DUP1 PUSH4 0x9B7D02AD EQ PUSH2 0x43C JUMPI DUP1 PUSH4 0xA22CB465 EQ PUSH2 0x465 JUMPI DUP1 PUSH4 0xB54373F8 EQ PUSH2 0x478 JUMPI PUSH1 0x0 DUP1 REVERT JUMPDEST DUP1 PUSH4 0x8AD4C447 EQ PUSH2 0x3C4 JUMPI DUP1 PUSH4 0x8B25E8C1 EQ PUSH2 0x402 JUMPI DUP1 PUSH4 0x8DA5CB5B EQ PUSH2 0x415 JUMPI DUP1 PUSH4 0x900CF0CF EQ PUSH2 0x42B JUMPI PUSH1 0x0 DUP1 REVERT JUMPDEST DUP1 PUSH4 0x42842E0E GT PUSH2 0x192 JUMPI DUP1 PUSH4 0x5C975ABB GT PUSH2 0x161 JUMPI DUP1 PUSH4 0x5C975ABB EQ PUSH2 0x38B JUMPI DUP1 PUSH4 0x6352211E EQ PUSH2 0x396 JUMPI DUP1 PUSH4 0x70A08231 EQ PUSH2 0x3A9 JUMPI DUP1 PUSH4 0x715018A6 EQ PUSH2 0x3BC JUMPI PUSH1 0x0 DUP1 REVERT JUMPDEST DUP1 PUSH4 0x42842E0E EQ PUSH2 0x2D3 JUMPI DUP1 PUSH4 0x44ACB42A EQ PUSH2 0x2E6 JUMPI DUP1 PUSH4 0x45154FFA EQ PUSH2 0x357 JUMPI DUP1 PUSH4 0x5312EA8E EQ PUSH2 0x378 JUMPI PUSH1 0x0 DUP1 REVERT JUMPDEST DUP1 PUSH4 0x20A194B8 GT PUSH2 0x1CE JUMPI DUP1 PUSH4 0x20A194B8 EQ PUSH2 0x27D JUMPI DUP1 PUSH4 0x23B872DD EQ PUSH2 0x288 JUMPI DUP1 PUSH4 0x268DC199 EQ PUSH2 0x29B JUMPI DUP1 PUSH4 0x2E1A7D4D EQ PUSH2 0x2C0 JUMPI PUSH1 0x0 DUP1 REVERT JUMPDEST DUP1 PUSH4 0x1FFC9A7 EQ PUSH2 0x200 JUMPI DUP1 PUSH4 0x6FDDE03 EQ PUSH2 0x228 JUMPI DUP1 PUSH4 0x81812FC EQ PUSH2 0x23D JUMPI DUP1 PUSH4 0x95EA7B3 EQ PUSH2 0x268 JUMPI JUMPDEST PUSH1 0x0 DUP1 REVERT JUMPDEST PUSH2 0x213 PUSH2 0x20E CALLDATASIZE PUSH1 0x4 PUSH2 0x2880 JUMP JUMPDEST PUSH2 0x55D JUMP JUMPDEST PUSH1 0x40 MLOAD SWAP1 ISZERO ISZERO DUP2 MSTORE PUSH1 0x20 ADD JUMPDEST PUSH1 0x40 MLOAD DUP1 SWAP2 SUB SWAP1 RETURN JUMPDEST PUSH2 0x230 PUSH2 0x5AF JUMP JUMPDEST PUSH1 0x40 MLOAD PUSH2 0x21F SWAP2 SWAP1 PUSH2 0x28ED JUMP JUMPDEST PUSH2 0x250 PUSH2 0x24B CALLDATASIZE PUSH1 0x4 PUSH2 0x2900 JUMP JUMPDEST PUSH2 0x641 JUMP JUMPDEST PUSH1 0x40 MLOAD PUSH1 0x1 PUSH1 0x1 PUSH1 0xA0 SHL SUB SWAP1 SWAP2 AND DUP2 MSTORE PUSH1 0x20 ADD PUSH2 0x21F JUMP JUMPDEST PUSH2 0x27B PUSH2 0x276 CALLDATASIZE PUSH1 0x4 PUSH2 0x2935 JUMP JUMPDEST PUSH2 0x66A JUMP JUMPDEST STOP JUMPDEST PUSH1 0x11 SLOAD PUSH1 0xFF AND PUSH2 0x213 JUMP JUMPDEST PUSH2 0x27B PUSH2 0x296 CALLDATASIZE PUSH1 0x4 PUSH2 0x295F JUMP JUMPDEST PUSH2 0x679 JUMP JUMPDEST PUSH1 0x10 SLOAD PUSH1 0x1 PUSH1 0x1 PUSH1 0x60 SHL SUB AND JUMPDEST PUSH1 0x40 MLOAD PUSH1 0x1 PUSH1 0x1 PUSH1 0x60 SHL SUB SWAP1 SWAP2 AND DUP2 MSTORE PUSH1 0x20 ADD PUSH2 0x21F JUMP JUMPDEST PUSH2 0x27B PUSH2 0x2CE CALLDATASIZE PUSH1 0x4 PUSH2 0x2900 JUMP JUMPDEST PUSH2 0x709 JUMP JUMPDEST PUSH2 0x27B PUSH2 0x2E1 CALLDATASIZE PUSH1 0x4 PUSH2 0x295F JUMP JUMPDEST PUSH2 0x9B0 JUMP JUMPDEST PUSH2 0x32F PUSH2 0x2F4 CALLDATASIZE PUSH1 0x4 PUSH2 0x299C JUMP JUMPDEST PUSH1 0xE PUSH1 0x20 SWAP1 DUP2 MSTORE PUSH1 0x0 SWAP3 DUP4 MSTORE PUSH1 0x40 DUP1 DUP5 KECCAK256 SWAP1 SWAP2 MSTORE SWAP1 DUP3 MSTORE SWAP1 KECCAK256 DUP1 SLOAD PUSH1 0x1 DUP3 ADD SLOAD PUSH1 0x2 SWAP1 SWAP3 ADD SLOAD PUSH1 0xF DUP3 DUP2 SIGNEXTEND SWAP4 PUSH1 0x1 PUSH1 0x80 SHL SWAP1 SWAP4 DIV SWAP1 SIGNEXTEND SWAP2 SWAP1 DUP5 JUMP JUMPDEST PUSH1 0x40 DUP1 MLOAD PUSH1 0xF SWAP6 DUP7 SIGNEXTEND DUP2 MSTORE SWAP4 SWAP1 SWAP5 SIGNEXTEND PUSH1 0x20 DUP5 ADD MSTORE SWAP3 DUP3 ADD MSTORE PUSH1 0x60 DUP2 ADD SWAP2 SWAP1 SWAP2 MSTORE PUSH1 0x80 ADD PUSH2 0x21F JUMP JUMPDEST PUSH2 0x36A PUSH2 0x365 CALLDATASIZE PUSH1 0x4 PUSH2 0x29D5 JUMP JUMPDEST PUSH2 0x9D0 JUMP JUMPDEST PUSH1 0x40 MLOAD SWAP1 DUP2 MSTORE PUSH1 0x20 ADD PUSH2 0x21F JUMP JUMPDEST PUSH2 0x27B PUSH2 0x386 CALLDATASIZE PUSH1 0x4 PUSH2 0x2900 JUMP JUMPDEST PUSH2 0xFA6 JUMP JUMPDEST PUSH1 0x7 SLOAD PUSH1 0xFF AND PUSH2 0x213 JUMP JUMPDEST PUSH2 0x250 PUSH2 0x3A4 CALLDATASIZE PUSH1 0x4 PUSH2 0x2900 JUMP JUMPDEST PUSH2 0x10F0 JUMP JUMPDEST PUSH2 0x36A PUSH2 0x3B7 CALLDATASIZE PUSH1 0x4 PUSH2 0x2A2D JUMP JUMPDEST PUSH2 0x10FB JUMP JUMPDEST PUSH2 0x27B PUSH2 0x1143 JUMP JUMPDEST PUSH2 0x32F PUSH2 0x3D2 CALLDATASIZE PUSH1 0x4 PUSH2 0x2900 JUMP JUMPDEST PUSH1 0xB PUSH1 0x20 MSTORE PUSH1 0x0 SWAP1 DUP2 MSTORE PUSH1 0x40 SWAP1 KECCAK256 DUP1 SLOAD PUSH1 0x1 DUP3 ADD SLOAD PUSH1 0x2 SWAP1 SWAP3 ADD SLOAD PUSH1 0xF DUP3 DUP2 SIGNEXTEND SWAP4 PUSH1 0x1 PUSH1 0x80 SHL SWAP1 SWAP4 DIV SWAP1 SIGNEXTEND SWAP2 SWAP1 DUP5 JUMP JUMPDEST PUSH2 0x2A8 PUSH2 0x410 CALLDATASIZE PUSH1 0x4 PUSH2 0x2900 JUMP JUMPDEST PUSH2 0x1157 JUMP JUMPDEST PUSH1 0x7 SLOAD PUSH2 0x100 SWAP1 DIV PUSH1 0x1 PUSH1 0x1 PUSH1 0xA0 SHL SUB AND PUSH2 0x250 JUMP JUMPDEST PUSH2 0x36A PUSH1 0xC SLOAD DUP2 JUMP JUMPDEST PUSH2 0x230 PUSH2 0x1204 JUMP JUMPDEST PUSH2 0x36A PUSH2 0x44A CALLDATASIZE PUSH1 0x4 PUSH2 0x2A2D JUMP JUMPDEST PUSH1 0x1 PUSH1 0x1 PUSH1 0xA0 SHL SUB AND PUSH1 0x0 SWAP1 DUP2 MSTORE PUSH1 0xA PUSH1 0x20 MSTORE PUSH1 0x40 SWAP1 KECCAK256 SLOAD SWAP1 JUMP JUMPDEST PUSH2 0x27B PUSH2 0x473 CALLDATASIZE PUSH1 0x4 PUSH2 0x2A48 JUMP JUMPDEST PUSH2 0x1213 JUMP JUMPDEST PUSH2 0x36A PUSH2 0x486 CALLDATASIZE PUSH1 0x4 PUSH2 0x299C JUMP JUMPDEST PUSH2 0x121E JUMP JUMPDEST PUSH2 0x27B PUSH2 0x499 CALLDATASIZE PUSH1 0x4 PUSH2 0x2A9A JUMP JUMPDEST PUSH2 0x12E4 JUMP JUMPDEST PUSH2 0x27B PUSH2 0x4AC CALLDATASIZE PUSH1 0x4 PUSH2 0x2B7E JUMP JUMPDEST PUSH2 0x12FC JUMP JUMPDEST PUSH2 0x36A PUSH2 0x4BF CALLDATASIZE PUSH1 0x4 PUSH2 0x2900 JUMP JUMPDEST PUSH2 0x170C JUMP JUMPDEST PUSH2 0x27B PUSH2 0x1768 JUMP JUMPDEST PUSH2 0x230 PUSH2 0x4DA CALLDATASIZE PUSH1 0x4 PUSH2 0x2900 JUMP JUMPDEST PUSH2 0x17CE JUMP JUMPDEST PUSH2 0x36A PUSH2 0x4ED CALLDATASIZE PUSH1 0x4 PUSH2 0x2900 JUMP JUMPDEST PUSH1 0xD PUSH1 0x20 MSTORE PUSH1 0x0 SWAP1 DUP2 MSTORE PUSH1 0x40 SWAP1 KECCAK256 SLOAD DUP2 JUMP JUMPDEST PUSH2 0x213 PUSH2 0x50D CALLDATASIZE PUSH1 0x4 PUSH2 0x2BFA JUMP JUMPDEST PUSH2 0x1842 JUMP JUMPDEST PUSH2 0x27B PUSH2 0x520 CALLDATASIZE PUSH1 0x4 PUSH2 0x2A2D JUMP JUMPDEST PUSH2 0x1870 JUMP JUMPDEST PUSH2 0x54A PUSH2 0x533 CALLDATASIZE PUSH1 0x4 PUSH2 0x2900 JUMP JUMPDEST PUSH1 0xF PUSH1 0x20 DUP2 SWAP1 MSTORE PUSH1 0x0 SWAP2 DUP3 MSTORE PUSH1 0x40 SWAP1 SWAP2 KECCAK256 SLOAD SWAP1 SIGNEXTEND DUP2 JUMP JUMPDEST PUSH1 0x40 MLOAD PUSH1 0xF SWAP2 SWAP1 SWAP2 SIGNEXTEND DUP2 MSTORE PUSH1 0x20 ADD PUSH2 0x21F JUMP JUMPDEST PUSH1 0x0 PUSH1 0x1 PUSH1 0x1 PUSH1 0xE0 SHL SUB NOT DUP3 AND PUSH4 0x80AC58CD PUSH1 0xE0 SHL EQ DUP1 PUSH2 0x58E JUMPI POP PUSH1 0x1 PUSH1 0x1 PUSH1 0xE0 SHL SUB NOT DUP3 AND PUSH4 0x5B5E139F PUSH1 0xE0 SHL EQ JUMPDEST DUP1 PUSH2 0x5A9 JUMPI POP PUSH4 0x1FFC9A7 PUSH1 0xE0 SHL PUSH1 0x1 PUSH1 0x1 PUSH1 0xE0 SHL SUB NOT DUP4 AND EQ JUMPDEST SWAP3 SWAP2 POP POP JUMP JUMPDEST PUSH1 0x60 PUSH1 0x0 DUP1 SLOAD PUSH2 0x5BE SWAP1 PUSH2 0x2C2D JUMP JUMPDEST DUP1 PUSH1 0x1F ADD PUSH1 0x20 DUP1 SWAP2 DIV MUL PUSH1 0x20 ADD PUSH1 0x40 MLOAD SWAP1 DUP2 ADD PUSH1 0x40 MSTORE DUP1 SWAP3 SWAP2 SWAP1 DUP2 DUP2 MSTORE PUSH1 0x20 ADD DUP3 DUP1 SLOAD PUSH2 0x5EA SWAP1 PUSH2 0x2C2D JUMP JUMPDEST DUP1 ISZERO PUSH2 0x637 JUMPI DUP1 PUSH1 0x1F LT PUSH2 0x60C JUMPI PUSH2 0x100 DUP1 DUP4 SLOAD DIV MUL DUP4 MSTORE SWAP2 PUSH1 0x20 ADD SWAP2 PUSH2 0x637 JUMP JUMPDEST DUP3 ADD SWAP2 SWAP1 PUSH1 0x0 MSTORE PUSH1 0x20 PUSH1 0x0 KECCAK256 SWAP1 JUMPDEST DUP2 SLOAD DUP2 MSTORE SWAP1 PUSH1 0x1 ADD SWAP1 PUSH1 0x20 ADD DUP1 DUP4 GT PUSH2 0x61A JUMPI DUP3 SWAP1 SUB PUSH1 0x1F AND DUP3 ADD SWAP2 JUMPDEST POP POP POP POP POP SWAP1 POP SWAP1 JUMP JUMPDEST PUSH1 0x0 PUSH2 0x64C DUP3 PUSH2 0x18AB JUMP JUMPDEST POP PUSH1 0x0 DUP3 DUP2 MSTORE PUSH1 0x4 PUSH1 0x20 MSTORE PUSH1 0x40 SWAP1 KECCAK256 SLOAD PUSH1 0x1 PUSH1 0x1 PUSH1 0xA0 SHL SUB AND PUSH2 0x5A9 JUMP JUMPDEST PUSH2 0x675 DUP3 DUP3 CALLER PUSH2 0x18E4 JUMP JUMPDEST POP POP JUMP JUMPDEST PUSH1 0x1 PUSH1 0x1 PUSH1 0xA0 SHL SUB DUP3 AND PUSH2 0x6A8 JUMPI PUSH1 0x40 MLOAD PUSH4 0x32505749 PUSH1 0xE1 SHL DUP2 MSTORE PUSH1 0x0 PUSH1 0x4 DUP3 ADD MSTORE PUSH1 0x24 ADD JUMPDEST PUSH1 0x40 MLOAD DUP1 SWAP2 SUB SWAP1 REVERT JUMPDEST PUSH1 0x0 PUSH2 0x6B5 DUP4 DUP4 CALLER PUSH2 0x18F1 JUMP JUMPDEST SWAP1 POP DUP4 PUSH1 0x1 PUSH1 0x1 PUSH1 0xA0 SHL SUB AND DUP2 PUSH1 0x1 PUSH1 0x1 PUSH1 0xA0 SHL SUB AND EQ PUSH2 0x703 JUMPI PUSH1 0x40 MLOAD PUSH4 0x64283D7B PUSH1 0xE0 SHL DUP2 MSTORE PUSH1 0x1 PUSH1 0x1 PUSH1 0xA0 SHL SUB DUP1 DUP7 AND PUSH1 0x4 DUP4 ADD MSTORE PUSH1 0x24 DUP3 ADD DUP5 SWAP1 MSTORE DUP3 AND PUSH1 0x44 DUP3 ADD MSTORE PUSH1 0x64 ADD PUSH2 0x69F JUMP JUMPDEST POP POP POP POP JUMP JUMPDEST PUSH2 0x711 PUSH2 0x19EA JUMP JUMPDEST PUSH1 0x0 DUP2 DUP2 MSTORE PUSH1 0x2 PUSH1 0x20 MSTORE PUSH1 0x40 SWAP1 KECCAK256 SLOAD PUSH1 0x1 PUSH1 0x1 PUSH1 0xA0 SHL SUB AND DUP1 PUSH2 0x746 JUMPI PUSH1 0x40 MLOAD PUSH3 0x6F7087 PUSH1 0xE2 SHL DUP2 MSTORE PUSH1 0x4 ADD PUSH1 0x40 MLOAD DUP1 SWAP2 SUB SWAP1 REVERT JUMPDEST PUSH1 0x1 PUSH1 0x1 PUSH1 0xA0 SHL SUB DUP2 AND CALLER EQ PUSH2 0x76F JUMPI PUSH1 0x40 MLOAD PUSH4 0x59DC379F PUSH1 0xE0 SHL DUP2 MSTORE PUSH1 0x4 ADD PUSH1 0x40 MLOAD DUP1 SWAP2 SUB SWAP1 REVERT JUMPDEST PUSH1 0x0 DUP3 DUP2 MSTORE PUSH1 0x9 PUSH1 0x20 SWAP1 DUP2 MSTORE PUSH1 0x40 DUP1 DUP4 KECCAK256 DUP2 MLOAD PUSH1 0x80 DUP2 ADD DUP4 MSTORE SWAP1 SLOAD PUSH1 0x1 PUSH1 0x1 PUSH1 0x60 SHL SUB DUP1 DUP3 AND DUP1 DUP5 MSTORE PUSH4 0xFFFFFFFF PUSH1 0x1 PUSH1 0x60 SHL DUP5 DIV DUP2 AND SWAP7 DUP6 ADD SWAP7 SWAP1 SWAP7 MSTORE PUSH1 0x1 PUSH1 0x80 SHL DUP4 DIV SWAP1 SWAP6 AND SWAP4 DUP4 ADD SWAP4 SWAP1 SWAP4 MSTORE PUSH1 0x1 PUSH1 0xA0 SHL SWAP1 DIV SWAP1 SWAP2 AND PUSH1 0x60 DUP3 ADD MSTORE SWAP2 SUB PUSH2 0x7EC JUMPI PUSH1 0x40 MLOAD PUSH4 0x2254EA3D PUSH1 0xE1 SHL DUP2 MSTORE PUSH1 0x4 ADD PUSH1 0x40 MLOAD DUP1 SWAP2 SUB SWAP1 REVERT JUMPDEST DUP1 PUSH1 0x20 ADD MLOAD PUSH4 0xFFFFFFFF AND TIMESTAMP LT ISZERO PUSH2 0x817 JUMPI PUSH1 0x40 MLOAD PUSH4 0x342AD401 PUSH1 0xE1 SHL DUP2 MSTORE PUSH1 0x4 ADD PUSH1 0x40 MLOAD DUP1 SWAP2 SUB SWAP1 REVERT JUMPDEST DUP1 MLOAD PUSH1 0x40 DUP1 MLOAD DUP1 DUP3 ADD DUP3 MSTORE PUSH1 0x1 PUSH1 0x1 PUSH1 0x60 SHL SUB DUP4 AND PUSH1 0xF SIGNEXTEND DUP2 MSTORE PUSH1 0x20 DUP1 DUP6 ADD MLOAD PUSH4 0xFFFFFFFF AND DUP2 DUP4 ADD MSTORE PUSH1 0x0 DUP8 DUP2 MSTORE PUSH1 0x9 SWAP1 SWAP2 MSTORE SWAP2 DUP3 KECCAK256 DUP3 SWAP1 SSTORE SWAP1 PUSH2 0x85B DUP7 PUSH2 0x1157 JUMP JUMPDEST SWAP1 POP PUSH1 0x0 PUSH8 0xDE0B6B3A7640000 PUSH2 0x87E PUSH1 0x1 PUSH1 0x1 PUSH1 0x60 SHL SUB DUP1 DUP6 AND SWAP1 DUP8 AND PUSH2 0x2C7D JUMP JUMPDEST PUSH2 0x888 SWAP2 SWAP1 PUSH2 0x2CAA JUMP JUMPDEST PUSH1 0x10 DUP1 SLOAD SWAP2 SWAP3 POP DUP3 SWAP2 PUSH1 0x0 SWAP1 PUSH2 0x8A8 SWAP1 DUP5 SWAP1 PUSH1 0x1 PUSH1 0x1 PUSH1 0x60 SHL SUB AND PUSH2 0x2CBE JUMP JUMPDEST SWAP3 POP PUSH2 0x100 EXP DUP2 SLOAD DUP2 PUSH1 0x1 PUSH1 0x1 PUSH1 0x60 SHL SUB MUL NOT AND SWAP1 DUP4 PUSH1 0x1 PUSH1 0x1 PUSH1 0x60 SHL SUB AND MUL OR SWAP1 SSTORE POP PUSH2 0x8F0 DUP8 DUP5 PUSH1 0x40 MLOAD DUP1 PUSH1 0x40 ADD PUSH1 0x40 MSTORE DUP1 PUSH1 0x0 PUSH1 0xF SIGNEXTEND DUP2 MSTORE PUSH1 0x20 ADD PUSH1 0x0 DUP2 MSTORE POP PUSH2 0x1A43 JUMP JUMPDEST PUSH1 0x0 DUP8 DUP2 MSTORE PUSH1 0xD PUSH1 0x20 MSTORE PUSH1 0x40 DUP2 KECCAK256 SSTORE PUSH2 0x908 DUP8 PUSH2 0x1A5D JUMP JUMPDEST CALLER PUSH1 0x0 DUP2 DUP2 MSTORE PUSH1 0xA PUSH1 0x20 MSTORE PUSH1 0x40 SWAP1 KECCAK256 DUP1 SLOAD PUSH1 0x0 NOT ADD SWAP1 SSTORE PUSH2 0x95D SWAP1 PUSH32 0x0 PUSH1 0x1 PUSH1 0x1 PUSH1 0xA0 SHL SUB AND SWAP1 PUSH1 0x1 PUSH1 0x1 PUSH1 0x60 SHL SUB DUP8 AND PUSH2 0x1A98 JUMP JUMPDEST PUSH1 0x40 MLOAD PUSH1 0x1 PUSH1 0x1 PUSH1 0x60 SHL SUB DUP6 AND DUP2 MSTORE DUP8 SWAP1 CALLER SWAP1 PUSH32 0x3FDAA3FAECB5C69EC12E404183E885A2BCAB0970BEFA4016E0351B20ADCDECCB SWAP1 PUSH1 0x20 ADD PUSH1 0x40 MLOAD DUP1 SWAP2 SUB SWAP1 LOG3 POP POP POP POP POP POP PUSH2 0x9AD PUSH1 0x1 PUSH1 0x6 SSTORE JUMP JUMPDEST POP JUMP JUMPDEST PUSH2 0x9CB DUP4 DUP4 DUP4 PUSH1 0x40 MLOAD DUP1 PUSH1 0x20 ADD PUSH1 0x40 MSTORE DUP1 PUSH1 0x0 DUP2 MSTORE POP PUSH2 0x12E4 JUMP JUMPDEST POP POP POP JUMP JUMPDEST PUSH1 0x0 PUSH2 0x9DA PUSH2 0x19EA JUMP JUMPDEST PUSH2 0x9E2 PUSH2 0x1AF7 JUMP JUMPDEST DUP3 DUP1 TIMESTAMP GT ISZERO PUSH2 0xA04 JUMPI PUSH1 0x40 MLOAD PUSH4 0x1AB7DA6B PUSH1 0xE0 SHL DUP2 MSTORE PUSH1 0x4 ADD PUSH1 0x40 MLOAD DUP1 SWAP2 SUB SWAP1 REVERT JUMPDEST DUP6 PUSH1 0x1 PUSH1 0x1 PUSH1 0x60 SHL SUB AND PUSH1 0x0 SUB PUSH2 0xA2E JUMPI PUSH1 0x40 MLOAD PUSH4 0x162908E3 PUSH1 0xE1 SHL DUP2 MSTORE PUSH1 0x4 ADD PUSH1 0x40 MLOAD DUP1 SWAP2 SUB SWAP1 REVERT JUMPDEST PUSH4 0xFFFFFFFF DUP6 AND ISZERO DUP1 PUSH2 0xA49 JUMPI POP PUSH3 0xED4E00 PUSH4 0xFFFFFFFF DUP7 AND GT JUMPDEST ISZERO PUSH2 0xA67 JUMPI PUSH1 0x40 MLOAD PUSH4 0x76166401 PUSH1 0xE0 SHL DUP2 MSTORE PUSH1 0x4 ADD PUSH1 0x40 MLOAD DUP1 SWAP2 SUB SWAP1 REVERT JUMPDEST CALLER PUSH1 0x0 SWAP1 DUP2 MSTORE PUSH1 0xA PUSH1 0x20 MSTORE PUSH1 0x40 SWAP1 KECCAK256 SLOAD PUSH1 0x64 GT PUSH2 0xA97 JUMPI PUSH1 0x40 MLOAD PUSH4 0x133CBC4F PUSH1 0xE0 SHL DUP2 MSTORE PUSH1 0x4 ADD PUSH1 0x40 MLOAD DUP1 SWAP2 SUB SWAP1 REVERT JUMPDEST PUSH1 0x0 PUSH2 0xAA3 DUP7 TIMESTAMP PUSH2 0x2CDD JUMP JUMPDEST SWAP1 POP PUSH1 0x0 PUSH3 0xED4E00 PUSH2 0xAC5 PUSH8 0xDE0B6B3A7640000 PUSH8 0x3782DACE9D900000 PUSH2 0x2CBE JUMP JUMPDEST PUSH1 0x1 PUSH1 0x1 PUSH1 0x60 SHL SUB AND DUP10 PUSH1 0x1 PUSH1 0x1 PUSH1 0x60 SHL SUB AND PUSH2 0xAE2 SWAP2 SWAP1 PUSH2 0x2C7D JUMP JUMPDEST PUSH2 0xAEC SWAP2 SWAP1 PUSH2 0x2CAA JUMP JUMPDEST SWAP1 POP PUSH1 0x1 PUSH1 0x1 PUSH1 0x60 SHL SUB DUP2 GT ISZERO PUSH2 0xB16 JUMPI PUSH1 0x40 MLOAD PUSH4 0x162908E3 PUSH1 0xE1 SHL DUP2 MSTORE PUSH1 0x4 ADD PUSH1 0x40 MLOAD DUP1 SWAP2 SUB SWAP1 REVERT JUMPDEST DUP1 PUSH1 0x0 PUSH2 0xB32 PUSH4 0xFFFFFFFF DUP11 AND PUSH1 0x1 PUSH1 0x1 PUSH1 0x60 SHL SUB DUP5 AND PUSH2 0x2C7D JUMP JUMPDEST PUSH2 0xB44 SWAP1 PUSH8 0xDE0B6B3A7640000 PUSH2 0x2CF9 JUMP JUMPDEST SWAP1 POP DUP7 PUSH1 0x1 PUSH1 0x1 PUSH1 0x60 SHL SUB AND DUP2 PUSH1 0x1 PUSH1 0x1 PUSH1 0x60 SHL SUB AND LT ISZERO PUSH2 0xB79 JUMPI PUSH1 0x40 MLOAD PUSH4 0x8199F5F3 PUSH1 0xE0 SHL DUP2 MSTORE PUSH1 0x4 ADD PUSH1 0x40 MLOAD DUP1 SWAP2 SUB SWAP1 REVERT JUMPDEST PUSH1 0x0 PUSH1 0x40 MLOAD DUP1 PUSH1 0x40 ADD PUSH1 0x40 MSTORE DUP1 DUP13 PUSH1 0x1 PUSH1 0x1 PUSH1 0x60 SHL SUB AND PUSH1 0xF SIGNEXTEND DUP2 MSTORE PUSH1 0x20 ADD DUP7 PUSH4 0xFFFFFFFF AND DUP2 MSTORE POP SWAP1 POP PUSH2 0xBC9 PUSH1 0x0 PUSH1 0x40 MLOAD DUP1 PUSH1 0x40 ADD PUSH1 0x40 MSTORE DUP1 PUSH1 0x0 PUSH1 0xF SIGNEXTEND DUP2 MSTORE PUSH1 0x20 ADD PUSH1 0x0 DUP2 MSTORE POP DUP4 PUSH2 0x1A43 JUMP JUMPDEST PUSH1 0x40 MLOAD PUSH4 0x70A08231 PUSH1 0xE0 SHL DUP2 MSTORE ADDRESS PUSH1 0x4 DUP3 ADD MSTORE PUSH1 0x0 SWAP1 PUSH32 0x0 PUSH1 0x1 PUSH1 0x1 PUSH1 0xA0 SHL SUB AND SWAP1 PUSH4 0x70A08231 SWAP1 PUSH1 0x24 ADD PUSH1 0x20 PUSH1 0x40 MLOAD DUP1 DUP4 SUB DUP2 DUP7 GAS STATICCALL ISZERO DUP1 ISZERO PUSH2 0xC30 JUMPI RETURNDATASIZE PUSH1 0x0 DUP1 RETURNDATACOPY RETURNDATASIZE PUSH1 0x0 REVERT JUMPDEST POP POP POP POP PUSH1 0x40 MLOAD RETURNDATASIZE PUSH1 0x1F NOT PUSH1 0x1F DUP3 ADD AND DUP3 ADD DUP1 PUSH1 0x40 MSTORE POP DUP2 ADD SWAP1 PUSH2 0xC54 SWAP2 SWAP1 PUSH2 0x2D0C JUMP JUMPDEST SWAP1 POP PUSH2 0xC9F CALLER ADDRESS DUP15 PUSH1 0x1 PUSH1 0x1 PUSH1 0x60 SHL SUB AND PUSH32 0x0 PUSH1 0x1 PUSH1 0x1 PUSH1 0xA0 SHL SUB AND PUSH2 0x1B3D SWAP1 SWAP4 SWAP3 SWAP2 SWAP1 PUSH4 0xFFFFFFFF AND JUMP JUMPDEST PUSH2 0xCB2 PUSH1 0x1 PUSH1 0x1 PUSH1 0x60 SHL SUB DUP14 AND DUP3 PUSH2 0x2CF9 JUMP JUMPDEST PUSH1 0x40 MLOAD PUSH4 0x70A08231 PUSH1 0xE0 SHL DUP2 MSTORE ADDRESS PUSH1 0x4 DUP3 ADD MSTORE PUSH32 0x0 PUSH1 0x1 PUSH1 0x1 PUSH1 0xA0 SHL SUB AND SWAP1 PUSH4 0x70A08231 SWAP1 PUSH1 0x24 ADD PUSH1 0x20 PUSH1 0x40 MLOAD DUP1 DUP4 SUB DUP2 DUP7 GAS STATICCALL ISZERO DUP1 ISZERO PUSH2 0xD16 JUMPI RETURNDATASIZE PUSH1 0x0 DUP1 RETURNDATACOPY RETURNDATASIZE PUSH1 0x0 REVERT JUMPDEST POP POP POP POP PUSH1 0x40 MLOAD RETURNDATASIZE PUSH1 0x1F NOT PUSH1 0x1F DUP3 ADD AND DUP3 ADD DUP1 PUSH1 0x40 MSTORE POP DUP2 ADD SWAP1 PUSH2 0xD3A SWAP2 SWAP1 PUSH2 0x2D0C JUMP JUMPDEST EQ PUSH2 0xD58 JUMPI PUSH1 0x40 MLOAD PUSH4 0x12171D83 PUSH1 0xE3 SHL DUP2 MSTORE PUSH1 0x4 ADD PUSH1 0x40 MLOAD DUP1 SWAP2 SUB SWAP1 REVERT JUMPDEST PUSH1 0x8 DUP1 SLOAD PUSH1 0x1 SWAP1 DUP2 ADD SWAP2 DUP3 SWAP1 SSTORE CALLER PUSH1 0x0 DUP2 DUP2 MSTORE PUSH1 0xA PUSH1 0x20 MSTORE PUSH1 0x40 SWAP1 KECCAK256 DUP1 SLOAD SWAP1 SWAP3 ADD SWAP1 SWAP2 SSTORE SWAP1 SWAP9 POP PUSH2 0xD89 SWAP1 DUP10 PUSH2 0x1B76 JUMP JUMPDEST PUSH1 0x40 MLOAD DUP1 PUSH1 0x80 ADD PUSH1 0x40 MSTORE DUP1 DUP14 PUSH1 0x1 PUSH1 0x1 PUSH1 0x60 SHL SUB AND DUP2 MSTORE PUSH1 0x20 ADD DUP8 PUSH4 0xFFFFFFFF AND DUP2 MSTORE PUSH1 0x20 ADD TIMESTAMP PUSH4 0xFFFFFFFF AND DUP2 MSTORE PUSH1 0x20 ADD DUP6 PUSH1 0x1 PUSH1 0x1 PUSH1 0x60 SHL SUB AND DUP2 MSTORE POP PUSH1 0x9 PUSH1 0x0 DUP11 DUP2 MSTORE PUSH1 0x20 ADD SWAP1 DUP2 MSTORE PUSH1 0x20 ADD PUSH1 0x0 KECCAK256 PUSH1 0x0 DUP3 ADD MLOAD DUP2 PUSH1 0x0 ADD PUSH1 0x0 PUSH2 0x100 EXP DUP2 SLOAD DUP2 PUSH1 0x1 PUSH1 0x1 PUSH1 0x60 SHL SUB MUL NOT AND SWAP1 DUP4 PUSH1 0x1 PUSH1 0x1 PUSH1 0x60 SHL SUB AND MUL OR SWAP1 SSTORE POP PUSH1 0x20 DUP3 ADD MLOAD DUP2 PUSH1 0x0 ADD PUSH1 0xC PUSH2 0x100 EXP DUP2 SLOAD DUP2 PUSH4 0xFFFFFFFF MUL NOT AND SWAP1 DUP4 PUSH4 0xFFFFFFFF AND MUL OR SWAP1 SSTORE POP PUSH1 0x40 DUP3 ADD MLOAD DUP2 PUSH1 0x0 ADD PUSH1 0x10 PUSH2 0x100 EXP DUP2 SLOAD DUP2 PUSH4 0xFFFFFFFF MUL NOT AND SWAP1 DUP4 PUSH4 0xFFFFFFFF AND MUL OR SWAP1 SSTORE POP PUSH1 0x60 DUP3 ADD MLOAD DUP2 PUSH1 0x0 ADD PUSH1 0x14 PUSH2 0x100 EXP DUP2 SLOAD DUP2 PUSH1 0x1 PUSH1 0x1 PUSH1 0x60 SHL SUB MUL NOT AND SWAP1 DUP4 PUSH1 0x1 PUSH1 0x1 PUSH1 0x60 SHL SUB AND MUL OR SWAP1 SSTORE POP SWAP1 POP POP PUSH1 0x0 PUSH8 0xDE0B6B3A7640000 PUSH1 0x1 PUSH1 0x1 PUSH1 0x60 SHL SUB AND DUP5 PUSH1 0x1 PUSH1 0x1 PUSH1 0x60 SHL SUB AND DUP15 PUSH1 0x1 PUSH1 0x1 PUSH1 0x60 SHL SUB AND PUSH2 0xEB8 SWAP2 SWAP1 PUSH2 0x2C7D JUMP JUMPDEST PUSH2 0xEC2 SWAP2 SWAP1 PUSH2 0x2CAA JUMP JUMPDEST SWAP1 POP PUSH1 0x1 PUSH1 0x1 PUSH1 0x60 SHL SUB DUP2 GT ISZERO PUSH2 0xEEC JUMPI PUSH1 0x40 MLOAD PUSH4 0x162908E3 PUSH1 0xE1 SHL DUP2 MSTORE PUSH1 0x4 ADD PUSH1 0x40 MLOAD DUP1 SWAP2 SUB SWAP1 REVERT JUMPDEST PUSH1 0x10 DUP1 SLOAD DUP3 SWAP2 SWAP1 PUSH1 0x0 SWAP1 PUSH2 0xF0A SWAP1 DUP5 SWAP1 PUSH1 0x1 PUSH1 0x1 PUSH1 0x60 SHL SUB AND PUSH2 0x2D25 JUMP JUMPDEST SWAP3 POP PUSH2 0x100 EXP DUP2 SLOAD DUP2 PUSH1 0x1 PUSH1 0x1 PUSH1 0x60 SHL SUB MUL NOT AND SWAP1 DUP4 PUSH1 0x1 PUSH1 0x1 PUSH1 0x60 SHL SUB AND MUL OR SWAP1 SSTORE POP DUP9 CALLER PUSH1 0x1 PUSH1 0x1 PUSH1 0xA0 SHL SUB AND PUSH32 0x63B11D2D0F505949E8B2BFAB72EA3694320F1A8CDC3C647E4FAA33F78A4C1C53 DUP16 DUP11 PUSH1 0x40 MLOAD PUSH2 0xF84 SWAP3 SWAP2 SWAP1 PUSH1 0x1 PUSH1 0x1 PUSH1 0x60 SHL SUB SWAP3 SWAP1 SWAP3 AND DUP3 MSTORE PUSH4 0xFFFFFFFF AND PUSH1 0x20 DUP3 ADD MSTORE PUSH1 0x40 ADD SWAP1 JUMP JUMPDEST PUSH1 0x40 MLOAD DUP1 SWAP2 SUB SWAP1 LOG3 POP POP POP POP POP POP POP POP PUSH2 0xF9E PUSH1 0x1 PUSH1 0x6 SSTORE JUMP JUMPDEST SWAP5 SWAP4 POP POP POP POP JUMP JUMPDEST PUSH2 0xFAE PUSH2 0x19EA JUMP JUMPDEST PUSH1 0x11 SLOAD PUSH1 0xFF AND PUSH2 0xFF8 JUMPI PUSH1 0x40 MLOAD PUSH3 0x461BCD PUSH1 0xE5 SHL DUP2 MSTORE PUSH1 0x20 PUSH1 0x4 DUP3 ADD MSTORE PUSH1 0x15 PUSH1 0x24 DUP3 ADD MSTORE PUSH21 0x4E6F7420696E20656D657267656E6379206D6F6465 PUSH1 0x58 SHL PUSH1 0x44 DUP3 ADD MSTORE PUSH1 0x64 ADD PUSH2 0x69F JUMP JUMPDEST CALLER PUSH2 0x1002 DUP3 PUSH2 0x10F0 JUMP JUMPDEST PUSH1 0x1 PUSH1 0x1 PUSH1 0xA0 SHL SUB AND EQ PUSH2 0x1029 JUMPI PUSH1 0x40 MLOAD PUSH4 0x59DC379F PUSH1 0xE0 SHL DUP2 MSTORE PUSH1 0x4 ADD PUSH1 0x40 MLOAD DUP1 SWAP2 SUB SWAP1 REVERT JUMPDEST PUSH1 0x0 DUP2 DUP2 MSTORE PUSH1 0x9 PUSH1 0x20 MSTORE PUSH1 0x40 DUP2 KECCAK256 DUP1 SLOAD SWAP2 DUP2 SSTORE SWAP1 PUSH1 0x1 PUSH1 0x1 PUSH1 0x60 SHL SUB AND PUSH2 0x104F DUP4 PUSH2 0x1A5D JUMP JUMPDEST CALLER PUSH1 0x0 DUP2 DUP2 MSTORE PUSH1 0xA PUSH1 0x20 MSTORE PUSH1 0x40 SWAP1 KECCAK256 DUP1 SLOAD PUSH1 0x0 NOT ADD SWAP1 SSTORE PUSH2 0x10A4 SWAP1 PUSH32 0x0 PUSH1 0x1 PUSH1 0x1 PUSH1 0xA0 SHL SUB AND SWAP1 PUSH1 0x1 PUSH1 0x1 PUSH1 0x60 SHL SUB DUP5 AND PUSH2 0x1A98 JUMP JUMPDEST PUSH1 0x40 MLOAD PUSH1 0x1 PUSH1 0x1 PUSH1 0x60 SHL SUB DUP3 AND DUP2 MSTORE DUP4 SWAP1 CALLER SWAP1 PUSH32 0x2AEE7F4BF5426B3F27C0F0B56CC84AC995B27A53CE05063152830B27DA5F8957 SWAP1 PUSH1 0x20 ADD PUSH1 0x40 MLOAD DUP1 SWAP2 SUB SWAP1 LOG3 POP POP PUSH2 0x9AD PUSH1 0x1 PUSH1 0x6 SSTORE JUMP JUMPDEST PUSH1 0x0 PUSH2 0x5A9 DUP3 PUSH2 0x18AB JUMP JUMPDEST PUSH1 0x0 PUSH1 0x1 PUSH1 0x1 PUSH1 0xA0 SHL SUB DUP3 AND PUSH2 0x1127 JUMPI PUSH1 0x40 MLOAD PUSH4 0x22718AD9 PUSH1 0xE2 SHL DUP2 MSTORE PUSH1 0x0 PUSH1 0x4 DUP3 ADD MSTORE PUSH1 0x24 ADD PUSH2 0x69F JUMP JUMPDEST POP PUSH1 0x1 PUSH1 0x1 PUSH1 0xA0 SHL SUB AND PUSH1 0x0 SWAP1 DUP2 MSTORE PUSH1 0x3 PUSH1 0x20 MSTORE PUSH1 0x40 SWAP1 KECCAK256 SLOAD SWAP1 JUMP JUMPDEST PUSH2 0x114B PUSH2 0x1B90 JUMP JUMPDEST PUSH2 0x1155 PUSH1 0x0 PUSH2 0x1BC3 JUMP JUMPDEST JUMP JUMPDEST PUSH1 0x0 DUP2 DUP2 MSTORE PUSH1 0x9 PUSH1 0x20 SWAP1 DUP2 MSTORE PUSH1 0x40 DUP1 DUP4 KECCAK256 DUP2 MLOAD PUSH1 0x80 DUP2 ADD DUP4 MSTORE SWAP1 SLOAD PUSH1 0x1 PUSH1 0x1 PUSH1 0x60 SHL SUB DUP1 DUP3 AND DUP4 MSTORE PUSH4 0xFFFFFFFF PUSH1 0x1 PUSH1 0x60 SHL DUP4 DIV DUP2 AND SWAP6 DUP5 ADD DUP7 SWAP1 MSTORE PUSH1 0x1 PUSH1 0x80 SHL DUP4 DIV AND SWAP4 DUP4 ADD SWAP4 SWAP1 SWAP4 MSTORE PUSH1 0x1 PUSH1 0xA0 SHL SWAP1 DIV SWAP1 SWAP2 AND PUSH1 0x60 DUP3 ADD MSTORE SWAP1 TIMESTAMP LT PUSH2 0x11C8 JUMPI POP PUSH8 0xDE0B6B3A7640000 SWAP3 SWAP2 POP POP JUMP JUMPDEST PUSH1 0x0 TIMESTAMP DUP3 PUSH1 0x20 ADD MLOAD PUSH4 0xFFFFFFFF AND SUB SWAP1 POP DUP1 DUP3 PUSH1 0x60 ADD MLOAD PUSH1 0x1 PUSH1 0x1 PUSH1 0x60 SHL SUB AND PUSH2 0x11F2 SWAP2 SWAP1 PUSH2 0x2C7D JUMP JUMPDEST PUSH2 0xF9E SWAP1 PUSH8 0xDE0B6B3A7640000 PUSH2 0x2CF9 JUMP JUMPDEST PUSH1 0x60 PUSH1 0x1 DUP1 SLOAD PUSH2 0x5BE SWAP1 PUSH2 0x2C2D JUMP JUMPDEST PUSH2 0x675 CALLER DUP4 DUP4 PUSH2 0x1C1D JUMP JUMPDEST PUSH1 0x0 DUP3 DUP2 MSTORE PUSH1 0xD PUSH1 0x20 MSTORE PUSH1 0x40 DUP2 KECCAK256 SLOAD DUP1 DUP3 SUB PUSH2 0x123E JUMPI PUSH1 0x0 SWAP2 POP POP PUSH2 0x5A9 JUMP JUMPDEST PUSH1 0x0 DUP5 DUP2 MSTORE PUSH1 0xE PUSH1 0x20 SWAP1 DUP2 MSTORE PUSH1 0x40 DUP1 DUP4 KECCAK256 DUP5 DUP5 MSTORE DUP3 MSTORE SWAP2 DUP3 SWAP1 KECCAK256 DUP3 MLOAD PUSH1 0x80 DUP2 ADD DUP5 MSTORE DUP2 SLOAD PUSH1 0xF DUP2 DUP2 SIGNEXTEND DUP4 MSTORE PUSH1 0x1 PUSH1 0x80 SHL SWAP1 SWAP2 DIV SWAP1 SIGNEXTEND SWAP3 DUP2 ADD SWAP3 SWAP1 SWAP3 MSTORE PUSH1 0x1 DUP2 ADD SLOAD SWAP3 DUP3 ADD DUP4 SWAP1 MSTORE PUSH1 0x2 ADD SLOAD PUSH1 0x60 DUP3 ADD MSTORE SWAP1 PUSH2 0x1299 SWAP1 DUP6 PUSH2 0x2D44 JUMP JUMPDEST DUP2 PUSH1 0x20 ADD MLOAD PUSH2 0x12A8 SWAP2 SWAP1 PUSH2 0x2D57 JUMP JUMPDEST DUP2 MLOAD DUP3 SWAP1 PUSH2 0x12B7 SWAP1 DUP4 SWAP1 PUSH2 0x2D7E JUMP JUMPDEST PUSH1 0xF SWAP1 DUP2 SIGNEXTEND SWAP1 SWAP2 MSTORE DUP3 MLOAD PUSH1 0x0 SWAP2 SIGNEXTEND SLT ISZERO SWAP1 POP PUSH2 0x12D2 JUMPI PUSH1 0x0 DUP2 MSTORE JUMPDEST MLOAD PUSH1 0x1 PUSH1 0x1 PUSH1 0x80 SHL SUB AND SWAP5 SWAP4 POP POP POP POP JUMP JUMPDEST PUSH2 0x12EF DUP5 DUP5 DUP5 PUSH2 0x679 JUMP JUMPDEST PUSH2 0x703 CALLER DUP6 DUP6 DUP6 DUP6 PUSH2 0x1CBC JUMP JUMPDEST PUSH2 0x1304 PUSH2 0x19EA JUMP JUMPDEST PUSH2 0x130C PUSH2 0x1AF7 JUMP JUMPDEST DUP1 DUP1 TIMESTAMP GT ISZERO PUSH2 0x132E JUMPI PUSH1 0x40 MLOAD PUSH4 0x1AB7DA6B PUSH1 0xE0 SHL DUP2 MSTORE PUSH1 0x4 ADD PUSH1 0x40 MLOAD DUP1 SWAP2 SUB SWAP1 REVERT JUMPDEST PUSH1 0x2 DUP4 LT ISZERO PUSH2 0x1350 JUMPI PUSH1 0x40 MLOAD PUSH4 0x162908E3 PUSH1 0xE1 SHL DUP2 MSTORE PUSH1 0x4 ADD PUSH1 0x40 MLOAD DUP1 SWAP2 SUB SWAP1 REVERT JUMPDEST PUSH1 0x0 DUP1 PUSH1 0x0 JUMPDEST DUP6 DUP2 LT ISZERO PUSH2 0x1427 JUMPI CALLER PUSH2 0x1380 DUP9 DUP9 DUP5 DUP2 DUP2 LT PUSH2 0x1374 JUMPI PUSH2 0x1374 PUSH2 0x2DAB JUMP JUMPDEST SWAP1 POP PUSH1 0x20 MUL ADD CALLDATALOAD PUSH2 0x10F0 JUMP JUMPDEST PUSH1 0x1 PUSH1 0x1 PUSH1 0xA0 SHL SUB AND EQ PUSH2 0x13A7 JUMPI PUSH1 0x40 MLOAD PUSH4 0x59DC379F PUSH1 0xE0 SHL DUP2 MSTORE PUSH1 0x4 ADD PUSH1 0x40 MLOAD DUP1 SWAP2 SUB SWAP1 REVERT JUMPDEST PUSH1 0x0 PUSH1 0x9 PUSH1 0x0 DUP10 DUP10 DUP6 DUP2 DUP2 LT PUSH2 0x13BF JUMPI PUSH2 0x13BF PUSH2 0x2DAB JUMP JUMPDEST PUSH1 0x20 SWAP1 DUP2 MUL SWAP3 SWAP1 SWAP3 ADD CALLDATALOAD DUP4 MSTORE POP DUP2 ADD SWAP2 SWAP1 SWAP2 MSTORE PUSH1 0x40 ADD PUSH1 0x0 KECCAK256 DUP1 SLOAD SWAP1 SWAP2 POP PUSH2 0x13F0 SWAP1 PUSH1 0x1 PUSH1 0x1 PUSH1 0x60 SHL SUB AND DUP6 PUSH2 0x2D25 JUMP JUMPDEST DUP2 SLOAD SWAP1 SWAP5 POP PUSH4 0xFFFFFFFF DUP1 DUP6 AND PUSH1 0x1 PUSH1 0x60 SHL SWAP1 SWAP3 DIV AND GT ISZERO PUSH2 0x141E JUMPI DUP1 SLOAD PUSH1 0x1 PUSH1 0x60 SHL SWAP1 DIV PUSH4 0xFFFFFFFF AND SWAP3 POP JUMPDEST POP PUSH1 0x1 ADD PUSH2 0x1356 JUMP JUMPDEST POP PUSH1 0x0 PUSH2 0x1434 TIMESTAMP DUP4 PUSH2 0x2DC1 JUMP JUMPDEST SWAP1 POP PUSH3 0xED4E00 PUSH4 0xFFFFFFFF DUP3 AND GT ISZERO PUSH2 0x1460 JUMPI PUSH1 0x40 MLOAD PUSH4 0x76166401 PUSH1 0xE0 SHL DUP2 MSTORE PUSH1 0x4 ADD PUSH1 0x40 MLOAD DUP1 SWAP2 SUB SWAP1 REVERT JUMPDEST PUSH1 0x0 PUSH3 0xED4E00 PUSH2 0x1480 PUSH8 0xDE0B6B3A7640000 PUSH8 0x3782DACE9D900000 PUSH2 0x2CBE JUMP JUMPDEST PUSH1 0x1 PUSH1 0x1 PUSH1 0x60 SHL SUB AND DUP6 PUSH1 0x1 PUSH1 0x1 PUSH1 0x60 SHL SUB AND PUSH2 0x149D SWAP2 SWAP1 PUSH2 0x2C7D JUMP JUMPDEST PUSH2 0x14A7 SWAP2 SWAP1 PUSH2 0x2CAA JUMP JUMPDEST SWAP1 POP PUSH1 0x1 PUSH1 0x1 PUSH1 0x60 SHL SUB DUP2 GT ISZERO PUSH2 0x14D1 JUMPI PUSH1 0x40 MLOAD PUSH4 0x162908E3 PUSH1 0xE1 SHL DUP2 MSTORE PUSH1 0x4 ADD PUSH1 0x40 MLOAD DUP1 SWAP2 SUB SWAP1 REVERT JUMPDEST PUSH1 0x0 DUP2 SWAP1 POP PUSH1 0x0 PUSH1 0x8 PUSH1 0x0 DUP2 SLOAD PUSH2 0x14E7 SWAP1 PUSH2 0x2DDD JUMP JUMPDEST SWAP2 DUP3 SWAP1 SSTORE POP SWAP1 POP PUSH2 0x14F8 CALLER DUP3 PUSH2 0x1B76 JUMP JUMPDEST PUSH1 0x0 JUMPDEST DUP10 DUP2 LT ISZERO PUSH2 0x15A0 JUMPI PUSH1 0x0 DUP12 DUP12 DUP4 DUP2 DUP2 LT PUSH2 0x1517 JUMPI PUSH2 0x1517 PUSH2 0x2DAB JUMP JUMPDEST PUSH1 0x20 SWAP1 DUP2 MUL SWAP3 SWAP1 SWAP3 ADD CALLDATALOAD PUSH1 0x0 DUP2 DUP2 MSTORE PUSH1 0x9 DUP5 MSTORE PUSH1 0x40 DUP1 DUP3 KECCAK256 DUP2 MLOAD DUP1 DUP4 ADD DUP4 MSTORE DUP2 SLOAD PUSH1 0x1 PUSH1 0x1 PUSH1 0x60 SHL SUB DUP2 AND PUSH1 0xF SIGNEXTEND DUP3 MSTORE PUSH1 0x1 PUSH1 0x60 SHL SWAP1 DIV PUSH4 0xFFFFFFFF AND DUP2 DUP9 ADD MSTORE DUP3 MLOAD DUP1 DUP5 ADD SWAP1 SWAP4 MSTORE DUP4 DUP4 MSTORE SWAP6 DUP3 ADD SWAP3 SWAP1 SWAP3 MSTORE SWAP2 SWAP5 POP SWAP3 SWAP2 POP PUSH2 0x157D SWAP1 DUP5 SWAP1 DUP4 SWAP1 PUSH2 0x1A43 JUMP JUMPDEST PUSH1 0x0 DUP4 DUP2 MSTORE PUSH1 0x9 PUSH1 0x20 MSTORE PUSH1 0x40 DUP2 KECCAK256 SSTORE PUSH2 0x1595 DUP4 PUSH2 0x1A5D JUMP JUMPDEST POP POP POP PUSH1 0x1 ADD PUSH2 0x14FB JUMP JUMPDEST POP PUSH1 0x0 PUSH1 0x40 MLOAD DUP1 PUSH1 0x40 ADD PUSH1 0x40 MSTORE DUP1 DUP9 PUSH1 0x1 PUSH1 0x1 PUSH1 0x60 SHL SUB AND PUSH1 0xF SIGNEXTEND DUP2 MSTORE PUSH1 0x20 ADD DUP8 PUSH4 0xFFFFFFFF AND DUP2 MSTORE POP SWAP1 POP PUSH2 0x15F0 DUP3 PUSH1 0x40 MLOAD DUP1 PUSH1 0x40 ADD PUSH1 0x40 MSTORE DUP1 PUSH1 0x0 PUSH1 0xF SIGNEXTEND DUP2 MSTORE PUSH1 0x20 ADD PUSH1 0x0 DUP2 MSTORE POP DUP4 PUSH2 0x1A43 JUMP JUMPDEST PUSH1 0x40 DUP1 MLOAD PUSH1 0x80 DUP2 ADD DUP3 MSTORE PUSH1 0x1 PUSH1 0x1 PUSH1 0x60 SHL SUB DUP1 DUP11 AND DUP3 MSTORE PUSH4 0xFFFFFFFF DUP1 DUP11 AND PUSH1 0x20 DUP1 DUP6 ADD SWAP2 DUP3 MSTORE TIMESTAMP DUP4 AND DUP6 DUP8 ADD SWAP1 DUP2 MSTORE DUP10 DUP6 AND PUSH1 0x60 DUP8 ADD SWAP1 DUP2 MSTORE PUSH1 0x0 DUP11 DUP2 MSTORE PUSH1 0x9 DUP5 MSTORE DUP9 DUP2 KECCAK256 SWAP8 MLOAD DUP9 SLOAD SWAP6 MLOAD SWAP4 MLOAD SWAP3 MLOAD DUP9 AND PUSH1 0x1 PUSH1 0xA0 SHL MUL PUSH1 0x1 PUSH1 0x1 PUSH1 0xA0 SHL SUB SWAP4 DUP9 AND PUSH1 0x1 PUSH1 0x80 SHL MUL SWAP4 SWAP1 SWAP4 AND PUSH1 0x1 PUSH1 0x1 PUSH1 0x80 SHL SUB SWAP5 SWAP1 SWAP8 AND PUSH1 0x1 PUSH1 0x60 SHL MUL PUSH1 0x1 PUSH1 0x1 PUSH1 0x80 SHL SUB NOT SWAP1 SWAP7 AND SWAP8 AND SWAP7 SWAP1 SWAP7 OR SWAP4 SWAP1 SWAP4 OR AND SWAP3 SWAP1 SWAP3 OR OR SWAP1 SWAP3 SSTORE CALLER DUP1 DUP3 MSTORE PUSH1 0xA SWAP1 SWAP3 MSTORE DUP3 SWAP1 KECCAK256 DUP1 SLOAD DUP14 SWAP1 SUB PUSH1 0x1 ADD SWAP1 SSTORE SWAP1 MLOAD DUP4 SWAP2 SWAP1 PUSH32 0x63B11D2D0F505949E8B2BFAB72EA3694320F1A8CDC3C647E4FAA33F78A4C1C53 SWAP1 PUSH2 0x16F2 SWAP1 DUP12 SWAP1 DUP12 SWAP1 PUSH1 0x1 PUSH1 0x1 PUSH1 0x60 SHL SUB SWAP3 SWAP1 SWAP3 AND DUP3 MSTORE PUSH4 0xFFFFFFFF AND PUSH1 0x20 DUP3 ADD MSTORE PUSH1 0x40 ADD SWAP1 JUMP JUMPDEST PUSH1 0x40 MLOAD DUP1 SWAP2 SUB SWAP1 LOG3 POP POP POP POP POP POP POP POP PUSH2 0x9CB PUSH1 0x1 PUSH1 0x6 SSTORE JUMP JUMPDEST PUSH1 0xC SLOAD PUSH1 0x0 SWAP1 DUP2 MSTORE PUSH1 0xB PUSH1 0x20 SWAP1 DUP2 MSTORE PUSH1 0x40 DUP1 DUP4 KECCAK256 DUP2 MLOAD PUSH1 0x80 DUP2 ADD DUP4 MSTORE DUP2 SLOAD PUSH1 0xF DUP2 DUP2 SIGNEXTEND DUP4 MSTORE PUSH1 0x1 PUSH1 0x80 SHL SWAP1 SWAP2 DIV SWAP1 SIGNEXTEND SWAP4 DUP2 ADD SWAP4 SWAP1 SWAP4 MSTORE PUSH1 0x1 DUP2 ADD SLOAD SWAP2 DUP4 ADD SWAP2 SWAP1 SWAP2 MSTORE PUSH1 0x2 ADD SLOAD PUSH1 0x60 DUP3 ADD MSTORE PUSH2 0x1761 DUP2 DUP5 PUSH2 0x1DE7 JUMP JUMPDEST SWAP4 SWAP3 POP POP POP JUMP JUMPDEST PUSH2 0x1770 PUSH2 0x1B90 JUMP JUMPDEST PUSH1 0x11 DUP1 SLOAD PUSH1 0xFF NOT AND PUSH1 0x1 OR SWAP1 SSTORE PUSH2 0x1785 PUSH2 0x1EE2 JUMP JUMPDEST PUSH1 0x10 SLOAD PUSH1 0x40 MLOAD PUSH1 0x1 PUSH1 0x60 SHL SWAP1 SWAP2 DIV PUSH1 0x1 PUSH1 0x1 PUSH1 0xA0 SHL SUB AND DUP2 MSTORE PUSH32 0xC0A1C7E9F05B4D536E1FF8606BAE9B847CDB43EF4A9B2D7A503A88CEE08DCCDB SWAP1 PUSH1 0x20 ADD JUMPDEST PUSH1 0x40 MLOAD DUP1 SWAP2 SUB SWAP1 LOG1 JUMP JUMPDEST PUSH1 0x60 PUSH2 0x17D9 DUP3 PUSH2 0x18AB JUMP JUMPDEST POP PUSH1 0x0 PUSH2 0x17F1 PUSH1 0x40 DUP1 MLOAD PUSH1 0x20 DUP2 ADD SWAP1 SWAP2 MSTORE PUSH1 0x0 DUP2 MSTORE SWAP1 JUMP JUMPDEST SWAP1 POP PUSH1 0x0 DUP2 MLOAD GT PUSH2 0x1811 JUMPI PUSH1 0x40 MLOAD DUP1 PUSH1 0x20 ADD PUSH1 0x40 MSTORE DUP1 PUSH1 0x0 DUP2 MSTORE POP PUSH2 0x1761 JUMP JUMPDEST DUP1 PUSH2 0x181B DUP5 PUSH2 0x1F37 JUMP JUMPDEST PUSH1 0x40 MLOAD PUSH1 0x20 ADD PUSH2 0x182C SWAP3 SWAP2 SWAP1 PUSH2 0x2DF6 JUMP JUMPDEST PUSH1 0x40 MLOAD PUSH1 0x20 DUP2 DUP4 SUB SUB DUP2 MSTORE SWAP1 PUSH1 0x40 MSTORE SWAP4 SWAP3 POP POP POP JUMP JUMPDEST PUSH1 0x1 PUSH1 0x1 PUSH1 0xA0 SHL SUB SWAP2 DUP3 AND PUSH1 0x0 SWAP1 DUP2 MSTORE PUSH1 0x5 PUSH1 0x20 SWAP1 DUP2 MSTORE PUSH1 0x40 DUP1 DUP4 KECCAK256 SWAP4 SWAP1 SWAP5 AND DUP3 MSTORE SWAP2 SWAP1 SWAP2 MSTORE KECCAK256 SLOAD PUSH1 0xFF AND SWAP1 JUMP JUMPDEST PUSH2 0x1878 PUSH2 0x1B90 JUMP JUMPDEST PUSH1 0x1 PUSH1 0x1 PUSH1 0xA0 SHL SUB DUP2 AND PUSH2 0x18A2 JUMPI PUSH1 0x40 MLOAD PUSH4 0x1E4FBDF7 PUSH1 0xE0 SHL DUP2 MSTORE PUSH1 0x0 PUSH1 0x4 DUP3 ADD MSTORE PUSH1 0x24 ADD PUSH2 0x69F JUMP JUMPDEST PUSH2 0x9AD DUP2 PUSH2 0x1BC3 JUMP JUMPDEST PUSH1 0x0 DUP2 DUP2 MSTORE PUSH1 0x2 PUSH1 0x20 MSTORE PUSH1 0x40 DUP2 KECCAK256 SLOAD PUSH1 0x1 PUSH1 0x1 PUSH1 0xA0 SHL SUB AND DUP1 PUSH2 0x5A9 JUMPI PUSH1 0x40 MLOAD PUSH4 0x7E273289 PUSH1 0xE0 SHL DUP2 MSTORE PUSH1 0x4 DUP2 ADD DUP5 SWAP1 MSTORE PUSH1 0x24 ADD PUSH2 0x69F JUMP JUMPDEST PUSH2 0x9CB DUP4 DUP4 DUP4 PUSH1 0x1 PUSH2 0x1FCA JUMP JUMPDEST PUSH1 0x0 DUP3 DUP2 MSTORE PUSH1 0x2 PUSH1 0x20 MSTORE PUSH1 0x40 DUP2 KECCAK256 SLOAD PUSH1 0x1 PUSH1 0x1 PUSH1 0xA0 SHL SUB SWAP1 DUP2 AND SWAP1 DUP4 AND ISZERO PUSH2 0x191E JUMPI PUSH2 0x191E DUP2 DUP5 DUP7 PUSH2 0x20D0 JUMP JUMPDEST PUSH1 0x1 PUSH1 0x1 PUSH1 0xA0 SHL SUB DUP2 AND ISZERO PUSH2 0x195C JUMPI PUSH2 0x193B PUSH1 0x0 DUP6 PUSH1 0x0 DUP1 PUSH2 0x1FCA JUMP JUMPDEST PUSH1 0x1 PUSH1 0x1 PUSH1 0xA0 SHL SUB DUP2 AND PUSH1 0x0 SWAP1 DUP2 MSTORE PUSH1 0x3 PUSH1 0x20 MSTORE PUSH1 0x40 SWAP1 KECCAK256 DUP1 SLOAD PUSH1 0x0 NOT ADD SWAP1 SSTORE JUMPDEST PUSH1 0x1 PUSH1 0x1 PUSH1 0xA0 SHL SUB DUP6 AND ISZERO PUSH2 0x198B JUMPI PUSH1 0x1 PUSH1 0x1 PUSH1 0xA0 SHL SUB DUP6 AND PUSH1 0x0 SWAP1 DUP2 MSTORE PUSH1 0x3 PUSH1 0x20 MSTORE PUSH1 0x40 SWAP1 KECCAK256 DUP1 SLOAD PUSH1 0x1 ADD SWAP1 SSTORE JUMPDEST PUSH1 0x0 DUP5 DUP2 MSTORE PUSH1 0x2 PUSH1 0x20 MSTORE PUSH1 0x40 DUP1 DUP3 KECCAK256 DUP1 SLOAD PUSH1 0x1 PUSH1 0x1 PUSH1 0xA0 SHL SUB NOT AND PUSH1 0x1 PUSH1 0x1 PUSH1 0xA0 SHL SUB DUP10 DUP2 AND SWAP2 DUP3 OR SWAP1 SWAP3 SSTORE SWAP2 MLOAD DUP8 SWAP4 SWAP2 DUP6 AND SWAP2 PUSH32 0xDDF252AD1BE2C89B69C2B068FC378DAA952BA7F163C4A11628F55A4DF523B3EF SWAP2 LOG4 SWAP5 SWAP4 POP POP POP POP JUMP JUMPDEST PUSH1 0x2 PUSH1 0x6 SLOAD SUB PUSH2 0x1A3C JUMPI PUSH1 0x40 MLOAD PUSH3 0x461BCD PUSH1 0xE5 SHL DUP2 MSTORE PUSH1 0x20 PUSH1 0x4 DUP3 ADD MSTORE PUSH1 0x1F PUSH1 0x24 DUP3 ADD MSTORE PUSH32 0x5265656E7472616E637947756172643A207265656E7472616E742063616C6C00 PUSH1 0x44 DUP3 ADD MSTORE PUSH1 0x64 ADD PUSH2 0x69F JUMP JUMPDEST PUSH1 0x2 PUSH1 0x6 SSTORE JUMP JUMPDEST PUSH2 0x1A4B PUSH2 0x2134 JUMP JUMPDEST POP DUP3 ISZERO PUSH2 0x9CB JUMPI PUSH2 0x9CB DUP4 DUP4 DUP4 PUSH2 0x2230 JUMP JUMPDEST PUSH1 0x0 PUSH2 0x1A6C PUSH1 0x0 DUP4 PUSH1 0x0 PUSH2 0x18F1 JUMP JUMPDEST SWAP1 POP PUSH1 0x1 PUSH1 0x1 PUSH1 0xA0 SHL SUB DUP2 AND PUSH2 0x675 JUMPI PUSH1 0x40 MLOAD PUSH4 0x7E273289 PUSH1 0xE0 SHL DUP2 MSTORE PUSH1 0x4 DUP2 ADD DUP4 SWAP1 MSTORE PUSH1 0x24 ADD PUSH2 0x69F JUMP JUMPDEST PUSH1 0x40 MLOAD PUSH1 0x1 PUSH1 0x1 PUSH1 0xA0 SHL SUB DUP4 DUP2 AND PUSH1 0x24 DUP4 ADD MSTORE PUSH1 0x44 DUP3 ADD DUP4 SWAP1 MSTORE PUSH2 0x9CB SWAP2 DUP6 SWAP2 DUP3 AND SWAP1 PUSH4 0xA9059CBB SWAP1 PUSH1 0x64 ADD JUMPDEST PUSH1 0x40 MLOAD PUSH1 0x20 DUP2 DUP4 SUB SUB DUP2 MSTORE SWAP1 PUSH1 0x40 MSTORE SWAP2 POP PUSH1 0xE0 SHL PUSH1 0x20 DUP3 ADD DUP1 MLOAD PUSH1 0x1 PUSH1 0x1 PUSH1 0xE0 SHL SUB DUP4 DUP2 DUP4 AND OR DUP4 MSTORE POP POP POP POP PUSH2 0x2397 JUMP JUMPDEST PUSH1 0x7 SLOAD PUSH1 0xFF AND ISZERO PUSH2 0x1155 JUMPI PUSH1 0x40 MLOAD PUSH3 0x461BCD PUSH1 0xE5 SHL DUP2 MSTORE PUSH1 0x20 PUSH1 0x4 DUP3 ADD MSTORE PUSH1 0x10 PUSH1 0x24 DUP3 ADD MSTORE PUSH16 0x14185D5CD8589B194E881C185D5CD959 PUSH1 0x82 SHL PUSH1 0x44 DUP3 ADD MSTORE PUSH1 0x64 ADD PUSH2 0x69F JUMP JUMPDEST PUSH1 0x40 MLOAD PUSH1 0x1 PUSH1 0x1 PUSH1 0xA0 SHL SUB DUP5 DUP2 AND PUSH1 0x24 DUP4 ADD MSTORE DUP4 DUP2 AND PUSH1 0x44 DUP4 ADD MSTORE PUSH1 0x64 DUP3 ADD DUP4 SWAP1 MSTORE PUSH2 0x703 SWAP2 DUP7 SWAP2 DUP3 AND SWAP1 PUSH4 0x23B872DD SWAP1 PUSH1 0x84 ADD PUSH2 0x1AC5 JUMP JUMPDEST PUSH2 0x675 DUP3 DUP3 PUSH1 0x40 MLOAD DUP1 PUSH1 0x20 ADD PUSH1 0x40 MSTORE DUP1 PUSH1 0x0 DUP2 MSTORE POP PUSH2 0x2408 JUMP JUMPDEST PUSH1 0x7 SLOAD PUSH1 0x1 PUSH1 0x1 PUSH1 0xA0 SHL SUB PUSH2 0x100 SWAP1 SWAP2 DIV AND CALLER EQ PUSH2 0x1155 JUMPI PUSH1 0x40 MLOAD PUSH4 0x118CDAA7 PUSH1 0xE0 SHL DUP2 MSTORE CALLER PUSH1 0x4 DUP3 ADD MSTORE PUSH1 0x24 ADD PUSH2 0x69F JUMP JUMPDEST PUSH1 0x7 DUP1 SLOAD PUSH1 0x1 PUSH1 0x1 PUSH1 0xA0 SHL SUB DUP4 DUP2 AND PUSH2 0x100 DUP2 DUP2 MUL PUSH2 0x100 PUSH1 0x1 PUSH1 0xA8 SHL SUB NOT DUP6 AND OR SWAP1 SWAP5 SSTORE PUSH1 0x40 MLOAD SWAP4 SWAP1 SWAP3 DIV AND SWAP2 DUP3 SWAP1 PUSH32 0x8BE0079C531659141344CD1FD0A4F28419497F9722A3DAAFE3B4186F6B6457E0 SWAP1 PUSH1 0x0 SWAP1 LOG3 POP POP JUMP JUMPDEST PUSH1 0x1 PUSH1 0x1 PUSH1 0xA0 SHL SUB DUP3 AND PUSH2 0x1C4F JUMPI PUSH1 0x40 MLOAD PUSH4 0xB611743 PUSH1 0xE3 SHL DUP2 MSTORE PUSH1 0x1 PUSH1 0x1 PUSH1 0xA0 SHL SUB DUP4 AND PUSH1 0x4 DUP3 ADD MSTORE PUSH1 0x24 ADD PUSH2 0x69F JUMP JUMPDEST PUSH1 0x1 PUSH1 0x1 PUSH1 0xA0 SHL SUB DUP4 DUP2 AND PUSH1 0x0 DUP2 DUP2 MSTORE PUSH1 0x5 PUSH1 0x20 SWAP1 DUP2 MSTORE PUSH1 0x40 DUP1 DUP4 KECCAK256 SWAP5 DUP8 AND DUP1 DUP5 MSTORE SWAP5 DUP3 MSTORE SWAP2 DUP3 SWAP1 KECCAK256 DUP1 SLOAD PUSH1 0xFF NOT AND DUP7 ISZERO ISZERO SWAP1 DUP2 OR SWAP1 SWAP2 SSTORE SWAP2 MLOAD SWAP2 DUP3 MSTORE PUSH32 0x17307EAB39AB6107E8899845AD3D59BD9653F200F220920489CA2B5937696C31 SWAP2 ADD PUSH1 0x40 MLOAD DUP1 SWAP2 SUB SWAP1 LOG3 POP POP POP JUMP JUMPDEST PUSH1 0x1 PUSH1 0x1 PUSH1 0xA0 SHL SUB DUP4 AND EXTCODESIZE ISZERO PUSH2 0x1DE0 JUMPI PUSH1 0x40 MLOAD PUSH4 0xA85BD01 PUSH1 0xE1 SHL DUP2 MSTORE PUSH1 0x1 PUSH1 0x1 PUSH1 0xA0 SHL SUB DUP5 AND SWAP1 PUSH4 0x150B7A02 SWAP1 PUSH2 0x1CFE SWAP1 DUP9 SWAP1 DUP9 SWAP1 DUP8 SWAP1 DUP8 SWAP1 PUSH1 0x4 ADD PUSH2 0x2E25 JUMP JUMPDEST PUSH1 0x20 PUSH1 0x40 MLOAD DUP1 DUP4 SUB DUP2 PUSH1 0x0 DUP8 GAS CALL SWAP3 POP POP POP DUP1 ISZERO PUSH2 0x1D39 JUMPI POP PUSH1 0x40 DUP1 MLOAD PUSH1 0x1F RETURNDATASIZE SWAP1 DUP2 ADD PUSH1 0x1F NOT AND DUP3 ADD SWAP1 SWAP3 MSTORE PUSH2 0x1D36 SWAP2 DUP2 ADD SWAP1 PUSH2 0x2E62 JUMP JUMPDEST PUSH1 0x1 JUMPDEST PUSH2 0x1DA2 JUMPI RETURNDATASIZE DUP1 DUP1 ISZERO PUSH2 0x1D67 JUMPI PUSH1 0x40 MLOAD SWAP2 POP PUSH1 0x1F NOT PUSH1 0x3F RETURNDATASIZE ADD AND DUP3 ADD PUSH1 0x40 MSTORE RETURNDATASIZE DUP3 MSTORE RETURNDATASIZE PUSH1 0x0 PUSH1 0x20 DUP5 ADD RETURNDATACOPY PUSH2 0x1D6C JUMP JUMPDEST PUSH1 0x60 SWAP2 POP JUMPDEST POP DUP1 MLOAD PUSH1 0x0 SUB PUSH2 0x1D9A JUMPI PUSH1 0x40 MLOAD PUSH4 0x32505749 PUSH1 0xE1 SHL DUP2 MSTORE PUSH1 0x1 PUSH1 0x1 PUSH1 0xA0 SHL SUB DUP6 AND PUSH1 0x4 DUP3 ADD MSTORE PUSH1 0x24 ADD PUSH2 0x69F JUMP JUMPDEST DUP1 MLOAD DUP2 PUSH1 0x20 ADD REVERT JUMPDEST PUSH1 0x1 PUSH1 0x1 PUSH1 0xE0 SHL SUB NOT DUP2 AND PUSH4 0xA85BD01 PUSH1 0xE1 SHL EQ PUSH2 0x1DDE JUMPI PUSH1 0x40 MLOAD PUSH4 0x32505749 PUSH1 0xE1 SHL DUP2 MSTORE PUSH1 0x1 PUSH1 0x1 PUSH1 0xA0 SHL SUB DUP6 AND PUSH1 0x4 DUP3 ADD MSTORE PUSH1 0x24 ADD PUSH2 0x69F JUMP JUMPDEST POP JUMPDEST POP POP POP POP POP JUMP JUMPDEST PUSH1 0x40 DUP3 ADD MLOAD PUSH1 0x0 SWAP1 DUP4 SWAP1 DUP3 SWAP1 PUSH3 0x93A80 SWAP1 PUSH2 0x1E03 SWAP1 DUP3 SWAP1 PUSH2 0x2CAA JUMP JUMPDEST PUSH2 0x1E0D SWAP2 SWAP1 PUSH2 0x2C7D JUMP JUMPDEST SWAP1 POP PUSH1 0x0 JUMPDEST PUSH1 0xFF DUP2 LT ISZERO PUSH2 0x1EBA JUMPI PUSH2 0x1E28 PUSH3 0x93A80 DUP4 PUSH2 0x2CF9 JUMP JUMPDEST SWAP2 POP PUSH1 0x0 DUP6 DUP4 GT ISZERO PUSH2 0x1E3C JUMPI DUP6 SWAP3 POP PUSH2 0x1E52 JUMP JUMPDEST POP PUSH1 0x0 DUP3 DUP2 MSTORE PUSH1 0xF PUSH1 0x20 DUP2 SWAP1 MSTORE PUSH1 0x40 SWAP1 SWAP2 KECCAK256 SLOAD SWAP1 SIGNEXTEND JUMPDEST PUSH1 0x40 DUP5 ADD MLOAD PUSH2 0x1E61 SWAP1 DUP5 PUSH2 0x2D44 JUMP JUMPDEST DUP5 PUSH1 0x20 ADD MLOAD PUSH2 0x1E70 SWAP2 SWAP1 PUSH2 0x2D57 JUMP JUMPDEST DUP5 MLOAD DUP6 SWAP1 PUSH2 0x1E7F SWAP1 DUP4 SWAP1 PUSH2 0x2D7E JUMP JUMPDEST PUSH1 0xF SIGNEXTEND SWAP1 MSTORE POP DUP6 DUP4 SUB PUSH2 0x1E92 JUMPI POP PUSH2 0x1EBA JUMP JUMPDEST DUP1 DUP5 PUSH1 0x20 ADD DUP2 DUP2 MLOAD PUSH2 0x1EA4 SWAP2 SWAP1 PUSH2 0x2E7F JUMP JUMPDEST PUSH1 0xF SIGNEXTEND SWAP1 MSTORE POP POP PUSH1 0x40 DUP4 ADD DUP3 SWAP1 MSTORE PUSH1 0x1 ADD PUSH2 0x1E12 JUMP JUMPDEST POP PUSH1 0x0 DUP3 PUSH1 0x0 ADD MLOAD PUSH1 0xF SIGNEXTEND SLT ISZERO PUSH2 0x1ED0 JUMPI PUSH1 0x0 DUP3 MSTORE JUMPDEST POP MLOAD PUSH1 0x1 PUSH1 0x1 PUSH1 0x80 SHL SUB AND SWAP4 SWAP3 POP POP POP JUMP JUMPDEST PUSH2 0x1EEA PUSH2 0x1AF7 JUMP JUMPDEST PUSH1 0x7 DUP1 SLOAD PUSH1 0xFF NOT AND PUSH1 0x1 OR SWAP1 SSTORE PUSH32 0x62E78CEA01BEE320CD4E420270B5EA74000D11B0C9F74754EBDBFC544B05A258 PUSH2 0x1F1F CALLER SWAP1 JUMP JUMPDEST PUSH1 0x40 MLOAD PUSH1 0x1 PUSH1 0x1 PUSH1 0xA0 SHL SUB SWAP1 SWAP2 AND DUP2 MSTORE PUSH1 0x20 ADD PUSH2 0x17C4 JUMP JUMPDEST PUSH1 0x60 PUSH1 0x0 PUSH2 0x1F44 DUP4 PUSH2 0x2420 JUMP JUMPDEST PUSH1 0x1 ADD SWAP1 POP PUSH1 0x0 DUP2 PUSH8 0xFFFFFFFFFFFFFFFF DUP2 GT ISZERO PUSH2 0x1F64 JUMPI PUSH2 0x1F64 PUSH2 0x2A84 JUMP JUMPDEST PUSH1 0x40 MLOAD SWAP1 DUP1 DUP3 MSTORE DUP1 PUSH1 0x1F ADD PUSH1 0x1F NOT AND PUSH1 0x20 ADD DUP3 ADD PUSH1 0x40 MSTORE DUP1 ISZERO PUSH2 0x1F8E JUMPI PUSH1 0x20 DUP3 ADD DUP2 DUP1 CALLDATASIZE DUP4 CALLDATACOPY ADD SWAP1 POP JUMPDEST POP SWAP1 POP DUP2 DUP2 ADD PUSH1 0x20 ADD JUMPDEST PUSH1 0x0 NOT ADD PUSH16 0x181899199A1A9B1B9C1CB0B131B232B3 PUSH1 0x81 SHL PUSH1 0xA DUP7 MOD BYTE DUP2 MSTORE8 PUSH1 0xA DUP6 DIV SWAP5 POP DUP5 PUSH2 0x1F98 JUMPI POP SWAP4 SWAP3 POP POP POP JUMP JUMPDEST DUP1 DUP1 PUSH2 0x1FDE JUMPI POP PUSH1 0x1 PUSH1 0x1 PUSH1 0xA0 SHL SUB DUP3 AND ISZERO ISZERO JUMPDEST ISZERO PUSH2 0x20A0 JUMPI PUSH1 0x0 PUSH2 0x1FEE DUP5 PUSH2 0x18AB JUMP JUMPDEST SWAP1 POP PUSH1 0x1 PUSH1 0x1 PUSH1 0xA0 SHL SUB DUP4 AND ISZERO DUP1 ISZERO SWAP1 PUSH2 0x201A JUMPI POP DUP3 PUSH1 0x1 PUSH1 0x1 PUSH1 0xA0 SHL SUB AND DUP2 PUSH1 0x1 PUSH1 0x1 PUSH1 0xA0 SHL SUB AND EQ ISZERO JUMPDEST DUP1 ISZERO PUSH2 0x202D JUMPI POP PUSH2 0x202B DUP2 DUP5 PUSH2 0x1842 JUMP JUMPDEST ISZERO JUMPDEST ISZERO PUSH2 0x2056 JUMPI PUSH1 0x40 MLOAD PUSH4 0xA9FBF51F PUSH1 0xE0 SHL DUP2 MSTORE PUSH1 0x1 PUSH1 0x1 PUSH1 0xA0 SHL SUB DUP5 AND PUSH1 0x4 DUP3 ADD MSTORE PUSH1 0x24 ADD PUSH2 0x69F JUMP JUMPDEST DUP2 ISZERO PUSH2 0x209E JUMPI DUP4 DUP6 PUSH1 0x1 PUSH1 0x1 PUSH1 0xA0 SHL SUB AND DUP3 PUSH1 0x1 PUSH1 0x1 PUSH1 0xA0 SHL SUB AND PUSH32 0x8C5BE1E5EBEC7D5BD14F71427D1E84F3DD0314C0F7B2291E5B200AC8C7C3B925 PUSH1 0x40 MLOAD PUSH1 0x40 MLOAD DUP1 SWAP2 SUB SWAP1 LOG4 JUMPDEST POP JUMPDEST POP POP PUSH1 0x0 SWAP1 DUP2 MSTORE PUSH1 0x4 PUSH1 0x20 MSTORE PUSH1 0x40 SWAP1 KECCAK256 DUP1 SLOAD PUSH1 0x1 PUSH1 0x1 PUSH1 0xA0 SHL SUB NOT AND PUSH1 0x1 PUSH1 0x1 PUSH1 0xA0 SHL SUB SWAP3 SWAP1 SWAP3 AND SWAP2 SWAP1 SWAP2 OR SWAP1 SSTORE JUMP JUMPDEST PUSH2 0x20DB DUP4 DUP4 DUP4 PUSH2 0x24F8 JUMP JUMPDEST PUSH2 0x9CB JUMPI PUSH1 0x1 PUSH1 0x1 PUSH1 0xA0 SHL SUB DUP4 AND PUSH2 0x2109 JUMPI PUSH1 0x40 MLOAD PUSH4 0x7E273289 PUSH1 0xE0 SHL DUP2 MSTORE PUSH1 0x4 DUP2 ADD DUP3 SWAP1 MSTORE PUSH1 0x24 ADD PUSH2 0x69F JUMP JUMPDEST PUSH1 0x40 MLOAD PUSH4 0x177E802F PUSH1 0xE0 SHL DUP2 MSTORE PUSH1 0x1 PUSH1 0x1 PUSH1 0xA0 SHL SUB DUP4 AND PUSH1 0x4 DUP3 ADD MSTORE PUSH1 0x24 DUP2 ADD DUP3 SWAP1 MSTORE PUSH1 0x44 ADD PUSH2 0x69F JUMP JUMPDEST PUSH2 0x213C PUSH2 0x283C JUMP JUMPDEST PUSH1 0xC SLOAD DUP1 ISZERO PUSH2 0x21A5 JUMPI PUSH1 0xB PUSH1 0x0 PUSH2 0x2154 PUSH1 0x1 DUP5 PUSH2 0x2D44 JUMP JUMPDEST DUP2 MSTORE PUSH1 0x20 DUP1 DUP3 ADD SWAP3 SWAP1 SWAP3 MSTORE PUSH1 0x40 SWAP1 DUP2 ADD PUSH1 0x0 KECCAK256 DUP2 MLOAD PUSH1 0x80 DUP2 ADD DUP4 MSTORE DUP2 SLOAD PUSH1 0xF DUP2 DUP2 SIGNEXTEND DUP4 MSTORE PUSH1 0x1 PUSH1 0x80 SHL SWAP1 SWAP2 DIV SWAP1 SIGNEXTEND SWAP4 DUP2 ADD SWAP4 SWAP1 SWAP4 MSTORE PUSH1 0x1 DUP2 ADD SLOAD SWAP2 DUP4 ADD SWAP2 SWAP1 SWAP2 MSTORE PUSH1 0x2 ADD SLOAD PUSH1 0x60 DUP3 ADD MSTORE SWAP2 POP PUSH2 0x21CA JUMP JUMPDEST PUSH1 0x40 DUP1 MLOAD PUSH1 0x80 DUP2 ADD DUP3 MSTORE PUSH1 0x0 DUP1 DUP3 MSTORE PUSH1 0x20 DUP3 ADD MSTORE TIMESTAMP SWAP2 DUP2 ADD SWAP2 SWAP1 SWAP2 MSTORE NUMBER PUSH1 0x60 DUP3 ADD MSTORE SWAP2 POP JUMPDEST PUSH1 0x40 DUP3 ADD MLOAD PUSH1 0x0 TIMESTAMP DUP3 LT ISZERO PUSH2 0x2216 JUMPI PUSH1 0x40 DUP5 ADD MLOAD PUSH2 0x21E8 SWAP1 TIMESTAMP PUSH2 0x2D44 JUMP JUMPDEST PUSH1 0x60 DUP6 ADD MLOAD PUSH2 0x21F7 SWAP1 NUMBER PUSH2 0x2D44 JUMP JUMPDEST PUSH2 0x2209 SWAP1 PUSH8 0xDE0B6B3A7640000 PUSH2 0x2C7D JUMP JUMPDEST PUSH2 0x2213 SWAP2 SWAP1 PUSH2 0x2CAA JUMP JUMPDEST SWAP1 POP JUMPDEST PUSH2 0x2222 DUP5 DUP4 DUP4 DUP7 PUSH2 0x255B JUMP JUMPDEST PUSH1 0xC SWAP4 SWAP1 SWAP4 SSTORE POP SWAP1 SWAP3 SWAP2 POP POP JUMP JUMPDEST PUSH2 0x2238 PUSH2 0x283C JUMP JUMPDEST PUSH2 0x2240 PUSH2 0x283C JUMP JUMPDEST TIMESTAMP DUP5 PUSH1 0x20 ADD MLOAD GT DUP1 ISZERO PUSH2 0x225A JUMPI POP PUSH1 0x0 DUP5 PUSH1 0x0 ADD MLOAD PUSH1 0xF SIGNEXTEND SGT JUMPDEST ISZERO PUSH2 0x229E JUMPI DUP4 MLOAD PUSH2 0x226F SWAP1 PUSH3 0xED4E00 SWAP1 PUSH2 0x2EAC JUMP JUMPDEST PUSH1 0xF SIGNEXTEND PUSH1 0x20 DUP1 DUP5 ADD SWAP2 SWAP1 SWAP2 MSTORE DUP5 ADD MLOAD PUSH2 0x2289 SWAP1 TIMESTAMP SWAP1 PUSH2 0x2D44 JUMP JUMPDEST DUP3 PUSH1 0x20 ADD MLOAD PUSH2 0x2298 SWAP2 SWAP1 PUSH2 0x2D57 JUMP JUMPDEST PUSH1 0xF SIGNEXTEND DUP3 MSTORE JUMPDEST TIMESTAMP DUP4 PUSH1 0x20 ADD MLOAD GT DUP1 ISZERO PUSH2 0x22B8 JUMPI POP PUSH1 0x0 DUP4 PUSH1 0x0 ADD MLOAD PUSH1 0xF SIGNEXTEND SGT JUMPDEST ISZERO PUSH2 0x22FC JUMPI DUP3 MLOAD PUSH2 0x22CD SWAP1 PUSH3 0xED4E00 SWAP1 PUSH2 0x2EAC JUMP JUMPDEST PUSH1 0xF SIGNEXTEND PUSH1 0x20 DUP1 DUP4 ADD SWAP2 SWAP1 SWAP2 MSTORE DUP4 ADD MLOAD PUSH2 0x22E7 SWAP1 TIMESTAMP SWAP1 PUSH2 0x2D44 JUMP JUMPDEST DUP2 PUSH1 0x20 ADD MLOAD PUSH2 0x22F6 SWAP2 SWAP1 PUSH2 0x2D57 JUMP JUMPDEST PUSH1 0xF SIGNEXTEND DUP2 MSTORE JUMPDEST PUSH2 0x2310 DUP5 DUP5 DUP5 PUSH1 0x20 ADD MLOAD DUP5 PUSH1 0x20 ADD MLOAD PUSH2 0x26E0 JUMP JUMPDEST PUSH1 0x0 DUP6 DUP2 MSTORE PUSH1 0xD PUSH1 0x20 MSTORE PUSH1 0x40 DUP2 KECCAK256 SLOAD PUSH2 0x232A SWAP1 PUSH1 0x1 PUSH2 0x2CF9 JUMP JUMPDEST PUSH1 0x0 DUP8 DUP2 MSTORE PUSH1 0xD PUSH1 0x20 SWAP1 DUP2 MSTORE PUSH1 0x40 DUP1 DUP4 KECCAK256 DUP5 SWAP1 SSTORE TIMESTAMP DUP7 DUP3 ADD SWAP1 DUP2 MSTORE NUMBER PUSH1 0x60 DUP9 ADD SWAP1 DUP2 MSTORE SWAP11 DUP5 MSTORE PUSH1 0xE DUP4 MSTORE DUP2 DUP5 KECCAK256 SWAP5 DUP5 MSTORE SWAP4 DUP3 MSTORE SWAP1 SWAP2 KECCAK256 DUP5 MLOAD SWAP5 SWAP1 SWAP2 ADD MLOAD PUSH1 0x1 PUSH1 0x1 PUSH1 0x80 SHL SUB SWAP1 DUP2 AND PUSH1 0x1 PUSH1 0x80 SHL MUL SWAP5 AND SWAP4 SWAP1 SWAP4 OR DUP4 SSTORE MLOAD PUSH1 0x1 DUP4 ADD SSTORE POP SWAP4 MLOAD PUSH1 0x2 SWAP1 SWAP5 ADD SWAP4 SWAP1 SWAP4 SSTORE POP POP POP JUMP JUMPDEST PUSH1 0x0 DUP1 PUSH1 0x20 PUSH1 0x0 DUP5 MLOAD PUSH1 0x20 DUP7 ADD PUSH1 0x0 DUP9 GAS CALL DUP1 PUSH2 0x23BA JUMPI PUSH1 0x40 MLOAD RETURNDATASIZE PUSH1 0x0 DUP3 RETURNDATACOPY RETURNDATASIZE DUP2 REVERT JUMPDEST POP POP PUSH1 0x0 MLOAD RETURNDATASIZE SWAP2 POP DUP2 ISZERO PUSH2 0x23D2 JUMPI DUP1 PUSH1 0x1 EQ ISZERO PUSH2 0x23DF JUMP JUMPDEST PUSH1 0x1 PUSH1 0x1 PUSH1 0xA0 SHL SUB DUP5 AND EXTCODESIZE ISZERO JUMPDEST ISZERO PUSH2 0x703 JUMPI PUSH1 0x40 MLOAD PUSH4 0x5274AFE7 PUSH1 0xE0 SHL DUP2 MSTORE PUSH1 0x1 PUSH1 0x1 PUSH1 0xA0 SHL SUB DUP6 AND PUSH1 0x4 DUP3 ADD MSTORE PUSH1 0x24 ADD PUSH2 0x69F JUMP JUMPDEST PUSH2 0x2412 DUP4 DUP4 PUSH2 0x27D7 JUMP JUMPDEST PUSH2 0x9CB CALLER PUSH1 0x0 DUP6 DUP6 DUP6 PUSH2 0x1CBC JUMP JUMPDEST PUSH1 0x0 DUP1 PUSH19 0x184F03E93FF9F4DAA797ED6E38ED64BF6A1F01 PUSH1 0x40 SHL DUP4 LT PUSH2 0x245F JUMPI PUSH19 0x184F03E93FF9F4DAA797ED6E38ED64BF6A1F01 PUSH1 0x40 SHL DUP4 DIV SWAP3 POP PUSH1 0x40 ADD JUMPDEST PUSH14 0x4EE2D6D415B85ACEF8100000000 DUP4 LT PUSH2 0x248B JUMPI PUSH14 0x4EE2D6D415B85ACEF8100000000 DUP4 DIV SWAP3 POP PUSH1 0x20 ADD JUMPDEST PUSH7 0x2386F26FC10000 DUP4 LT PUSH2 0x24A9 JUMPI PUSH7 0x2386F26FC10000 DUP4 DIV SWAP3 POP PUSH1 0x10 ADD JUMPDEST PUSH4 0x5F5E100 DUP4 LT PUSH2 0x24C1 JUMPI PUSH4 0x5F5E100 DUP4 DIV SWAP3 POP PUSH1 0x8 ADD JUMPDEST PUSH2 0x2710 DUP4 LT PUSH2 0x24D5 JUMPI PUSH2 0x2710 DUP4 DIV SWAP3 POP PUSH1 0x4 ADD JUMPDEST PUSH1 0x64 DUP4 LT PUSH2 0x24E7 JUMPI PUSH1 0x64 DUP4 DIV SWAP3 POP PUSH1 0x2 ADD JUMPDEST PUSH1 0xA DUP4 LT PUSH2 0x5A9 JUMPI PUSH1 0x1 ADD SWAP3 SWAP2 POP POP JUMP JUMPDEST PUSH1 0x0 PUSH1 0x1 PUSH1 0x1 PUSH1 0xA0 SHL SUB DUP4 AND ISZERO DUP1 ISZERO SWAP1 PUSH2 0xF9E JUMPI POP DUP3 PUSH1 0x1 PUSH1 0x1 PUSH1 0xA0 SHL SUB AND DUP5 PUSH1 0x1 PUSH1 0x1 PUSH1 0xA0 SHL SUB AND EQ DUP1 PUSH2 0x2532 JUMPI POP PUSH2 0x2532 DUP5 DUP5 PUSH2 0x1842 JUMP JUMPDEST DUP1 PUSH2 0xF9E JUMPI POP POP PUSH1 0x0 SWAP1 DUP2 MSTORE PUSH1 0x4 PUSH1 0x20 MSTORE PUSH1 0x40 SWAP1 KECCAK256 SLOAD PUSH1 0x1 PUSH1 0x1 PUSH1 0xA0 SHL SUB SWAP1 DUP2 AND SWAP2 AND EQ SWAP2 SWAP1 POP JUMP JUMPDEST PUSH2 0x2563 PUSH2 0x283C JUMP JUMPDEST DUP5 PUSH1 0x0 PUSH3 0x93A80 PUSH2 0x2574 DUP2 DUP9 PUSH2 0x2CAA JUMP JUMPDEST PUSH2 0x257E SWAP2 SWAP1 PUSH2 0x2C7D JUMP JUMPDEST SWAP1 POP PUSH1 0x0 JUMPDEST PUSH1 0xFF DUP2 LT ISZERO PUSH2 0x26D4 JUMPI PUSH2 0x2599 PUSH3 0x93A80 DUP4 PUSH2 0x2CF9 JUMP JUMPDEST SWAP2 POP PUSH1 0x0 TIMESTAMP DUP4 GT ISZERO PUSH2 0x25AD JUMPI TIMESTAMP SWAP3 POP PUSH2 0x25C3 JUMP JUMPDEST POP PUSH1 0x0 DUP3 DUP2 MSTORE PUSH1 0xF PUSH1 0x20 DUP2 SWAP1 MSTORE PUSH1 0x40 SWAP1 SWAP2 KECCAK256 SLOAD SWAP1 SIGNEXTEND JUMPDEST PUSH2 0x25CD DUP9 DUP5 PUSH2 0x2D44 JUMP JUMPDEST DUP10 PUSH1 0x20 ADD MLOAD PUSH2 0x25DC SWAP2 SWAP1 PUSH2 0x2D57 JUMP JUMPDEST DUP10 MLOAD DUP11 SWAP1 PUSH2 0x25EB SWAP1 DUP4 SWAP1 PUSH2 0x2D7E JUMP JUMPDEST PUSH1 0xF SIGNEXTEND SWAP1 MSTORE POP PUSH1 0x20 DUP10 ADD DUP1 MLOAD DUP3 SWAP2 SWAP1 PUSH2 0x2605 SWAP1 DUP4 SWAP1 PUSH2 0x2E7F JUMP JUMPDEST PUSH1 0xF SIGNEXTEND SWAP1 MSTORE POP PUSH1 0x40 DUP1 DUP11 ADD DUP5 SWAP1 MSTORE DUP5 ADD MLOAD PUSH8 0xDE0B6B3A7640000 SWAP1 PUSH2 0x262A SWAP1 DUP6 PUSH2 0x2D44 JUMP JUMPDEST PUSH2 0x2634 SWAP1 DUP10 PUSH2 0x2C7D JUMP JUMPDEST PUSH2 0x263E SWAP2 SWAP1 PUSH2 0x2CAA JUMP JUMPDEST DUP5 PUSH1 0x60 ADD MLOAD PUSH2 0x264D SWAP2 SWAP1 PUSH2 0x2CF9 JUMP JUMPDEST PUSH1 0x60 DUP11 ADD MSTORE TIMESTAMP DUP4 SUB PUSH2 0x2665 JUMPI POP NUMBER PUSH1 0x60 DUP10 ADD MSTORE PUSH2 0x26D4 JUMP JUMPDEST DUP9 PUSH1 0xB PUSH1 0x0 DUP5 PUSH2 0x2676 DUP11 PUSH1 0x1 PUSH2 0x2CF9 JUMP JUMPDEST PUSH2 0x2680 SWAP2 SWAP1 PUSH2 0x2CF9 JUMP JUMPDEST DUP2 MSTORE PUSH1 0x20 DUP1 DUP3 ADD SWAP3 SWAP1 SWAP3 MSTORE PUSH1 0x40 SWAP1 DUP2 ADD PUSH1 0x0 KECCAK256 DUP4 MLOAD SWAP3 DUP5 ADD MLOAD PUSH1 0x1 PUSH1 0x1 PUSH1 0x80 SHL SUB SWAP1 DUP2 AND PUSH1 0x1 PUSH1 0x80 SHL MUL SWAP4 AND SWAP3 SWAP1 SWAP3 OR DUP3 SSTORE DUP3 ADD MLOAD PUSH1 0x1 DUP3 ADD SSTORE PUSH1 0x60 SWAP1 SWAP2 ADD MLOAD PUSH1 0x2 SWAP1 SWAP2 ADD SSTORE POP SWAP1 SWAP6 POP DUP6 SWAP1 PUSH1 0x1 ADD PUSH2 0x2583 JUMP JUMPDEST POP SWAP6 SWAP7 SWAP6 POP POP POP POP POP POP JUMP JUMPDEST TIMESTAMP DUP5 PUSH1 0x20 ADD MLOAD GT ISZERO PUSH2 0x275F JUMPI PUSH1 0x20 DUP1 DUP6 ADD MLOAD PUSH1 0x0 SWAP1 DUP2 MSTORE PUSH1 0xF SWAP2 DUP3 SWAP1 MSTORE PUSH1 0x40 SWAP1 KECCAK256 SLOAD SWAP1 SIGNEXTEND PUSH2 0x270E DUP4 DUP3 PUSH2 0x2E7F JUMP JUMPDEST SWAP1 POP DUP5 PUSH1 0x20 ADD MLOAD DUP5 PUSH1 0x20 ADD MLOAD SUB PUSH2 0x272C JUMPI PUSH2 0x2729 DUP3 DUP3 PUSH2 0x2D7E JUMP JUMPDEST SWAP1 POP JUMPDEST PUSH1 0x20 DUP6 DUP2 ADD MLOAD PUSH1 0x0 SWAP1 DUP2 MSTORE PUSH1 0xF SWAP1 SWAP2 MSTORE PUSH1 0x40 SWAP1 KECCAK256 DUP1 SLOAD PUSH1 0x1 PUSH1 0x1 PUSH1 0x80 SHL SUB NOT AND PUSH1 0x1 PUSH1 0x1 PUSH1 0x80 SHL SUB SWAP3 SWAP1 SWAP3 AND SWAP2 SWAP1 SWAP2 OR SWAP1 SSTORE JUMPDEST TIMESTAMP DUP4 PUSH1 0x20 ADD MLOAD GT ISZERO PUSH2 0x703 JUMPI DUP4 PUSH1 0x20 ADD MLOAD DUP4 PUSH1 0x20 ADD MLOAD GT ISZERO PUSH2 0x703 JUMPI PUSH1 0x20 DUP1 DUP5 ADD MLOAD PUSH1 0x0 SWAP1 DUP2 MSTORE PUSH1 0xF SWAP2 DUP3 SWAP1 MSTORE PUSH1 0x40 SWAP1 KECCAK256 SLOAD SWAP1 SIGNEXTEND PUSH2 0x279D DUP3 DUP3 PUSH2 0x2D7E JUMP JUMPDEST PUSH1 0x20 DUP1 DUP7 ADD MLOAD PUSH1 0x0 SWAP1 DUP2 MSTORE PUSH1 0xF SWAP1 SWAP2 MSTORE PUSH1 0x40 SWAP1 KECCAK256 DUP1 SLOAD PUSH1 0x1 PUSH1 0x1 PUSH1 0x80 SHL SUB SWAP1 SWAP3 AND PUSH1 0x1 PUSH1 0x1 PUSH1 0x80 SHL SUB NOT SWAP1 SWAP3 AND SWAP2 SWAP1 SWAP2 OR SWAP1 SSTORE POP POP POP POP POP JUMP JUMPDEST PUSH1 0x1 PUSH1 0x1 PUSH1 0xA0 SHL SUB DUP3 AND PUSH2 0x2801 JUMPI PUSH1 0x40 MLOAD PUSH4 0x32505749 PUSH1 0xE1 SHL DUP2 MSTORE PUSH1 0x0 PUSH1 0x4 DUP3 ADD MSTORE PUSH1 0x24 ADD PUSH2 0x69F JUMP JUMPDEST PUSH1 0x0 PUSH2 0x280F DUP4 DUP4 PUSH1 0x0 PUSH2 0x18F1 JUMP JUMPDEST SWAP1 POP PUSH1 0x1 PUSH1 0x1 PUSH1 0xA0 SHL SUB DUP2 AND ISZERO PUSH2 0x9CB JUMPI PUSH1 0x40 MLOAD PUSH4 0x39E35637 PUSH1 0xE1 SHL DUP2 MSTORE PUSH1 0x0 PUSH1 0x4 DUP3 ADD MSTORE PUSH1 0x24 ADD PUSH2 0x69F JUMP JUMPDEST PUSH1 0x40 MLOAD DUP1 PUSH1 0x80 ADD PUSH1 0x40 MSTORE DUP1 PUSH1 0x0 PUSH1 0xF SIGNEXTEND DUP2 MSTORE PUSH1 0x20 ADD PUSH1 0x0 PUSH1 0xF SIGNEXTEND DUP2 MSTORE PUSH1 0x20 ADD PUSH1 0x0 DUP2 MSTORE PUSH1 0x20 ADD PUSH1 0x0 DUP2 MSTORE POP SWAP1 JUMP JUMPDEST PUSH1 0x1 PUSH1 0x1 PUSH1 0xE0 SHL SUB NOT DUP2 AND DUP2 EQ PUSH2 0x9AD JUMPI PUSH1 0x0 DUP1 REVERT JUMPDEST PUSH1 0x0 PUSH1 0x20 DUP3 DUP5 SUB SLT ISZERO PUSH2 0x2892 JUMPI PUSH1 0x0 DUP1 REVERT JUMPDEST DUP2 CALLDATALOAD PUSH2 0x1761 DUP2 PUSH2 0x286A JUMP JUMPDEST PUSH1 0x0 JUMPDEST DUP4 DUP2 LT ISZERO PUSH2 0x28B8 JUMPI DUP2 DUP2 ADD MLOAD DUP4 DUP3 ADD MSTORE PUSH1 0x20 ADD PUSH2 0x28A0 JUMP JUMPDEST POP POP PUSH1 0x0 SWAP2 ADD MSTORE JUMP JUMPDEST PUSH1 0x0 DUP2 MLOAD DUP1 DUP5 MSTORE PUSH2 0x28D9 DUP2 PUSH1 0x20 DUP7 ADD PUSH1 0x20 DUP7 ADD PUSH2 0x289D JUMP JUMPDEST PUSH1 0x1F ADD PUSH1 0x1F NOT AND SWAP3 SWAP1 SWAP3 ADD PUSH1 0x20 ADD SWAP3 SWAP2 POP POP JUMP JUMPDEST PUSH1 0x20 DUP2 MSTORE PUSH1 0x0 PUSH2 0x1761 PUSH1 0x20 DUP4 ADD DUP5 PUSH2 0x28C1 JUMP JUMPDEST PUSH1 0x0 PUSH1 0x20 DUP3 DUP5 SUB SLT ISZERO PUSH2 0x2912 JUMPI PUSH1 0x0 DUP1 REVERT JUMPDEST POP CALLDATALOAD SWAP2 SWAP1 POP JUMP JUMPDEST DUP1 CALLDATALOAD PUSH1 0x1 PUSH1 0x1 PUSH1 0xA0 SHL SUB DUP2 AND DUP2 EQ PUSH2 0x2930 JUMPI PUSH1 0x0 DUP1 REVERT JUMPDEST SWAP2 SWAP1 POP JUMP JUMPDEST PUSH1 0x0 DUP1 PUSH1 0x40 DUP4 DUP6 SUB SLT ISZERO PUSH2 0x2948 JUMPI PUSH1 0x0 DUP1 REVERT JUMPDEST PUSH2 0x2951 DUP4 PUSH2 0x2919 JUMP JUMPDEST SWAP5 PUSH1 0x20 SWAP4 SWAP1 SWAP4 ADD CALLDATALOAD SWAP4 POP POP POP JUMP JUMPDEST PUSH1 0x0 DUP1 PUSH1 0x0 PUSH1 0x60 DUP5 DUP7 SUB SLT ISZERO PUSH2 0x2974 JUMPI PUSH1 0x0 DUP1 REVERT JUMPDEST PUSH2 0x297D DUP5 PUSH2 0x2919 JUMP JUMPDEST SWAP3 POP PUSH2 0x298B PUSH1 0x20 DUP6 ADD PUSH2 0x2919 JUMP JUMPDEST SWAP3 SWAP6 SWAP3 SWAP5 POP POP POP PUSH1 0x40 SWAP2 SWAP1 SWAP2 ADD CALLDATALOAD SWAP1 JUMP JUMPDEST PUSH1 0x0 DUP1 PUSH1 0x40 DUP4 DUP6 SUB SLT ISZERO PUSH2 0x29AF JUMPI PUSH1 0x0 DUP1 REVERT JUMPDEST POP POP DUP1 CALLDATALOAD SWAP3 PUSH1 0x20 SWAP1 SWAP2 ADD CALLDATALOAD SWAP2 POP JUMP JUMPDEST DUP1 CALLDATALOAD PUSH1 0x1 PUSH1 0x1 PUSH1 0x60 SHL SUB DUP2 AND DUP2 EQ PUSH2 0x2930 JUMPI PUSH1 0x0 DUP1 REVERT JUMPDEST PUSH1 0x0 DUP1 PUSH1 0x0 DUP1 PUSH1 0x80 DUP6 DUP8 SUB SLT ISZERO PUSH2 0x29EB JUMPI PUSH1 0x0 DUP1 REVERT JUMPDEST PUSH2 0x29F4 DUP6 PUSH2 0x29BE JUMP JUMPDEST SWAP4 POP PUSH1 0x20 DUP6 ADD CALLDATALOAD PUSH4 0xFFFFFFFF DUP2 AND DUP2 EQ PUSH2 0x2A0D JUMPI PUSH1 0x0 DUP1 REVERT JUMPDEST SWAP3 POP PUSH1 0x40 DUP6 ADD CALLDATALOAD SWAP2 POP PUSH2 0x2A22 PUSH1 0x60 DUP7 ADD PUSH2 0x29BE JUMP JUMPDEST SWAP1 POP SWAP3 SWAP6 SWAP2 SWAP5 POP SWAP3 POP JUMP JUMPDEST PUSH1 0x0 PUSH1 0x20 DUP3 DUP5 SUB SLT ISZERO PUSH2 0x2A3F JUMPI PUSH1 0x0 DUP1 REVERT JUMPDEST PUSH2 0x1761 DUP3 PUSH2 0x2919 JUMP JUMPDEST PUSH1 0x0 DUP1 PUSH1 0x40 DUP4 DUP6 SUB SLT ISZERO PUSH2 0x2A5B JUMPI PUSH1 0x0 DUP1 REVERT JUMPDEST PUSH2 0x2A64 DUP4 PUSH2 0x2919 JUMP JUMPDEST SWAP2 POP PUSH1 0x20 DUP4 ADD CALLDATALOAD DUP1 ISZERO ISZERO DUP2 EQ PUSH2 0x2A79 JUMPI PUSH1 0x0 DUP1 REVERT JUMPDEST DUP1 SWAP2 POP POP SWAP3 POP SWAP3 SWAP1 POP JUMP JUMPDEST PUSH4 0x4E487B71 PUSH1 0xE0 SHL PUSH1 0x0 MSTORE PUSH1 0x41 PUSH1 0x4 MSTORE PUSH1 0x24 PUSH1 0x0 REVERT JUMPDEST PUSH1 0x0 DUP1 PUSH1 0x0 DUP1 PUSH1 0x80 DUP6 DUP8 SUB SLT ISZERO PUSH2 0x2AB0 JUMPI PUSH1 0x0 DUP1 REVERT JUMPDEST PUSH2 0x2AB9 DUP6 PUSH2 0x2919 JUMP JUMPDEST SWAP4 POP PUSH2 0x2AC7 PUSH1 0x20 DUP7 ADD PUSH2 0x2919 JUMP JUMPDEST SWAP3 POP PUSH1 0x40 DUP6 ADD CALLDATALOAD SWAP2 POP PUSH1 0x60 DUP6 ADD CALLDATALOAD PUSH8 0xFFFFFFFFFFFFFFFF DUP2 GT ISZERO PUSH2 0x2AEA JUMPI PUSH1 0x0 DUP1 REVERT JUMPDEST DUP6 ADD PUSH1 0x1F DUP2 ADD DUP8 SGT PUSH2 0x2AFB JUMPI PUSH1 0x0 DUP1 REVERT JUMPDEST DUP1 CALLDATALOAD PUSH8 0xFFFFFFFFFFFFFFFF DUP2 GT ISZERO PUSH2 0x2B15 JUMPI PUSH2 0x2B15 PUSH2 0x2A84 JUMP JUMPDEST PUSH1 0x40 MLOAD PUSH1 0x1F DUP3 ADD PUSH1 0x1F NOT SWAP1 DUP2 AND PUSH1 0x3F ADD AND DUP2 ADD PUSH8 0xFFFFFFFFFFFFFFFF DUP2 GT DUP3 DUP3 LT OR ISZERO PUSH2 0x2B44 JUMPI PUSH2 0x2B44 PUSH2 0x2A84 JUMP JUMPDEST PUSH1 0x40 MSTORE DUP2 DUP2 MSTORE DUP3 DUP3 ADD PUSH1 0x20 ADD DUP10 LT ISZERO PUSH2 0x2B5C JUMPI PUSH1 0x0 DUP1 REVERT JUMPDEST DUP2 PUSH1 0x20 DUP5 ADD PUSH1 0x20 DUP4 ADD CALLDATACOPY PUSH1 0x0 PUSH1 0x20 DUP4 DUP4 ADD ADD MSTORE DUP1 SWAP4 POP POP POP POP SWAP3 SWAP6 SWAP2 SWAP5 POP SWAP3 POP JUMP JUMPDEST PUSH1 0x0 DUP1 PUSH1 0x0 PUSH1 0x40 DUP5 DUP7 SUB SLT ISZERO PUSH2 0x2B93 JUMPI PUSH1 0x0 DUP1 REVERT JUMPDEST DUP4 CALLDATALOAD PUSH8 0xFFFFFFFFFFFFFFFF DUP2 GT ISZERO PUSH2 0x2BAA JUMPI PUSH1 0x0 DUP1 REVERT JUMPDEST DUP5 ADD PUSH1 0x1F DUP2 ADD DUP7 SGT PUSH2 0x2BBB JUMPI PUSH1 0x0 DUP1 REVERT JUMPDEST DUP1 CALLDATALOAD PUSH8 0xFFFFFFFFFFFFFFFF DUP2 GT ISZERO PUSH2 0x2BD2 JUMPI PUSH1 0x0 DUP1 REVERT JUMPDEST DUP7 PUSH1 0x20 DUP3 PUSH1 0x5 SHL DUP5 ADD ADD GT ISZERO PUSH2 0x2BE7 JUMPI PUSH1 0x0 DUP1 REVERT JUMPDEST PUSH1 0x20 SWAP2 DUP3 ADD SWAP8 SWAP1 SWAP7 POP SWAP5 ADD CALLDATALOAD SWAP4 SWAP3 POP POP POP JUMP JUMPDEST PUSH1 0x0 DUP1 PUSH1 0x40 DUP4 DUP6 SUB SLT ISZERO PUSH2 0x2C0D JUMPI PUSH1 0x0 DUP1 REVERT JUMPDEST PUSH2 0x2C16 DUP4 PUSH2 0x2919 JUMP JUMPDEST SWAP2 POP PUSH2 0x2C24 PUSH1 0x20 DUP5 ADD PUSH2 0x2919 JUMP JUMPDEST SWAP1 POP SWAP3 POP SWAP3 SWAP1 POP JUMP JUMPDEST PUSH1 0x1 DUP2 DUP2 SHR SWAP1 DUP3 AND DUP1 PUSH2 0x2C41 JUMPI PUSH1 0x7F DUP3 AND SWAP2 POP JUMPDEST PUSH1 0x20 DUP3 LT DUP2 SUB PUSH2 0x2C61 JUMPI PUSH4 0x4E487B71 PUSH1 0xE0 SHL PUSH1 0x0 MSTORE PUSH1 0x22 PUSH1 0x4 MSTORE PUSH1 0x24 PUSH1 0x0 REVERT JUMPDEST POP SWAP2 SWAP1 POP JUMP JUMPDEST PUSH4 0x4E487B71 PUSH1 0xE0 SHL PUSH1 0x0 MSTORE PUSH1 0x11 PUSH1 0x4 MSTORE PUSH1 0x24 PUSH1 0x0 REVERT JUMPDEST DUP1 DUP3 MUL DUP2 ISZERO DUP3 DUP3 DIV DUP5 EQ OR PUSH2 0x5A9 JUMPI PUSH2 0x5A9 PUSH2 0x2C67 JUMP JUMPDEST PUSH4 0x4E487B71 PUSH1 0xE0 SHL PUSH1 0x0 MSTORE PUSH1 0x12 PUSH1 0x4 MSTORE PUSH1 0x24 PUSH1 0x0 REVERT JUMPDEST PUSH1 0x0 DUP3 PUSH2 0x2CB9 JUMPI PUSH2 0x2CB9 PUSH2 0x2C94 JUMP JUMPDEST POP DIV SWAP1 JUMP JUMPDEST PUSH1 0x1 PUSH1 0x1 PUSH1 0x60 SHL SUB DUP3 DUP2 AND DUP3 DUP3 AND SUB SWAP1 DUP2 GT ISZERO PUSH2 0x5A9 JUMPI PUSH2 0x5A9 PUSH2 0x2C67 JUMP JUMPDEST PUSH4 0xFFFFFFFF DUP2 DUP2 AND DUP4 DUP3 AND ADD SWAP1 DUP2 GT ISZERO PUSH2 0x5A9 JUMPI PUSH2 0x5A9 PUSH2 0x2C67 JUMP JUMPDEST DUP1 DUP3 ADD DUP1 DUP3 GT ISZERO PUSH2 0x5A9 JUMPI PUSH2 0x5A9 PUSH2 0x2C67 JUMP JUMPDEST PUSH1 0x0 PUSH1 0x20 DUP3 DUP5 SUB SLT ISZERO PUSH2 0x2D1E JUMPI PUSH1 0x0 DUP1 REVERT JUMPDEST POP MLOAD SWAP2 SWAP1 POP JUMP JUMPDEST PUSH1 0x1 PUSH1 0x1 PUSH1 0x60 SHL SUB DUP2 DUP2 AND DUP4 DUP3 AND ADD SWAP1 DUP2 GT ISZERO PUSH2 0x5A9 JUMPI PUSH2 0x5A9 PUSH2 0x2C67 JUMP JUMPDEST DUP2 DUP2 SUB DUP2 DUP2 GT ISZERO PUSH2 0x5A9 JUMPI PUSH2 0x5A9 PUSH2 0x2C67 JUMP JUMPDEST PUSH1 0x0 DUP3 PUSH1 0xF SIGNEXTEND DUP3 PUSH1 0xF SIGNEXTEND MUL DUP1 PUSH1 0xF SIGNEXTEND SWAP2 POP DUP1 DUP3 EQ PUSH2 0x2D77 JUMPI PUSH2 0x2D77 PUSH2 0x2C67 JUMP JUMPDEST POP SWAP3 SWAP2 POP POP JUMP JUMPDEST PUSH1 0xF DUP3 DUP2 SIGNEXTEND SWAP1 DUP3 SWAP1 SIGNEXTEND SUB PUSH1 0x1 PUSH1 0x1 PUSH1 0x7F SHL SUB NOT DUP2 SLT PUSH1 0x1 PUSH1 0x1 PUSH1 0x7F SHL SUB DUP3 SGT OR ISZERO PUSH2 0x5A9 JUMPI PUSH2 0x5A9 PUSH2 0x2C67 JUMP JUMPDEST PUSH4 0x4E487B71 PUSH1 0xE0 SHL PUSH1 0x0 MSTORE PUSH1 0x32 PUSH1 0x4 MSTORE PUSH1 0x24 PUSH1 0x0 REVERT JUMPDEST PUSH4 0xFFFFFFFF DUP3 DUP2 AND DUP3 DUP3 AND SUB SWAP1 DUP2 GT ISZERO PUSH2 0x5A9 JUMPI PUSH2 0x5A9 PUSH2 0x2C67 JUMP JUMPDEST PUSH1 0x0 PUSH1 0x1 DUP3 ADD PUSH2 0x2DEF JUMPI PUSH2 0x2DEF PUSH2 0x2C67 JUMP JUMPDEST POP PUSH1 0x1 ADD SWAP1 JUMP JUMPDEST PUSH1 0x0 DUP4 MLOAD PUSH2 0x2E08 DUP2 DUP5 PUSH1 0x20 DUP9 ADD PUSH2 0x289D JUMP JUMPDEST DUP4 MLOAD SWAP1 DUP4 ADD SWAP1 PUSH2 0x2E1C DUP2 DUP4 PUSH1 0x20 DUP9 ADD PUSH2 0x289D JUMP JUMPDEST ADD SWAP5 SWAP4 POP POP POP POP JUMP JUMPDEST PUSH1 0x1 PUSH1 0x1 PUSH1 0xA0 SHL SUB DUP6 DUP2 AND DUP3 MSTORE DUP5 AND PUSH1 0x20 DUP3 ADD MSTORE PUSH1 0x40 DUP2 ADD DUP4 SWAP1 MSTORE PUSH1 0x80 PUSH1 0x60 DUP3 ADD DUP2 SWAP1 MSTORE PUSH1 0x0 SWAP1 PUSH2 0x2E58 SWAP1 DUP4 ADD DUP5 PUSH2 0x28C1 JUMP JUMPDEST SWAP7 SWAP6 POP POP POP POP POP POP JUMP JUMPDEST PUSH1 0x0 PUSH1 0x20 DUP3 DUP5 SUB SLT ISZERO PUSH2 0x2E74 JUMPI PUSH1 0x0 DUP1 REVERT JUMPDEST DUP2 MLOAD PUSH2 0x1761 DUP2 PUSH2 0x286A JUMP JUMPDEST PUSH1 0xF DUP2 DUP2 SIGNEXTEND SWAP1 DUP4 SWAP1 SIGNEXTEND ADD PUSH1 0x1 PUSH1 0x1 PUSH1 0x7F SHL SUB DUP2 SGT PUSH1 0x1 PUSH1 0x1 PUSH1 0x7F SHL SUB NOT DUP3 SLT OR ISZERO PUSH2 0x5A9 JUMPI PUSH2 0x5A9 PUSH2 0x2C67 JUMP JUMPDEST PUSH1 0x0 DUP2 PUSH1 0xF SIGNEXTEND DUP4 PUSH1 0xF SIGNEXTEND DUP1 PUSH2 0x2EC3 JUMPI PUSH2 0x2EC3 PUSH2 0x2C94 JUMP JUMPDEST PUSH1 0x1 PUSH1 0x1 PUSH1 0x7F SHL SUB NOT DUP3 EQ PUSH1 0x0 NOT DUP3 EQ AND ISZERO PUSH2 0x2EE1 JUMPI PUSH2 0x2EE1 PUSH2 0x2C67 JUMP JUMPDEST SWAP1 SDIV SWAP4 SWAP3 POP POP POP JUMP INVALID LOG2 PUSH5 0x6970667358 0x22 SLT KECCAK256 LT SELFBALANCE DIV 0xAB SHL PUSH32 0xCE5B31CDC2C284B5F73FAA8823A830CFDFA2566D104120D55E864736F6C6343 STOP ADDMOD SHL STOP CALLER "
		},
		"gasEstimates": {
			"creation": {
				"codeDepositCost": "2412800",
				"executionCost": "infinite",
				"totalCost": "infinite"
			},
			"external": {
				"approve(address,uint256)": "31560",
				"balanceOf(address)": "2678",
				"createLock(uint96,uint32,uint256,uint96)": "infinite",
				"emergencyWithdraw(uint256)": "infinite",
				"enableEmergencyMode()": "infinite",
				"epoch()": "2407",
				"getApproved(uint256)": "infinite",
				"getCurrentMultiplier(uint256)": "infinite",
				"getFarmingPower(uint256,uint256)": "infinite",
				"getTotalFarmingPower(uint256)": "infinite",
				"getUserLockCount(address)": "2604",
				"isApprovedForAll(address,address)": "infinite",
				"isEmergencyMode()": "2339",
				"merge(uint256[],uint256)": "infinite",
				"name()": "infinite",
				"owner()": "2432",
				"ownerOf(uint256)": "infinite",
				"paused()": "2338",
				"pointHistory(uint256)": "6841",
				"renounceOwnership()": "infinite",
				"safeTransferFrom(address,address,uint256)": "infinite",
				"safeTransferFrom(address,address,uint256,bytes)": "infinite",
				"setApprovalForAll(address,bool)": "26748",
				"slopeChanges(uint256)": "2601",
				"supportsInterface(bytes4)": "557",
				"symbol()": "infinite",
				"tokenURI(uint256)": "infinite",
				"totalWeightedSupply()": "2410",
				"transferFrom(address,address,uint256)": "infinite",
				"transferOwnership(address)": "28479",
				"userPointEpoch(uint256)": "2504",
				"userPointHistory(uint256,uint256)": "6958",
				"withdraw(uint256)": "infinite"
			},
			"internal": {
				"_checkpoint(uint256,struct VeSix.LockedBalance memory,struct VeSix.LockedBalance memory)": "infinite",
				"_checkpointGlobal()": "infinite",
				"_checkpointToken(uint256,struct VeSix.LockedBalance memory,struct VeSix.LockedBalance memory)": "infinite",
				"_processTokenSlopeChanges(struct VeSix.LockedBalance memory,struct VeSix.LockedBalance memory,int128,int128)": "infinite",
				"_processWeeklyCheckpoints(struct VeSix.Point memory,uint256,uint256,uint256)": "infinite",
				"_supplyAt(struct VeSix.Point memory,uint256)": "infinite"
			}
		},
		"methodIdentifiers": {
			"approve(address,uint256)": "095ea7b3",
			"balanceOf(address)": "70a08231",
			"createLock(uint96,uint32,uint256,uint96)": "45154ffa",
			"emergencyWithdraw(uint256)": "5312ea8e",
			"enableEmergencyMode()": "c5b1c7d0",
			"epoch()": "900cf0cf",
			"getApproved(uint256)": "081812fc",
			"getCurrentMultiplier(uint256)": "8b25e8c1",
			"getFarmingPower(uint256,uint256)": "b54373f8",
			"getTotalFarmingPower(uint256)": "c3d686cb",
			"getUserLockCount(address)": "9b7d02ad",
			"isApprovedForAll(address,address)": "e985e9c5",
			"isEmergencyMode()": "20a194b8",
			"merge(uint256[],uint256)": "bbe33ea5",
			"name()": "06fdde03",
			"owner()": "8da5cb5b",
			"ownerOf(uint256)": "6352211e",
			"paused()": "5c975abb",
			"pointHistory(uint256)": "8ad4c447",
			"renounceOwnership()": "715018a6",
			"safeTransferFrom(address,address,uint256)": "42842e0e",
			"safeTransferFrom(address,address,uint256,bytes)": "b88d4fde",
			"setApprovalForAll(address,bool)": "a22cb465",
			"slopeChanges(uint256)": "f52a36f7",
			"supportsInterface(bytes4)": "01ffc9a7",
			"symbol()": "95d89b41",
			"tokenURI(uint256)": "c87b56dd",
			"totalWeightedSupply()": "268dc199",
			"transferFrom(address,address,uint256)": "23b872dd",
			"transferOwnership(address)": "f2fde38b",
			"userPointEpoch(uint256)": "e58f5947",
			"userPointHistory(uint256,uint256)": "44acb42a",
			"withdraw(uint256)": "2e1a7d4d"
		}
	},
	"abi": [
		{
			"inputs": [
				{
					"internalType": "address",
					"name": "lockedToken",
					"type": "address"
				},
				{
					"internalType": "address",
					"name": "distributor",
					"type": "address"
				},
				{
					"internalType": "address",
					"name": "emergencyRecovery",
					"type": "address"
				},
				{
					"internalType": "string",
					"name": "name",
					"type": "string"
				},
				{
					"internalType": "string",
					"name": "symbol",
					"type": "string"
				}
			],
			"stateMutability": "nonpayable",
			"type": "constructor"
		},
		{
			"inputs": [],
			"name": "DeadlineExpired",
			"type": "error"
		},
		{
			"inputs": [
				{
					"internalType": "address",
					"name": "sender",
					"type": "address"
				},
				{
					"internalType": "uint256",
					"name": "tokenId",
					"type": "uint256"
				},
				{
					"internalType": "address",
					"name": "owner",
					"type": "address"
				}
			],
			"name": "ERC721IncorrectOwner",
			"type": "error"
		},
		{
			"inputs": [
				{
					"internalType": "address",
					"name": "operator",
					"type": "address"
				},
				{
					"internalType": "uint256",
					"name": "tokenId",
					"type": "uint256"
				}
			],
			"name": "ERC721InsufficientApproval",
			"type": "error"
		},
		{
			"inputs": [
				{
					"internalType": "address",
					"name": "approver",
					"type": "address"
				}
			],
			"name": "ERC721InvalidApprover",
			"type": "error"
		},
		{
			"inputs": [
				{
					"internalType": "address",
					"name": "operator",
					"type": "address"
				}
			],
			"name": "ERC721InvalidOperator",
			"type": "error"
		},
		{
			"inputs": [
				{
					"internalType": "address",
					"name": "owner",
					"type": "address"
				}
			],
			"name": "ERC721InvalidOwner",
			"type": "error"
		},
		{
			"inputs": [
				{
					"internalType": "address",
					"name": "receiver",
					"type": "address"
				}
			],
			"name": "ERC721InvalidReceiver",
			"type": "error"
		},
		{
			"inputs": [
				{
					"internalType": "address",
					"name": "sender",
					"type": "address"
				}
			],
			"name": "ERC721InvalidSender",
			"type": "error"
		},
		{
			"inputs": [
				{
					"internalType": "uint256",
					"name": "tokenId",
					"type": "uint256"
				}
			],
			"name": "ERC721NonexistentToken",
			"type": "error"
		},
		{
			"inputs": [],
			"name": "ExceedsMaxLocks",
			"type": "error"
		},
		{
			"inputs": [],
			"name": "InvalidAmount",
			"type": "error"
		},
		{
			"inputs": [],
			"name": "InvalidDuration",
			"type": "error"
		},
		{
			"inputs": [],
			"name": "InvalidRewardRate",
			"type": "error"
		},
		{
			"inputs": [],
			"name": "InvalidSplitAmount",
			"type": "error"
		},
		{
			"inputs": [],
			"name": "InvalidToken",
			"type": "error"
		},
		{
			"inputs": [],
			"name": "LockNotExists",
			"type": "error"
		},
		{
			"inputs": [],
			"name": "LockNotExpired",
			"type": "error"
		},
		{
			"inputs": [],
			"name": "MaxRewardRateExceeded",
			"type": "error"
		},
		{
			"inputs": [],
			"name": "NotTokenOwner",
			"type": "error"
		},
		{
			"inputs": [
				{
					"internalType": "address",
					"name": "owner",
					"type": "address"
				}
			],
			"name": "OwnableInvalidOwner",
			"type": "error"
		},
		{
			"inputs": [
				{
					"internalType": "address",
					"name": "account",
					"type": "address"
				}
			],
			"name": "OwnableUnauthorizedAccount",
			"type": "error"
		},
		{
			"inputs": [
				{
					"internalType": "address",
					"name": "token",
					"type": "address"
				}
			],
			"name": "SafeERC20FailedOperation",
			"type": "error"
		},
		{
			"inputs": [],
			"name": "SlippageExceeded",
			"type": "error"
		},
		{
			"inputs": [],
			"name": "TokenNotExists",
			"type": "error"
		},
		{
			"inputs": [],
			"name": "TooManyPieces",
			"type": "error"
		},
		{
			"inputs": [],
			"name": "TransferFailed",
			"type": "error"
		},
		{
			"inputs": [],
			"name": "ZeroAddress",
			"type": "error"
		},
		{
			"inputs": [],
			"name": "ZeroReward",
			"type": "error"
		},
		{
			"anonymous": false,
			"inputs": [
				{
					"indexed": true,
					"internalType": "address",
					"name": "owner",
					"type": "address"
				},
				{
					"indexed": true,
					"internalType": "address",
					"name": "approved",
					"type": "address"
				},
				{
					"indexed": true,
					"internalType": "uint256",
					"name": "tokenId",
					"type": "uint256"
				}
			],
			"name": "Approval",
			"type": "event"
		},
		{
			"anonymous": false,
			"inputs": [
				{
					"indexed": true,
					"internalType": "address",
					"name": "owner",
					"type": "address"
				},
				{
					"indexed": true,
					"internalType": "address",
					"name": "operator",
					"type": "address"
				},
				{
					"indexed": false,
					"internalType": "bool",
					"name": "approved",
					"type": "bool"
				}
			],
			"name": "ApprovalForAll",
			"type": "event"
		},
		{
			"anonymous": false,
			"inputs": [
				{
					"indexed": true,
					"internalType": "address",
					"name": "user",
					"type": "address"
				},
				{
					"indexed": true,
					"internalType": "uint256",
					"name": "tokenId",
					"type": "uint256"
				},
				{
					"indexed": false,
					"internalType": "uint96",
					"name": "amount",
					"type": "uint96"
				},
				{
					"indexed": false,
					"internalType": "uint32",
					"name": "lockTime",
					"type": "uint32"
				}
			],
			"name": "Deposit",
			"type": "event"
		},
		{
			"anonymous": false,
			"inputs": [
				{
					"indexed": false,
					"internalType": "address",
					"name": "recoveryAddress",
					"type": "address"
				}
			],
			"name": "EmergencyModeEnabled",
			"type": "event"
		},
		{
			"anonymous": false,
			"inputs": [
				{
					"indexed": true,
					"internalType": "address",
					"name": "user",
					"type": "address"
				},
				{
					"indexed": true,
					"internalType": "uint256",
					"name": "tokenId",
					"type": "uint256"
				},
				{
					"indexed": false,
					"internalType": "uint96",
					"name": "amount",
					"type": "uint96"
				}
			],
			"name": "EmergencyWithdraw",
			"type": "event"
		},
		{
			"anonymous": false,
			"inputs": [
				{
					"indexed": true,
					"internalType": "address",
					"name": "previousOwner",
					"type": "address"
				},
				{
					"indexed": true,
					"internalType": "address",
					"name": "newOwner",
					"type": "address"
				}
			],
			"name": "OwnershipTransferred",
			"type": "event"
		},
		{
			"anonymous": false,
			"inputs": [
				{
					"indexed": false,
					"internalType": "address",
					"name": "account",
					"type": "address"
				}
			],
			"name": "Paused",
			"type": "event"
		},
		{
			"anonymous": false,
			"inputs": [
				{
					"indexed": true,
					"internalType": "address",
					"name": "user",
					"type": "address"
				},
				{
					"indexed": true,
					"internalType": "uint256",
					"name": "tokenId",
					"type": "uint256"
				},
				{
					"indexed": false,
					"internalType": "uint96",
					"name": "reward",
					"type": "uint96"
				}
			],
			"name": "RewardClaimed",
			"type": "event"
		},
		{
			"anonymous": false,
			"inputs": [
				{
					"indexed": true,
					"internalType": "address",
					"name": "from",
					"type": "address"
				},
				{
					"indexed": true,
					"internalType": "address",
					"name": "to",
					"type": "address"
				},
				{
					"indexed": true,
					"internalType": "uint256",
					"name": "tokenId",
					"type": "uint256"
				}
			],
			"name": "Transfer",
			"type": "event"
		},
		{
			"anonymous": false,
			"inputs": [
				{
					"indexed": false,
					"internalType": "address",
					"name": "account",
					"type": "address"
				}
			],
			"name": "Unpaused",
			"type": "event"
		},
		{
			"anonymous": false,
			"inputs": [
				{
					"indexed": true,
					"internalType": "address",
					"name": "user",
					"type": "address"
				},
				{
					"indexed": true,
					"internalType": "uint256",
					"name": "tokenId",
					"type": "uint256"
				},
				{
					"indexed": false,
					"internalType": "uint96",
					"name": "amount",
					"type": "uint96"
				}
			],
			"name": "Withdraw",
			"type": "event"
		},
		{
			"inputs": [
				{
					"internalType": "address",
					"name": "to",
					"type": "address"
				},
				{
					"internalType": "uint256",
					"name": "tokenId",
					"type": "uint256"
				}
			],
			"name": "approve",
			"outputs": [],
			"stateMutability": "nonpayable",
			"type": "function"
		},
		{
			"inputs": [
				{
					"internalType": "address",
					"name": "owner",
					"type": "address"
				}
			],
			"name": "balanceOf",
			"outputs": [
				{
					"internalType": "uint256",
					"name": "",
					"type": "uint256"
				}
			],
			"stateMutability": "view",
			"type": "function"
		},
		{
			"inputs": [
				{
					"internalType": "uint96",
					"name": "amount",
					"type": "uint96"
				},
				{
					"internalType": "uint32",
					"name": "lockDuration",
					"type": "uint32"
				},
				{
					"internalType": "uint256",
					"name": "deadline",
					"type": "uint256"
				},
				{
					"internalType": "uint96",
					"name": "minMultiplier",
					"type": "uint96"
				}
			],
			"name": "createLock",
			"outputs": [
				{
					"internalType": "uint256",
					"name": "tokenId",
					"type": "uint256"
				}
			],
			"stateMutability": "nonpayable",
			"type": "function"
		},
		{
			"inputs": [
				{
					"internalType": "uint256",
					"name": "tokenId",
					"type": "uint256"
				}
			],
			"name": "emergencyWithdraw",
			"outputs": [],
			"stateMutability": "nonpayable",
			"type": "function"
		},
		{
			"inputs": [],
			"name": "enableEmergencyMode",
			"outputs": [],
			"stateMutability": "nonpayable",
			"type": "function"
		},
		{
			"inputs": [],
			"name": "epoch",
			"outputs": [
				{
					"internalType": "uint256",
					"name": "",
					"type": "uint256"
				}
			],
			"stateMutability": "view",
			"type": "function"
		},
		{
			"inputs": [
				{
					"internalType": "uint256",
					"name": "tokenId",
					"type": "uint256"
				}
			],
			"name": "getApproved",
			"outputs": [
				{
					"internalType": "address",
					"name": "",
					"type": "address"
				}
			],
			"stateMutability": "view",
			"type": "function"
		},
		{
			"inputs": [
				{
					"internalType": "uint256",
					"name": "tokenId",
					"type": "uint256"
				}
			],
			"name": "getCurrentMultiplier",
			"outputs": [
				{
					"internalType": "uint96",
					"name": "",
					"type": "uint96"
				}
			],
			"stateMutability": "view",
			"type": "function"
		},
		{
			"inputs": [
				{
					"internalType": "uint256",
					"name": "tokenId",
					"type": "uint256"
				},
				{
					"internalType": "uint256",
					"name": "timestamp",
					"type": "uint256"
				}
			],
			"name": "getFarmingPower",
			"outputs": [
				{
					"internalType": "uint256",
					"name": "",
					"type": "uint256"
				}
			],
			"stateMutability": "view",
			"type": "function"
		},
		{
			"inputs": [
				{
					"internalType": "uint256",
					"name": "timestamp",
					"type": "uint256"
				}
			],
			"name": "getTotalFarmingPower",
			"outputs": [
				{
					"internalType": "uint256",
					"name": "",
					"type": "uint256"
				}
			],
			"stateMutability": "view",
			"type": "function"
		},
		{
			"inputs": [
				{
					"internalType": "address",
					"name": "user",
					"type": "address"
				}
			],
			"name": "getUserLockCount",
			"outputs": [
				{
					"internalType": "uint256",
					"name": "",
					"type": "uint256"
				}
			],
			"stateMutability": "view",
			"type": "function"
		},
		{
			"inputs": [
				{
					"internalType": "address",
					"name": "owner",
					"type": "address"
				},
				{
					"internalType": "address",
					"name": "operator",
					"type": "address"
				}
			],
			"name": "isApprovedForAll",
			"outputs": [
				{
					"internalType": "bool",
					"name": "",
					"type": "bool"
				}
			],
			"stateMutability": "view",
			"type": "function"
		},
		{
			"inputs": [],
			"name": "isEmergencyMode",
			"outputs": [
				{
					"internalType": "bool",
					"name": "",
					"type": "bool"
				}
			],
			"stateMutability": "view",
			"type": "function"
		},
		{
			"inputs": [
				{
					"internalType": "uint256[]",
					"name": "tokenIds",
					"type": "uint256[]"
				},
				{
					"internalType": "uint256",
					"name": "deadline",
					"type": "uint256"
				}
			],
			"name": "merge",
			"outputs": [],
			"stateMutability": "nonpayable",
			"type": "function"
		},
		{
			"inputs": [],
			"name": "name",
			"outputs": [
				{
					"internalType": "string",
					"name": "",
					"type": "string"
				}
			],
			"stateMutability": "view",
			"type": "function"
		},
		{
			"inputs": [],
			"name": "owner",
			"outputs": [
				{
					"internalType": "address",
					"name": "",
					"type": "address"
				}
			],
			"stateMutability": "view",
			"type": "function"
		},
		{
			"inputs": [
				{
					"internalType": "uint256",
					"name": "tokenId",
					"type": "uint256"
				}
			],
			"name": "ownerOf",
			"outputs": [
				{
					"internalType": "address",
					"name": "",
					"type": "address"
				}
			],
			"stateMutability": "view",
			"type": "function"
		},
		{
			"inputs": [],
			"name": "paused",
			"outputs": [
				{
					"internalType": "bool",
					"name": "",
					"type": "bool"
				}
			],
			"stateMutability": "view",
			"type": "function"
		},
		{
			"inputs": [
				{
					"internalType": "uint256",
					"name": "",
					"type": "uint256"
				}
			],
			"name": "pointHistory",
			"outputs": [
				{
					"internalType": "int128",
					"name": "bias",
					"type": "int128"
				},
				{
					"internalType": "int128",
					"name": "slope",
					"type": "int128"
				},
				{
					"internalType": "uint256",
					"name": "ts",
					"type": "uint256"
				},
				{
					"internalType": "uint256",
					"name": "blk",
					"type": "uint256"
				}
			],
			"stateMutability": "view",
			"type": "function"
		},
		{
			"inputs": [],
			"name": "renounceOwnership",
			"outputs": [],
			"stateMutability": "nonpayable",
			"type": "function"
		},
		{
			"inputs": [
				{
					"internalType": "address",
					"name": "from",
					"type": "address"
				},
				{
					"internalType": "address",
					"name": "to",
					"type": "address"
				},
				{
					"internalType": "uint256",
					"name": "tokenId",
					"type": "uint256"
				}
			],
			"name": "safeTransferFrom",
			"outputs": [],
			"stateMutability": "nonpayable",
			"type": "function"
		},
		{
			"inputs": [
				{
					"internalType": "address",
					"name": "from",
					"type": "address"
				},
				{
					"internalType": "address",
					"name": "to",
					"type": "address"
				},
				{
					"internalType": "uint256",
					"name": "tokenId",
					"type": "uint256"
				},
				{
					"internalType": "bytes",
					"name": "data",
					"type": "bytes"
				}
			],
			"name": "safeTransferFrom",
			"outputs": [],
			"stateMutability": "nonpayable",
			"type": "function"
		},
		{
			"inputs": [
				{
					"internalType": "address",
					"name": "operator",
					"type": "address"
				},
				{
					"internalType": "bool",
					"name": "approved",
					"type": "bool"
				}
			],
			"name": "setApprovalForAll",
			"outputs": [],
			"stateMutability": "nonpayable",
			"type": "function"
		},
		{
			"inputs": [
				{
					"internalType": "uint256",
					"name": "",
					"type": "uint256"
				}
			],
			"name": "slopeChanges",
			"outputs": [
				{
					"internalType": "int128",
					"name": "",
					"type": "int128"
				}
			],
			"stateMutability": "view",
			"type": "function"
		},
		{
			"inputs": [
				{
					"internalType": "bytes4",
					"name": "interfaceId",
					"type": "bytes4"
				}
			],
			"name": "supportsInterface",
			"outputs": [
				{
					"internalType": "bool",
					"name": "",
					"type": "bool"
				}
			],
			"stateMutability": "view",
			"type": "function"
		},
		{
			"inputs": [],
			"name": "symbol",
			"outputs": [
				{
					"internalType": "string",
					"name": "",
					"type": "string"
				}
			],
			"stateMutability": "view",
			"type": "function"
		},
		{
			"inputs": [
				{
					"internalType": "uint256",
					"name": "tokenId",
					"type": "uint256"
				}
			],
			"name": "tokenURI",
			"outputs": [
				{
					"internalType": "string",
					"name": "",
					"type": "string"
				}
			],
			"stateMutability": "view",
			"type": "function"
		},
		{
			"inputs": [],
			"name": "totalWeightedSupply",
			"outputs": [
				{
					"internalType": "uint96",
					"name": "",
					"type": "uint96"
				}
			],
			"stateMutability": "view",
			"type": "function"
		},
		{
			"inputs": [
				{
					"internalType": "address",
					"name": "from",
					"type": "address"
				},
				{
					"internalType": "address",
					"name": "to",
					"type": "address"
				},
				{
					"internalType": "uint256",
					"name": "tokenId",
					"type": "uint256"
				}
			],
			"name": "transferFrom",
			"outputs": [],
			"stateMutability": "nonpayable",
			"type": "function"
		},
		{
			"inputs": [
				{
					"internalType": "address",
					"name": "newOwner",
					"type": "address"
				}
			],
			"name": "transferOwnership",
			"outputs": [],
			"stateMutability": "nonpayable",
			"type": "function"
		},
		{
			"inputs": [
				{
					"internalType": "uint256",
					"name": "",
					"type": "uint256"
				}
			],
			"name": "userPointEpoch",
			"outputs": [
				{
					"internalType": "uint256",
					"name": "",
					"type": "uint256"
				}
			],
			"stateMutability": "view",
			"type": "function"
		},
		{
			"inputs": [
				{
					"internalType": "uint256",
					"name": "",
					"type": "uint256"
				},
				{
					"internalType": "uint256",
					"name": "",
					"type": "uint256"
				}
			],
			"name": "userPointHistory",
			"outputs": [
				{
					"internalType": "int128",
					"name": "bias",
					"type": "int128"
				},
				{
					"internalType": "int128",
					"name": "slope",
					"type": "int128"
				},
				{
					"internalType": "uint256",
					"name": "ts",
					"type": "uint256"
				},
				{
					"internalType": "uint256",
					"name": "blk",
					"type": "uint256"
				}
			],
			"stateMutability": "view",
			"type": "function"
		},
		{
			"inputs": [
				{
					"internalType": "uint256",
					"name": "tokenId",
					"type": "uint256"
				}
			],
			"name": "withdraw",
			"outputs": [],
			"stateMutability": "nonpayable",
			"type": "function"
		}
	]
}