{
	"contracts/rewardsDistributor.sol": {
		"SixRewardsDistributor": {
			"abi": [
				{
					"inputs": [
						{
							"internalType": "address",
							"name": "_veSix",
							"type": "address"
						},
						{
							"internalType": "address",
							"name": "_rewardsToken",
							"type": "address"
						}
					],
					"stateMutability": "nonpayable",
					"type": "constructor"
				},
				{
					"inputs": [],
					"name": "InvalidAddress",
					"type": "error"
				},
				{
					"inputs": [],
					"name": "NoRewards",
					"type": "error"
				},
				{
					"inputs": [],
					"name": "NotAuthorized",
					"type": "error"
				},
				{
					"inputs": [
						{
							"internalType": "address",
							"name": "owner",
							"type": "address"
						}
					],
					"name": "OwnableInvalidOwner",
					"type": "error"
				},
				{
					"inputs": [
						{
							"internalType": "address",
							"name": "account",
							"type": "address"
						}
					],
					"name": "OwnableUnauthorizedAccount",
					"type": "error"
				},
				{
					"inputs": [],
					"name": "RewardsNotReady",
					"type": "error"
				},
				{
					"inputs": [
						{
							"internalType": "address",
							"name": "token",
							"type": "address"
						}
					],
					"name": "SafeERC20FailedOperation",
					"type": "error"
				},
				{
					"anonymous": false,
					"inputs": [
						{
							"indexed": true,
							"internalType": "address",
							"name": "previousOwner",
							"type": "address"
						},
						{
							"indexed": true,
							"internalType": "address",
							"name": "newOwner",
							"type": "address"
						}
					],
					"name": "OwnershipTransferred",
					"type": "event"
				},
				{
					"anonymous": false,
					"inputs": [
						{
							"indexed": true,
							"internalType": "uint256",
							"name": "tokenId",
							"type": "uint256"
						},
						{
							"indexed": false,
							"internalType": "uint256",
							"name": "amount",
							"type": "uint256"
						},
						{
							"indexed": false,
							"internalType": "uint256",
							"name": "currentEpoch",
							"type": "uint256"
						},
						{
							"indexed": false,
							"internalType": "uint256",
							"name": "maxEpoch",
							"type": "uint256"
						}
					],
					"name": "RewardsClaimed",
					"type": "event"
				},
				{
					"anonymous": false,
					"inputs": [
						{
							"indexed": false,
							"internalType": "uint256",
							"name": "timestamp",
							"type": "uint256"
						},
						{
							"indexed": false,
							"internalType": "uint256",
							"name": "amount",
							"type": "uint256"
						}
					],
					"name": "RewardsDistributed",
					"type": "event"
				},
				{
					"inputs": [
						{
							"internalType": "uint256",
							"name": "tokenId",
							"type": "uint256"
						}
					],
					"name": "claim",
					"outputs": [
						{
							"internalType": "uint256",
							"name": "",
							"type": "uint256"
						}
					],
					"stateMutability": "nonpayable",
					"type": "function"
				},
				{
					"inputs": [
						{
							"internalType": "uint256[]",
							"name": "tokenIds",
							"type": "uint256[]"
						}
					],
					"name": "claimMany",
					"outputs": [
						{
							"internalType": "bool",
							"name": "",
							"type": "bool"
						}
					],
					"stateMutability": "nonpayable",
					"type": "function"
				},
				{
					"inputs": [
						{
							"internalType": "uint256",
							"name": "tokenId",
							"type": "uint256"
						}
					],
					"name": "claimable",
					"outputs": [
						{
							"internalType": "uint256",
							"name": "",
							"type": "uint256"
						}
					],
					"stateMutability": "view",
					"type": "function"
				},
				{
					"inputs": [],
					"name": "distributeRewards",
					"outputs": [],
					"stateMutability": "nonpayable",
					"type": "function"
				},
				{
					"inputs": [],
					"name": "getCurrentVeSupply",
					"outputs": [
						{
							"internalType": "uint256",
							"name": "",
							"type": "uint256"
						}
					],
					"stateMutability": "view",
					"type": "function"
				},
				{
					"inputs": [
						{
							"internalType": "uint256",
							"name": "timestamp",
							"type": "uint256"
						}
					],
					"name": "getWeeklyRewards",
					"outputs": [
						{
							"internalType": "uint256",
							"name": "",
							"type": "uint256"
						}
					],
					"stateMutability": "view",
					"type": "function"
				},
				{
					"inputs": [],
					"name": "lastUpdateTime",
					"outputs": [
						{
							"internalType": "uint256",
							"name": "",
							"type": "uint256"
						}
					],
					"stateMutability": "view",
					"type": "function"
				},
				{
					"inputs": [],
					"name": "owner",
					"outputs": [
						{
							"internalType": "address",
							"name": "",
							"type": "address"
						}
					],
					"stateMutability": "view",
					"type": "function"
				},
				{
					"inputs": [],
					"name": "renounceOwnership",
					"outputs": [],
					"stateMutability": "nonpayable",
					"type": "function"
				},
				{
					"inputs": [],
					"name": "rewardsToken",
					"outputs": [
						{
							"internalType": "contract IERC20",
							"name": "",
							"type": "address"
						}
					],
					"stateMutability": "view",
					"type": "function"
				},
				{
					"inputs": [],
					"name": "startTime",
					"outputs": [
						{
							"internalType": "uint256",
							"name": "",
							"type": "uint256"
						}
					],
					"stateMutability": "view",
					"type": "function"
				},
				{
					"inputs": [],
					"name": "timeCursor",
					"outputs": [
						{
							"internalType": "uint256",
							"name": "",
							"type": "uint256"
						}
					],
					"stateMutability": "view",
					"type": "function"
				},
				{
					"inputs": [
						{
							"internalType": "uint256",
							"name": "",
							"type": "uint256"
						}
					],
					"name": "tokenEpoch",
					"outputs": [
						{
							"internalType": "uint256",
							"name": "",
							"type": "uint256"
						}
					],
					"stateMutability": "view",
					"type": "function"
				},
				{
					"inputs": [
						{
							"internalType": "uint256",
							"name": "",
							"type": "uint256"
						}
					],
					"name": "tokenTimeCursor",
					"outputs": [
						{
							"internalType": "uint256",
							"name": "",
							"type": "uint256"
						}
					],
					"stateMutability": "view",
					"type": "function"
				},
				{
					"inputs": [
						{
							"internalType": "address",
							"name": "newOwner",
							"type": "address"
						}
					],
					"name": "transferOwnership",
					"outputs": [],
					"stateMutability": "nonpayable",
					"type": "function"
				},
				{
					"inputs": [],
					"name": "veSix",
					"outputs": [
						{
							"internalType": "contract IVeSix",
							"name": "",
							"type": "address"
						}
					],
					"stateMutability": "view",
					"type": "function"
				},
				{
					"inputs": [
						{
							"internalType": "uint256",
							"name": "",
							"type": "uint256"
						}
					],
					"name": "veSupplyCache",
					"outputs": [
						{
							"internalType": "uint256",
							"name": "",
							"type": "uint256"
						}
					],
					"stateMutability": "view",
					"type": "function"
				},
				{
					"inputs": [
						{
							"internalType": "uint256",
							"name": "",
							"type": "uint256"
						}
					],
					"name": "weeklyRewards",
					"outputs": [
						{
							"internalType": "uint256",
							"name": "",
							"type": "uint256"
						}
					],
					"stateMutability": "view",
					"type": "function"
				}
			],
			"devdoc": {
				"errors": {
					"OwnableInvalidOwner(address)": [
						{
							"details": "The owner is not a valid owner account. (eg. `address(0)`)"
						}
					],
					"OwnableUnauthorizedAccount(address)": [
						{
							"details": "The caller account is not authorized to perform an operation."
						}
					],
					"SafeERC20FailedOperation(address)": [
						{
							"details": "An operation with an ERC-20 token failed."
						}
					]
				},
				"kind": "dev",
				"methods": {
					"owner()": {
						"details": "Returns the address of the current owner."
					},
					"renounceOwnership()": {
						"details": "Leaves the contract without owner. It will not be possible to call `onlyOwner` functions. Can only be called by the current owner. NOTE: Renouncing ownership will leave the contract without an owner, thereby disabling any functionality that is only available to the owner."
					},
					"transferOwnership(address)": {
						"details": "Transfers ownership of the contract to a new account (`newOwner`). Can only be called by the current owner."
					}
				},
				"version": 1
			},
			"evm": {
				"assembly": "    /* \"contracts/rewardsDistributor.sol\":413:7040  contract SixRewardsDistributor is Ownable, ReentrancyGuard {... */\n  mstore(0x40, 0xc0)\n    /* \"contracts/rewardsDistributor.sol\":1438:1832  constructor(address _veSix, address _rewardsToken) Ownable(msg.sender) {... */\n  callvalue\n  dup1\n  iszero\n  tag_1\n  jumpi\n  0x00\n  dup1\n  revert\ntag_1:\n  pop\n  mload(0x40)\n  sub(codesize, bytecodeSize)\n  dup1\n  bytecodeSize\n  dup4\n  codecopy\n  dup2\n  add\n  0x40\n  dup2\n  swap1\n  mstore\n  tag_2\n  swap2\n  tag_3\n  jump\t// in\ntag_2:\n    /* \"contracts/rewardsDistributor.sol\":1497:1507  msg.sender */\n  caller\n  dup1\n    /* \"@openzeppelin/contracts/access/Ownable.sol\":1269:1364  if (initialOwner == address(0)) {... */\n  tag_8\n  jumpi\n    /* \"@openzeppelin/contracts/access/Ownable.sol\":1322:1353  OwnableInvalidOwner(address(0)) */\n  mload(0x40)\n  shl(0xe0, 0x1e4fbdf7)\n  dup2\n  mstore\n    /* \"@openzeppelin/contracts/access/Ownable.sol\":1350:1351  0 */\n  0x00\n    /* \"@openzeppelin/contracts/access/Ownable.sol\":1322:1353  OwnableInvalidOwner(address(0)) */\n  0x04\n  dup3\n  add\n    /* \"#utility.yul\":640:691   */\n  mstore\n    /* \"#utility.yul\":613:631   */\n  0x24\n  add\n    /* \"@openzeppelin/contracts/access/Ownable.sol\":1322:1353  OwnableInvalidOwner(address(0)) */\n  mload(0x40)\n  dup1\n  swap2\n  sub\n  swap1\n  revert\n    /* \"@openzeppelin/contracts/access/Ownable.sol\":1269:1364  if (initialOwner == address(0)) {... */\ntag_8:\n    /* \"@openzeppelin/contracts/access/Ownable.sol\":1373:1405  _transferOwnership(initialOwner) */\n  tag_11\n    /* \"@openzeppelin/contracts/access/Ownable.sol\":1392:1404  initialOwner */\n  dup2\n    /* \"@openzeppelin/contracts/access/Ownable.sol\":1373:1391  _transferOwnership */\n  tag_12\n    /* \"@openzeppelin/contracts/access/Ownable.sol\":1373:1405  _transferOwnership(initialOwner) */\n  jump\t// in\ntag_11:\n  pop\n    /* \"@openzeppelin/contracts/security/ReentrancyGuard.sol\":1716:1717  1 */\n  0x01\n    /* \"@openzeppelin/contracts/security/ReentrancyGuard.sol\":1821:1843  _status = _NOT_ENTERED */\n  dup1\n  sstore\n  sub(shl(0xa0, 0x01), 0x01)\n    /* \"contracts/rewardsDistributor.sol\":1524:1544  _veSix == address(0) */\n  dup3\n  and\n  iszero\n  dup1\n    /* \"contracts/rewardsDistributor.sol\":1524:1575  _veSix == address(0) || _rewardsToken == address(0) */\n  tag_15\n  jumpi\n  pop\n  sub(shl(0xa0, 0x01), 0x01)\n    /* \"contracts/rewardsDistributor.sol\":1548:1575  _rewardsToken == address(0) */\n  dup2\n  and\n  iszero\n    /* \"contracts/rewardsDistributor.sol\":1524:1575  _veSix == address(0) || _rewardsToken == address(0) */\ntag_15:\n    /* \"contracts/rewardsDistributor.sol\":1520:1600  if (_veSix == address(0) || _rewardsToken == address(0)) revert InvalidAddress() */\n  iszero\n  tag_16\n  jumpi\n    /* \"contracts/rewardsDistributor.sol\":1584:1600  InvalidAddress() */\n  mload(0x40)\n  shl(0xe0, 0xe6c4247b)\n  dup2\n  mstore\n  0x04\n  add\n  mload(0x40)\n  dup1\n  swap2\n  sub\n  swap1\n  revert\n    /* \"contracts/rewardsDistributor.sol\":1520:1600  if (_veSix == address(0) || _rewardsToken == address(0)) revert InvalidAddress() */\ntag_16:\n  sub(shl(0xa0, 0x01), 0x01)\n    /* \"contracts/rewardsDistributor.sol\":1621:1643  veSix = IVeSix(_veSix) */\n  dup1\n  dup4\n  and\n  0x80\n  mstore\n    /* \"contracts/rewardsDistributor.sol\":1654:1690  rewardsToken = IERC20(_rewardsToken) */\n  dup2\n  and\n  0xa0\n  mstore\n    /* \"contracts/rewardsDistributor.sol\":759:765  7 days */\n  0x093a80\n    /* \"contracts/rewardsDistributor.sol\":1724:1746  block.timestamp / WEEK */\n  tag_17\n    /* \"contracts/rewardsDistributor.sol\":759:765  7 days */\n  dup2\n    /* \"contracts/rewardsDistributor.sol\":1724:1739  block.timestamp */\n  timestamp\n    /* \"contracts/rewardsDistributor.sol\":1724:1746  block.timestamp / WEEK */\n  tag_18\n  jump\t// in\ntag_17:\n    /* \"contracts/rewardsDistributor.sol\":1723:1754  (block.timestamp / WEEK) * WEEK */\n  tag_19\n  swap2\n  swap1\n  tag_20\n  jump\t// in\ntag_19:\n    /* \"contracts/rewardsDistributor.sol\":1711:1720  startTime */\n  0x02\n    /* \"contracts/rewardsDistributor.sol\":1711:1754  startTime = (block.timestamp / WEEK) * WEEK */\n  dup2\n  swap1\n  sstore\n    /* \"contracts/rewardsDistributor.sol\":1765:1779  lastUpdateTime */\n  0x03\n    /* \"contracts/rewardsDistributor.sol\":1765:1791  lastUpdateTime = startTime */\n  dup2\n  swap1\n  sstore\n    /* \"contracts/rewardsDistributor.sol\":1802:1812  timeCursor */\n  0x04\n    /* \"contracts/rewardsDistributor.sol\":1802:1824  timeCursor = startTime */\n  sstore\n  pop\n    /* \"contracts/rewardsDistributor.sol\":413:7040  contract SixRewardsDistributor is Ownable, ReentrancyGuard {... */\n  tag_24\n  swap1\n  pop\n  jump\n    /* \"@openzeppelin/contracts/access/Ownable.sol\":2912:3099  function _transferOwnership(address newOwner) internal virtual {... */\ntag_12:\n    /* \"@openzeppelin/contracts/access/Ownable.sol\":2985:3001  address oldOwner */\n  0x00\n    /* \"@openzeppelin/contracts/access/Ownable.sol\":3004:3010  _owner */\n  dup1\n  sload\n  sub(shl(0xa0, 0x01), 0x01)\n    /* \"@openzeppelin/contracts/access/Ownable.sol\":3020:3037  _owner = newOwner */\n  dup4\n  dup2\n  and\n  not(sub(shl(0xa0, 0x01), 0x01))\n  dup4\n  and\n  dup2\n  or\n  dup5\n  sstore\n    /* \"@openzeppelin/contracts/access/Ownable.sol\":3052:3092  OwnershipTransferred(oldOwner, newOwner) */\n  mload(0x40)\n    /* \"@openzeppelin/contracts/access/Ownable.sol\":3004:3010  _owner */\n  swap2\n  swap1\n  swap3\n  and\n  swap3\n  dup4\n  swap2\n    /* \"@openzeppelin/contracts/access/Ownable.sol\":3052:3092  OwnershipTransferred(oldOwner, newOwner) */\n  0x8be0079c531659141344cd1fd0a4f28419497f9722a3daafe3b4186f6b6457e0\n  swap2\n    /* \"@openzeppelin/contracts/access/Ownable.sol\":2985:3001  address oldOwner */\n  swap1\n    /* \"@openzeppelin/contracts/access/Ownable.sol\":3052:3092  OwnershipTransferred(oldOwner, newOwner) */\n  log3\n    /* \"@openzeppelin/contracts/access/Ownable.sol\":2975:3099  {... */\n  pop\n    /* \"@openzeppelin/contracts/access/Ownable.sol\":2912:3099  function _transferOwnership(address newOwner) internal virtual {... */\n  pop\n  jump\t// out\n    /* \"#utility.yul\":14:191   */\ntag_23:\n    /* \"#utility.yul\":93:106   */\n  dup1\n  mload\n  sub(shl(0xa0, 0x01), 0x01)\n    /* \"#utility.yul\":135:166   */\n  dup2\n  and\n    /* \"#utility.yul\":125:167   */\n  dup2\n  eq\n    /* \"#utility.yul\":115:185   */\n  tag_26\n  jumpi\n    /* \"#utility.yul\":181:182   */\n  0x00\n    /* \"#utility.yul\":178:179   */\n  dup1\n    /* \"#utility.yul\":171:183   */\n  revert\n    /* \"#utility.yul\":115:185   */\ntag_26:\n    /* \"#utility.yul\":14:191   */\n  swap2\n  swap1\n  pop\n  jump\t// out\n    /* \"#utility.yul\":196:489   */\ntag_3:\n    /* \"#utility.yul\":275:281   */\n  0x00\n    /* \"#utility.yul\":283:289   */\n  dup1\n    /* \"#utility.yul\":336:338   */\n  0x40\n    /* \"#utility.yul\":324:333   */\n  dup4\n    /* \"#utility.yul\":315:322   */\n  dup6\n    /* \"#utility.yul\":311:334   */\n  sub\n    /* \"#utility.yul\":307:339   */\n  slt\n    /* \"#utility.yul\":304:356   */\n  iszero\n  tag_28\n  jumpi\n    /* \"#utility.yul\":352:353   */\n  0x00\n    /* \"#utility.yul\":349:350   */\n  dup1\n    /* \"#utility.yul\":342:354   */\n  revert\n    /* \"#utility.yul\":304:356   */\ntag_28:\n    /* \"#utility.yul\":375:415   */\n  tag_29\n    /* \"#utility.yul\":405:414   */\n  dup4\n    /* \"#utility.yul\":375:415   */\n  tag_23\n  jump\t// in\ntag_29:\n    /* \"#utility.yul\":365:415   */\n  swap2\n  pop\n    /* \"#utility.yul\":434:483   */\n  tag_30\n    /* \"#utility.yul\":479:481   */\n  0x20\n    /* \"#utility.yul\":468:477   */\n  dup5\n    /* \"#utility.yul\":464:482   */\n  add\n    /* \"#utility.yul\":434:483   */\n  tag_23\n  jump\t// in\ntag_30:\n    /* \"#utility.yul\":424:483   */\n  swap1\n  pop\n    /* \"#utility.yul\":196:489   */\n  swap3\n  pop\n  swap3\n  swap1\n  pop\n  jump\t// out\n    /* \"#utility.yul\":702:919   */\ntag_18:\n    /* \"#utility.yul\":742:743   */\n  0x00\n    /* \"#utility.yul\":768:769   */\n  dup3\n    /* \"#utility.yul\":758:890   */\n  tag_33\n  jumpi\n    /* \"#utility.yul\":812:822   */\n  0x4e487b71\n    /* \"#utility.yul\":807:810   */\n  0xe0\n    /* \"#utility.yul\":803:823   */\n  shl\n    /* \"#utility.yul\":800:801   */\n  0x00\n    /* \"#utility.yul\":793:824   */\n  mstore\n    /* \"#utility.yul\":847:851   */\n  0x12\n    /* \"#utility.yul\":844:845   */\n  0x04\n    /* \"#utility.yul\":837:852   */\n  mstore\n    /* \"#utility.yul\":875:879   */\n  0x24\n    /* \"#utility.yul\":872:873   */\n  0x00\n    /* \"#utility.yul\":865:880   */\n  revert\n    /* \"#utility.yul\":758:890   */\ntag_33:\n  pop\n    /* \"#utility.yul\":904:913   */\n  div\n  swap1\n    /* \"#utility.yul\":702:919   */\n  jump\t// out\n    /* \"#utility.yul\":924:1189   */\ntag_20:\n    /* \"#utility.yul\":997:1006   */\n  dup1\n  dup3\n  mul\n    /* \"#utility.yul\":1028:1037   */\n  dup2\n  iszero\n    /* \"#utility.yul\":1045:1060   */\n  dup3\n  dup3\n  div\n    /* \"#utility.yul\":1039:1061   */\n  dup5\n  eq\n    /* \"#utility.yul\":1025:1062   */\n  or\n    /* \"#utility.yul\":1015:1183   */\n  tag_35\n  jumpi\n    /* \"#utility.yul\":1105:1115   */\n  0x4e487b71\n    /* \"#utility.yul\":1100:1103   */\n  0xe0\n    /* \"#utility.yul\":1096:1116   */\n  shl\n    /* \"#utility.yul\":1093:1094   */\n  0x00\n    /* \"#utility.yul\":1086:1117   */\n  mstore\n    /* \"#utility.yul\":1140:1144   */\n  0x11\n    /* \"#utility.yul\":1137:1138   */\n  0x04\n    /* \"#utility.yul\":1130:1145   */\n  mstore\n    /* \"#utility.yul\":1168:1172   */\n  0x24\n    /* \"#utility.yul\":1165:1166   */\n  0x00\n    /* \"#utility.yul\":1158:1173   */\n  revert\n    /* \"#utility.yul\":1015:1183   */\ntag_35:\n    /* \"#utility.yul\":924:1189   */\n  swap3\n  swap2\n  pop\n  pop\n  jump\t// out\ntag_24:\n    /* \"contracts/rewardsDistributor.sol\":413:7040  contract SixRewardsDistributor is Ownable, ReentrancyGuard {... */\n  mload(0x80)\n  mload(0xa0)\n  codecopy(0x00, dataOffset(sub_0), dataSize(sub_0))\n  0x00\n  assignImmutable(\"0xcc80724d438a73e21efb48933a149f5b95ade624d1778284bcca17773a1c9da3\")\n  0x00\n  assignImmutable(\"0xaaab56abb195b1bec63d541c2b63fa6fa7d6a00ed6a3f98e56354ff75745157a\")\n  return(0x00, dataSize(sub_0))\nstop\n\nsub_0: assembly {\n        /* \"contracts/rewardsDistributor.sol\":413:7040  contract SixRewardsDistributor is Ownable, ReentrancyGuard {... */\n      mstore(0x40, 0x80)\n      callvalue\n      dup1\n      iszero\n      tag_1\n      jumpi\n      0x00\n      dup1\n      revert\n    tag_1:\n      pop\n      jumpi(tag_2, lt(calldatasize, 0x04))\n      shr(0xe0, calldataload(0x00))\n      dup1\n      0x98a3f422\n      gt\n      tag_21\n      jumpi\n      dup1\n      0xd1d58b25\n      gt\n      tag_22\n      jumpi\n      dup1\n      0xd1d58b25\n      eq\n      tag_16\n      jumpi\n      dup1\n      0xe6e00a8a\n      eq\n      tag_17\n      jumpi\n      dup1\n      0xeeff799a\n      eq\n      tag_18\n      jumpi\n      dup1\n      0xf2fde38b\n      eq\n      tag_19\n      jumpi\n      dup1\n      0xf6dd9e43\n      eq\n      tag_20\n      jumpi\n      0x00\n      dup1\n      revert\n    tag_22:\n      dup1\n      0x98a3f422\n      eq\n      tag_12\n      jumpi\n      dup1\n      0xaf364c05\n      eq\n      tag_13\n      jumpi\n      dup1\n      0xc8f33c91\n      eq\n      tag_14\n      jumpi\n      dup1\n      0xd1af0c7d\n      eq\n      tag_15\n      jumpi\n      0x00\n      dup1\n      revert\n    tag_21:\n      dup1\n      0x78e97925\n      gt\n      tag_23\n      jumpi\n      dup1\n      0x78e97925\n      eq\n      tag_7\n      jumpi\n      dup1\n      0x8736659b\n      eq\n      tag_8\n      jumpi\n      dup1\n      0x8da5cb5b\n      eq\n      tag_9\n      jumpi\n      dup1\n      0x925489a8\n      eq\n      tag_10\n      jumpi\n      dup1\n      0x92815606\n      eq\n      tag_11\n      jumpi\n      0x00\n      dup1\n      revert\n    tag_23:\n      dup1\n      0x069bf581\n      eq\n      tag_3\n      jumpi\n      dup1\n      0x379607f5\n      eq\n      tag_4\n      jumpi\n      dup1\n      0x6f4a2cd0\n      eq\n      tag_5\n      jumpi\n      dup1\n      0x715018a6\n      eq\n      tag_6\n      jumpi\n    tag_2:\n      0x00\n      dup1\n      revert\n        /* \"contracts/rewardsDistributor.sol\":6859:7037  function getCurrentVeSupply() external view returns (uint256) {... */\n    tag_3:\n      tag_24\n      tag_25\n      jump\t// in\n    tag_24:\n      mload(0x40)\n        /* \"#utility.yul\":160:185   */\n      swap1\n      dup2\n      mstore\n        /* \"#utility.yul\":148:150   */\n      0x20\n        /* \"#utility.yul\":133:151   */\n      add\n        /* \"contracts/rewardsDistributor.sol\":6859:7037  function getCurrentVeSupply() external view returns (uint256) {... */\n    tag_26:\n      mload(0x40)\n      dup1\n      swap2\n      sub\n      swap1\n      return\n        /* \"contracts/rewardsDistributor.sol\":5405:6345  function claim(uint256 tokenId) external nonReentrant returns (uint256) {... */\n    tag_4:\n      tag_24\n      tag_29\n      calldatasize\n      0x04\n      tag_30\n      jump\t// in\n    tag_29:\n      tag_31\n      jump\t// in\n        /* \"contracts/rewardsDistributor.sol\":1840:2830  function distributeRewards() external nonReentrant {... */\n    tag_5:\n      tag_33\n      tag_34\n      jump\t// in\n    tag_33:\n      stop\n        /* \"@openzeppelin/contracts/access/Ownable.sol\":2293:2394  function renounceOwnership() public virtual onlyOwner {... */\n    tag_6:\n      tag_33\n      tag_36\n      jump\t// in\n        /* \"contracts/rewardsDistributor.sol\":941:965  uint256 public startTime */\n    tag_7:\n      tag_24\n      sload(0x02)\n      dup2\n      jump\n        /* \"contracts/rewardsDistributor.sol\":1008:1033  uint256 public timeCursor */\n    tag_8:\n      tag_24\n      sload(0x04)\n      dup2\n      jump\n        /* \"@openzeppelin/contracts/access/Ownable.sol\":1638:1723  function owner() public view virtual returns (address) {... */\n    tag_9:\n        /* \"@openzeppelin/contracts/access/Ownable.sol\":1684:1691  address */\n      0x00\n        /* \"@openzeppelin/contracts/access/Ownable.sol\":1710:1716  _owner */\n      sload\n      sub(shl(0xa0, 0x01), 0x01)\n      and\n        /* \"@openzeppelin/contracts/access/Ownable.sol\":1638:1723  function owner() public view virtual returns (address) {... */\n    tag_43:\n      mload(0x40)\n      sub(shl(0xa0, 0x01), 0x01)\n        /* \"#utility.yul\":545:577   */\n      swap1\n      swap2\n      and\n        /* \"#utility.yul\":527:578   */\n      dup2\n      mstore\n        /* \"#utility.yul\":515:517   */\n      0x20\n        /* \"#utility.yul\":500:518   */\n      add\n        /* \"@openzeppelin/contracts/access/Ownable.sol\":1638:1723  function owner() public view virtual returns (address) {... */\n      tag_26\n        /* \"#utility.yul\":381:584   */\n      jump\n        /* \"contracts/rewardsDistributor.sol\":6353:6677  function claimMany(uint256[] calldata tokenIds) external nonReentrant returns (bool) {... */\n    tag_10:\n      tag_47\n      tag_48\n      calldatasize\n      0x04\n      tag_49\n      jump\t// in\n    tag_48:\n      tag_50\n      jump\t// in\n    tag_47:\n      mload(0x40)\n        /* \"#utility.yul\":1369:1383   */\n      swap1\n      iszero\n        /* \"#utility.yul\":1362:1384   */\n      iszero\n        /* \"#utility.yul\":1344:1385   */\n      dup2\n      mstore\n        /* \"#utility.yul\":1332:1334   */\n      0x20\n        /* \"#utility.yul\":1317:1335   */\n      add\n        /* \"contracts/rewardsDistributor.sol\":6353:6677  function claimMany(uint256[] calldata tokenIds) external nonReentrant returns (bool) {... */\n      tag_26\n        /* \"#utility.yul\":1204:1391   */\n      jump\n        /* \"contracts/rewardsDistributor.sol\":856:885  IVeSix public immutable veSix */\n    tag_11:\n      tag_43\n      immutable(\"0xaaab56abb195b1bec63d541c2b63fa6fa7d6a00ed6a3f98e56354ff75745157a\")\n      dup2\n      jump\n        /* \"contracts/rewardsDistributor.sol\":1103:1148  mapping(uint256 => uint256) public tokenEpoch */\n    tag_12:\n      tag_24\n      tag_58\n      calldatasize\n      0x04\n      tag_30\n      jump\t// in\n    tag_58:\n      mstore(0x20, 0x06)\n      0x00\n      swap1\n      dup2\n      mstore\n      0x40\n      swap1\n      keccak256\n      sload\n      dup2\n      jump\n        /* \"contracts/rewardsDistributor.sol\":1155:1203  mapping(uint256 => uint256) public weeklyRewards */\n    tag_13:\n      tag_24\n      tag_62\n      calldatasize\n      0x04\n      tag_30\n      jump\t// in\n    tag_62:\n      mstore(0x20, 0x07)\n      0x00\n      swap1\n      dup2\n      mstore\n      0x40\n      swap1\n      keccak256\n      sload\n      dup2\n      jump\n        /* \"contracts/rewardsDistributor.sol\":972:1001  uint256 public lastUpdateTime */\n    tag_14:\n      tag_24\n      sload(0x03)\n      dup2\n      jump\n        /* \"contracts/rewardsDistributor.sol\":892:928  IERC20 public immutable rewardsToken */\n    tag_15:\n      tag_43\n      immutable(\"0xcc80724d438a73e21efb48933a149f5b95ade624d1778284bcca17773a1c9da3\")\n      dup2\n      jump\n        /* \"contracts/rewardsDistributor.sol\":4194:4389  function claimable(uint256 tokenId) external view returns (uint256) {... */\n    tag_16:\n      tag_24\n      tag_73\n      calldatasize\n      0x04\n      tag_30\n      jump\t// in\n    tag_73:\n      tag_74\n      jump\t// in\n        /* \"contracts/rewardsDistributor.sol\":1046:1096  mapping(uint256 => uint256) public tokenTimeCursor */\n    tag_17:\n      tag_24\n      tag_77\n      calldatasize\n      0x04\n      tag_30\n      jump\t// in\n    tag_77:\n      mstore(0x20, 0x05)\n      0x00\n      swap1\n      dup2\n      mstore\n      0x40\n      swap1\n      keccak256\n      sload\n      dup2\n      jump\n        /* \"contracts/rewardsDistributor.sol\":6708:6851  function getWeeklyRewards(uint256 timestamp) external view returns (uint256) {... */\n    tag_18:\n      tag_24\n      tag_81\n      calldatasize\n      0x04\n      tag_30\n      jump\t// in\n    tag_81:\n      tag_82\n      jump\t// in\n        /* \"@openzeppelin/contracts/access/Ownable.sol\":2543:2758  function transferOwnership(address newOwner) public virtual onlyOwner {... */\n    tag_19:\n      tag_33\n      tag_85\n      calldatasize\n      0x04\n      tag_86\n      jump\t// in\n    tag_85:\n      tag_87\n      jump\t// in\n        /* \"contracts/rewardsDistributor.sol\":1210:1258  mapping(uint256 => uint256) public veSupplyCache */\n    tag_20:\n      tag_24\n      tag_89\n      calldatasize\n      0x04\n      tag_30\n      jump\t// in\n    tag_89:\n      mstore(0x20, 0x08)\n      0x00\n      swap1\n      dup2\n      mstore\n      0x40\n      swap1\n      keccak256\n      sload\n      dup2\n      jump\n        /* \"contracts/rewardsDistributor.sol\":6859:7037  function getCurrentVeSupply() external view returns (uint256) {... */\n    tag_25:\n        /* \"contracts/rewardsDistributor.sol\":6912:6919  uint256 */\n      0x00\n      dup1\n        /* \"contracts/rewardsDistributor.sol\":759:765  7 days */\n      0x093a80\n        /* \"contracts/rewardsDistributor.sol\":6955:6977  block.timestamp / WEEK */\n      tag_93\n        /* \"contracts/rewardsDistributor.sol\":759:765  7 days */\n      dup2\n        /* \"contracts/rewardsDistributor.sol\":6955:6970  block.timestamp */\n      timestamp\n        /* \"contracts/rewardsDistributor.sol\":6955:6977  block.timestamp / WEEK */\n      tag_94\n      jump\t// in\n    tag_93:\n        /* \"contracts/rewardsDistributor.sol\":6954:6985  (block.timestamp / WEEK) * WEEK */\n      tag_95\n      swap2\n      swap1\n      tag_96\n      jump\t// in\n    tag_95:\n        /* \"contracts/rewardsDistributor.sol\":7003:7029  veSupplyCache[currentWeek] */\n      0x00\n      swap1\n      dup2\n      mstore\n        /* \"contracts/rewardsDistributor.sol\":7003:7016  veSupplyCache */\n      0x08\n        /* \"contracts/rewardsDistributor.sol\":7003:7029  veSupplyCache[currentWeek] */\n      0x20\n      mstore\n      0x40\n      swap1\n      keccak256\n      sload\n      swap3\n        /* \"contracts/rewardsDistributor.sol\":6859:7037  function getCurrentVeSupply() external view returns (uint256) {... */\n      swap2\n      pop\n      pop\n      jump\t// out\n        /* \"contracts/rewardsDistributor.sol\":5405:6345  function claim(uint256 tokenId) external nonReentrant returns (uint256) {... */\n    tag_31:\n        /* \"contracts/rewardsDistributor.sol\":5468:5475  uint256 */\n      0x00\n        /* \"@openzeppelin/contracts/security/ReentrancyGuard.sol\":2261:2282  _nonReentrantBefore() */\n      tag_98\n        /* \"@openzeppelin/contracts/security/ReentrancyGuard.sol\":2261:2280  _nonReentrantBefore */\n      tag_99\n        /* \"@openzeppelin/contracts/security/ReentrancyGuard.sol\":2261:2282  _nonReentrantBefore() */\n      jump\t// in\n    tag_98:\n        /* \"contracts/rewardsDistributor.sol\":5493:5537  veSix.isApprovedOrOwner(msg.sender, tokenId) */\n      mload(0x40)\n      shl(0xe0, 0x430c2081)\n      dup2\n      mstore\n        /* \"contracts/rewardsDistributor.sol\":5517:5527  msg.sender */\n      caller\n        /* \"contracts/rewardsDistributor.sol\":5493:5537  veSix.isApprovedOrOwner(msg.sender, tokenId) */\n      0x04\n      dup3\n      add\n        /* \"#utility.yul\":2930:2981   */\n      mstore\n        /* \"#utility.yul\":2997:3015   */\n      0x24\n      dup2\n      add\n        /* \"#utility.yul\":2990:3024   */\n      dup4\n      swap1\n      mstore\n        /* \"contracts/rewardsDistributor.sol\":5493:5498  veSix */\n      immutable(\"0xaaab56abb195b1bec63d541c2b63fa6fa7d6a00ed6a3f98e56354ff75745157a\")\n      sub(shl(0xa0, 0x01), 0x01)\n        /* \"contracts/rewardsDistributor.sol\":5493:5516  veSix.isApprovedOrOwner */\n      and\n      swap1\n      0x430c2081\n      swap1\n        /* \"#utility.yul\":2903:2921   */\n      0x44\n      add\n        /* \"contracts/rewardsDistributor.sol\":5493:5537  veSix.isApprovedOrOwner(msg.sender, tokenId) */\n      0x20\n      mload(0x40)\n      dup1\n      dup4\n      sub\n      dup2\n      dup7\n      gas\n      staticcall\n      iszero\n      dup1\n      iszero\n      tag_104\n      jumpi\n      returndatasize\n      0x00\n      dup1\n      returndatacopy\n      revert(0x00, returndatasize)\n    tag_104:\n      pop\n      pop\n      pop\n      pop\n      mload(0x40)\n      returndatasize\n      not(0x1f)\n      0x1f\n      dup3\n      add\n      and\n      dup3\n      add\n      dup1\n      0x40\n      mstore\n      pop\n      dup2\n      add\n      swap1\n      tag_105\n      swap2\n      swap1\n      tag_106\n      jump\t// in\n    tag_105:\n        /* \"contracts/rewardsDistributor.sol\":5488:5561  if (!veSix.isApprovedOrOwner(msg.sender, tokenId)) revert NotAuthorized() */\n      tag_107\n      jumpi\n        /* \"contracts/rewardsDistributor.sol\":5546:5561  NotAuthorized() */\n      mload(0x40)\n      shl(0xe0, 0xea8e4eb5)\n      dup2\n      mstore\n      0x04\n      add\n      mload(0x40)\n      dup1\n      swap2\n      sub\n      swap1\n      revert\n        /* \"contracts/rewardsDistributor.sol\":5488:5561  if (!veSix.isApprovedOrOwner(msg.sender, tokenId)) revert NotAuthorized() */\n    tag_107:\n        /* \"contracts/rewardsDistributor.sol\":5596:5606  timeCursor */\n      sload(0x04)\n        /* \"contracts/rewardsDistributor.sol\":5578:5593  block.timestamp */\n      timestamp\n        /* \"contracts/rewardsDistributor.sol\":5578:5606  block.timestamp > timeCursor */\n      gt\n        /* \"contracts/rewardsDistributor.sol\":5574:5652  if (block.timestamp > timeCursor) {... */\n      iszero\n      tag_109\n      jumpi\n        /* \"contracts/rewardsDistributor.sol\":5623:5640  _updateVeSupply() */\n      tag_109\n        /* \"contracts/rewardsDistributor.sol\":5623:5638  _updateVeSupply */\n      tag_110\n        /* \"contracts/rewardsDistributor.sol\":5623:5640  _updateVeSupply() */\n      jump\t// in\n    tag_109:\n        /* \"contracts/rewardsDistributor.sol\":5664:5683  uint256 currentWeek */\n      0x00\n        /* \"contracts/rewardsDistributor.sol\":759:765  7 days */\n      0x093a80\n        /* \"contracts/rewardsDistributor.sol\":5687:5709  block.timestamp / WEEK */\n      tag_111\n        /* \"contracts/rewardsDistributor.sol\":759:765  7 days */\n      dup2\n        /* \"contracts/rewardsDistributor.sol\":5687:5702  block.timestamp */\n      timestamp\n        /* \"contracts/rewardsDistributor.sol\":5687:5709  block.timestamp / WEEK */\n      tag_94\n      jump\t// in\n    tag_111:\n        /* \"contracts/rewardsDistributor.sol\":5686:5717  (block.timestamp / WEEK) * WEEK */\n      tag_112\n      swap2\n      swap1\n      tag_96\n      jump\t// in\n    tag_112:\n        /* \"contracts/rewardsDistributor.sol\":5664:5717  uint256 currentWeek = (block.timestamp / WEEK) * WEEK */\n      swap1\n      pop\n        /* \"contracts/rewardsDistributor.sol\":5728:5742  uint256 amount */\n      0x00\n        /* \"contracts/rewardsDistributor.sol\":5745:5782  _calculateClaim(tokenId, currentWeek) */\n      tag_113\n        /* \"contracts/rewardsDistributor.sol\":5761:5768  tokenId */\n      dup5\n        /* \"contracts/rewardsDistributor.sol\":5770:5781  currentWeek */\n      dup4\n        /* \"contracts/rewardsDistributor.sol\":5745:5760  _calculateClaim */\n      tag_114\n        /* \"contracts/rewardsDistributor.sol\":5745:5782  _calculateClaim(tokenId, currentWeek) */\n      jump\t// in\n    tag_113:\n        /* \"contracts/rewardsDistributor.sol\":5728:5782  uint256 amount = _calculateClaim(tokenId, currentWeek) */\n      swap1\n      pop\n        /* \"contracts/rewardsDistributor.sol\":5797:5803  amount */\n      dup1\n        /* \"contracts/rewardsDistributor.sol\":5807:5808  0 */\n      0x00\n        /* \"contracts/rewardsDistributor.sol\":5797:5808  amount == 0 */\n      sub\n        /* \"contracts/rewardsDistributor.sol\":5793:5828  if (amount == 0) revert NoRewards() */\n      tag_115\n      jumpi\n        /* \"contracts/rewardsDistributor.sol\":5817:5828  NoRewards() */\n      mload(0x40)\n      shl(0xe2, 0x0fec21fd)\n      dup2\n      mstore\n      0x04\n      add\n      mload(0x40)\n      dup1\n      swap2\n      sub\n      swap1\n      revert\n        /* \"contracts/rewardsDistributor.sol\":5793:5828  if (amount == 0) revert NoRewards() */\n    tag_115:\n        /* \"contracts/rewardsDistributor.sol\":5871:5895  tokenTimeCursor[tokenId] */\n      0x00\n      dup5\n      dup2\n      mstore\n        /* \"contracts/rewardsDistributor.sol\":5871:5886  tokenTimeCursor */\n      0x05\n        /* \"contracts/rewardsDistributor.sol\":5871:5895  tokenTimeCursor[tokenId] */\n      0x20\n      mstore\n      0x40\n      swap1\n      dup2\n      swap1\n      keccak256\n        /* \"contracts/rewardsDistributor.sol\":5871:5909  tokenTimeCursor[tokenId] = currentWeek */\n      dup4\n      swap1\n      sstore\n        /* \"contracts/rewardsDistributor.sol\":5942:5973  veSix.user_point_epoch(tokenId) */\n      mload\n      shl(0xe2, 0x391044d7)\n      dup2\n      mstore\n      0x04\n      dup2\n      add\n        /* \"#utility.yul\":160:185   */\n      dup6\n      swap1\n      mstore\n        /* \"contracts/rewardsDistributor.sol\":5942:5947  veSix */\n      immutable(\"0xaaab56abb195b1bec63d541c2b63fa6fa7d6a00ed6a3f98e56354ff75745157a\")\n      sub(shl(0xa0, 0x01), 0x01)\n        /* \"contracts/rewardsDistributor.sol\":5942:5964  veSix.user_point_epoch */\n      and\n      swap1\n      0xe441135c\n      swap1\n        /* \"#utility.yul\":133:151   */\n      0x24\n      add\n        /* \"contracts/rewardsDistributor.sol\":5942:5973  veSix.user_point_epoch(tokenId) */\n      0x20\n      mload(0x40)\n      dup1\n      dup4\n      sub\n      dup2\n      dup7\n      gas\n      staticcall\n      iszero\n      dup1\n      iszero\n      tag_118\n      jumpi\n      returndatasize\n      0x00\n      dup1\n      returndatacopy\n      revert(0x00, returndatasize)\n    tag_118:\n      pop\n      pop\n      pop\n      pop\n      mload(0x40)\n      returndatasize\n      not(0x1f)\n      0x1f\n      dup3\n      add\n      and\n      dup3\n      add\n      dup1\n      0x40\n      mstore\n      pop\n      dup2\n      add\n      swap1\n      tag_119\n      swap2\n      swap1\n      tag_120\n      jump\t// in\n    tag_119:\n        /* \"contracts/rewardsDistributor.sol\":5920:5939  tokenEpoch[tokenId] */\n      0x00\n      dup6\n      dup2\n      mstore\n        /* \"contracts/rewardsDistributor.sol\":5920:5930  tokenEpoch */\n      0x06\n        /* \"contracts/rewardsDistributor.sol\":5920:5939  tokenEpoch[tokenId] */\n      0x20\n      mstore\n      0x40\n      dup2\n      keccak256\n        /* \"contracts/rewardsDistributor.sol\":5920:5973  tokenEpoch[tokenId] = veSix.user_point_epoch(tokenId) */\n      swap2\n      swap1\n      swap2\n      sstore\n        /* \"contracts/rewardsDistributor.sol\":6029:6043  rewardsBalance */\n      0x09\n        /* \"contracts/rewardsDistributor.sol\":6029:6053  rewardsBalance -= amount */\n      dup1\n      sload\n        /* \"contracts/rewardsDistributor.sol\":6047:6053  amount */\n      dup4\n      swap3\n        /* \"contracts/rewardsDistributor.sol\":5920:5939  tokenEpoch[tokenId] */\n      swap1\n        /* \"contracts/rewardsDistributor.sol\":6029:6053  rewardsBalance -= amount */\n      tag_121\n      swap1\n        /* \"contracts/rewardsDistributor.sol\":6047:6053  amount */\n      dup5\n      swap1\n        /* \"contracts/rewardsDistributor.sol\":6029:6053  rewardsBalance -= amount */\n      tag_122\n      jump\t// in\n    tag_121:\n      swap1\n      swap2\n      sstore\n      pop\n      pop\n        /* \"contracts/rewardsDistributor.sol\":6119:6141  veSix.ownerOf(tokenId) */\n      mload(0x40)\n      shl(0xe1, 0x31a9108f)\n      dup2\n      mstore\n      0x04\n      dup2\n      add\n        /* \"#utility.yul\":160:185   */\n      dup6\n      swap1\n      mstore\n        /* \"contracts/rewardsDistributor.sol\":6103:6116  address owner */\n      0x00\n      swap1\n        /* \"contracts/rewardsDistributor.sol\":6119:6124  veSix */\n      immutable(\"0xaaab56abb195b1bec63d541c2b63fa6fa7d6a00ed6a3f98e56354ff75745157a\")\n      sub(shl(0xa0, 0x01), 0x01)\n        /* \"contracts/rewardsDistributor.sol\":6119:6132  veSix.ownerOf */\n      and\n      swap1\n      0x6352211e\n      swap1\n        /* \"#utility.yul\":133:151   */\n      0x24\n      add\n        /* \"contracts/rewardsDistributor.sol\":6119:6141  veSix.ownerOf(tokenId) */\n      0x20\n      mload(0x40)\n      dup1\n      dup4\n      sub\n      dup2\n      dup7\n      gas\n      staticcall\n      iszero\n      dup1\n      iszero\n      tag_125\n      jumpi\n      returndatasize\n      0x00\n      dup1\n      returndatacopy\n      revert(0x00, returndatasize)\n    tag_125:\n      pop\n      pop\n      pop\n      pop\n      mload(0x40)\n      returndatasize\n      not(0x1f)\n      0x1f\n      dup3\n      add\n      and\n      dup3\n      add\n      dup1\n      0x40\n      mstore\n      pop\n      dup2\n      add\n      swap1\n      tag_126\n      swap2\n      swap1\n      tag_127\n      jump\t// in\n    tag_126:\n        /* \"contracts/rewardsDistributor.sol\":6103:6141  address owner = veSix.ownerOf(tokenId) */\n      swap1\n      pop\n        /* \"contracts/rewardsDistributor.sol\":6152:6192  rewardsToken.safeTransfer(owner, amount) */\n      tag_128\n      sub(shl(0xa0, 0x01), 0x01)\n        /* \"contracts/rewardsDistributor.sol\":6152:6164  rewardsToken */\n      immutable(\"0xcc80724d438a73e21efb48933a149f5b95ade624d1778284bcca17773a1c9da3\")\n        /* \"contracts/rewardsDistributor.sol\":6152:6177  rewardsToken.safeTransfer */\n      and\n        /* \"contracts/rewardsDistributor.sol\":6103:6141  address owner = veSix.ownerOf(tokenId) */\n      dup3\n        /* \"contracts/rewardsDistributor.sol\":6185:6191  amount */\n      dup5\n        /* \"contracts/rewardsDistributor.sol\":6152:6177  rewardsToken.safeTransfer */\n      tag_129\n        /* \"contracts/rewardsDistributor.sol\":6152:6192  rewardsToken.safeTransfer(owner, amount) */\n      jump\t// in\n    tag_128:\n        /* \"contracts/rewardsDistributor.sol\":6250:6269  tokenEpoch[tokenId] */\n      0x00\n      dup6\n      dup2\n      mstore\n        /* \"contracts/rewardsDistributor.sol\":6250:6260  tokenEpoch */\n      0x06\n        /* \"contracts/rewardsDistributor.sol\":6250:6269  tokenEpoch[tokenId] */\n      0x20\n      mstore\n      0x40\n      swap1\n      dup2\n      swap1\n      keccak256\n      sload\n        /* \"contracts/rewardsDistributor.sol\":6271:6302  veSix.user_point_epoch(tokenId) */\n      swap1\n      mload\n      shl(0xe2, 0x391044d7)\n      dup2\n      mstore\n      0x04\n      dup2\n      add\n        /* \"#utility.yul\":160:185   */\n      dup8\n      swap1\n      mstore\n        /* \"contracts/rewardsDistributor.sol\":6233:6240  tokenId */\n      dup7\n      swap2\n        /* \"contracts/rewardsDistributor.sol\":6218:6303  RewardsClaimed(tokenId, amount, tokenEpoch[tokenId], veSix.user_point_epoch(tokenId)) */\n      0x5ce397c9bb9806fe77f5c7c28202740f0805fc106a10f4d38821a4b65c768345\n      swap2\n        /* \"contracts/rewardsDistributor.sol\":6242:6248  amount */\n      dup6\n      swap2\n        /* \"contracts/rewardsDistributor.sol\":6250:6269  tokenEpoch[tokenId] */\n      swap1\n      sub(shl(0xa0, 0x01), 0x01)\n        /* \"contracts/rewardsDistributor.sol\":6271:6276  veSix */\n      immutable(\"0xaaab56abb195b1bec63d541c2b63fa6fa7d6a00ed6a3f98e56354ff75745157a\")\n        /* \"contracts/rewardsDistributor.sol\":6271:6293  veSix.user_point_epoch */\n      and\n      swap1\n      0xe441135c\n      swap1\n        /* \"#utility.yul\":133:151   */\n      0x24\n      add\n        /* \"contracts/rewardsDistributor.sol\":6271:6302  veSix.user_point_epoch(tokenId) */\n      0x20\n      mload(0x40)\n      dup1\n      dup4\n      sub\n      dup2\n      dup7\n      gas\n      staticcall\n      iszero\n      dup1\n      iszero\n      tag_132\n      jumpi\n      returndatasize\n      0x00\n      dup1\n      returndatacopy\n      revert(0x00, returndatasize)\n    tag_132:\n      pop\n      pop\n      pop\n      pop\n      mload(0x40)\n      returndatasize\n      not(0x1f)\n      0x1f\n      dup3\n      add\n      and\n      dup3\n      add\n      dup1\n      0x40\n      mstore\n      pop\n      dup2\n      add\n      swap1\n      tag_133\n      swap2\n      swap1\n      tag_120\n      jump\t// in\n    tag_133:\n        /* \"contracts/rewardsDistributor.sol\":6218:6303  RewardsClaimed(tokenId, amount, tokenEpoch[tokenId], veSix.user_point_epoch(tokenId)) */\n      0x40\n      dup1\n      mload\n        /* \"#utility.yul\":4143:4168   */\n      swap4\n      dup5\n      mstore\n        /* \"#utility.yul\":4199:4201   */\n      0x20\n        /* \"#utility.yul\":4184:4202   */\n      dup5\n      add\n        /* \"#utility.yul\":4177:4211   */\n      swap3\n      swap1\n      swap3\n      mstore\n        /* \"#utility.yul\":4227:4245   */\n      swap1\n      dup3\n      add\n        /* \"#utility.yul\":4220:4254   */\n      mstore\n        /* \"#utility.yul\":4131:4133   */\n      0x60\n        /* \"#utility.yul\":4116:4134   */\n      add\n        /* \"contracts/rewardsDistributor.sol\":6218:6303  RewardsClaimed(tokenId, amount, tokenEpoch[tokenId], veSix.user_point_epoch(tokenId)) */\n      mload(0x40)\n      dup1\n      swap2\n      sub\n      swap1\n      log2\n      pop\n        /* \"contracts/rewardsDistributor.sol\":6331:6337  amount */\n      swap2\n      pop\n      pop\n        /* \"@openzeppelin/contracts/security/ReentrancyGuard.sol\":2303:2323  _nonReentrantAfter() */\n      tag_136\n        /* \"@openzeppelin/contracts/security/ReentrancyGuard.sol\":1716:1717  1 */\n      0x01\n        /* \"@openzeppelin/contracts/security/ReentrancyGuard.sol\":2809:2831  _status = _NOT_ENTERED */\n      dup1\n      sstore\n        /* \"@openzeppelin/contracts/security/ReentrancyGuard.sol\":2629:2838  function _nonReentrantAfter() private {... */\n      jump\n        /* \"@openzeppelin/contracts/security/ReentrancyGuard.sol\":2303:2323  _nonReentrantAfter() */\n    tag_136:\n        /* \"contracts/rewardsDistributor.sol\":5405:6345  function claim(uint256 tokenId) external nonReentrant returns (uint256) {... */\n      swap2\n      swap1\n      pop\n      jump\t// out\n        /* \"contracts/rewardsDistributor.sol\":1840:2830  function distributeRewards() external nonReentrant {... */\n    tag_34:\n        /* \"@openzeppelin/contracts/security/ReentrancyGuard.sol\":2261:2282  _nonReentrantBefore() */\n      tag_139\n        /* \"@openzeppelin/contracts/security/ReentrancyGuard.sol\":2261:2280  _nonReentrantBefore */\n      tag_99\n        /* \"@openzeppelin/contracts/security/ReentrancyGuard.sol\":2261:2282  _nonReentrantBefore() */\n      jump\t// in\n    tag_139:\n        /* \"contracts/rewardsDistributor.sol\":1963:1977  rewardsBalance */\n      sload(0x09)\n        /* \"contracts/rewardsDistributor.sol\":1923:1960  rewardsToken.balanceOf(address(this)) */\n      mload(0x40)\n      shl(0xe0, 0x70a08231)\n      dup2\n      mstore\n        /* \"contracts/rewardsDistributor.sol\":1954:1958  this */\n      address\n        /* \"contracts/rewardsDistributor.sol\":1923:1960  rewardsToken.balanceOf(address(this)) */\n      0x04\n      dup3\n      add\n        /* \"#utility.yul\":527:578   */\n      mstore\n        /* \"contracts/rewardsDistributor.sol\":1902:1920  uint256 newRewards */\n      0x00\n      swap2\n        /* \"contracts/rewardsDistributor.sol\":1963:1977  rewardsBalance */\n      swap1\n      sub(shl(0xa0, 0x01), 0x01)\n        /* \"contracts/rewardsDistributor.sol\":1923:1935  rewardsToken */\n      immutable(\"0xcc80724d438a73e21efb48933a149f5b95ade624d1778284bcca17773a1c9da3\")\n        /* \"contracts/rewardsDistributor.sol\":1923:1945  rewardsToken.balanceOf */\n      and\n      swap1\n      0x70a08231\n      swap1\n        /* \"#utility.yul\":500:518   */\n      0x24\n      add\n        /* \"contracts/rewardsDistributor.sol\":1923:1960  rewardsToken.balanceOf(address(this)) */\n      0x20\n      mload(0x40)\n      dup1\n      dup4\n      sub\n      dup2\n      dup7\n      gas\n      staticcall\n      iszero\n      dup1\n      iszero\n      tag_143\n      jumpi\n      returndatasize\n      0x00\n      dup1\n      returndatacopy\n      revert(0x00, returndatasize)\n    tag_143:\n      pop\n      pop\n      pop\n      pop\n      mload(0x40)\n      returndatasize\n      not(0x1f)\n      0x1f\n      dup3\n      add\n      and\n      dup3\n      add\n      dup1\n      0x40\n      mstore\n      pop\n      dup2\n      add\n      swap1\n      tag_144\n      swap2\n      swap1\n      tag_120\n      jump\t// in\n    tag_144:\n        /* \"contracts/rewardsDistributor.sol\":1923:1977  rewardsToken.balanceOf(address(this)) - rewardsBalance */\n      tag_145\n      swap2\n      swap1\n      tag_122\n      jump\t// in\n    tag_145:\n        /* \"contracts/rewardsDistributor.sol\":1902:1977  uint256 newRewards = rewardsToken.balanceOf(address(this)) - rewardsBalance */\n      swap1\n      pop\n        /* \"contracts/rewardsDistributor.sol\":1992:2002  newRewards */\n      dup1\n        /* \"contracts/rewardsDistributor.sol\":2006:2007  0 */\n      0x00\n        /* \"contracts/rewardsDistributor.sol\":1992:2007  newRewards == 0 */\n      sub\n        /* \"contracts/rewardsDistributor.sol\":1988:2027  if (newRewards == 0) revert NoRewards() */\n      tag_146\n      jumpi\n        /* \"contracts/rewardsDistributor.sol\":2016:2027  NoRewards() */\n      mload(0x40)\n      shl(0xe2, 0x0fec21fd)\n      dup2\n      mstore\n      0x04\n      add\n      mload(0x40)\n      dup1\n      swap2\n      sub\n      swap1\n      revert\n        /* \"contracts/rewardsDistributor.sol\":1988:2027  if (newRewards == 0) revert NoRewards() */\n    tag_146:\n        /* \"contracts/rewardsDistributor.sol\":2040:2059  uint256 currentWeek */\n      0x00\n        /* \"contracts/rewardsDistributor.sol\":759:765  7 days */\n      0x093a80\n        /* \"contracts/rewardsDistributor.sol\":2063:2085  block.timestamp / WEEK */\n      tag_147\n        /* \"contracts/rewardsDistributor.sol\":759:765  7 days */\n      dup2\n        /* \"contracts/rewardsDistributor.sol\":2063:2078  block.timestamp */\n      timestamp\n        /* \"contracts/rewardsDistributor.sol\":2063:2085  block.timestamp / WEEK */\n      tag_94\n      jump\t// in\n    tag_147:\n        /* \"contracts/rewardsDistributor.sol\":2062:2093  (block.timestamp / WEEK) * WEEK */\n      tag_148\n      swap2\n      swap1\n      tag_96\n      jump\t// in\n    tag_148:\n        /* \"contracts/rewardsDistributor.sol\":2040:2093  uint256 currentWeek = (block.timestamp / WEEK) * WEEK */\n      swap1\n      pop\n        /* \"contracts/rewardsDistributor.sol\":2104:2128  uint256 weeksSinceUpdate */\n      0x00\n        /* \"contracts/rewardsDistributor.sol\":759:765  7 days */\n      0x093a80\n        /* \"contracts/rewardsDistributor.sol\":2146:2160  lastUpdateTime */\n      sload(0x03)\n        /* \"contracts/rewardsDistributor.sol\":2132:2143  currentWeek */\n      dup4\n        /* \"contracts/rewardsDistributor.sol\":2132:2160  currentWeek - lastUpdateTime */\n      tag_149\n      swap2\n      swap1\n      tag_122\n      jump\t// in\n    tag_149:\n        /* \"contracts/rewardsDistributor.sol\":2131:2168  (currentWeek - lastUpdateTime) / WEEK */\n      tag_150\n      swap2\n      swap1\n      tag_94\n      jump\t// in\n    tag_150:\n        /* \"contracts/rewardsDistributor.sol\":2104:2168  uint256 weeksSinceUpdate = (currentWeek - lastUpdateTime) / WEEK */\n      swap1\n      pop\n        /* \"contracts/rewardsDistributor.sol\":2193:2209  weeksSinceUpdate */\n      dup1\n        /* \"contracts/rewardsDistributor.sol\":2213:2214  0 */\n      0x00\n        /* \"contracts/rewardsDistributor.sol\":2193:2214  weeksSinceUpdate == 0 */\n      sub\n        /* \"contracts/rewardsDistributor.sol\":2189:2632  if (weeksSinceUpdate == 0) {... */\n      tag_151\n      jumpi\n        /* \"contracts/rewardsDistributor.sol\":2287:2313  weeklyRewards[currentWeek] */\n      0x00\n      dup3\n      dup2\n      mstore\n        /* \"contracts/rewardsDistributor.sol\":2287:2300  weeklyRewards */\n      0x07\n        /* \"contracts/rewardsDistributor.sol\":2287:2313  weeklyRewards[currentWeek] */\n      0x20\n      mstore\n      0x40\n      dup2\n      keccak256\n        /* \"contracts/rewardsDistributor.sol\":2287:2327  weeklyRewards[currentWeek] += newRewards */\n      dup1\n      sload\n        /* \"contracts/rewardsDistributor.sol\":2317:2327  newRewards */\n      dup6\n      swap3\n        /* \"contracts/rewardsDistributor.sol\":2287:2313  weeklyRewards[currentWeek] */\n      swap1\n        /* \"contracts/rewardsDistributor.sol\":2287:2327  weeklyRewards[currentWeek] += newRewards */\n      tag_152\n      swap1\n        /* \"contracts/rewardsDistributor.sol\":2317:2327  newRewards */\n      dup5\n      swap1\n        /* \"contracts/rewardsDistributor.sol\":2287:2327  weeklyRewards[currentWeek] += newRewards */\n      tag_153\n      jump\t// in\n    tag_152:\n      swap1\n      swap2\n      sstore\n      pop\n        /* \"contracts/rewardsDistributor.sol\":2189:2632  if (weeksSinceUpdate == 0) {... */\n      tag_154\n      swap1\n      pop\n      jump\n    tag_151:\n        /* \"contracts/rewardsDistributor.sol\":2414:2436  uint256 rewardsPerWeek */\n      0x00\n        /* \"contracts/rewardsDistributor.sol\":2439:2468  newRewards / weeksSinceUpdate */\n      tag_155\n        /* \"contracts/rewardsDistributor.sol\":2452:2468  weeksSinceUpdate */\n      dup3\n        /* \"contracts/rewardsDistributor.sol\":2439:2449  newRewards */\n      dup6\n        /* \"contracts/rewardsDistributor.sol\":2439:2468  newRewards / weeksSinceUpdate */\n      tag_94\n      jump\t// in\n    tag_155:\n        /* \"contracts/rewardsDistributor.sol\":2414:2468  uint256 rewardsPerWeek = newRewards / weeksSinceUpdate */\n      swap1\n      pop\n        /* \"contracts/rewardsDistributor.sol\":2488:2497  uint256 t */\n      0x00\n        /* \"contracts/rewardsDistributor.sol\":759:765  7 days */\n      0x093a80\n        /* \"contracts/rewardsDistributor.sol\":2500:2514  lastUpdateTime */\n      sload(0x03)\n        /* \"contracts/rewardsDistributor.sol\":2500:2521  lastUpdateTime + WEEK */\n      tag_159\n      swap2\n      swap1\n      tag_153\n      jump\t// in\n    tag_159:\n        /* \"contracts/rewardsDistributor.sol\":2488:2521  uint256 t = lastUpdateTime + WEEK */\n      swap1\n      pop\n        /* \"contracts/rewardsDistributor.sol\":2483:2621  for (uint256 t = lastUpdateTime + WEEK; t <= currentWeek; t += WEEK) {... */\n    tag_156:\n        /* \"contracts/rewardsDistributor.sol\":2528:2539  currentWeek */\n      dup4\n        /* \"contracts/rewardsDistributor.sol\":2523:2524  t */\n      dup2\n        /* \"contracts/rewardsDistributor.sol\":2523:2539  t <= currentWeek */\n      gt\n        /* \"contracts/rewardsDistributor.sol\":2483:2621  for (uint256 t = lastUpdateTime + WEEK; t <= currentWeek; t += WEEK) {... */\n      tag_157\n      jumpi\n        /* \"contracts/rewardsDistributor.sol\":2571:2587  weeklyRewards[t] */\n      0x00\n      dup2\n      dup2\n      mstore\n        /* \"contracts/rewardsDistributor.sol\":2571:2584  weeklyRewards */\n      0x07\n        /* \"contracts/rewardsDistributor.sol\":2571:2587  weeklyRewards[t] */\n      0x20\n      mstore\n      0x40\n      dup2\n      keccak256\n        /* \"contracts/rewardsDistributor.sol\":2571:2605  weeklyRewards[t] += rewardsPerWeek */\n      dup1\n      sload\n        /* \"contracts/rewardsDistributor.sol\":2591:2605  rewardsPerWeek */\n      dup5\n      swap3\n        /* \"contracts/rewardsDistributor.sol\":2571:2587  weeklyRewards[t] */\n      swap1\n        /* \"contracts/rewardsDistributor.sol\":2571:2605  weeklyRewards[t] += rewardsPerWeek */\n      tag_160\n      swap1\n        /* \"contracts/rewardsDistributor.sol\":2591:2605  rewardsPerWeek */\n      dup5\n      swap1\n        /* \"contracts/rewardsDistributor.sol\":2571:2605  weeklyRewards[t] += rewardsPerWeek */\n      tag_153\n      jump\t// in\n    tag_160:\n      swap1\n      swap2\n      sstore\n      pop\n        /* \"contracts/rewardsDistributor.sol\":2541:2550  t += WEEK */\n      tag_161\n      swap1\n      pop\n        /* \"contracts/rewardsDistributor.sol\":759:765  7 days */\n      0x093a80\n        /* \"contracts/rewardsDistributor.sol\":2541:2550  t += WEEK */\n      dup3\n      tag_153\n      jump\t// in\n    tag_161:\n      swap1\n      pop\n        /* \"contracts/rewardsDistributor.sol\":2483:2621  for (uint256 t = lastUpdateTime + WEEK; t <= currentWeek; t += WEEK) {... */\n      jump(tag_156)\n    tag_157:\n      pop\n        /* \"contracts/rewardsDistributor.sol\":2345:2632  {... */\n      pop\n        /* \"contracts/rewardsDistributor.sol\":2189:2632  if (weeksSinceUpdate == 0) {... */\n    tag_154:\n        /* \"contracts/rewardsDistributor.sol\":2662:2672  newRewards */\n      dup3\n        /* \"contracts/rewardsDistributor.sol\":2644:2658  rewardsBalance */\n      0x09\n      0x00\n        /* \"contracts/rewardsDistributor.sol\":2644:2672  rewardsBalance += newRewards */\n      dup3\n      dup3\n      sload\n      tag_162\n      swap2\n      swap1\n      tag_153\n      jump\t// in\n    tag_162:\n      swap1\n      swap2\n      sstore\n      pop\n      pop\n        /* \"contracts/rewardsDistributor.sol\":2683:2697  lastUpdateTime */\n      0x03\n        /* \"contracts/rewardsDistributor.sol\":2683:2711  lastUpdateTime = currentWeek */\n      dup3\n      swap1\n      sstore\n        /* \"contracts/rewardsDistributor.sol\":2737:2784  RewardsDistributed(block.timestamp, newRewards) */\n      0x40\n      dup1\n      mload\n        /* \"contracts/rewardsDistributor.sol\":2756:2771  block.timestamp */\n      timestamp\n        /* \"#utility.yul\":4569:4594   */\n      dup2\n      mstore\n        /* \"#utility.yul\":4625:4627   */\n      0x20\n        /* \"#utility.yul\":4610:4628   */\n      dup2\n      add\n        /* \"#utility.yul\":4603:4637   */\n      dup6\n      swap1\n      mstore\n        /* \"contracts/rewardsDistributor.sol\":2737:2784  RewardsDistributed(block.timestamp, newRewards) */\n      0x29e98ba00d07f171959c4ddcd2f3020debc7c52cf537a034d7e664340d098c6c\n      swap2\n        /* \"#utility.yul\":4542:4560   */\n      add\n        /* \"contracts/rewardsDistributor.sol\":2737:2784  RewardsDistributed(block.timestamp, newRewards) */\n      mload(0x40)\n      dup1\n      swap2\n      sub\n      swap1\n      log1\n        /* \"contracts/rewardsDistributor.sol\":2805:2822  _updateVeSupply() */\n      tag_165\n        /* \"contracts/rewardsDistributor.sol\":2805:2820  _updateVeSupply */\n      tag_110\n        /* \"contracts/rewardsDistributor.sol\":2805:2822  _updateVeSupply() */\n      jump\t// in\n    tag_165:\n        /* \"contracts/rewardsDistributor.sol\":1891:2830  {... */\n      pop\n      pop\n      pop\n        /* \"@openzeppelin/contracts/security/ReentrancyGuard.sol\":2303:2323  _nonReentrantAfter() */\n      tag_166\n        /* \"@openzeppelin/contracts/security/ReentrancyGuard.sol\":1716:1717  1 */\n      0x01\n        /* \"@openzeppelin/contracts/security/ReentrancyGuard.sol\":2809:2831  _status = _NOT_ENTERED */\n      dup1\n      sstore\n        /* \"@openzeppelin/contracts/security/ReentrancyGuard.sol\":2629:2838  function _nonReentrantAfter() private {... */\n      jump\n        /* \"@openzeppelin/contracts/security/ReentrancyGuard.sol\":2303:2323  _nonReentrantAfter() */\n    tag_166:\n        /* \"contracts/rewardsDistributor.sol\":1840:2830  function distributeRewards() external nonReentrant {... */\n      jump\t// out\n        /* \"@openzeppelin/contracts/access/Ownable.sol\":2293:2394  function renounceOwnership() public virtual onlyOwner {... */\n    tag_36:\n        /* \"@openzeppelin/contracts/access/Ownable.sol\":1531:1544  _checkOwner() */\n      tag_168\n        /* \"@openzeppelin/contracts/access/Ownable.sol\":1531:1542  _checkOwner */\n      tag_169\n        /* \"@openzeppelin/contracts/access/Ownable.sol\":1531:1544  _checkOwner() */\n      jump\t// in\n    tag_168:\n        /* \"@openzeppelin/contracts/access/Ownable.sol\":2357:2387  _transferOwnership(address(0)) */\n      tag_166\n        /* \"@openzeppelin/contracts/access/Ownable.sol\":2384:2385  0 */\n      0x00\n        /* \"@openzeppelin/contracts/access/Ownable.sol\":2357:2375  _transferOwnership */\n      tag_172\n        /* \"@openzeppelin/contracts/access/Ownable.sol\":2357:2387  _transferOwnership(address(0)) */\n      jump\t// in\n        /* \"contracts/rewardsDistributor.sol\":6353:6677  function claimMany(uint256[] calldata tokenIds) external nonReentrant returns (bool) {... */\n    tag_50:\n        /* \"contracts/rewardsDistributor.sol\":6432:6436  bool */\n      0x00\n        /* \"@openzeppelin/contracts/security/ReentrancyGuard.sol\":2261:2282  _nonReentrantBefore() */\n      tag_175\n        /* \"@openzeppelin/contracts/security/ReentrancyGuard.sol\":2261:2280  _nonReentrantBefore */\n      tag_99\n        /* \"@openzeppelin/contracts/security/ReentrancyGuard.sol\":2261:2282  _nonReentrantBefore() */\n      jump\t// in\n    tag_175:\n        /* \"contracts/rewardsDistributor.sol\":6454:6463  uint256 i */\n      0x00\n        /* \"contracts/rewardsDistributor.sol\":6449:6648  for (uint256 i = 0; i < tokenIds.length; i++) {... */\n    tag_177:\n        /* \"contracts/rewardsDistributor.sol\":6469:6488  i < tokenIds.length */\n      dup3\n      dup2\n      lt\n        /* \"contracts/rewardsDistributor.sol\":6449:6648  for (uint256 i = 0; i < tokenIds.length; i++) {... */\n      iszero\n      tag_178\n      jumpi\n        /* \"contracts/rewardsDistributor.sol\":6514:6519  veSix */\n      immutable(\"0xaaab56abb195b1bec63d541c2b63fa6fa7d6a00ed6a3f98e56354ff75745157a\")\n      sub(shl(0xa0, 0x01), 0x01)\n        /* \"contracts/rewardsDistributor.sol\":6514:6537  veSix.isApprovedOrOwner */\n      and\n      0x430c2081\n        /* \"contracts/rewardsDistributor.sol\":6538:6548  msg.sender */\n      caller\n        /* \"contracts/rewardsDistributor.sol\":6550:6558  tokenIds */\n      dup7\n      dup7\n        /* \"contracts/rewardsDistributor.sol\":6559:6560  i */\n      dup6\n        /* \"contracts/rewardsDistributor.sol\":6550:6561  tokenIds[i] */\n      dup2\n      dup2\n      lt\n      tag_181\n      jumpi\n      tag_181\n      tag_182\n      jump\t// in\n    tag_181:\n        /* \"contracts/rewardsDistributor.sol\":6514:6562  veSix.isApprovedOrOwner(msg.sender, tokenIds[i]) */\n      mload(0x40)\n      not(sub(shl(0xe0, 0x01), 0x01))\n      0xe0\n      dup8\n      swap1\n      shl\n      and\n      dup2\n      mstore\n      sub(shl(0xa0, 0x01), 0x01)\n        /* \"#utility.yul\":2948:2980   */\n      swap1\n      swap5\n      and\n        /* \"contracts/rewardsDistributor.sol\":6514:6562  veSix.isApprovedOrOwner(msg.sender, tokenIds[i]) */\n      0x04\n      dup6\n      add\n        /* \"#utility.yul\":2930:2981   */\n      mstore\n        /* \"contracts/rewardsDistributor.sol\":6550:6561  tokenIds[i] */\n      0x20\n      mul\n      swap2\n      swap1\n      swap2\n      add\n      calldataload\n        /* \"#utility.yul\":2997:3015   */\n      0x24\n      dup4\n      add\n        /* \"#utility.yul\":2990:3024   */\n      mstore\n      pop\n        /* \"#utility.yul\":2903:2921   */\n      0x44\n      add\n        /* \"contracts/rewardsDistributor.sol\":6514:6562  veSix.isApprovedOrOwner(msg.sender, tokenIds[i]) */\n      0x20\n      mload(0x40)\n      dup1\n      dup4\n      sub\n      dup2\n      dup7\n      gas\n      staticcall\n      iszero\n      dup1\n      iszero\n      tag_185\n      jumpi\n      returndatasize\n      0x00\n      dup1\n      returndatacopy\n      revert(0x00, returndatasize)\n    tag_185:\n      pop\n      pop\n      pop\n      pop\n      mload(0x40)\n      returndatasize\n      not(0x1f)\n      0x1f\n      dup3\n      add\n      and\n      dup3\n      add\n      dup1\n      0x40\n      mstore\n      pop\n      dup2\n      add\n      swap1\n      tag_186\n      swap2\n      swap1\n      tag_106\n      jump\t// in\n    tag_186:\n        /* \"contracts/rewardsDistributor.sol\":6510:6637  if (veSix.isApprovedOrOwner(msg.sender, tokenIds[i])) {... */\n      iszero\n      tag_197\n      jumpi\n        /* \"contracts/rewardsDistributor.sol\":6587:6591  this */\n      address\n        /* \"contracts/rewardsDistributor.sol\":6587:6597  this.claim */\n      0x379607f5\n        /* \"contracts/rewardsDistributor.sol\":6598:6606  tokenIds */\n      dup6\n      dup6\n        /* \"contracts/rewardsDistributor.sol\":6607:6608  i */\n      dup5\n        /* \"contracts/rewardsDistributor.sol\":6598:6609  tokenIds[i] */\n      dup2\n      dup2\n      lt\n      tag_189\n      jumpi\n      tag_189\n      tag_182\n      jump\t// in\n    tag_189:\n      swap1\n      pop\n      0x20\n      mul\n      add\n      calldataload\n        /* \"contracts/rewardsDistributor.sol\":6587:6610  this.claim(tokenIds[i]) */\n      mload(0x40)\n      dup3\n      0xffffffff\n      and\n      0xe0\n      shl\n      dup2\n      mstore\n      0x04\n      add\n      tag_190\n      swap2\n        /* \"#utility.yul\":160:185   */\n      dup2\n      mstore\n        /* \"#utility.yul\":148:150   */\n      0x20\n        /* \"#utility.yul\":133:151   */\n      add\n      swap1\n        /* \"#utility.yul\":14:191   */\n      jump\n        /* \"contracts/rewardsDistributor.sol\":6587:6610  this.claim(tokenIds[i]) */\n    tag_190:\n      0x20\n      mload(0x40)\n      dup1\n      dup4\n      sub\n      dup2\n      0x00\n      dup8\n      gas\n      call\n      swap3\n      pop\n      pop\n      pop\n      dup1\n      iszero\n      tag_191\n      jumpi\n      pop\n      0x40\n      dup1\n      mload\n      0x1f\n      returndatasize\n      swap1\n      dup2\n      add\n      not(0x1f)\n      and\n      dup3\n      add\n      swap1\n      swap3\n      mstore\n      tag_192\n      swap2\n      dup2\n      add\n      swap1\n      tag_120\n      jump\t// in\n    tag_192:\n      0x01\n    tag_191:\n        /* \"contracts/rewardsDistributor.sol\":6583:6622  try this.claim(tokenIds[i]) {} catch {} */\n      iszero\n      tag_197\n      jumpi\n      pop\n    tag_197:\n        /* \"contracts/rewardsDistributor.sol\":6490:6493  i++ */\n      0x01\n      add\n        /* \"contracts/rewardsDistributor.sol\":6449:6648  for (uint256 i = 0; i < tokenIds.length; i++) {... */\n      jump(tag_177)\n    tag_178:\n      pop\n      pop\n        /* \"contracts/rewardsDistributor.sol\":6665:6669  true */\n      0x01\n        /* \"@openzeppelin/contracts/security/ReentrancyGuard.sol\":2809:2831  _status = _NOT_ENTERED */\n      dup1\n      dup1\n      sstore\n        /* \"@openzeppelin/contracts/security/ReentrancyGuard.sol\":2303:2323  _nonReentrantAfter() */\n    tag_198:\n        /* \"contracts/rewardsDistributor.sol\":6353:6677  function claimMany(uint256[] calldata tokenIds) external nonReentrant returns (bool) {... */\n      swap3\n      swap2\n      pop\n      pop\n      jump\t// out\n        /* \"contracts/rewardsDistributor.sol\":4194:4389  function claimable(uint256 tokenId) external view returns (uint256) {... */\n    tag_74:\n        /* \"contracts/rewardsDistributor.sol\":4253:4260  uint256 */\n      0x00\n      dup1\n        /* \"contracts/rewardsDistributor.sol\":759:765  7 days */\n      0x093a80\n        /* \"contracts/rewardsDistributor.sol\":4296:4318  block.timestamp / WEEK */\n      tag_200\n        /* \"contracts/rewardsDistributor.sol\":759:765  7 days */\n      dup2\n        /* \"contracts/rewardsDistributor.sol\":4296:4311  block.timestamp */\n      timestamp\n        /* \"contracts/rewardsDistributor.sol\":4296:4318  block.timestamp / WEEK */\n      tag_94\n      jump\t// in\n    tag_200:\n        /* \"contracts/rewardsDistributor.sol\":4295:4326  (block.timestamp / WEEK) * WEEK */\n      tag_201\n      swap2\n      swap1\n      tag_96\n      jump\t// in\n    tag_201:\n        /* \"contracts/rewardsDistributor.sol\":4273:4326  uint256 currentWeek = (block.timestamp / WEEK) * WEEK */\n      swap1\n      pop\n        /* \"contracts/rewardsDistributor.sol\":4344:4381  _calculateClaim(tokenId, currentWeek) */\n      tag_202\n        /* \"contracts/rewardsDistributor.sol\":4360:4367  tokenId */\n      dup4\n        /* \"contracts/rewardsDistributor.sol\":4369:4380  currentWeek */\n      dup3\n        /* \"contracts/rewardsDistributor.sol\":4344:4359  _calculateClaim */\n      tag_114\n        /* \"contracts/rewardsDistributor.sol\":4344:4381  _calculateClaim(tokenId, currentWeek) */\n      jump\t// in\n    tag_202:\n        /* \"contracts/rewardsDistributor.sol\":4337:4381  return _calculateClaim(tokenId, currentWeek) */\n      swap4\n        /* \"contracts/rewardsDistributor.sol\":4194:4389  function claimable(uint256 tokenId) external view returns (uint256) {... */\n      swap3\n      pop\n      pop\n      pop\n      jump\t// out\n        /* \"contracts/rewardsDistributor.sol\":6708:6851  function getWeeklyRewards(uint256 timestamp) external view returns (uint256) {... */\n    tag_82:\n        /* \"contracts/rewardsDistributor.sol\":6776:6783  uint256 */\n      0x00\n        /* \"contracts/rewardsDistributor.sol\":6803:6816  weeklyRewards */\n      0x07\n        /* \"contracts/rewardsDistributor.sol\":6776:6783  uint256 */\n      dup2\n        /* \"contracts/rewardsDistributor.sol\":759:765  7 days */\n      0x093a80\n        /* \"contracts/rewardsDistributor.sol\":6818:6834  timestamp / WEEK */\n      tag_204\n        /* \"contracts/rewardsDistributor.sol\":759:765  7 days */\n      dup2\n        /* \"contracts/rewardsDistributor.sol\":6818:6827  timestamp */\n      dup7\n        /* \"contracts/rewardsDistributor.sol\":6818:6834  timestamp / WEEK */\n      tag_94\n      jump\t// in\n    tag_204:\n        /* \"contracts/rewardsDistributor.sol\":6817:6842  (timestamp / WEEK) * WEEK */\n      tag_205\n      swap2\n      swap1\n      tag_96\n      jump\t// in\n    tag_205:\n        /* \"contracts/rewardsDistributor.sol\":6803:6843  weeklyRewards[(timestamp / WEEK) * WEEK] */\n      dup2\n      mstore\n      0x20\n      add\n      swap1\n      dup2\n      mstore\n      0x20\n      add\n      0x00\n      keccak256\n      sload\n        /* \"contracts/rewardsDistributor.sol\":6796:6843  return weeklyRewards[(timestamp / WEEK) * WEEK] */\n      swap1\n      pop\n        /* \"contracts/rewardsDistributor.sol\":6708:6851  function getWeeklyRewards(uint256 timestamp) external view returns (uint256) {... */\n      swap2\n      swap1\n      pop\n      jump\t// out\n        /* \"@openzeppelin/contracts/access/Ownable.sol\":2543:2758  function transferOwnership(address newOwner) public virtual onlyOwner {... */\n    tag_87:\n        /* \"@openzeppelin/contracts/access/Ownable.sol\":1531:1544  _checkOwner() */\n      tag_207\n        /* \"@openzeppelin/contracts/access/Ownable.sol\":1531:1542  _checkOwner */\n      tag_169\n        /* \"@openzeppelin/contracts/access/Ownable.sol\":1531:1544  _checkOwner() */\n      jump\t// in\n    tag_207:\n      sub(shl(0xa0, 0x01), 0x01)\n        /* \"@openzeppelin/contracts/access/Ownable.sol\":2627:2649  newOwner == address(0) */\n      dup2\n      and\n        /* \"@openzeppelin/contracts/access/Ownable.sol\":2623:2714  if (newOwner == address(0)) {... */\n      tag_209\n      jumpi\n        /* \"@openzeppelin/contracts/access/Ownable.sol\":2672:2703  OwnableInvalidOwner(address(0)) */\n      mload(0x40)\n      shl(0xe0, 0x1e4fbdf7)\n      dup2\n      mstore\n        /* \"@openzeppelin/contracts/access/Ownable.sol\":2700:2701  0 */\n      0x00\n        /* \"@openzeppelin/contracts/access/Ownable.sol\":2672:2703  OwnableInvalidOwner(address(0)) */\n      0x04\n      dup3\n      add\n        /* \"#utility.yul\":527:578   */\n      mstore\n        /* \"#utility.yul\":500:518   */\n      0x24\n      add\n        /* \"@openzeppelin/contracts/access/Ownable.sol\":2672:2703  OwnableInvalidOwner(address(0)) */\n    tag_210:\n      mload(0x40)\n      dup1\n      swap2\n      sub\n      swap1\n      revert\n        /* \"@openzeppelin/contracts/access/Ownable.sol\":2623:2714  if (newOwner == address(0)) {... */\n    tag_209:\n        /* \"@openzeppelin/contracts/access/Ownable.sol\":2723:2751  _transferOwnership(newOwner) */\n      tag_211\n        /* \"@openzeppelin/contracts/access/Ownable.sol\":2742:2750  newOwner */\n      dup2\n        /* \"@openzeppelin/contracts/access/Ownable.sol\":2723:2741  _transferOwnership */\n      tag_172\n        /* \"@openzeppelin/contracts/access/Ownable.sol\":2723:2751  _transferOwnership(newOwner) */\n      jump\t// in\n    tag_211:\n        /* \"@openzeppelin/contracts/access/Ownable.sol\":2543:2758  function transferOwnership(address newOwner) public virtual onlyOwner {... */\n      pop\n      jump\t// out\n        /* \"@openzeppelin/contracts/security/ReentrancyGuard.sol\":2336:2623  function _nonReentrantBefore() private {... */\n    tag_99:\n        /* \"@openzeppelin/contracts/security/ReentrancyGuard.sol\":1759:1760  2 */\n      0x02\n        /* \"@openzeppelin/contracts/security/ReentrancyGuard.sol\":2468:2475  _status */\n      sload(0x01)\n        /* \"@openzeppelin/contracts/security/ReentrancyGuard.sol\":2468:2487  _status != _ENTERED */\n      sub\n        /* \"@openzeppelin/contracts/security/ReentrancyGuard.sol\":2460:2523  require(_status != _ENTERED, \"ReentrancyGuard: reentrant call\") */\n      tag_213\n      jumpi\n      mload(0x40)\n      shl(0xe5, 0x461bcd)\n      dup2\n      mstore\n        /* \"#utility.yul\":4982:4984   */\n      0x20\n        /* \"@openzeppelin/contracts/security/ReentrancyGuard.sol\":2460:2523  require(_status != _ENTERED, \"ReentrancyGuard: reentrant call\") */\n      0x04\n      dup3\n      add\n        /* \"#utility.yul\":4964:4985   */\n      mstore\n        /* \"#utility.yul\":5021:5023   */\n      0x1f\n        /* \"#utility.yul\":5001:5019   */\n      0x24\n      dup3\n      add\n        /* \"#utility.yul\":4994:5024   */\n      mstore\n        /* \"#utility.yul\":5060:5093   */\n      0x5265656e7472616e637947756172643a207265656e7472616e742063616c6c00\n        /* \"#utility.yul\":5040:5058   */\n      0x44\n      dup3\n      add\n        /* \"#utility.yul\":5033:5094   */\n      mstore\n        /* \"#utility.yul\":5111:5129   */\n      0x64\n      add\n        /* \"@openzeppelin/contracts/security/ReentrancyGuard.sol\":2460:2523  require(_status != _ENTERED, \"ReentrancyGuard: reentrant call\") */\n      tag_210\n        /* \"#utility.yul\":4780:5135   */\n      jump\n        /* \"@openzeppelin/contracts/security/ReentrancyGuard.sol\":2460:2523  require(_status != _ENTERED, \"ReentrancyGuard: reentrant call\") */\n    tag_213:\n        /* \"@openzeppelin/contracts/security/ReentrancyGuard.sol\":1759:1760  2 */\n      0x02\n        /* \"@openzeppelin/contracts/security/ReentrancyGuard.sol\":2598:2605  _status */\n      0x01\n        /* \"@openzeppelin/contracts/security/ReentrancyGuard.sol\":2598:2616  _status = _ENTERED */\n      sstore\n        /* \"@openzeppelin/contracts/security/ReentrancyGuard.sol\":2336:2623  function _nonReentrantBefore() private {... */\n      jump\t// out\n        /* \"contracts/rewardsDistributor.sol\":2838:3608  function _updateVeSupply() internal {... */\n    tag_110:\n        /* \"contracts/rewardsDistributor.sol\":2885:2904  uint256 currentTime */\n      0x00\n        /* \"contracts/rewardsDistributor.sol\":759:765  7 days */\n      0x093a80\n        /* \"contracts/rewardsDistributor.sol\":2908:2930  block.timestamp / WEEK */\n      tag_217\n        /* \"contracts/rewardsDistributor.sol\":759:765  7 days */\n      dup2\n        /* \"contracts/rewardsDistributor.sol\":2908:2923  block.timestamp */\n      timestamp\n        /* \"contracts/rewardsDistributor.sol\":2908:2930  block.timestamp / WEEK */\n      tag_94\n      jump\t// in\n    tag_217:\n        /* \"contracts/rewardsDistributor.sol\":2907:2938  (block.timestamp / WEEK) * WEEK */\n      tag_218\n      swap2\n      swap1\n      tag_96\n      jump\t// in\n    tag_218:\n        /* \"contracts/rewardsDistributor.sol\":2885:2938  uint256 currentTime = (block.timestamp / WEEK) * WEEK */\n      swap1\n      pop\n        /* \"contracts/rewardsDistributor.sol\":2949:2958  uint256 t */\n      0x00\n        /* \"contracts/rewardsDistributor.sol\":2961:2971  timeCursor */\n      sload(0x04)\n        /* \"contracts/rewardsDistributor.sol\":2949:2971  uint256 t = timeCursor */\n      swap1\n      pop\n        /* \"contracts/rewardsDistributor.sol\":2992:2997  veSix */\n      immutable(\"0xaaab56abb195b1bec63d541c2b63fa6fa7d6a00ed6a3f98e56354ff75745157a\")\n      sub(shl(0xa0, 0x01), 0x01)\n        /* \"contracts/rewardsDistributor.sol\":2992:3008  veSix.checkpoint */\n      and\n      0xc2c4c5c1\n        /* \"contracts/rewardsDistributor.sol\":2992:3010  veSix.checkpoint() */\n      mload(0x40)\n      dup2\n      0xffffffff\n      and\n      0xe0\n      shl\n      dup2\n      mstore\n      0x04\n      add\n      0x00\n      mload(0x40)\n      dup1\n      dup4\n      sub\n      dup2\n      0x00\n      dup8\n      dup1\n      extcodesize\n      iszero\n      dup1\n      iszero\n      tag_219\n      jumpi\n      0x00\n      dup1\n      revert\n    tag_219:\n      pop\n      gas\n      call\n      iszero\n      dup1\n      iszero\n      tag_221\n      jumpi\n      returndatasize\n      0x00\n      dup1\n      returndatacopy\n      revert(0x00, returndatasize)\n    tag_221:\n      pop\n      pop\n      pop\n      pop\n        /* \"contracts/rewardsDistributor.sol\":3028:3037  uint256 i */\n      0x00\n        /* \"contracts/rewardsDistributor.sol\":3023:3566  for (uint256 i = 0; i < 20 && t <= currentTime; i++) {... */\n    tag_222:\n        /* \"contracts/rewardsDistributor.sol\":3047:3049  20 */\n      0x14\n        /* \"contracts/rewardsDistributor.sol\":3043:3044  i */\n      dup2\n        /* \"contracts/rewardsDistributor.sol\":3043:3049  i < 20 */\n      lt\n        /* \"contracts/rewardsDistributor.sol\":3043:3069  i < 20 && t <= currentTime */\n      dup1\n      iszero\n      tag_225\n      jumpi\n      pop\n        /* \"contracts/rewardsDistributor.sol\":3058:3069  currentTime */\n      dup3\n        /* \"contracts/rewardsDistributor.sol\":3053:3054  t */\n      dup3\n        /* \"contracts/rewardsDistributor.sol\":3053:3069  t <= currentTime */\n      gt\n      iszero\n        /* \"contracts/rewardsDistributor.sol\":3043:3069  i < 20 && t <= currentTime */\n    tag_225:\n        /* \"contracts/rewardsDistributor.sol\":3023:3566  for (uint256 i = 0; i < 20 && t <= currentTime; i++) {... */\n      iszero\n      tag_223\n      jumpi\n        /* \"contracts/rewardsDistributor.sol\":3091:3104  uint256 epoch */\n      0x00\n        /* \"contracts/rewardsDistributor.sol\":3107:3132  _findEpochForTimestamp(t) */\n      tag_226\n        /* \"contracts/rewardsDistributor.sol\":3130:3131  t */\n      dup4\n        /* \"contracts/rewardsDistributor.sol\":3107:3129  _findEpochForTimestamp */\n      tag_227\n        /* \"contracts/rewardsDistributor.sol\":3107:3132  _findEpochForTimestamp(t) */\n      jump\t// in\n    tag_226:\n        /* \"contracts/rewardsDistributor.sol\":3175:3201  veSix.point_history(epoch) */\n      mload(0x40)\n      shl(0xe0, 0xd1febfb9)\n      dup2\n      mstore\n      0x04\n      dup2\n      add\n        /* \"#utility.yul\":160:185   */\n      dup3\n      swap1\n      mstore\n        /* \"contracts/rewardsDistributor.sol\":3091:3132  uint256 epoch = _findEpochForTimestamp(t) */\n      swap1\n      swap2\n      pop\n        /* \"contracts/rewardsDistributor.sol\":3147:3172  IVeSix.Point memory point */\n      0x00\n      swap1\n      sub(shl(0xa0, 0x01), 0x01)\n        /* \"contracts/rewardsDistributor.sol\":3175:3180  veSix */\n      immutable(\"0xaaab56abb195b1bec63d541c2b63fa6fa7d6a00ed6a3f98e56354ff75745157a\")\n        /* \"contracts/rewardsDistributor.sol\":3175:3194  veSix.point_history */\n      and\n      swap1\n      0xd1febfb9\n      swap1\n        /* \"#utility.yul\":133:151   */\n      0x24\n      add\n        /* \"contracts/rewardsDistributor.sol\":3175:3201  veSix.point_history(epoch) */\n      0x80\n      mload(0x40)\n      dup1\n      dup4\n      sub\n      dup2\n      dup7\n      gas\n      staticcall\n      iszero\n      dup1\n      iszero\n      tag_230\n      jumpi\n      returndatasize\n      0x00\n      dup1\n      returndatacopy\n      revert(0x00, returndatasize)\n    tag_230:\n      pop\n      pop\n      pop\n      pop\n      mload(0x40)\n      returndatasize\n      not(0x1f)\n      0x1f\n      dup3\n      add\n      and\n      dup3\n      add\n      dup1\n      0x40\n      mstore\n      pop\n      dup2\n      add\n      swap1\n      tag_231\n      swap2\n      swap1\n      tag_232\n      jump\t// in\n    tag_231:\n        /* \"contracts/rewardsDistributor.sol\":3147:3201  IVeSix.Point memory point = veSix.point_history(epoch) */\n      swap1\n      pop\n        /* \"contracts/rewardsDistributor.sol\":3230:3239  int128 dt */\n      0x00\n        /* \"contracts/rewardsDistributor.sol\":3266:3271  point */\n      dup2\n        /* \"contracts/rewardsDistributor.sol\":3266:3274  point.ts */\n      0x40\n      add\n      mload\n        /* \"contracts/rewardsDistributor.sol\":3262:3263  t */\n      dup6\n        /* \"contracts/rewardsDistributor.sol\":3262:3274  t > point.ts */\n      gt\n        /* \"contracts/rewardsDistributor.sol\":3258:3344  if (t > point.ts) {... */\n      iszero\n      tag_233\n      jumpi\n        /* \"contracts/rewardsDistributor.sol\":3318:3326  point.ts */\n      0x40\n      dup3\n      add\n      mload\n        /* \"contracts/rewardsDistributor.sol\":3314:3326  t - point.ts */\n      tag_234\n      swap1\n        /* \"contracts/rewardsDistributor.sol\":3314:3315  t */\n      dup7\n        /* \"contracts/rewardsDistributor.sol\":3314:3326  t - point.ts */\n      tag_122\n      jump\t// in\n    tag_234:\n        /* \"contracts/rewardsDistributor.sol\":3295:3328  dt = int128(int256(t - point.ts)) */\n      swap1\n      pop\n        /* \"contracts/rewardsDistributor.sol\":3258:3344  if (t > point.ts) {... */\n    tag_233:\n        /* \"contracts/rewardsDistributor.sol\":3372:3386  uint256 supply */\n      0x00\n        /* \"contracts/rewardsDistributor.sol\":3431:3433  dt */\n      dup2\n        /* \"contracts/rewardsDistributor.sol\":3417:3422  point */\n      dup4\n        /* \"contracts/rewardsDistributor.sol\":3417:3428  point.slope */\n      0x20\n      add\n      mload\n        /* \"contracts/rewardsDistributor.sol\":3417:3433  point.slope * dt */\n      tag_235\n      swap2\n      swap1\n      tag_236\n      jump\t// in\n    tag_235:\n        /* \"contracts/rewardsDistributor.sol\":3404:3414  point.bias */\n      dup4\n      mload\n        /* \"contracts/rewardsDistributor.sol\":3404:3433  point.bias - point.slope * dt */\n      tag_237\n      swap2\n      swap1\n      tag_238\n      jump\t// in\n    tag_237:\n        /* \"contracts/rewardsDistributor.sol\":3397:3434  int256(point.bias - point.slope * dt) */\n      0x0f\n      signextend\n      swap1\n      pop\n        /* \"contracts/rewardsDistributor.sol\":3505:3521  veSupplyCache[t] */\n      0x00\n      dup7\n      dup2\n      mstore\n        /* \"contracts/rewardsDistributor.sol\":3505:3518  veSupplyCache */\n      0x08\n        /* \"contracts/rewardsDistributor.sol\":3505:3521  veSupplyCache[t] */\n      0x20\n      mstore\n      0x40\n      swap1\n      keccak256\n        /* \"contracts/rewardsDistributor.sol\":3505:3530  veSupplyCache[t] = supply */\n      dup2\n      swap1\n      sstore\n        /* \"contracts/rewardsDistributor.sol\":3545:3554  t += WEEK */\n      tag_240\n        /* \"contracts/rewardsDistributor.sol\":759:765  7 days */\n      0x093a80\n        /* \"contracts/rewardsDistributor.sol\":3519:3520  t */\n      dup8\n        /* \"contracts/rewardsDistributor.sol\":3545:3554  t += WEEK */\n      tag_153\n      jump\t// in\n    tag_240:\n      swap6\n      pop\n        /* \"contracts/rewardsDistributor.sol\":3076:3566  {... */\n      pop\n      pop\n      pop\n      pop\n        /* \"contracts/rewardsDistributor.sol\":3071:3074  i++ */\n      dup1\n      dup1\n      tag_241\n      swap1\n      tag_242\n      jump\t// in\n    tag_241:\n      swap2\n      pop\n      pop\n        /* \"contracts/rewardsDistributor.sol\":3023:3566  for (uint256 i = 0; i < 20 && t <= currentTime; i++) {... */\n      jump(tag_222)\n    tag_223:\n      pop\n        /* \"contracts/rewardsDistributor.sol\":3586:3596  timeCursor */\n      0x04\n        /* \"contracts/rewardsDistributor.sol\":3586:3600  timeCursor = t */\n      sstore\n      pop\n        /* \"contracts/rewardsDistributor.sol\":2838:3608  function _updateVeSupply() internal {... */\n      jump\t// out\n        /* \"contracts/rewardsDistributor.sol\":4397:5397  function _calculateClaim(uint256 tokenId, uint256 maxTime) internal view returns (uint256) {... */\n    tag_114:\n        /* \"contracts/rewardsDistributor.sol\":4479:4486  uint256 */\n      0x00\n        /* \"contracts/rewardsDistributor.sol\":4519:4538  tokenEpoch[tokenId] */\n      dup3\n      dup2\n      mstore\n        /* \"contracts/rewardsDistributor.sol\":4519:4529  tokenEpoch */\n      0x06\n        /* \"contracts/rewardsDistributor.sol\":4519:4538  tokenEpoch[tokenId] */\n      0x20\n      mstore\n      0x40\n      dup2\n      keccak256\n      sload\n        /* \"contracts/rewardsDistributor.sol\":4553:4567  userEpoch == 0 */\n      dup1\n      dup3\n      sub\n        /* \"contracts/rewardsDistributor.sol\":4549:4582  if (userEpoch == 0) userEpoch = 1 */\n      tag_244\n      jumpi\n      pop\n        /* \"contracts/rewardsDistributor.sol\":4581:4582  1 */\n      0x01\n        /* \"contracts/rewardsDistributor.sol\":4549:4582  if (userEpoch == 0) userEpoch = 1 */\n    tag_244:\n        /* \"contracts/rewardsDistributor.sol\":4603:4621  uint256 weekCursor */\n      0x00\n        /* \"contracts/rewardsDistributor.sol\":4624:4648  tokenTimeCursor[tokenId] */\n      dup5\n      dup2\n      mstore\n        /* \"contracts/rewardsDistributor.sol\":4624:4639  tokenTimeCursor */\n      0x05\n        /* \"contracts/rewardsDistributor.sol\":4624:4648  tokenTimeCursor[tokenId] */\n      0x20\n      mstore\n      0x40\n      dup2\n      keccak256\n      sload\n      swap1\n        /* \"contracts/rewardsDistributor.sol\":4663:4678  weekCursor == 0 */\n      dup2\n      swap1\n      sub\n        /* \"contracts/rewardsDistributor.sol\":4659:4852  if (weekCursor == 0) {... */\n      tag_245\n      jumpi\n        /* \"contracts/rewardsDistributor.sol\":4727:4771  veSix.user_point_history(tokenId, userEpoch) */\n      mload(0x40)\n      shl(0xe1, 0x09bb79ed)\n      dup2\n      mstore\n      0x04\n      dup2\n      add\n        /* \"#utility.yul\":4569:4594   */\n      dup7\n      swap1\n      mstore\n        /* \"#utility.yul\":4610:4628   */\n      0x24\n      dup2\n      add\n        /* \"#utility.yul\":4603:4637   */\n      dup4\n      swap1\n      mstore\n        /* \"contracts/rewardsDistributor.sol\":4695:4724  IVeSix.Point memory userPoint */\n      0x00\n      swap1\n        /* \"contracts/rewardsDistributor.sol\":4727:4732  veSix */\n      immutable(\"0xaaab56abb195b1bec63d541c2b63fa6fa7d6a00ed6a3f98e56354ff75745157a\")\n      sub(shl(0xa0, 0x01), 0x01)\n        /* \"contracts/rewardsDistributor.sol\":4727:4751  veSix.user_point_history */\n      and\n      swap1\n      0x1376f3da\n      swap1\n        /* \"#utility.yul\":4542:4560   */\n      0x44\n      add\n        /* \"contracts/rewardsDistributor.sol\":4727:4771  veSix.user_point_history(tokenId, userEpoch) */\n      0x80\n      mload(0x40)\n      dup1\n      dup4\n      sub\n      dup2\n      dup7\n      gas\n      staticcall\n      iszero\n      dup1\n      iszero\n      tag_248\n      jumpi\n      returndatasize\n      0x00\n      dup1\n      returndatacopy\n      revert(0x00, returndatasize)\n    tag_248:\n      pop\n      pop\n      pop\n      pop\n      mload(0x40)\n      returndatasize\n      not(0x1f)\n      0x1f\n      dup3\n      add\n      and\n      dup3\n      add\n      dup1\n      0x40\n      mstore\n      pop\n      dup2\n      add\n      swap1\n      tag_249\n      swap2\n      swap1\n      tag_232\n      jump\t// in\n    tag_249:\n        /* \"contracts/rewardsDistributor.sol\":4695:4771  IVeSix.Point memory userPoint = veSix.user_point_history(tokenId, userEpoch) */\n      swap1\n      pop\n        /* \"contracts/rewardsDistributor.sol\":759:765  7 days */\n      0x093a80\n      dup1\n        /* \"contracts/rewardsDistributor.sol\":4823:4824  1 */\n      0x01\n        /* \"contracts/rewardsDistributor.sol\":759:765  7 days */\n      0x093a80\n        /* \"contracts/rewardsDistributor.sol\":4801:4810  userPoint */\n      dup5\n        /* \"contracts/rewardsDistributor.sol\":4801:4813  userPoint.ts */\n      0x40\n      add\n      mload\n        /* \"contracts/rewardsDistributor.sol\":4801:4820  userPoint.ts + WEEK */\n      tag_250\n      swap2\n      swap1\n      tag_153\n      jump\t// in\n    tag_250:\n        /* \"contracts/rewardsDistributor.sol\":4801:4824  userPoint.ts + WEEK - 1 */\n      tag_251\n      swap2\n      swap1\n      tag_122\n      jump\t// in\n    tag_251:\n        /* \"contracts/rewardsDistributor.sol\":4800:4832  (userPoint.ts + WEEK - 1) / WEEK */\n      tag_252\n      swap2\n      swap1\n      tag_94\n      jump\t// in\n    tag_252:\n        /* \"contracts/rewardsDistributor.sol\":4799:4840  ((userPoint.ts + WEEK - 1) / WEEK) * WEEK */\n      tag_253\n      swap2\n      swap1\n      tag_96\n      jump\t// in\n    tag_253:\n        /* \"contracts/rewardsDistributor.sol\":4786:4840  weekCursor = ((userPoint.ts + WEEK - 1) / WEEK) * WEEK */\n      swap2\n      pop\n        /* \"contracts/rewardsDistributor.sol\":4680:4852  {... */\n      pop\n        /* \"contracts/rewardsDistributor.sol\":4659:4852  if (weekCursor == 0) {... */\n    tag_245:\n        /* \"contracts/rewardsDistributor.sol\":4872:4892  uint256 toDistribute */\n      0x00\n      dup1\n        /* \"contracts/rewardsDistributor.sol\":4913:5350  for (uint256 i = 0; i < 50 && weekCursor <= maxTime; i++) {... */\n    tag_254:\n        /* \"contracts/rewardsDistributor.sol\":4937:4939  50 */\n      0x32\n        /* \"contracts/rewardsDistributor.sol\":4933:4934  i */\n      dup2\n        /* \"contracts/rewardsDistributor.sol\":4933:4939  i < 50 */\n      lt\n        /* \"contracts/rewardsDistributor.sol\":4933:4964  i < 50 && weekCursor <= maxTime */\n      dup1\n      iszero\n      tag_257\n      jumpi\n      pop\n        /* \"contracts/rewardsDistributor.sol\":4957:4964  maxTime */\n      dup6\n        /* \"contracts/rewardsDistributor.sol\":4943:4953  weekCursor */\n      dup4\n        /* \"contracts/rewardsDistributor.sol\":4943:4964  weekCursor <= maxTime */\n      gt\n      iszero\n        /* \"contracts/rewardsDistributor.sol\":4933:4964  i < 50 && weekCursor <= maxTime */\n    tag_257:\n        /* \"contracts/rewardsDistributor.sol\":4913:5350  for (uint256 i = 0; i < 50 && weekCursor <= maxTime; i++) {... */\n      iszero\n      tag_255\n      jumpi\n        /* \"contracts/rewardsDistributor.sol\":5004:5045  veSix.balanceOfNFTAt(tokenId, weekCursor) */\n      mload(0x40)\n      shl(0xe1, 0x7028a55d)\n      dup2\n      mstore\n      0x04\n      dup2\n      add\n        /* \"#utility.yul\":4569:4594   */\n      dup9\n      swap1\n      mstore\n        /* \"#utility.yul\":4610:4628   */\n      0x24\n      dup2\n      add\n        /* \"#utility.yul\":4603:4637   */\n      dup5\n      swap1\n      mstore\n        /* \"contracts/rewardsDistributor.sol\":4986:5001  uint256 balance */\n      0x00\n      swap1\n        /* \"contracts/rewardsDistributor.sol\":5004:5009  veSix */\n      immutable(\"0xaaab56abb195b1bec63d541c2b63fa6fa7d6a00ed6a3f98e56354ff75745157a\")\n      sub(shl(0xa0, 0x01), 0x01)\n        /* \"contracts/rewardsDistributor.sol\":5004:5024  veSix.balanceOfNFTAt */\n      and\n      swap1\n      0xe0514aba\n      swap1\n        /* \"#utility.yul\":4542:4560   */\n      0x44\n      add\n        /* \"contracts/rewardsDistributor.sol\":5004:5045  veSix.balanceOfNFTAt(tokenId, weekCursor) */\n      0x20\n      mload(0x40)\n      dup1\n      dup4\n      sub\n      dup2\n      dup7\n      gas\n      staticcall\n      iszero\n      dup1\n      iszero\n      tag_260\n      jumpi\n      returndatasize\n      0x00\n      dup1\n      returndatacopy\n      revert(0x00, returndatasize)\n    tag_260:\n      pop\n      pop\n      pop\n      pop\n      mload(0x40)\n      returndatasize\n      not(0x1f)\n      0x1f\n      dup3\n      add\n      and\n      dup3\n      add\n      dup1\n      0x40\n      mstore\n      pop\n      dup2\n      add\n      swap1\n      tag_261\n      swap2\n      swap1\n      tag_120\n      jump\t// in\n    tag_261:\n        /* \"contracts/rewardsDistributor.sol\":5060:5074  uint256 supply */\n      0x00\n        /* \"contracts/rewardsDistributor.sol\":5077:5102  veSupplyCache[weekCursor] */\n      dup6\n      dup2\n      mstore\n        /* \"contracts/rewardsDistributor.sol\":5077:5090  veSupplyCache */\n      0x08\n        /* \"contracts/rewardsDistributor.sol\":5077:5102  veSupplyCache[weekCursor] */\n      0x20\n      mstore\n      0x40\n      swap1\n      keccak256\n      sload\n        /* \"contracts/rewardsDistributor.sol\":4986:5045  uint256 balance = veSix.balanceOfNFTAt(tokenId, weekCursor) */\n      swap1\n      swap2\n      pop\n        /* \"contracts/rewardsDistributor.sol\":5135:5146  balance > 0 */\n      dup2\n      iszero\n      dup1\n      iszero\n      swap1\n        /* \"contracts/rewardsDistributor.sol\":5135:5160  balance > 0 && supply > 0 */\n      tag_262\n      jumpi\n      pop\n        /* \"contracts/rewardsDistributor.sol\":5159:5160  0 */\n      0x00\n        /* \"contracts/rewardsDistributor.sol\":5150:5156  supply */\n      dup2\n        /* \"contracts/rewardsDistributor.sol\":5150:5160  supply > 0 */\n      gt\n        /* \"contracts/rewardsDistributor.sol\":5135:5160  balance > 0 && supply > 0 */\n    tag_262:\n        /* \"contracts/rewardsDistributor.sol\":5135:5193  balance > 0 && supply > 0 && weeklyRewards[weekCursor] > 0 */\n      dup1\n      iszero\n      tag_263\n      jumpi\n      pop\n        /* \"contracts/rewardsDistributor.sol\":5192:5193  0 */\n      0x00\n        /* \"contracts/rewardsDistributor.sol\":5164:5189  weeklyRewards[weekCursor] */\n      dup6\n      dup2\n      mstore\n        /* \"contracts/rewardsDistributor.sol\":5164:5177  weeklyRewards */\n      0x07\n        /* \"contracts/rewardsDistributor.sol\":5164:5189  weeklyRewards[weekCursor] */\n      0x20\n      mstore\n      0x40\n      swap1\n      keccak256\n      sload\n        /* \"contracts/rewardsDistributor.sol\":5164:5193  weeklyRewards[weekCursor] > 0 */\n      iszero\n      iszero\n        /* \"contracts/rewardsDistributor.sol\":5135:5193  balance > 0 && supply > 0 && weeklyRewards[weekCursor] > 0 */\n    tag_263:\n        /* \"contracts/rewardsDistributor.sol\":5131:5292  if (balance > 0 && supply > 0 && weeklyRewards[weekCursor] > 0) {... */\n      iszero\n      tag_264\n      jumpi\n        /* \"contracts/rewardsDistributor.sol\":5241:5266  weeklyRewards[weekCursor] */\n      0x00\n      dup6\n      dup2\n      mstore\n        /* \"contracts/rewardsDistributor.sol\":5241:5254  weeklyRewards */\n      0x07\n        /* \"contracts/rewardsDistributor.sol\":5241:5266  weeklyRewards[weekCursor] */\n      0x20\n      mstore\n      0x40\n      swap1\n      keccak256\n      sload\n        /* \"contracts/rewardsDistributor.sol\":5270:5276  supply */\n      dup2\n      swap1\n        /* \"contracts/rewardsDistributor.sol\":5231:5266  balance * weeklyRewards[weekCursor] */\n      tag_265\n      swap1\n        /* \"contracts/rewardsDistributor.sol\":5231:5238  balance */\n      dup5\n        /* \"contracts/rewardsDistributor.sol\":5231:5266  balance * weeklyRewards[weekCursor] */\n      tag_96\n      jump\t// in\n    tag_265:\n        /* \"contracts/rewardsDistributor.sol\":5230:5276  (balance * weeklyRewards[weekCursor]) / supply */\n      tag_266\n      swap2\n      swap1\n      tag_94\n      jump\t// in\n    tag_266:\n        /* \"contracts/rewardsDistributor.sol\":5214:5276  toDistribute += (balance * weeklyRewards[weekCursor]) / supply */\n      tag_267\n      swap1\n      dup6\n      tag_153\n      jump\t// in\n    tag_267:\n      swap4\n      pop\n        /* \"contracts/rewardsDistributor.sol\":5131:5292  if (balance > 0 && supply > 0 && weeklyRewards[weekCursor] > 0) {... */\n    tag_264:\n        /* \"contracts/rewardsDistributor.sol\":5320:5338  weekCursor += WEEK */\n      tag_268\n        /* \"contracts/rewardsDistributor.sol\":759:765  7 days */\n      0x093a80\n        /* \"contracts/rewardsDistributor.sol\":5320:5338  weekCursor += WEEK */\n      dup7\n      tag_153\n      jump\t// in\n    tag_268:\n      swap5\n      pop\n        /* \"contracts/rewardsDistributor.sol\":4971:5350  {... */\n      pop\n      pop\n        /* \"contracts/rewardsDistributor.sol\":4966:4969  i++ */\n      dup1\n      dup1\n      tag_269\n      swap1\n      tag_242\n      jump\t// in\n    tag_269:\n      swap2\n      pop\n      pop\n        /* \"contracts/rewardsDistributor.sol\":4913:5350  for (uint256 i = 0; i < 50 && weekCursor <= maxTime; i++) {... */\n      jump(tag_254)\n    tag_255:\n      pop\n        /* \"contracts/rewardsDistributor.sol\":5377:5389  toDistribute */\n      swap6\n        /* \"contracts/rewardsDistributor.sol\":4397:5397  function _calculateClaim(uint256 tokenId, uint256 maxTime) internal view returns (uint256) {... */\n      swap5\n      pop\n      pop\n      pop\n      pop\n      pop\n      jump\t// out\n        /* \"@openzeppelin/contracts/token/ERC20/utils/SafeERC20.sol\":1271:1431  function safeTransfer(IERC20 token, address to, uint256 value) internal {... */\n    tag_129:\n        /* \"@openzeppelin/contracts/token/ERC20/utils/SafeERC20.sol\":1380:1423  abi.encodeCall(token.transfer, (to, value)) */\n      0x40\n      dup1\n      mload\n      sub(shl(0xa0, 0x01), 0x01)\n        /* \"#utility.yul\":2948:2980   */\n      dup5\n      and\n        /* \"@openzeppelin/contracts/token/ERC20/utils/SafeERC20.sol\":1380:1423  abi.encodeCall(token.transfer, (to, value)) */\n      0x24\n      dup3\n      add\n        /* \"#utility.yul\":2930:2981   */\n      mstore\n        /* \"#utility.yul\":2997:3015   */\n      0x44\n      dup1\n      dup3\n      add\n        /* \"#utility.yul\":2990:3024   */\n      dup5\n      swap1\n      mstore\n        /* \"@openzeppelin/contracts/token/ERC20/utils/SafeERC20.sol\":1380:1423  abi.encodeCall(token.transfer, (to, value)) */\n      dup3\n      mload\n      dup1\n      dup4\n      sub\n      swap1\n      swap2\n      add\n      dup2\n      mstore\n        /* \"#utility.yul\":2903:2921   */\n      0x64\n      swap1\n      swap2\n      add\n        /* \"@openzeppelin/contracts/token/ERC20/utils/SafeERC20.sol\":1380:1423  abi.encodeCall(token.transfer, (to, value)) */\n      swap1\n      swap2\n      mstore\n      0x20\n      dup2\n      add\n      dup1\n      mload\n      sub(shl(0xe0, 0x01), 0x01)\n      and\n      shl(0xe0, 0xa9059cbb)\n      or\n      swap1\n      mstore\n        /* \"@openzeppelin/contracts/token/ERC20/utils/SafeERC20.sol\":1353:1424  _callOptionalReturn(token, abi.encodeCall(token.transfer, (to, value))) */\n      tag_271\n      swap1\n        /* \"@openzeppelin/contracts/token/ERC20/utils/SafeERC20.sol\":1373:1378  token */\n      dup5\n      swap1\n        /* \"@openzeppelin/contracts/token/ERC20/utils/SafeERC20.sol\":1353:1372  _callOptionalReturn */\n      tag_273\n        /* \"@openzeppelin/contracts/token/ERC20/utils/SafeERC20.sol\":1353:1424  _callOptionalReturn(token, abi.encodeCall(token.transfer, (to, value))) */\n      jump\t// in\n    tag_271:\n        /* \"@openzeppelin/contracts/token/ERC20/utils/SafeERC20.sol\":1271:1431  function safeTransfer(IERC20 token, address to, uint256 value) internal {... */\n      pop\n      pop\n      pop\n      jump\t// out\n        /* \"@openzeppelin/contracts/access/Ownable.sol\":1796:1958  function _checkOwner() internal view virtual {... */\n    tag_169:\n        /* \"@openzeppelin/contracts/access/Ownable.sol\":1684:1691  address */\n      0x00\n        /* \"@openzeppelin/contracts/access/Ownable.sol\":1710:1716  _owner */\n      sload\n      sub(shl(0xa0, 0x01), 0x01)\n      and\n        /* \"@openzeppelin/contracts/utils/Context.sol\":735:745  msg.sender */\n      caller\n        /* \"@openzeppelin/contracts/access/Ownable.sol\":1855:1878  owner() != _msgSender() */\n      eq\n        /* \"@openzeppelin/contracts/access/Ownable.sol\":1851:1952  if (owner() != _msgSender()) {... */\n      tag_166\n      jumpi\n        /* \"@openzeppelin/contracts/access/Ownable.sol\":1901:1941  OwnableUnauthorizedAccount(_msgSender()) */\n      mload(0x40)\n      shl(0xe0, 0x118cdaa7)\n      dup2\n      mstore\n        /* \"@openzeppelin/contracts/utils/Context.sol\":735:745  msg.sender */\n      caller\n        /* \"@openzeppelin/contracts/access/Ownable.sol\":1901:1941  OwnableUnauthorizedAccount(_msgSender()) */\n      0x04\n      dup3\n      add\n        /* \"#utility.yul\":527:578   */\n      mstore\n        /* \"#utility.yul\":500:518   */\n      0x24\n      add\n        /* \"@openzeppelin/contracts/access/Ownable.sol\":1901:1941  OwnableUnauthorizedAccount(_msgSender()) */\n      tag_210\n        /* \"#utility.yul\":381:584   */\n      jump\n        /* \"@openzeppelin/contracts/access/Ownable.sol\":2912:3099  function _transferOwnership(address newOwner) internal virtual {... */\n    tag_172:\n        /* \"@openzeppelin/contracts/access/Ownable.sol\":2985:3001  address oldOwner */\n      0x00\n        /* \"@openzeppelin/contracts/access/Ownable.sol\":3004:3010  _owner */\n      dup1\n      sload\n      sub(shl(0xa0, 0x01), 0x01)\n        /* \"@openzeppelin/contracts/access/Ownable.sol\":3020:3037  _owner = newOwner */\n      dup4\n      dup2\n      and\n      not(sub(shl(0xa0, 0x01), 0x01))\n      dup4\n      and\n      dup2\n      or\n      dup5\n      sstore\n        /* \"@openzeppelin/contracts/access/Ownable.sol\":3052:3092  OwnershipTransferred(oldOwner, newOwner) */\n      mload(0x40)\n        /* \"@openzeppelin/contracts/access/Ownable.sol\":3004:3010  _owner */\n      swap2\n      swap1\n      swap3\n      and\n      swap3\n      dup4\n      swap2\n        /* \"@openzeppelin/contracts/access/Ownable.sol\":3052:3092  OwnershipTransferred(oldOwner, newOwner) */\n      0x8be0079c531659141344cd1fd0a4f28419497f9722a3daafe3b4186f6b6457e0\n      swap2\n        /* \"@openzeppelin/contracts/access/Ownable.sol\":2985:3001  address oldOwner */\n      swap1\n        /* \"@openzeppelin/contracts/access/Ownable.sol\":3052:3092  OwnershipTransferred(oldOwner, newOwner) */\n      log3\n        /* \"@openzeppelin/contracts/access/Ownable.sol\":2975:3099  {... */\n      pop\n        /* \"@openzeppelin/contracts/access/Ownable.sol\":2912:3099  function _transferOwnership(address newOwner) internal virtual {... */\n      pop\n      jump\t// out\n        /* \"contracts/rewardsDistributor.sol\":3616:4186  function _findEpochForTimestamp(uint256 timestamp) internal view returns (uint256) {... */\n    tag_227:\n        /* \"contracts/rewardsDistributor.sol\":3690:3697  uint256 */\n      0x00\n        /* \"contracts/rewardsDistributor.sol\":3710:3721  uint256 min */\n      dup1\n        /* \"contracts/rewardsDistributor.sol\":3724:3725  0 */\n      0x00\n        /* \"contracts/rewardsDistributor.sol\":3710:3725  uint256 min = 0 */\n      swap1\n      pop\n        /* \"contracts/rewardsDistributor.sol\":3736:3747  uint256 max */\n      0x00\n        /* \"contracts/rewardsDistributor.sol\":3750:3755  veSix */\n      immutable(\"0xaaab56abb195b1bec63d541c2b63fa6fa7d6a00ed6a3f98e56354ff75745157a\")\n      sub(shl(0xa0, 0x01), 0x01)\n        /* \"contracts/rewardsDistributor.sol\":3750:3761  veSix.epoch */\n      and\n      0x900cf0cf\n        /* \"contracts/rewardsDistributor.sol\":3750:3763  veSix.epoch() */\n      mload(0x40)\n      dup2\n      0xffffffff\n      and\n      0xe0\n      shl\n      dup2\n      mstore\n      0x04\n      add\n      0x20\n      mload(0x40)\n      dup1\n      dup4\n      sub\n      dup2\n      dup7\n      gas\n      staticcall\n      iszero\n      dup1\n      iszero\n      tag_285\n      jumpi\n      returndatasize\n      0x00\n      dup1\n      returndatacopy\n      revert(0x00, returndatasize)\n    tag_285:\n      pop\n      pop\n      pop\n      pop\n      mload(0x40)\n      returndatasize\n      not(0x1f)\n      0x1f\n      dup3\n      add\n      and\n      dup3\n      add\n      dup1\n      0x40\n      mstore\n      pop\n      dup2\n      add\n      swap1\n      tag_286\n      swap2\n      swap1\n      tag_120\n      jump\t// in\n    tag_286:\n        /* \"contracts/rewardsDistributor.sol\":3736:3763  uint256 max = veSix.epoch() */\n      swap1\n      pop\n        /* \"contracts/rewardsDistributor.sol\":3789:3798  uint256 i */\n      0x00\n        /* \"contracts/rewardsDistributor.sol\":3784:4148  for (uint256 i = 0; i < 128; i++) {... */\n    tag_287:\n        /* \"contracts/rewardsDistributor.sol\":3808:3811  128 */\n      0x80\n        /* \"contracts/rewardsDistributor.sol\":3804:3805  i */\n      dup2\n        /* \"contracts/rewardsDistributor.sol\":3804:3811  i < 128 */\n      lt\n        /* \"contracts/rewardsDistributor.sol\":3784:4148  for (uint256 i = 0; i < 128; i++) {... */\n      iszero\n      tag_288\n      jumpi\n        /* \"contracts/rewardsDistributor.sol\":3844:3847  max */\n      dup2\n        /* \"contracts/rewardsDistributor.sol\":3837:3840  min */\n      dup4\n        /* \"contracts/rewardsDistributor.sol\":3837:3847  min >= max */\n      lt\n        /* \"contracts/rewardsDistributor.sol\":3833:3854  if (min >= max) break */\n      iszero\n        /* \"contracts/rewardsDistributor.sol\":3849:3854  break */\n      tag_288\n        /* \"contracts/rewardsDistributor.sol\":3833:3854  if (min >= max) break */\n      jumpi\n        /* \"contracts/rewardsDistributor.sol\":3883:3894  uint256 mid */\n      0x00\n        /* \"contracts/rewardsDistributor.sol\":3915:3916  2 */\n      0x02\n        /* \"contracts/rewardsDistributor.sol\":3898:3907  min + max */\n      tag_291\n        /* \"contracts/rewardsDistributor.sol\":3904:3907  max */\n      dup5\n        /* \"contracts/rewardsDistributor.sol\":3898:3901  min */\n      dup7\n        /* \"contracts/rewardsDistributor.sol\":3898:3907  min + max */\n      tag_153\n      jump\t// in\n    tag_291:\n        /* \"contracts/rewardsDistributor.sol\":3898:3911  min + max + 2 */\n      tag_292\n      swap1\n        /* \"contracts/rewardsDistributor.sol\":3910:3911  2 */\n      0x02\n        /* \"contracts/rewardsDistributor.sol\":3898:3911  min + max + 2 */\n      tag_153\n      jump\t// in\n    tag_292:\n        /* \"contracts/rewardsDistributor.sol\":3897:3916  (min + max + 2) / 2 */\n      tag_293\n      swap2\n      swap1\n      tag_94\n      jump\t// in\n    tag_293:\n        /* \"contracts/rewardsDistributor.sol\":3959:3983  veSix.point_history(mid) */\n      mload(0x40)\n      shl(0xe0, 0xd1febfb9)\n      dup2\n      mstore\n      0x04\n      dup2\n      add\n        /* \"#utility.yul\":160:185   */\n      dup3\n      swap1\n      mstore\n        /* \"contracts/rewardsDistributor.sol\":3883:3916  uint256 mid = (min + max + 2) / 2 */\n      swap1\n      swap2\n      pop\n        /* \"contracts/rewardsDistributor.sol\":3931:3956  IVeSix.Point memory point */\n      0x00\n      swap1\n      sub(shl(0xa0, 0x01), 0x01)\n        /* \"contracts/rewardsDistributor.sol\":3959:3964  veSix */\n      immutable(\"0xaaab56abb195b1bec63d541c2b63fa6fa7d6a00ed6a3f98e56354ff75745157a\")\n        /* \"contracts/rewardsDistributor.sol\":3959:3978  veSix.point_history */\n      and\n      swap1\n      0xd1febfb9\n      swap1\n        /* \"#utility.yul\":133:151   */\n      0x24\n      add\n        /* \"contracts/rewardsDistributor.sol\":3959:3983  veSix.point_history(mid) */\n      0x80\n      mload(0x40)\n      dup1\n      dup4\n      sub\n      dup2\n      dup7\n      gas\n      staticcall\n      iszero\n      dup1\n      iszero\n      tag_296\n      jumpi\n      returndatasize\n      0x00\n      dup1\n      returndatacopy\n      revert(0x00, returndatasize)\n    tag_296:\n      pop\n      pop\n      pop\n      pop\n      mload(0x40)\n      returndatasize\n      not(0x1f)\n      0x1f\n      dup3\n      add\n      and\n      dup3\n      add\n      dup1\n      0x40\n      mstore\n      pop\n      dup2\n      add\n      swap1\n      tag_297\n      swap2\n      swap1\n      tag_232\n      jump\t// in\n    tag_297:\n        /* \"contracts/rewardsDistributor.sol\":3931:3983  IVeSix.Point memory point = veSix.point_history(mid) */\n      swap1\n      pop\n        /* \"contracts/rewardsDistributor.sol\":4028:4037  timestamp */\n      dup7\n        /* \"contracts/rewardsDistributor.sol\":4016:4021  point */\n      dup2\n        /* \"contracts/rewardsDistributor.sol\":4016:4024  point.ts */\n      0x40\n      add\n      mload\n        /* \"contracts/rewardsDistributor.sol\":4016:4037  point.ts <= timestamp */\n      gt\n        /* \"contracts/rewardsDistributor.sol\":4012:4137  if (point.ts <= timestamp) {... */\n      tag_298\n      jumpi\n        /* \"contracts/rewardsDistributor.sol\":4064:4067  mid */\n      dup2\n        /* \"contracts/rewardsDistributor.sol\":4058:4067  min = mid */\n      swap5\n      pop\n        /* \"contracts/rewardsDistributor.sol\":4012:4137  if (point.ts <= timestamp) {... */\n      jump(tag_299)\n    tag_298:\n        /* \"contracts/rewardsDistributor.sol\":4114:4121  mid - 1 */\n      tag_300\n        /* \"contracts/rewardsDistributor.sol\":4120:4121  1 */\n      0x01\n        /* \"contracts/rewardsDistributor.sol\":4114:4117  mid */\n      dup4\n        /* \"contracts/rewardsDistributor.sol\":4114:4121  mid - 1 */\n      tag_122\n      jump\t// in\n    tag_300:\n        /* \"contracts/rewardsDistributor.sol\":4108:4121  max = mid - 1 */\n      swap4\n      pop\n        /* \"contracts/rewardsDistributor.sol\":4012:4137  if (point.ts <= timestamp) {... */\n    tag_299:\n      pop\n      pop\n        /* \"contracts/rewardsDistributor.sol\":3813:3816  i++ */\n      0x01\n      add\n        /* \"contracts/rewardsDistributor.sol\":3784:4148  for (uint256 i = 0; i < 128; i++) {... */\n      jump(tag_287)\n    tag_288:\n      pop\n        /* \"contracts/rewardsDistributor.sol\":4175:4178  min */\n      swap1\n      swap4\n        /* \"contracts/rewardsDistributor.sol\":3616:4186  function _findEpochForTimestamp(uint256 timestamp) internal view returns (uint256) {... */\n      swap3\n      pop\n      pop\n      pop\n      jump\t// out\n        /* \"@openzeppelin/contracts/token/ERC20/utils/SafeERC20.sol\":7738:8458  function _callOptionalReturn(IERC20 token, bytes memory data) private {... */\n    tag_273:\n        /* \"@openzeppelin/contracts/token/ERC20/utils/SafeERC20.sol\":7818:7836  uint256 returnSize */\n      0x00\n        /* \"@openzeppelin/contracts/token/ERC20/utils/SafeERC20.sol\":7846:7865  uint256 returnValue */\n      dup1\n        /* \"@openzeppelin/contracts/token/ERC20/utils/SafeERC20.sol\":7984:7988  0x20 */\n      0x20\n        /* \"@openzeppelin/contracts/token/ERC20/utils/SafeERC20.sol\":7981:7982  0 */\n      0x00\n        /* \"@openzeppelin/contracts/token/ERC20/utils/SafeERC20.sol\":7974:7978  data */\n      dup5\n        /* \"@openzeppelin/contracts/token/ERC20/utils/SafeERC20.sol\":7968:7979  mload(data) */\n      mload\n        /* \"@openzeppelin/contracts/token/ERC20/utils/SafeERC20.sol\":7961:7965  0x20 */\n      0x20\n        /* \"@openzeppelin/contracts/token/ERC20/utils/SafeERC20.sol\":7955:7959  data */\n      dup7\n        /* \"@openzeppelin/contracts/token/ERC20/utils/SafeERC20.sol\":7951:7966  add(data, 0x20) */\n      add\n        /* \"@openzeppelin/contracts/token/ERC20/utils/SafeERC20.sol\":7948:7949  0 */\n      0x00\n        /* \"@openzeppelin/contracts/token/ERC20/utils/SafeERC20.sol\":7941:7946  token */\n      dup9\n        /* \"@openzeppelin/contracts/token/ERC20/utils/SafeERC20.sol\":7934:7939  gas() */\n      gas\n        /* \"@openzeppelin/contracts/token/ERC20/utils/SafeERC20.sol\":7929:7989  call(gas(), token, 0, add(data, 0x20), mload(data), 0, 0x20) */\n      call\n        /* \"@openzeppelin/contracts/token/ERC20/utils/SafeERC20.sol\":8041:8048  success */\n      dup1\n        /* \"@openzeppelin/contracts/token/ERC20/utils/SafeERC20.sol\":8031:8207  if iszero(success) {... */\n      tag_302\n      jumpi\n        /* \"@openzeppelin/contracts/token/ERC20/utils/SafeERC20.sol\":8085:8089  0x40 */\n      0x40\n        /* \"@openzeppelin/contracts/token/ERC20/utils/SafeERC20.sol\":8079:8090  mload(0x40) */\n      mload\n        /* \"@openzeppelin/contracts/token/ERC20/utils/SafeERC20.sol\":8130:8146  returndatasize() */\n      returndatasize\n        /* \"@openzeppelin/contracts/token/ERC20/utils/SafeERC20.sol\":8127:8128  0 */\n      0x00\n        /* \"@openzeppelin/contracts/token/ERC20/utils/SafeERC20.sol\":8122:8125  ptr */\n      dup3\n        /* \"@openzeppelin/contracts/token/ERC20/utils/SafeERC20.sol\":8107:8147  returndatacopy(ptr, 0, returndatasize()) */\n      returndatacopy\n        /* \"@openzeppelin/contracts/token/ERC20/utils/SafeERC20.sol\":8176:8192  returndatasize() */\n      returndatasize\n        /* \"@openzeppelin/contracts/token/ERC20/utils/SafeERC20.sol\":8171:8174  ptr */\n      dup2\n        /* \"@openzeppelin/contracts/token/ERC20/utils/SafeERC20.sol\":8164:8193  revert(ptr, returndatasize()) */\n      revert\n        /* \"@openzeppelin/contracts/token/ERC20/utils/SafeERC20.sol\":8031:8207  if iszero(success) {... */\n    tag_302:\n      pop\n      pop\n        /* \"@openzeppelin/contracts/token/ERC20/utils/SafeERC20.sol\":8284:8285  0 */\n      0x00\n        /* \"@openzeppelin/contracts/token/ERC20/utils/SafeERC20.sol\":8278:8286  mload(0) */\n      mload\n        /* \"@openzeppelin/contracts/token/ERC20/utils/SafeERC20.sol\":8234:8250  returndatasize() */\n      returndatasize\n      swap2\n      pop\n        /* \"@openzeppelin/contracts/token/ERC20/utils/SafeERC20.sol\":8310:8325  returnSize == 0 */\n      dup2\n      iszero\n        /* \"@openzeppelin/contracts/token/ERC20/utils/SafeERC20.sol\":8310:8378  returnSize == 0 ? address(token).code.length == 0 : returnValue != 1 */\n      tag_303\n      jumpi\n        /* \"@openzeppelin/contracts/token/ERC20/utils/SafeERC20.sol\":8362:8373  returnValue */\n      dup1\n        /* \"@openzeppelin/contracts/token/ERC20/utils/SafeERC20.sol\":8377:8378  1 */\n      0x01\n        /* \"@openzeppelin/contracts/token/ERC20/utils/SafeERC20.sol\":8362:8378  returnValue != 1 */\n      eq\n      iszero\n        /* \"@openzeppelin/contracts/token/ERC20/utils/SafeERC20.sol\":8310:8378  returnSize == 0 ? address(token).code.length == 0 : returnValue != 1 */\n      jump(tag_304)\n    tag_303:\n      sub(shl(0xa0, 0x01), 0x01)\n        /* \"@openzeppelin/contracts/token/ERC20/utils/SafeERC20.sol\":8328:8354  address(token).code.length */\n      dup5\n      and\n      extcodesize\n        /* \"@openzeppelin/contracts/token/ERC20/utils/SafeERC20.sol\":8328:8359  address(token).code.length == 0 */\n      iszero\n        /* \"@openzeppelin/contracts/token/ERC20/utils/SafeERC20.sol\":8310:8378  returnSize == 0 ? address(token).code.length == 0 : returnValue != 1 */\n    tag_304:\n        /* \"@openzeppelin/contracts/token/ERC20/utils/SafeERC20.sol\":8306:8452  if (returnSize == 0 ? address(token).code.length == 0 : returnValue != 1) {... */\n      iszero\n      tag_305\n      jumpi\n        /* \"@openzeppelin/contracts/token/ERC20/utils/SafeERC20.sol\":8401:8441  SafeERC20FailedOperation(address(token)) */\n      mload(0x40)\n      shl(0xe0, 0x5274afe7)\n      dup2\n      mstore\n      sub(shl(0xa0, 0x01), 0x01)\n        /* \"#utility.yul\":545:577   */\n      dup6\n      and\n        /* \"@openzeppelin/contracts/token/ERC20/utils/SafeERC20.sol\":8401:8441  SafeERC20FailedOperation(address(token)) */\n      0x04\n      dup3\n      add\n        /* \"#utility.yul\":527:578   */\n      mstore\n        /* \"#utility.yul\":500:518   */\n      0x24\n      add\n        /* \"@openzeppelin/contracts/token/ERC20/utils/SafeERC20.sol\":8401:8441  SafeERC20FailedOperation(address(token)) */\n      tag_210\n        /* \"#utility.yul\":381:584   */\n      jump\n        /* \"@openzeppelin/contracts/token/ERC20/utils/SafeERC20.sol\":8306:8452  if (returnSize == 0 ? address(token).code.length == 0 : returnValue != 1) {... */\n    tag_305:\n        /* \"@openzeppelin/contracts/token/ERC20/utils/SafeERC20.sol\":7808:8458  {... */\n      pop\n      pop\n        /* \"@openzeppelin/contracts/token/ERC20/utils/SafeERC20.sol\":7738:8458  function _callOptionalReturn(IERC20 token, bytes memory data) private {... */\n      pop\n      pop\n      jump\t// out\n        /* \"#utility.yul\":196:376   */\n    tag_30:\n        /* \"#utility.yul\":255:261   */\n      0x00\n        /* \"#utility.yul\":308:310   */\n      0x20\n        /* \"#utility.yul\":296:305   */\n      dup3\n        /* \"#utility.yul\":287:294   */\n      dup5\n        /* \"#utility.yul\":283:306   */\n      sub\n        /* \"#utility.yul\":279:311   */\n      slt\n        /* \"#utility.yul\":276:328   */\n      iszero\n      tag_314\n      jumpi\n        /* \"#utility.yul\":324:325   */\n      0x00\n        /* \"#utility.yul\":321:322   */\n      dup1\n        /* \"#utility.yul\":314:326   */\n      revert\n        /* \"#utility.yul\":276:328   */\n    tag_314:\n      pop\n        /* \"#utility.yul\":347:370   */\n      calldataload\n      swap2\n        /* \"#utility.yul\":196:376   */\n      swap1\n      pop\n      jump\t// out\n        /* \"#utility.yul\":589:1199   */\n    tag_49:\n        /* \"#utility.yul\":675:681   */\n      0x00\n        /* \"#utility.yul\":683:689   */\n      dup1\n        /* \"#utility.yul\":736:738   */\n      0x20\n        /* \"#utility.yul\":724:733   */\n      dup4\n        /* \"#utility.yul\":715:722   */\n      dup6\n        /* \"#utility.yul\":711:734   */\n      sub\n        /* \"#utility.yul\":707:739   */\n      slt\n        /* \"#utility.yul\":704:756   */\n      iszero\n      tag_317\n      jumpi\n        /* \"#utility.yul\":752:753   */\n      0x00\n        /* \"#utility.yul\":749:750   */\n      dup1\n        /* \"#utility.yul\":742:754   */\n      revert\n        /* \"#utility.yul\":704:756   */\n    tag_317:\n        /* \"#utility.yul\":792:801   */\n      dup3\n        /* \"#utility.yul\":779:802   */\n      calldataload\n        /* \"#utility.yul\":825:843   */\n      0xffffffffffffffff\n        /* \"#utility.yul\":817:823   */\n      dup2\n        /* \"#utility.yul\":814:844   */\n      gt\n        /* \"#utility.yul\":811:861   */\n      iszero\n      tag_318\n      jumpi\n        /* \"#utility.yul\":857:858   */\n      0x00\n        /* \"#utility.yul\":854:855   */\n      dup1\n        /* \"#utility.yul\":847:859   */\n      revert\n        /* \"#utility.yul\":811:861   */\n    tag_318:\n        /* \"#utility.yul\":880:902   */\n      dup4\n      add\n        /* \"#utility.yul\":933:937   */\n      0x1f\n        /* \"#utility.yul\":925:938   */\n      dup2\n      add\n        /* \"#utility.yul\":921:948   */\n      dup6\n      sgt\n        /* \"#utility.yul\":911:966   */\n      tag_319\n      jumpi\n        /* \"#utility.yul\":962:963   */\n      0x00\n        /* \"#utility.yul\":959:960   */\n      dup1\n        /* \"#utility.yul\":952:964   */\n      revert\n        /* \"#utility.yul\":911:966   */\n    tag_319:\n        /* \"#utility.yul\":1002:1004   */\n      dup1\n        /* \"#utility.yul\":989:1005   */\n      calldataload\n        /* \"#utility.yul\":1028:1046   */\n      0xffffffffffffffff\n        /* \"#utility.yul\":1020:1026   */\n      dup2\n        /* \"#utility.yul\":1017:1047   */\n      gt\n        /* \"#utility.yul\":1014:1064   */\n      iszero\n      tag_320\n      jumpi\n        /* \"#utility.yul\":1060:1061   */\n      0x00\n        /* \"#utility.yul\":1057:1058   */\n      dup1\n        /* \"#utility.yul\":1050:1062   */\n      revert\n        /* \"#utility.yul\":1014:1064   */\n    tag_320:\n        /* \"#utility.yul\":1113:1120   */\n      dup6\n        /* \"#utility.yul\":1108:1110   */\n      0x20\n        /* \"#utility.yul\":1098:1104   */\n      dup3\n        /* \"#utility.yul\":1095:1096   */\n      0x05\n        /* \"#utility.yul\":1091:1105   */\n      shl\n        /* \"#utility.yul\":1087:1089   */\n      dup5\n        /* \"#utility.yul\":1083:1106   */\n      add\n        /* \"#utility.yul\":1079:1111   */\n      add\n        /* \"#utility.yul\":1076:1121   */\n      gt\n        /* \"#utility.yul\":1073:1138   */\n      iszero\n      tag_321\n      jumpi\n        /* \"#utility.yul\":1134:1135   */\n      0x00\n        /* \"#utility.yul\":1131:1132   */\n      dup1\n        /* \"#utility.yul\":1124:1136   */\n      revert\n        /* \"#utility.yul\":1073:1138   */\n    tag_321:\n        /* \"#utility.yul\":1165:1167   */\n      0x20\n        /* \"#utility.yul\":1157:1168   */\n      swap2\n      swap1\n      swap2\n      add\n      swap6\n        /* \"#utility.yul\":1187:1193   */\n      swap1\n      swap5\n      pop\n        /* \"#utility.yul\":589:1199   */\n      swap3\n      pop\n      pop\n      pop\n      jump\t// out\n        /* \"#utility.yul\":1841:1972   */\n    tag_308:\n      sub(shl(0xa0, 0x01), 0x01)\n        /* \"#utility.yul\":1916:1947   */\n      dup2\n      and\n        /* \"#utility.yul\":1906:1948   */\n      dup2\n      eq\n        /* \"#utility.yul\":1896:1966   */\n      tag_211\n      jumpi\n        /* \"#utility.yul\":1962:1963   */\n      0x00\n        /* \"#utility.yul\":1959:1960   */\n      dup1\n        /* \"#utility.yul\":1952:1964   */\n      revert\n        /* \"#utility.yul\":1977:2224   */\n    tag_86:\n        /* \"#utility.yul\":2036:2042   */\n      0x00\n        /* \"#utility.yul\":2089:2091   */\n      0x20\n        /* \"#utility.yul\":2077:2086   */\n      dup3\n        /* \"#utility.yul\":2068:2075   */\n      dup5\n        /* \"#utility.yul\":2064:2087   */\n      sub\n        /* \"#utility.yul\":2060:2092   */\n      slt\n        /* \"#utility.yul\":2057:2109   */\n      iszero\n      tag_328\n      jumpi\n        /* \"#utility.yul\":2105:2106   */\n      0x00\n        /* \"#utility.yul\":2102:2103   */\n      dup1\n        /* \"#utility.yul\":2095:2107   */\n      revert\n        /* \"#utility.yul\":2057:2109   */\n    tag_328:\n        /* \"#utility.yul\":2144:2153   */\n      dup2\n        /* \"#utility.yul\":2131:2154   */\n      calldataload\n        /* \"#utility.yul\":2163:2194   */\n      tag_202\n        /* \"#utility.yul\":2188:2193   */\n      dup2\n        /* \"#utility.yul\":2163:2194   */\n      tag_308\n      jump\t// in\n        /* \"#utility.yul\":2229:2356   */\n    tag_309:\n        /* \"#utility.yul\":2290:2300   */\n      0x4e487b71\n        /* \"#utility.yul\":2285:2288   */\n      0xe0\n        /* \"#utility.yul\":2281:2301   */\n      shl\n        /* \"#utility.yul\":2278:2279   */\n      0x00\n        /* \"#utility.yul\":2271:2302   */\n      mstore\n        /* \"#utility.yul\":2321:2325   */\n      0x11\n        /* \"#utility.yul\":2318:2319   */\n      0x04\n        /* \"#utility.yul\":2311:2326   */\n      mstore\n        /* \"#utility.yul\":2345:2349   */\n      0x24\n        /* \"#utility.yul\":2342:2343   */\n      0x00\n        /* \"#utility.yul\":2335:2350   */\n      revert\n        /* \"#utility.yul\":2361:2578   */\n    tag_94:\n        /* \"#utility.yul\":2401:2402   */\n      0x00\n        /* \"#utility.yul\":2427:2428   */\n      dup3\n        /* \"#utility.yul\":2417:2549   */\n      tag_332\n      jumpi\n        /* \"#utility.yul\":2471:2481   */\n      0x4e487b71\n        /* \"#utility.yul\":2466:2469   */\n      0xe0\n        /* \"#utility.yul\":2462:2482   */\n      shl\n        /* \"#utility.yul\":2459:2460   */\n      0x00\n        /* \"#utility.yul\":2452:2483   */\n      mstore\n        /* \"#utility.yul\":2506:2510   */\n      0x12\n        /* \"#utility.yul\":2503:2504   */\n      0x04\n        /* \"#utility.yul\":2496:2511   */\n      mstore\n        /* \"#utility.yul\":2534:2538   */\n      0x24\n        /* \"#utility.yul\":2531:2532   */\n      0x00\n        /* \"#utility.yul\":2524:2539   */\n      revert\n        /* \"#utility.yul\":2417:2549   */\n    tag_332:\n      pop\n        /* \"#utility.yul\":2563:2572   */\n      div\n      swap1\n        /* \"#utility.yul\":2361:2578   */\n      jump\t// out\n        /* \"#utility.yul\":2583:2751   */\n    tag_96:\n        /* \"#utility.yul\":2656:2665   */\n      dup1\n      dup3\n      mul\n        /* \"#utility.yul\":2687:2696   */\n      dup2\n      iszero\n        /* \"#utility.yul\":2704:2719   */\n      dup3\n      dup3\n      div\n        /* \"#utility.yul\":2698:2720   */\n      dup5\n      eq\n        /* \"#utility.yul\":2684:2721   */\n      or\n        /* \"#utility.yul\":2674:2745   */\n      tag_198\n      jumpi\n        /* \"#utility.yul\":2725:2743   */\n      tag_198\n      tag_309\n      jump\t// in\n        /* \"#utility.yul\":3035:3312   */\n    tag_106:\n        /* \"#utility.yul\":3102:3108   */\n      0x00\n        /* \"#utility.yul\":3155:3157   */\n      0x20\n        /* \"#utility.yul\":3143:3152   */\n      dup3\n        /* \"#utility.yul\":3134:3141   */\n      dup5\n        /* \"#utility.yul\":3130:3153   */\n      sub\n        /* \"#utility.yul\":3126:3158   */\n      slt\n        /* \"#utility.yul\":3123:3175   */\n      iszero\n      tag_338\n      jumpi\n        /* \"#utility.yul\":3171:3172   */\n      0x00\n        /* \"#utility.yul\":3168:3169   */\n      dup1\n        /* \"#utility.yul\":3161:3173   */\n      revert\n        /* \"#utility.yul\":3123:3175   */\n    tag_338:\n        /* \"#utility.yul\":3203:3212   */\n      dup2\n        /* \"#utility.yul\":3197:3213   */\n      mload\n        /* \"#utility.yul\":3256:3261   */\n      dup1\n        /* \"#utility.yul\":3249:3262   */\n      iszero\n        /* \"#utility.yul\":3242:3263   */\n      iszero\n        /* \"#utility.yul\":3235:3240   */\n      dup2\n        /* \"#utility.yul\":3232:3264   */\n      eq\n        /* \"#utility.yul\":3222:3282   */\n      tag_202\n      jumpi\n        /* \"#utility.yul\":3278:3279   */\n      0x00\n        /* \"#utility.yul\":3275:3276   */\n      dup1\n        /* \"#utility.yul\":3268:3280   */\n      revert\n        /* \"#utility.yul\":3317:3547   */\n    tag_120:\n        /* \"#utility.yul\":3387:3393   */\n      0x00\n        /* \"#utility.yul\":3440:3442   */\n      0x20\n        /* \"#utility.yul\":3428:3437   */\n      dup3\n        /* \"#utility.yul\":3419:3426   */\n      dup5\n        /* \"#utility.yul\":3415:3438   */\n      sub\n        /* \"#utility.yul\":3411:3443   */\n      slt\n        /* \"#utility.yul\":3408:3460   */\n      iszero\n      tag_341\n      jumpi\n        /* \"#utility.yul\":3456:3457   */\n      0x00\n        /* \"#utility.yul\":3453:3454   */\n      dup1\n        /* \"#utility.yul\":3446:3458   */\n      revert\n        /* \"#utility.yul\":3408:3460   */\n    tag_341:\n      pop\n        /* \"#utility.yul\":3501:3517   */\n      mload\n      swap2\n        /* \"#utility.yul\":3317:3547   */\n      swap1\n      pop\n      jump\t// out\n        /* \"#utility.yul\":3552:3680   */\n    tag_122:\n        /* \"#utility.yul\":3619:3628   */\n      dup2\n      dup2\n      sub\n        /* \"#utility.yul\":3640:3651   */\n      dup2\n      dup2\n      gt\n        /* \"#utility.yul\":3637:3674   */\n      iszero\n      tag_198\n      jumpi\n        /* \"#utility.yul\":3654:3672   */\n      tag_198\n      tag_309\n      jump\t// in\n        /* \"#utility.yul\":3685:3936   */\n    tag_127:\n        /* \"#utility.yul\":3755:3761   */\n      0x00\n        /* \"#utility.yul\":3808:3810   */\n      0x20\n        /* \"#utility.yul\":3796:3805   */\n      dup3\n        /* \"#utility.yul\":3787:3794   */\n      dup5\n        /* \"#utility.yul\":3783:3806   */\n      sub\n        /* \"#utility.yul\":3779:3811   */\n      slt\n        /* \"#utility.yul\":3776:3828   */\n      iszero\n      tag_346\n      jumpi\n        /* \"#utility.yul\":3824:3825   */\n      0x00\n        /* \"#utility.yul\":3821:3822   */\n      dup1\n        /* \"#utility.yul\":3814:3826   */\n      revert\n        /* \"#utility.yul\":3776:3828   */\n    tag_346:\n        /* \"#utility.yul\":3856:3865   */\n      dup2\n        /* \"#utility.yul\":3850:3866   */\n      mload\n        /* \"#utility.yul\":3875:3906   */\n      tag_202\n        /* \"#utility.yul\":3900:3905   */\n      dup2\n        /* \"#utility.yul\":3875:3906   */\n      tag_308\n      jump\t// in\n        /* \"#utility.yul\":4265:4390   */\n    tag_153:\n        /* \"#utility.yul\":4330:4339   */\n      dup1\n      dup3\n      add\n        /* \"#utility.yul\":4351:4361   */\n      dup1\n      dup3\n      gt\n        /* \"#utility.yul\":4348:4384   */\n      iszero\n      tag_198\n      jumpi\n        /* \"#utility.yul\":4364:4382   */\n      tag_198\n      tag_309\n      jump\t// in\n        /* \"#utility.yul\":4648:4775   */\n    tag_182:\n        /* \"#utility.yul\":4709:4719   */\n      0x4e487b71\n        /* \"#utility.yul\":4704:4707   */\n      0xe0\n        /* \"#utility.yul\":4700:4720   */\n      shl\n        /* \"#utility.yul\":4697:4698   */\n      0x00\n        /* \"#utility.yul\":4690:4721   */\n      mstore\n        /* \"#utility.yul\":4740:4744   */\n      0x32\n        /* \"#utility.yul\":4737:4738   */\n      0x04\n        /* \"#utility.yul\":4730:4745   */\n      mstore\n        /* \"#utility.yul\":4764:4768   */\n      0x24\n        /* \"#utility.yul\":4761:4762   */\n      0x00\n        /* \"#utility.yul\":4754:4769   */\n      revert\n        /* \"#utility.yul\":5140:5306   */\n    tag_310:\n        /* \"#utility.yul\":5218:5231   */\n      dup1\n      mload\n        /* \"#utility.yul\":5271:5273   */\n      0x0f\n        /* \"#utility.yul\":5260:5281   */\n      dup2\n      swap1\n      signextend\n        /* \"#utility.yul\":5250:5282   */\n      dup2\n      eq\n        /* \"#utility.yul\":5240:5300   */\n      tag_136\n      jumpi\n        /* \"#utility.yul\":5296:5297   */\n      0x00\n        /* \"#utility.yul\":5293:5294   */\n      dup1\n        /* \"#utility.yul\":5286:5298   */\n      revert\n        /* \"#utility.yul\":5311:6212   */\n    tag_232:\n        /* \"#utility.yul\":5404:5410   */\n      0x00\n        /* \"#utility.yul\":5464:5467   */\n      0x80\n        /* \"#utility.yul\":5452:5461   */\n      dup3\n        /* \"#utility.yul\":5443:5450   */\n      dup5\n        /* \"#utility.yul\":5439:5462   */\n      sub\n        /* \"#utility.yul\":5435:5468   */\n      slt\n        /* \"#utility.yul\":5480:5482   */\n      dup1\n        /* \"#utility.yul\":5477:5499   */\n      iszero\n      tag_358\n      jumpi\n        /* \"#utility.yul\":5495:5496   */\n      0x00\n        /* \"#utility.yul\":5492:5493   */\n      dup1\n        /* \"#utility.yul\":5485:5497   */\n      revert\n        /* \"#utility.yul\":5477:5499   */\n    tag_358:\n        /* \"#utility.yul\":5514:5515   */\n      0x00\n        /* \"#utility.yul\":5508:5515   */\n      swap1\n      pop\n        /* \"#utility.yul\":5544:5546   */\n      0x40\n        /* \"#utility.yul\":5538:5547   */\n      mload\n        /* \"#utility.yul\":5586:5589   */\n      0x80\n        /* \"#utility.yul\":5578:5584   */\n      dup2\n        /* \"#utility.yul\":5574:5590   */\n      add\n        /* \"#utility.yul\":5656:5662   */\n      dup2\n        /* \"#utility.yul\":5644:5654   */\n      dup2\n        /* \"#utility.yul\":5641:5663   */\n      lt\n        /* \"#utility.yul\":5620:5638   */\n      0xffffffffffffffff\n        /* \"#utility.yul\":5608:5618   */\n      dup3\n        /* \"#utility.yul\":5605:5639   */\n      gt\n        /* \"#utility.yul\":5602:5664   */\n      or\n        /* \"#utility.yul\":5599:5786   */\n      iszero\n      tag_359\n      jumpi\n      shl(0xe0, 0x4e487b71)\n        /* \"#utility.yul\":5687:5719   */\n      dup4\n      mstore\n        /* \"#utility.yul\":5742:5746   */\n      0x41\n        /* \"#utility.yul\":5739:5740   */\n      0x04\n        /* \"#utility.yul\":5732:5747   */\n      mstore\n        /* \"#utility.yul\":5771:5775   */\n      0x24\n        /* \"#utility.yul\":5694:5696   */\n      dup4\n        /* \"#utility.yul\":5760:5776   */\n      revert\n        /* \"#utility.yul\":5599:5786   */\n    tag_359:\n        /* \"#utility.yul\":5802:5804   */\n      0x40\n        /* \"#utility.yul\":5795:5817   */\n      mstore\n        /* \"#utility.yul\":5841:5880   */\n      tag_360\n        /* \"#utility.yul\":5870:5879   */\n      dup5\n        /* \"#utility.yul\":5841:5880   */\n      tag_310\n      jump\t// in\n    tag_360:\n        /* \"#utility.yul\":5833:5839   */\n      dup2\n        /* \"#utility.yul\":5826:5881   */\n      mstore\n        /* \"#utility.yul\":5914:5962   */\n      tag_361\n        /* \"#utility.yul\":5958:5960   */\n      0x20\n        /* \"#utility.yul\":5947:5956   */\n      dup6\n        /* \"#utility.yul\":5943:5961   */\n      add\n        /* \"#utility.yul\":5914:5962   */\n      tag_310\n      jump\t// in\n    tag_361:\n        /* \"#utility.yul\":5909:5911   */\n      0x20\n        /* \"#utility.yul\":5897:5912   */\n      dup3\n      add\n        /* \"#utility.yul\":5890:5963   */\n      mstore\n        /* \"#utility.yul\":6026:6028   */\n      0x40\n        /* \"#utility.yul\":6011:6029   */\n      dup5\n      dup2\n      add\n        /* \"#utility.yul\":6005:6030   */\n      mload\n        /* \"#utility.yul\":6046:6061   */\n      swap1\n      dup3\n      add\n        /* \"#utility.yul\":6039:6069   */\n      mstore\n        /* \"#utility.yul\":6136:6138   */\n      0x60\n        /* \"#utility.yul\":6121:6139   */\n      swap4\n      dup5\n      add\n        /* \"#utility.yul\":6115:6140   */\n      mload\n        /* \"#utility.yul\":6156:6171   */\n      swap4\n      dup2\n      add\n        /* \"#utility.yul\":6149:6181   */\n      swap4\n      swap1\n      swap4\n      mstore\n      pop\n        /* \"#utility.yul\":5901:5907   */\n      swap1\n      swap3\n        /* \"#utility.yul\":5311:6212   */\n      swap2\n      pop\n      pop\n      jump\t// out\n        /* \"#utility.yul\":6217:6458   */\n    tag_236:\n        /* \"#utility.yul\":6256:6263   */\n      0x00\n        /* \"#utility.yul\":6335:6336   */\n      dup3\n        /* \"#utility.yul\":6331:6333   */\n      0x0f\n        /* \"#utility.yul\":6320:6337   */\n      signextend\n        /* \"#utility.yul\":6316:6317   */\n      dup3\n        /* \"#utility.yul\":6312:6314   */\n      0x0f\n        /* \"#utility.yul\":6301:6318   */\n      signextend\n        /* \"#utility.yul\":6297:6338   */\n      mul\n        /* \"#utility.yul\":6373:6384   */\n      dup1\n        /* \"#utility.yul\":6369:6371   */\n      0x0f\n        /* \"#utility.yul\":6358:6385   */\n      signextend\n        /* \"#utility.yul\":6347:6385   */\n      swap2\n      pop\n        /* \"#utility.yul\":6416:6427   */\n      dup1\n        /* \"#utility.yul\":6407:6414   */\n      dup3\n        /* \"#utility.yul\":6404:6428   */\n      eq\n        /* \"#utility.yul\":6394:6452   */\n      tag_364\n      jumpi\n        /* \"#utility.yul\":6432:6450   */\n      tag_364\n      tag_309\n      jump\t// in\n    tag_364:\n        /* \"#utility.yul\":6394:6452   */\n      pop\n        /* \"#utility.yul\":6217:6458   */\n      swap3\n      swap2\n      pop\n      pop\n      jump\t// out\n        /* \"#utility.yul\":6463:6712   */\n    tag_238:\n        /* \"#utility.yul\":6563:6565   */\n      0x0f\n        /* \"#utility.yul\":6552:6569   */\n      dup3\n      dup2\n      signextend\n        /* \"#utility.yul\":6533:6550   */\n      swap1\n      dup3\n      swap1\n      signextend\n        /* \"#utility.yul\":6529:6570   */\n      sub\n      not(0x7fffffffffffffffffffffffffffffff)\n        /* \"#utility.yul\":6585:6635   */\n      dup2\n      slt\n        /* \"#utility.yul\":6647:6681   */\n      0x7fffffffffffffffffffffffffffffff\n        /* \"#utility.yul\":6637:6682   */\n      dup3\n      sgt\n        /* \"#utility.yul\":6582:6683   */\n      or\n        /* \"#utility.yul\":6579:6706   */\n      iszero\n      tag_198\n      jumpi\n        /* \"#utility.yul\":6686:6704   */\n      tag_198\n      tag_309\n      jump\t// in\n        /* \"#utility.yul\":6717:6852   */\n    tag_242:\n        /* \"#utility.yul\":6756:6759   */\n      0x00\n        /* \"#utility.yul\":6777:6794   */\n      0x01\n      dup3\n      add\n        /* \"#utility.yul\":6774:6817   */\n      tag_370\n      jumpi\n        /* \"#utility.yul\":6797:6815   */\n      tag_370\n      tag_309\n      jump\t// in\n    tag_370:\n      pop\n        /* \"#utility.yul\":6844:6845   */\n      0x01\n        /* \"#utility.yul\":6833:6846   */\n      add\n      swap1\n        /* \"#utility.yul\":6717:6852   */\n      jump\t// out\n\n    auxdata: 0xa26469706673582212205eac481c53f47676afc425a1b96a5e54985d4eab7cb3cb92dcba9e140abfa79a64736f6c634300081b0033\n}\n",
				"bytecode": {
					"linkReferences": {},
					"object": "60c060405234801561001057600080fd5b5060405161171b38038061171b83398101604081905261002f9161014a565b338061005557604051631e4fbdf760e01b81526000600482015260240160405180910390fd5b61005e816100de565b50600180556001600160a01b038216158061008057506001600160a01b038116155b1561009e5760405163e6c4247b60e01b815260040160405180910390fd5b6001600160a01b03808316608052811660a05262093a806100bf814261017d565b6100c9919061019f565b60028190556003819055600455506101ca9050565b600080546001600160a01b038381166001600160a01b0319831681178455604051919092169283917f8be0079c531659141344cd1fd0a4f28419497f9722a3daafe3b4186f6b6457e09190a35050565b80516001600160a01b038116811461014557600080fd5b919050565b6000806040838503121561015d57600080fd5b6101668361012e565b91506101746020840161012e565b90509250929050565b60008261019a57634e487b7160e01b600052601260045260246000fd5b500490565b80820281158282048414176101c457634e487b7160e01b600052601160045260246000fd5b92915050565b60805160a0516114d161024a6000396000818161022a0152818161056601526106a90152600081816101ba0152818161031b0152818161042f015281816104e4015281816105e2015281816108a801528181610b1a01528181610bd201528181610d1101528181610dfb01528181610fec01526110c901526114d16000f3fe608060405234801561001057600080fd5b50600436106101165760003560e01c806398a3f422116100a2578063d1d58b2511610071578063d1d58b251461024c578063e6e00a8a1461025f578063eeff799a1461027f578063f2fde38b14610292578063f6dd9e43146102a557600080fd5b806398a3f422146101dc578063af364c05146101fc578063c8f33c911461021c578063d1af0c7d1461022557600080fd5b806378e97925116100e957806378e979251461015b5780638736659b146101645780638da5cb5b1461016d578063925489a81461019257806392815606146101b557600080fd5b8063069bf5811461011b578063379607f5146101365780636f4a2cd014610149578063715018a614610153575b600080fd5b6101236102c5565b6040519081526020015b60405180910390f35b6101236101443660046111e1565b6102f5565b61015161067d565b005b61015161087f565b61012360025481565b61012360045481565b6000546001600160a01b03165b6040516001600160a01b03909116815260200161012d565b6101a56101a03660046111fa565b610891565b604051901515815260200161012d565b61017a7f000000000000000000000000000000000000000000000000000000000000000081565b6101236101ea3660046111e1565b60066020526000908152604090205481565b61012361020a3660046111e1565b60076020526000908152604090205481565b61012360035481565b61017a7f000000000000000000000000000000000000000000000000000000000000000081565b61012361025a3660046111e1565b6109f8565b61012361026d3660046111e1565b60056020526000908152604090205481565b61012361028d3660046111e1565b610a26565b6101516102a0366004611286565b610a59565b6101236102b33660046111e1565b60086020526000908152604090205481565b60008062093a806102d681426112b9565b6102e091906112db565b60009081526008602052604090205492915050565b60006102ff610a9c565b60405163430c208160e01b8152336004820152602481018390527f00000000000000000000000000000000000000000000000000000000000000006001600160a01b03169063430c208190604401602060405180830381865afa15801561036a573d6000803e3d6000fd5b505050506040513d601f19601f8201168201806040525081019061038e91906112f2565b6103ab5760405163ea8e4eb560e01b815260040160405180910390fd5b6004544211156103bd576103bd610af5565b600062093a806103cd81426112b9565b6103d791906112db565b905060006103e58483610cc0565b90508060000361040857604051630fec21fd60e21b815260040160405180910390fd5b600084815260056020526040908190208390555163391044d760e21b8152600481018590527f00000000000000000000000000000000000000000000000000000000000000006001600160a01b03169063e441135c90602401602060405180830381865afa15801561047e573d6000803e3d6000fd5b505050506040513d601f19601f820116820180604052508101906104a29190611314565b600085815260066020526040812091909155600980548392906104c690849061132d565b90915550506040516331a9108f60e11b8152600481018590526000907f00000000000000000000000000000000000000000000000000000000000000006001600160a01b031690636352211e90602401602060405180830381865afa158015610533573d6000803e3d6000fd5b505050506040513d601f19601f820116820180604052508101906105579190611340565b905061058d6001600160a01b037f0000000000000000000000000000000000000000000000000000000000000000168284610f0d565b6000858152600660205260409081902054905163391044d760e21b81526004810187905286917f5ce397c9bb9806fe77f5c7c28202740f0805fc106a10f4d38821a4b65c768345918591906001600160a01b037f0000000000000000000000000000000000000000000000000000000000000000169063e441135c90602401602060405180830381865afa158015610629573d6000803e3d6000fd5b505050506040513d601f19601f8201168201806040525081019061064d9190611314565b6040805193845260208401929092529082015260600160405180910390a25091505061067860018055565b919050565b610685610a9c565b6009546040516370a0823160e01b8152306004820152600091906001600160a01b037f000000000000000000000000000000000000000000000000000000000000000016906370a0823190602401602060405180830381865afa1580156106f0573d6000803e3d6000fd5b505050506040513d601f19601f820116820180604052508101906107149190611314565b61071e919061132d565b90508060000361074157604051630fec21fd60e21b815260040160405180910390fd5b600062093a8061075181426112b9565b61075b91906112db565b9050600062093a8060035483610771919061132d565b61077b91906112b9565b9050806000036107ae57600082815260076020526040812080548592906107a390849061135d565b909155506108149050565b60006107ba82856112b9565b9050600062093a806003546107cf919061135d565b90505b83811161081157600081815260076020526040812080548492906107f790849061135d565b9091555061080a905062093a808261135d565b90506107d2565b50505b8260096000828254610826919061135d565b9091555050600382905560408051428152602081018590527f29e98ba00d07f171959c4ddcd2f3020debc7c52cf537a034d7e664340d098c6c910160405180910390a1610871610af5565b50505061087d60018055565b565b610887610f64565b61087d6000610f91565b600061089b610a9c565b60005b828110156109ea577f00000000000000000000000000000000000000000000000000000000000000006001600160a01b031663430c2081338686858181106108e8576108e8611370565b6040516001600160e01b031960e087901b1681526001600160a01b0390941660048501526020029190910135602483015250604401602060405180830381865afa15801561093a573d6000803e3d6000fd5b505050506040513d601f19601f8201168201806040525081019061095e91906112f2565b156109e2573063379607f585858481811061097b5761097b611370565b905060200201356040518263ffffffff1660e01b81526004016109a091815260200190565b6020604051808303816000875af19250505080156109db575060408051601f3d908101601f191682019092526109d891810190611314565b60015b156109e257505b60010161089e565b505060018080555b92915050565b60008062093a80610a0981426112b9565b610a1391906112db565b9050610a1f8382610cc0565b9392505050565b600060078162093a80610a3981866112b9565b610a4391906112db565b8152602001908152602001600020549050919050565b610a61610f64565b6001600160a01b038116610a9057604051631e4fbdf760e01b8152600060048201526024015b60405180910390fd5b610a9981610f91565b50565b600260015403610aee5760405162461bcd60e51b815260206004820152601f60248201527f5265656e7472616e637947756172643a207265656e7472616e742063616c6c006044820152606401610a87565b6002600155565b600062093a80610b0581426112b9565b610b0f91906112db565b9050600060045490507f00000000000000000000000000000000000000000000000000000000000000006001600160a01b031663c2c4c5c16040518163ffffffff1660e01b8152600401600060405180830381600087803b158015610b7357600080fd5b505af1158015610b87573d6000803e3d6000fd5b5050505060005b601481108015610b9e5750828211155b15610cb9576000610bae83610fe1565b60405163d1febfb960e01b8152600481018290529091506000906001600160a01b037f0000000000000000000000000000000000000000000000000000000000000000169063d1febfb990602401608060405180830381865afa158015610c19573d6000803e3d6000fd5b505050506040513d601f19601f82011682018060405250810190610c3d9190611398565b905060008160400151851115610c5f576040820151610c5c908661132d565b90505b6000818360200151610c71919061141c565b8351610c7d9190611443565b600f0b90506000868152600860205260409020819055610ca062093a808761135d565b9550505050508080610cb190611482565b915050610b8e565b5060045550565b600082815260066020526040812054808203610cda575060015b60008481526005602052604081205490819003610dc2576040516309bb79ed60e11b815260048101869052602481018390526000907f00000000000000000000000000000000000000000000000000000000000000006001600160a01b031690631376f3da90604401608060405180830381865afa158015610d60573d6000803e3d6000fd5b505050506040513d601f19601f82011682018060405250810190610d849190611398565b905062093a8080600162093a808460400151610da0919061135d565b610daa919061132d565b610db491906112b9565b610dbe91906112db565b9150505b6000805b603281108015610dd65750858311155b15610f0357604051637028a55d60e11b815260048101889052602481018490526000907f00000000000000000000000000000000000000000000000000000000000000006001600160a01b03169063e0514aba90604401602060405180830381865afa158015610e4a573d6000803e3d6000fd5b505050506040513d601f19601f82011682018060405250810190610e6e9190611314565b6000858152600860205260409020549091508115801590610e8f5750600081115b8015610ea8575060008581526007602052604090205415155b15610edf576000858152600760205260409020548190610ec890846112db565b610ed291906112b9565b610edc908561135d565b93505b610eec62093a808661135d565b945050508080610efb90611482565b915050610dc6565b5095945050505050565b604080516001600160a01b038416602482015260448082018490528251808303909101815260649091019091526020810180516001600160e01b031663a9059cbb60e01b179052610f5f90849061116a565b505050565b6000546001600160a01b0316331461087d5760405163118cdaa760e01b8152336004820152602401610a87565b600080546001600160a01b038381166001600160a01b0319831681178455604051919092169283917f8be0079c531659141344cd1fd0a4f28419497f9722a3daafe3b4186f6b6457e09190a35050565b6000806000905060007f00000000000000000000000000000000000000000000000000000000000000006001600160a01b031663900cf0cf6040518163ffffffff1660e01b8152600401602060405180830381865afa158015611048573d6000803e3d6000fd5b505050506040513d601f19601f8201168201806040525081019061106c9190611314565b905060005b608081101561116157818310156111615760006002611090848661135d565b61109b90600261135d565b6110a591906112b9565b60405163d1febfb960e01b8152600481018290529091506000906001600160a01b037f0000000000000000000000000000000000000000000000000000000000000000169063d1febfb990602401608060405180830381865afa158015611110573d6000803e3d6000fd5b505050506040513d601f19601f820116820180604052508101906111349190611398565b90508681604001511161114957819450611157565b61115460018361132d565b93505b5050600101611071565b50909392505050565b600080602060008451602086016000885af18061118d576040513d6000823e3d81fd5b50506000513d915081156111a55780600114156111b2565b6001600160a01b0384163b155b156111db57604051635274afe760e01b81526001600160a01b0385166004820152602401610a87565b50505050565b6000602082840312156111f357600080fd5b5035919050565b6000806020838503121561120d57600080fd5b823567ffffffffffffffff81111561122457600080fd5b8301601f8101851361123557600080fd5b803567ffffffffffffffff81111561124c57600080fd5b8560208260051b840101111561126157600080fd5b6020919091019590945092505050565b6001600160a01b0381168114610a9957600080fd5b60006020828403121561129857600080fd5b8135610a1f81611271565b634e487b7160e01b600052601160045260246000fd5b6000826112d657634e487b7160e01b600052601260045260246000fd5b500490565b80820281158282048414176109f2576109f26112a3565b60006020828403121561130457600080fd5b81518015158114610a1f57600080fd5b60006020828403121561132657600080fd5b5051919050565b818103818111156109f2576109f26112a3565b60006020828403121561135257600080fd5b8151610a1f81611271565b808201808211156109f2576109f26112a3565b634e487b7160e01b600052603260045260246000fd5b8051600f81900b811461067857600080fd5b600060808284031280156113ab57600080fd5b600090506040516080810181811067ffffffffffffffff821117156113de57634e487b7160e01b83526041600452602483fd5b6040526113ea84611386565b81526113f860208501611386565b60208201526040848101519082015260609384015193810193909352509092915050565b600082600f0b82600f0b0280600f0b915080821461143c5761143c6112a3565b5092915050565b600f82810b9082900b036f7fffffffffffffffffffffffffffffff1981126f7fffffffffffffffffffffffffffffff821317156109f2576109f26112a3565b600060018201611494576114946112a3565b506001019056fea26469706673582212205eac481c53f47676afc425a1b96a5e54985d4eab7cb3cb92dcba9e140abfa79a64736f6c634300081b0033",
					"opcodes": "PUSH1 0xC0 PUSH1 0x40 MSTORE CALLVALUE DUP1 ISZERO PUSH2 0x10 JUMPI PUSH1 0x0 DUP1 REVERT JUMPDEST POP PUSH1 0x40 MLOAD PUSH2 0x171B CODESIZE SUB DUP1 PUSH2 0x171B DUP4 CODECOPY DUP2 ADD PUSH1 0x40 DUP2 SWAP1 MSTORE PUSH2 0x2F SWAP2 PUSH2 0x14A JUMP JUMPDEST CALLER DUP1 PUSH2 0x55 JUMPI PUSH1 0x40 MLOAD PUSH4 0x1E4FBDF7 PUSH1 0xE0 SHL DUP2 MSTORE PUSH1 0x0 PUSH1 0x4 DUP3 ADD MSTORE PUSH1 0x24 ADD PUSH1 0x40 MLOAD DUP1 SWAP2 SUB SWAP1 REVERT JUMPDEST PUSH2 0x5E DUP2 PUSH2 0xDE JUMP JUMPDEST POP PUSH1 0x1 DUP1 SSTORE PUSH1 0x1 PUSH1 0x1 PUSH1 0xA0 SHL SUB DUP3 AND ISZERO DUP1 PUSH2 0x80 JUMPI POP PUSH1 0x1 PUSH1 0x1 PUSH1 0xA0 SHL SUB DUP2 AND ISZERO JUMPDEST ISZERO PUSH2 0x9E JUMPI PUSH1 0x40 MLOAD PUSH4 0xE6C4247B PUSH1 0xE0 SHL DUP2 MSTORE PUSH1 0x4 ADD PUSH1 0x40 MLOAD DUP1 SWAP2 SUB SWAP1 REVERT JUMPDEST PUSH1 0x1 PUSH1 0x1 PUSH1 0xA0 SHL SUB DUP1 DUP4 AND PUSH1 0x80 MSTORE DUP2 AND PUSH1 0xA0 MSTORE PUSH3 0x93A80 PUSH2 0xBF DUP2 TIMESTAMP PUSH2 0x17D JUMP JUMPDEST PUSH2 0xC9 SWAP2 SWAP1 PUSH2 0x19F JUMP JUMPDEST PUSH1 0x2 DUP2 SWAP1 SSTORE PUSH1 0x3 DUP2 SWAP1 SSTORE PUSH1 0x4 SSTORE POP PUSH2 0x1CA SWAP1 POP JUMP JUMPDEST PUSH1 0x0 DUP1 SLOAD PUSH1 0x1 PUSH1 0x1 PUSH1 0xA0 SHL SUB DUP4 DUP2 AND PUSH1 0x1 PUSH1 0x1 PUSH1 0xA0 SHL SUB NOT DUP4 AND DUP2 OR DUP5 SSTORE PUSH1 0x40 MLOAD SWAP2 SWAP1 SWAP3 AND SWAP3 DUP4 SWAP2 PUSH32 0x8BE0079C531659141344CD1FD0A4F28419497F9722A3DAAFE3B4186F6B6457E0 SWAP2 SWAP1 LOG3 POP POP JUMP JUMPDEST DUP1 MLOAD PUSH1 0x1 PUSH1 0x1 PUSH1 0xA0 SHL SUB DUP2 AND DUP2 EQ PUSH2 0x145 JUMPI PUSH1 0x0 DUP1 REVERT JUMPDEST SWAP2 SWAP1 POP JUMP JUMPDEST PUSH1 0x0 DUP1 PUSH1 0x40 DUP4 DUP6 SUB SLT ISZERO PUSH2 0x15D JUMPI PUSH1 0x0 DUP1 REVERT JUMPDEST PUSH2 0x166 DUP4 PUSH2 0x12E JUMP JUMPDEST SWAP2 POP PUSH2 0x174 PUSH1 0x20 DUP5 ADD PUSH2 0x12E JUMP JUMPDEST SWAP1 POP SWAP3 POP SWAP3 SWAP1 POP JUMP JUMPDEST PUSH1 0x0 DUP3 PUSH2 0x19A JUMPI PUSH4 0x4E487B71 PUSH1 0xE0 SHL PUSH1 0x0 MSTORE PUSH1 0x12 PUSH1 0x4 MSTORE PUSH1 0x24 PUSH1 0x0 REVERT JUMPDEST POP DIV SWAP1 JUMP JUMPDEST DUP1 DUP3 MUL DUP2 ISZERO DUP3 DUP3 DIV DUP5 EQ OR PUSH2 0x1C4 JUMPI PUSH4 0x4E487B71 PUSH1 0xE0 SHL PUSH1 0x0 MSTORE PUSH1 0x11 PUSH1 0x4 MSTORE PUSH1 0x24 PUSH1 0x0 REVERT JUMPDEST SWAP3 SWAP2 POP POP JUMP JUMPDEST PUSH1 0x80 MLOAD PUSH1 0xA0 MLOAD PUSH2 0x14D1 PUSH2 0x24A PUSH1 0x0 CODECOPY PUSH1 0x0 DUP2 DUP2 PUSH2 0x22A ADD MSTORE DUP2 DUP2 PUSH2 0x566 ADD MSTORE PUSH2 0x6A9 ADD MSTORE PUSH1 0x0 DUP2 DUP2 PUSH2 0x1BA ADD MSTORE DUP2 DUP2 PUSH2 0x31B ADD MSTORE DUP2 DUP2 PUSH2 0x42F ADD MSTORE DUP2 DUP2 PUSH2 0x4E4 ADD MSTORE DUP2 DUP2 PUSH2 0x5E2 ADD MSTORE DUP2 DUP2 PUSH2 0x8A8 ADD MSTORE DUP2 DUP2 PUSH2 0xB1A ADD MSTORE DUP2 DUP2 PUSH2 0xBD2 ADD MSTORE DUP2 DUP2 PUSH2 0xD11 ADD MSTORE DUP2 DUP2 PUSH2 0xDFB ADD MSTORE DUP2 DUP2 PUSH2 0xFEC ADD MSTORE PUSH2 0x10C9 ADD MSTORE PUSH2 0x14D1 PUSH1 0x0 RETURN INVALID PUSH1 0x80 PUSH1 0x40 MSTORE CALLVALUE DUP1 ISZERO PUSH2 0x10 JUMPI PUSH1 0x0 DUP1 REVERT JUMPDEST POP PUSH1 0x4 CALLDATASIZE LT PUSH2 0x116 JUMPI PUSH1 0x0 CALLDATALOAD PUSH1 0xE0 SHR DUP1 PUSH4 0x98A3F422 GT PUSH2 0xA2 JUMPI DUP1 PUSH4 0xD1D58B25 GT PUSH2 0x71 JUMPI DUP1 PUSH4 0xD1D58B25 EQ PUSH2 0x24C JUMPI DUP1 PUSH4 0xE6E00A8A EQ PUSH2 0x25F JUMPI DUP1 PUSH4 0xEEFF799A EQ PUSH2 0x27F JUMPI DUP1 PUSH4 0xF2FDE38B EQ PUSH2 0x292 JUMPI DUP1 PUSH4 0xF6DD9E43 EQ PUSH2 0x2A5 JUMPI PUSH1 0x0 DUP1 REVERT JUMPDEST DUP1 PUSH4 0x98A3F422 EQ PUSH2 0x1DC JUMPI DUP1 PUSH4 0xAF364C05 EQ PUSH2 0x1FC JUMPI DUP1 PUSH4 0xC8F33C91 EQ PUSH2 0x21C JUMPI DUP1 PUSH4 0xD1AF0C7D EQ PUSH2 0x225 JUMPI PUSH1 0x0 DUP1 REVERT JUMPDEST DUP1 PUSH4 0x78E97925 GT PUSH2 0xE9 JUMPI DUP1 PUSH4 0x78E97925 EQ PUSH2 0x15B JUMPI DUP1 PUSH4 0x8736659B EQ PUSH2 0x164 JUMPI DUP1 PUSH4 0x8DA5CB5B EQ PUSH2 0x16D JUMPI DUP1 PUSH4 0x925489A8 EQ PUSH2 0x192 JUMPI DUP1 PUSH4 0x92815606 EQ PUSH2 0x1B5 JUMPI PUSH1 0x0 DUP1 REVERT JUMPDEST DUP1 PUSH4 0x69BF581 EQ PUSH2 0x11B JUMPI DUP1 PUSH4 0x379607F5 EQ PUSH2 0x136 JUMPI DUP1 PUSH4 0x6F4A2CD0 EQ PUSH2 0x149 JUMPI DUP1 PUSH4 0x715018A6 EQ PUSH2 0x153 JUMPI JUMPDEST PUSH1 0x0 DUP1 REVERT JUMPDEST PUSH2 0x123 PUSH2 0x2C5 JUMP JUMPDEST PUSH1 0x40 MLOAD SWAP1 DUP2 MSTORE PUSH1 0x20 ADD JUMPDEST PUSH1 0x40 MLOAD DUP1 SWAP2 SUB SWAP1 RETURN JUMPDEST PUSH2 0x123 PUSH2 0x144 CALLDATASIZE PUSH1 0x4 PUSH2 0x11E1 JUMP JUMPDEST PUSH2 0x2F5 JUMP JUMPDEST PUSH2 0x151 PUSH2 0x67D JUMP JUMPDEST STOP JUMPDEST PUSH2 0x151 PUSH2 0x87F JUMP JUMPDEST PUSH2 0x123 PUSH1 0x2 SLOAD DUP2 JUMP JUMPDEST PUSH2 0x123 PUSH1 0x4 SLOAD DUP2 JUMP JUMPDEST PUSH1 0x0 SLOAD PUSH1 0x1 PUSH1 0x1 PUSH1 0xA0 SHL SUB AND JUMPDEST PUSH1 0x40 MLOAD PUSH1 0x1 PUSH1 0x1 PUSH1 0xA0 SHL SUB SWAP1 SWAP2 AND DUP2 MSTORE PUSH1 0x20 ADD PUSH2 0x12D JUMP JUMPDEST PUSH2 0x1A5 PUSH2 0x1A0 CALLDATASIZE PUSH1 0x4 PUSH2 0x11FA JUMP JUMPDEST PUSH2 0x891 JUMP JUMPDEST PUSH1 0x40 MLOAD SWAP1 ISZERO ISZERO DUP2 MSTORE PUSH1 0x20 ADD PUSH2 0x12D JUMP JUMPDEST PUSH2 0x17A PUSH32 0x0 DUP2 JUMP JUMPDEST PUSH2 0x123 PUSH2 0x1EA CALLDATASIZE PUSH1 0x4 PUSH2 0x11E1 JUMP JUMPDEST PUSH1 0x6 PUSH1 0x20 MSTORE PUSH1 0x0 SWAP1 DUP2 MSTORE PUSH1 0x40 SWAP1 KECCAK256 SLOAD DUP2 JUMP JUMPDEST PUSH2 0x123 PUSH2 0x20A CALLDATASIZE PUSH1 0x4 PUSH2 0x11E1 JUMP JUMPDEST PUSH1 0x7 PUSH1 0x20 MSTORE PUSH1 0x0 SWAP1 DUP2 MSTORE PUSH1 0x40 SWAP1 KECCAK256 SLOAD DUP2 JUMP JUMPDEST PUSH2 0x123 PUSH1 0x3 SLOAD DUP2 JUMP JUMPDEST PUSH2 0x17A PUSH32 0x0 DUP2 JUMP JUMPDEST PUSH2 0x123 PUSH2 0x25A CALLDATASIZE PUSH1 0x4 PUSH2 0x11E1 JUMP JUMPDEST PUSH2 0x9F8 JUMP JUMPDEST PUSH2 0x123 PUSH2 0x26D CALLDATASIZE PUSH1 0x4 PUSH2 0x11E1 JUMP JUMPDEST PUSH1 0x5 PUSH1 0x20 MSTORE PUSH1 0x0 SWAP1 DUP2 MSTORE PUSH1 0x40 SWAP1 KECCAK256 SLOAD DUP2 JUMP JUMPDEST PUSH2 0x123 PUSH2 0x28D CALLDATASIZE PUSH1 0x4 PUSH2 0x11E1 JUMP JUMPDEST PUSH2 0xA26 JUMP JUMPDEST PUSH2 0x151 PUSH2 0x2A0 CALLDATASIZE PUSH1 0x4 PUSH2 0x1286 JUMP JUMPDEST PUSH2 0xA59 JUMP JUMPDEST PUSH2 0x123 PUSH2 0x2B3 CALLDATASIZE PUSH1 0x4 PUSH2 0x11E1 JUMP JUMPDEST PUSH1 0x8 PUSH1 0x20 MSTORE PUSH1 0x0 SWAP1 DUP2 MSTORE PUSH1 0x40 SWAP1 KECCAK256 SLOAD DUP2 JUMP JUMPDEST PUSH1 0x0 DUP1 PUSH3 0x93A80 PUSH2 0x2D6 DUP2 TIMESTAMP PUSH2 0x12B9 JUMP JUMPDEST PUSH2 0x2E0 SWAP2 SWAP1 PUSH2 0x12DB JUMP JUMPDEST PUSH1 0x0 SWAP1 DUP2 MSTORE PUSH1 0x8 PUSH1 0x20 MSTORE PUSH1 0x40 SWAP1 KECCAK256 SLOAD SWAP3 SWAP2 POP POP JUMP JUMPDEST PUSH1 0x0 PUSH2 0x2FF PUSH2 0xA9C JUMP JUMPDEST PUSH1 0x40 MLOAD PUSH4 0x430C2081 PUSH1 0xE0 SHL DUP2 MSTORE CALLER PUSH1 0x4 DUP3 ADD MSTORE PUSH1 0x24 DUP2 ADD DUP4 SWAP1 MSTORE PUSH32 0x0 PUSH1 0x1 PUSH1 0x1 PUSH1 0xA0 SHL SUB AND SWAP1 PUSH4 0x430C2081 SWAP1 PUSH1 0x44 ADD PUSH1 0x20 PUSH1 0x40 MLOAD DUP1 DUP4 SUB DUP2 DUP7 GAS STATICCALL ISZERO DUP1 ISZERO PUSH2 0x36A JUMPI RETURNDATASIZE PUSH1 0x0 DUP1 RETURNDATACOPY RETURNDATASIZE PUSH1 0x0 REVERT JUMPDEST POP POP POP POP PUSH1 0x40 MLOAD RETURNDATASIZE PUSH1 0x1F NOT PUSH1 0x1F DUP3 ADD AND DUP3 ADD DUP1 PUSH1 0x40 MSTORE POP DUP2 ADD SWAP1 PUSH2 0x38E SWAP2 SWAP1 PUSH2 0x12F2 JUMP JUMPDEST PUSH2 0x3AB JUMPI PUSH1 0x40 MLOAD PUSH4 0xEA8E4EB5 PUSH1 0xE0 SHL DUP2 MSTORE PUSH1 0x4 ADD PUSH1 0x40 MLOAD DUP1 SWAP2 SUB SWAP1 REVERT JUMPDEST PUSH1 0x4 SLOAD TIMESTAMP GT ISZERO PUSH2 0x3BD JUMPI PUSH2 0x3BD PUSH2 0xAF5 JUMP JUMPDEST PUSH1 0x0 PUSH3 0x93A80 PUSH2 0x3CD DUP2 TIMESTAMP PUSH2 0x12B9 JUMP JUMPDEST PUSH2 0x3D7 SWAP2 SWAP1 PUSH2 0x12DB JUMP JUMPDEST SWAP1 POP PUSH1 0x0 PUSH2 0x3E5 DUP5 DUP4 PUSH2 0xCC0 JUMP JUMPDEST SWAP1 POP DUP1 PUSH1 0x0 SUB PUSH2 0x408 JUMPI PUSH1 0x40 MLOAD PUSH4 0xFEC21FD PUSH1 0xE2 SHL DUP2 MSTORE PUSH1 0x4 ADD PUSH1 0x40 MLOAD DUP1 SWAP2 SUB SWAP1 REVERT JUMPDEST PUSH1 0x0 DUP5 DUP2 MSTORE PUSH1 0x5 PUSH1 0x20 MSTORE PUSH1 0x40 SWAP1 DUP2 SWAP1 KECCAK256 DUP4 SWAP1 SSTORE MLOAD PUSH4 0x391044D7 PUSH1 0xE2 SHL DUP2 MSTORE PUSH1 0x4 DUP2 ADD DUP6 SWAP1 MSTORE PUSH32 0x0 PUSH1 0x1 PUSH1 0x1 PUSH1 0xA0 SHL SUB AND SWAP1 PUSH4 0xE441135C SWAP1 PUSH1 0x24 ADD PUSH1 0x20 PUSH1 0x40 MLOAD DUP1 DUP4 SUB DUP2 DUP7 GAS STATICCALL ISZERO DUP1 ISZERO PUSH2 0x47E JUMPI RETURNDATASIZE PUSH1 0x0 DUP1 RETURNDATACOPY RETURNDATASIZE PUSH1 0x0 REVERT JUMPDEST POP POP POP POP PUSH1 0x40 MLOAD RETURNDATASIZE PUSH1 0x1F NOT PUSH1 0x1F DUP3 ADD AND DUP3 ADD DUP1 PUSH1 0x40 MSTORE POP DUP2 ADD SWAP1 PUSH2 0x4A2 SWAP2 SWAP1 PUSH2 0x1314 JUMP JUMPDEST PUSH1 0x0 DUP6 DUP2 MSTORE PUSH1 0x6 PUSH1 0x20 MSTORE PUSH1 0x40 DUP2 KECCAK256 SWAP2 SWAP1 SWAP2 SSTORE PUSH1 0x9 DUP1 SLOAD DUP4 SWAP3 SWAP1 PUSH2 0x4C6 SWAP1 DUP5 SWAP1 PUSH2 0x132D JUMP JUMPDEST SWAP1 SWAP2 SSTORE POP POP PUSH1 0x40 MLOAD PUSH4 0x31A9108F PUSH1 0xE1 SHL DUP2 MSTORE PUSH1 0x4 DUP2 ADD DUP6 SWAP1 MSTORE PUSH1 0x0 SWAP1 PUSH32 0x0 PUSH1 0x1 PUSH1 0x1 PUSH1 0xA0 SHL SUB AND SWAP1 PUSH4 0x6352211E SWAP1 PUSH1 0x24 ADD PUSH1 0x20 PUSH1 0x40 MLOAD DUP1 DUP4 SUB DUP2 DUP7 GAS STATICCALL ISZERO DUP1 ISZERO PUSH2 0x533 JUMPI RETURNDATASIZE PUSH1 0x0 DUP1 RETURNDATACOPY RETURNDATASIZE PUSH1 0x0 REVERT JUMPDEST POP POP POP POP PUSH1 0x40 MLOAD RETURNDATASIZE PUSH1 0x1F NOT PUSH1 0x1F DUP3 ADD AND DUP3 ADD DUP1 PUSH1 0x40 MSTORE POP DUP2 ADD SWAP1 PUSH2 0x557 SWAP2 SWAP1 PUSH2 0x1340 JUMP JUMPDEST SWAP1 POP PUSH2 0x58D PUSH1 0x1 PUSH1 0x1 PUSH1 0xA0 SHL SUB PUSH32 0x0 AND DUP3 DUP5 PUSH2 0xF0D JUMP JUMPDEST PUSH1 0x0 DUP6 DUP2 MSTORE PUSH1 0x6 PUSH1 0x20 MSTORE PUSH1 0x40 SWAP1 DUP2 SWAP1 KECCAK256 SLOAD SWAP1 MLOAD PUSH4 0x391044D7 PUSH1 0xE2 SHL DUP2 MSTORE PUSH1 0x4 DUP2 ADD DUP8 SWAP1 MSTORE DUP7 SWAP2 PUSH32 0x5CE397C9BB9806FE77F5C7C28202740F0805FC106A10F4D38821A4B65C768345 SWAP2 DUP6 SWAP2 SWAP1 PUSH1 0x1 PUSH1 0x1 PUSH1 0xA0 SHL SUB PUSH32 0x0 AND SWAP1 PUSH4 0xE441135C SWAP1 PUSH1 0x24 ADD PUSH1 0x20 PUSH1 0x40 MLOAD DUP1 DUP4 SUB DUP2 DUP7 GAS STATICCALL ISZERO DUP1 ISZERO PUSH2 0x629 JUMPI RETURNDATASIZE PUSH1 0x0 DUP1 RETURNDATACOPY RETURNDATASIZE PUSH1 0x0 REVERT JUMPDEST POP POP POP POP PUSH1 0x40 MLOAD RETURNDATASIZE PUSH1 0x1F NOT PUSH1 0x1F DUP3 ADD AND DUP3 ADD DUP1 PUSH1 0x40 MSTORE POP DUP2 ADD SWAP1 PUSH2 0x64D SWAP2 SWAP1 PUSH2 0x1314 JUMP JUMPDEST PUSH1 0x40 DUP1 MLOAD SWAP4 DUP5 MSTORE PUSH1 0x20 DUP5 ADD SWAP3 SWAP1 SWAP3 MSTORE SWAP1 DUP3 ADD MSTORE PUSH1 0x60 ADD PUSH1 0x40 MLOAD DUP1 SWAP2 SUB SWAP1 LOG2 POP SWAP2 POP POP PUSH2 0x678 PUSH1 0x1 DUP1 SSTORE JUMP JUMPDEST SWAP2 SWAP1 POP JUMP JUMPDEST PUSH2 0x685 PUSH2 0xA9C JUMP JUMPDEST PUSH1 0x9 SLOAD PUSH1 0x40 MLOAD PUSH4 0x70A08231 PUSH1 0xE0 SHL DUP2 MSTORE ADDRESS PUSH1 0x4 DUP3 ADD MSTORE PUSH1 0x0 SWAP2 SWAP1 PUSH1 0x1 PUSH1 0x1 PUSH1 0xA0 SHL SUB PUSH32 0x0 AND SWAP1 PUSH4 0x70A08231 SWAP1 PUSH1 0x24 ADD PUSH1 0x20 PUSH1 0x40 MLOAD DUP1 DUP4 SUB DUP2 DUP7 GAS STATICCALL ISZERO DUP1 ISZERO PUSH2 0x6F0 JUMPI RETURNDATASIZE PUSH1 0x0 DUP1 RETURNDATACOPY RETURNDATASIZE PUSH1 0x0 REVERT JUMPDEST POP POP POP POP PUSH1 0x40 MLOAD RETURNDATASIZE PUSH1 0x1F NOT PUSH1 0x1F DUP3 ADD AND DUP3 ADD DUP1 PUSH1 0x40 MSTORE POP DUP2 ADD SWAP1 PUSH2 0x714 SWAP2 SWAP1 PUSH2 0x1314 JUMP JUMPDEST PUSH2 0x71E SWAP2 SWAP1 PUSH2 0x132D JUMP JUMPDEST SWAP1 POP DUP1 PUSH1 0x0 SUB PUSH2 0x741 JUMPI PUSH1 0x40 MLOAD PUSH4 0xFEC21FD PUSH1 0xE2 SHL DUP2 MSTORE PUSH1 0x4 ADD PUSH1 0x40 MLOAD DUP1 SWAP2 SUB SWAP1 REVERT JUMPDEST PUSH1 0x0 PUSH3 0x93A80 PUSH2 0x751 DUP2 TIMESTAMP PUSH2 0x12B9 JUMP JUMPDEST PUSH2 0x75B SWAP2 SWAP1 PUSH2 0x12DB JUMP JUMPDEST SWAP1 POP PUSH1 0x0 PUSH3 0x93A80 PUSH1 0x3 SLOAD DUP4 PUSH2 0x771 SWAP2 SWAP1 PUSH2 0x132D JUMP JUMPDEST PUSH2 0x77B SWAP2 SWAP1 PUSH2 0x12B9 JUMP JUMPDEST SWAP1 POP DUP1 PUSH1 0x0 SUB PUSH2 0x7AE JUMPI PUSH1 0x0 DUP3 DUP2 MSTORE PUSH1 0x7 PUSH1 0x20 MSTORE PUSH1 0x40 DUP2 KECCAK256 DUP1 SLOAD DUP6 SWAP3 SWAP1 PUSH2 0x7A3 SWAP1 DUP5 SWAP1 PUSH2 0x135D JUMP JUMPDEST SWAP1 SWAP2 SSTORE POP PUSH2 0x814 SWAP1 POP JUMP JUMPDEST PUSH1 0x0 PUSH2 0x7BA DUP3 DUP6 PUSH2 0x12B9 JUMP JUMPDEST SWAP1 POP PUSH1 0x0 PUSH3 0x93A80 PUSH1 0x3 SLOAD PUSH2 0x7CF SWAP2 SWAP1 PUSH2 0x135D JUMP JUMPDEST SWAP1 POP JUMPDEST DUP4 DUP2 GT PUSH2 0x811 JUMPI PUSH1 0x0 DUP2 DUP2 MSTORE PUSH1 0x7 PUSH1 0x20 MSTORE PUSH1 0x40 DUP2 KECCAK256 DUP1 SLOAD DUP5 SWAP3 SWAP1 PUSH2 0x7F7 SWAP1 DUP5 SWAP1 PUSH2 0x135D JUMP JUMPDEST SWAP1 SWAP2 SSTORE POP PUSH2 0x80A SWAP1 POP PUSH3 0x93A80 DUP3 PUSH2 0x135D JUMP JUMPDEST SWAP1 POP PUSH2 0x7D2 JUMP JUMPDEST POP POP JUMPDEST DUP3 PUSH1 0x9 PUSH1 0x0 DUP3 DUP3 SLOAD PUSH2 0x826 SWAP2 SWAP1 PUSH2 0x135D JUMP JUMPDEST SWAP1 SWAP2 SSTORE POP POP PUSH1 0x3 DUP3 SWAP1 SSTORE PUSH1 0x40 DUP1 MLOAD TIMESTAMP DUP2 MSTORE PUSH1 0x20 DUP2 ADD DUP6 SWAP1 MSTORE PUSH32 0x29E98BA00D07F171959C4DDCD2F3020DEBC7C52CF537A034D7E664340D098C6C SWAP2 ADD PUSH1 0x40 MLOAD DUP1 SWAP2 SUB SWAP1 LOG1 PUSH2 0x871 PUSH2 0xAF5 JUMP JUMPDEST POP POP POP PUSH2 0x87D PUSH1 0x1 DUP1 SSTORE JUMP JUMPDEST JUMP JUMPDEST PUSH2 0x887 PUSH2 0xF64 JUMP JUMPDEST PUSH2 0x87D PUSH1 0x0 PUSH2 0xF91 JUMP JUMPDEST PUSH1 0x0 PUSH2 0x89B PUSH2 0xA9C JUMP JUMPDEST PUSH1 0x0 JUMPDEST DUP3 DUP2 LT ISZERO PUSH2 0x9EA JUMPI PUSH32 0x0 PUSH1 0x1 PUSH1 0x1 PUSH1 0xA0 SHL SUB AND PUSH4 0x430C2081 CALLER DUP7 DUP7 DUP6 DUP2 DUP2 LT PUSH2 0x8E8 JUMPI PUSH2 0x8E8 PUSH2 0x1370 JUMP JUMPDEST PUSH1 0x40 MLOAD PUSH1 0x1 PUSH1 0x1 PUSH1 0xE0 SHL SUB NOT PUSH1 0xE0 DUP8 SWAP1 SHL AND DUP2 MSTORE PUSH1 0x1 PUSH1 0x1 PUSH1 0xA0 SHL SUB SWAP1 SWAP5 AND PUSH1 0x4 DUP6 ADD MSTORE PUSH1 0x20 MUL SWAP2 SWAP1 SWAP2 ADD CALLDATALOAD PUSH1 0x24 DUP4 ADD MSTORE POP PUSH1 0x44 ADD PUSH1 0x20 PUSH1 0x40 MLOAD DUP1 DUP4 SUB DUP2 DUP7 GAS STATICCALL ISZERO DUP1 ISZERO PUSH2 0x93A JUMPI RETURNDATASIZE PUSH1 0x0 DUP1 RETURNDATACOPY RETURNDATASIZE PUSH1 0x0 REVERT JUMPDEST POP POP POP POP PUSH1 0x40 MLOAD RETURNDATASIZE PUSH1 0x1F NOT PUSH1 0x1F DUP3 ADD AND DUP3 ADD DUP1 PUSH1 0x40 MSTORE POP DUP2 ADD SWAP1 PUSH2 0x95E SWAP2 SWAP1 PUSH2 0x12F2 JUMP JUMPDEST ISZERO PUSH2 0x9E2 JUMPI ADDRESS PUSH4 0x379607F5 DUP6 DUP6 DUP5 DUP2 DUP2 LT PUSH2 0x97B JUMPI PUSH2 0x97B PUSH2 0x1370 JUMP JUMPDEST SWAP1 POP PUSH1 0x20 MUL ADD CALLDATALOAD PUSH1 0x40 MLOAD DUP3 PUSH4 0xFFFFFFFF AND PUSH1 0xE0 SHL DUP2 MSTORE PUSH1 0x4 ADD PUSH2 0x9A0 SWAP2 DUP2 MSTORE PUSH1 0x20 ADD SWAP1 JUMP JUMPDEST PUSH1 0x20 PUSH1 0x40 MLOAD DUP1 DUP4 SUB DUP2 PUSH1 0x0 DUP8 GAS CALL SWAP3 POP POP POP DUP1 ISZERO PUSH2 0x9DB JUMPI POP PUSH1 0x40 DUP1 MLOAD PUSH1 0x1F RETURNDATASIZE SWAP1 DUP2 ADD PUSH1 0x1F NOT AND DUP3 ADD SWAP1 SWAP3 MSTORE PUSH2 0x9D8 SWAP2 DUP2 ADD SWAP1 PUSH2 0x1314 JUMP JUMPDEST PUSH1 0x1 JUMPDEST ISZERO PUSH2 0x9E2 JUMPI POP JUMPDEST PUSH1 0x1 ADD PUSH2 0x89E JUMP JUMPDEST POP POP PUSH1 0x1 DUP1 DUP1 SSTORE JUMPDEST SWAP3 SWAP2 POP POP JUMP JUMPDEST PUSH1 0x0 DUP1 PUSH3 0x93A80 PUSH2 0xA09 DUP2 TIMESTAMP PUSH2 0x12B9 JUMP JUMPDEST PUSH2 0xA13 SWAP2 SWAP1 PUSH2 0x12DB JUMP JUMPDEST SWAP1 POP PUSH2 0xA1F DUP4 DUP3 PUSH2 0xCC0 JUMP JUMPDEST SWAP4 SWAP3 POP POP POP JUMP JUMPDEST PUSH1 0x0 PUSH1 0x7 DUP2 PUSH3 0x93A80 PUSH2 0xA39 DUP2 DUP7 PUSH2 0x12B9 JUMP JUMPDEST PUSH2 0xA43 SWAP2 SWAP1 PUSH2 0x12DB JUMP JUMPDEST DUP2 MSTORE PUSH1 0x20 ADD SWAP1 DUP2 MSTORE PUSH1 0x20 ADD PUSH1 0x0 KECCAK256 SLOAD SWAP1 POP SWAP2 SWAP1 POP JUMP JUMPDEST PUSH2 0xA61 PUSH2 0xF64 JUMP JUMPDEST PUSH1 0x1 PUSH1 0x1 PUSH1 0xA0 SHL SUB DUP2 AND PUSH2 0xA90 JUMPI PUSH1 0x40 MLOAD PUSH4 0x1E4FBDF7 PUSH1 0xE0 SHL DUP2 MSTORE PUSH1 0x0 PUSH1 0x4 DUP3 ADD MSTORE PUSH1 0x24 ADD JUMPDEST PUSH1 0x40 MLOAD DUP1 SWAP2 SUB SWAP1 REVERT JUMPDEST PUSH2 0xA99 DUP2 PUSH2 0xF91 JUMP JUMPDEST POP JUMP JUMPDEST PUSH1 0x2 PUSH1 0x1 SLOAD SUB PUSH2 0xAEE JUMPI PUSH1 0x40 MLOAD PUSH3 0x461BCD PUSH1 0xE5 SHL DUP2 MSTORE PUSH1 0x20 PUSH1 0x4 DUP3 ADD MSTORE PUSH1 0x1F PUSH1 0x24 DUP3 ADD MSTORE PUSH32 0x5265656E7472616E637947756172643A207265656E7472616E742063616C6C00 PUSH1 0x44 DUP3 ADD MSTORE PUSH1 0x64 ADD PUSH2 0xA87 JUMP JUMPDEST PUSH1 0x2 PUSH1 0x1 SSTORE JUMP JUMPDEST PUSH1 0x0 PUSH3 0x93A80 PUSH2 0xB05 DUP2 TIMESTAMP PUSH2 0x12B9 JUMP JUMPDEST PUSH2 0xB0F SWAP2 SWAP1 PUSH2 0x12DB JUMP JUMPDEST SWAP1 POP PUSH1 0x0 PUSH1 0x4 SLOAD SWAP1 POP PUSH32 0x0 PUSH1 0x1 PUSH1 0x1 PUSH1 0xA0 SHL SUB AND PUSH4 0xC2C4C5C1 PUSH1 0x40 MLOAD DUP2 PUSH4 0xFFFFFFFF AND PUSH1 0xE0 SHL DUP2 MSTORE PUSH1 0x4 ADD PUSH1 0x0 PUSH1 0x40 MLOAD DUP1 DUP4 SUB DUP2 PUSH1 0x0 DUP8 DUP1 EXTCODESIZE ISZERO DUP1 ISZERO PUSH2 0xB73 JUMPI PUSH1 0x0 DUP1 REVERT JUMPDEST POP GAS CALL ISZERO DUP1 ISZERO PUSH2 0xB87 JUMPI RETURNDATASIZE PUSH1 0x0 DUP1 RETURNDATACOPY RETURNDATASIZE PUSH1 0x0 REVERT JUMPDEST POP POP POP POP PUSH1 0x0 JUMPDEST PUSH1 0x14 DUP2 LT DUP1 ISZERO PUSH2 0xB9E JUMPI POP DUP3 DUP3 GT ISZERO JUMPDEST ISZERO PUSH2 0xCB9 JUMPI PUSH1 0x0 PUSH2 0xBAE DUP4 PUSH2 0xFE1 JUMP JUMPDEST PUSH1 0x40 MLOAD PUSH4 0xD1FEBFB9 PUSH1 0xE0 SHL DUP2 MSTORE PUSH1 0x4 DUP2 ADD DUP3 SWAP1 MSTORE SWAP1 SWAP2 POP PUSH1 0x0 SWAP1 PUSH1 0x1 PUSH1 0x1 PUSH1 0xA0 SHL SUB PUSH32 0x0 AND SWAP1 PUSH4 0xD1FEBFB9 SWAP1 PUSH1 0x24 ADD PUSH1 0x80 PUSH1 0x40 MLOAD DUP1 DUP4 SUB DUP2 DUP7 GAS STATICCALL ISZERO DUP1 ISZERO PUSH2 0xC19 JUMPI RETURNDATASIZE PUSH1 0x0 DUP1 RETURNDATACOPY RETURNDATASIZE PUSH1 0x0 REVERT JUMPDEST POP POP POP POP PUSH1 0x40 MLOAD RETURNDATASIZE PUSH1 0x1F NOT PUSH1 0x1F DUP3 ADD AND DUP3 ADD DUP1 PUSH1 0x40 MSTORE POP DUP2 ADD SWAP1 PUSH2 0xC3D SWAP2 SWAP1 PUSH2 0x1398 JUMP JUMPDEST SWAP1 POP PUSH1 0x0 DUP2 PUSH1 0x40 ADD MLOAD DUP6 GT ISZERO PUSH2 0xC5F JUMPI PUSH1 0x40 DUP3 ADD MLOAD PUSH2 0xC5C SWAP1 DUP7 PUSH2 0x132D JUMP JUMPDEST SWAP1 POP JUMPDEST PUSH1 0x0 DUP2 DUP4 PUSH1 0x20 ADD MLOAD PUSH2 0xC71 SWAP2 SWAP1 PUSH2 0x141C JUMP JUMPDEST DUP4 MLOAD PUSH2 0xC7D SWAP2 SWAP1 PUSH2 0x1443 JUMP JUMPDEST PUSH1 0xF SIGNEXTEND SWAP1 POP PUSH1 0x0 DUP7 DUP2 MSTORE PUSH1 0x8 PUSH1 0x20 MSTORE PUSH1 0x40 SWAP1 KECCAK256 DUP2 SWAP1 SSTORE PUSH2 0xCA0 PUSH3 0x93A80 DUP8 PUSH2 0x135D JUMP JUMPDEST SWAP6 POP POP POP POP POP DUP1 DUP1 PUSH2 0xCB1 SWAP1 PUSH2 0x1482 JUMP JUMPDEST SWAP2 POP POP PUSH2 0xB8E JUMP JUMPDEST POP PUSH1 0x4 SSTORE POP JUMP JUMPDEST PUSH1 0x0 DUP3 DUP2 MSTORE PUSH1 0x6 PUSH1 0x20 MSTORE PUSH1 0x40 DUP2 KECCAK256 SLOAD DUP1 DUP3 SUB PUSH2 0xCDA JUMPI POP PUSH1 0x1 JUMPDEST PUSH1 0x0 DUP5 DUP2 MSTORE PUSH1 0x5 PUSH1 0x20 MSTORE PUSH1 0x40 DUP2 KECCAK256 SLOAD SWAP1 DUP2 SWAP1 SUB PUSH2 0xDC2 JUMPI PUSH1 0x40 MLOAD PUSH4 0x9BB79ED PUSH1 0xE1 SHL DUP2 MSTORE PUSH1 0x4 DUP2 ADD DUP7 SWAP1 MSTORE PUSH1 0x24 DUP2 ADD DUP4 SWAP1 MSTORE PUSH1 0x0 SWAP1 PUSH32 0x0 PUSH1 0x1 PUSH1 0x1 PUSH1 0xA0 SHL SUB AND SWAP1 PUSH4 0x1376F3DA SWAP1 PUSH1 0x44 ADD PUSH1 0x80 PUSH1 0x40 MLOAD DUP1 DUP4 SUB DUP2 DUP7 GAS STATICCALL ISZERO DUP1 ISZERO PUSH2 0xD60 JUMPI RETURNDATASIZE PUSH1 0x0 DUP1 RETURNDATACOPY RETURNDATASIZE PUSH1 0x0 REVERT JUMPDEST POP POP POP POP PUSH1 0x40 MLOAD RETURNDATASIZE PUSH1 0x1F NOT PUSH1 0x1F DUP3 ADD AND DUP3 ADD DUP1 PUSH1 0x40 MSTORE POP DUP2 ADD SWAP1 PUSH2 0xD84 SWAP2 SWAP1 PUSH2 0x1398 JUMP JUMPDEST SWAP1 POP PUSH3 0x93A80 DUP1 PUSH1 0x1 PUSH3 0x93A80 DUP5 PUSH1 0x40 ADD MLOAD PUSH2 0xDA0 SWAP2 SWAP1 PUSH2 0x135D JUMP JUMPDEST PUSH2 0xDAA SWAP2 SWAP1 PUSH2 0x132D JUMP JUMPDEST PUSH2 0xDB4 SWAP2 SWAP1 PUSH2 0x12B9 JUMP JUMPDEST PUSH2 0xDBE SWAP2 SWAP1 PUSH2 0x12DB JUMP JUMPDEST SWAP2 POP POP JUMPDEST PUSH1 0x0 DUP1 JUMPDEST PUSH1 0x32 DUP2 LT DUP1 ISZERO PUSH2 0xDD6 JUMPI POP DUP6 DUP4 GT ISZERO JUMPDEST ISZERO PUSH2 0xF03 JUMPI PUSH1 0x40 MLOAD PUSH4 0x7028A55D PUSH1 0xE1 SHL DUP2 MSTORE PUSH1 0x4 DUP2 ADD DUP9 SWAP1 MSTORE PUSH1 0x24 DUP2 ADD DUP5 SWAP1 MSTORE PUSH1 0x0 SWAP1 PUSH32 0x0 PUSH1 0x1 PUSH1 0x1 PUSH1 0xA0 SHL SUB AND SWAP1 PUSH4 0xE0514ABA SWAP1 PUSH1 0x44 ADD PUSH1 0x20 PUSH1 0x40 MLOAD DUP1 DUP4 SUB DUP2 DUP7 GAS STATICCALL ISZERO DUP1 ISZERO PUSH2 0xE4A JUMPI RETURNDATASIZE PUSH1 0x0 DUP1 RETURNDATACOPY RETURNDATASIZE PUSH1 0x0 REVERT JUMPDEST POP POP POP POP PUSH1 0x40 MLOAD RETURNDATASIZE PUSH1 0x1F NOT PUSH1 0x1F DUP3 ADD AND DUP3 ADD DUP1 PUSH1 0x40 MSTORE POP DUP2 ADD SWAP1 PUSH2 0xE6E SWAP2 SWAP1 PUSH2 0x1314 JUMP JUMPDEST PUSH1 0x0 DUP6 DUP2 MSTORE PUSH1 0x8 PUSH1 0x20 MSTORE PUSH1 0x40 SWAP1 KECCAK256 SLOAD SWAP1 SWAP2 POP DUP2 ISZERO DUP1 ISZERO SWAP1 PUSH2 0xE8F JUMPI POP PUSH1 0x0 DUP2 GT JUMPDEST DUP1 ISZERO PUSH2 0xEA8 JUMPI POP PUSH1 0x0 DUP6 DUP2 MSTORE PUSH1 0x7 PUSH1 0x20 MSTORE PUSH1 0x40 SWAP1 KECCAK256 SLOAD ISZERO ISZERO JUMPDEST ISZERO PUSH2 0xEDF JUMPI PUSH1 0x0 DUP6 DUP2 MSTORE PUSH1 0x7 PUSH1 0x20 MSTORE PUSH1 0x40 SWAP1 KECCAK256 SLOAD DUP2 SWAP1 PUSH2 0xEC8 SWAP1 DUP5 PUSH2 0x12DB JUMP JUMPDEST PUSH2 0xED2 SWAP2 SWAP1 PUSH2 0x12B9 JUMP JUMPDEST PUSH2 0xEDC SWAP1 DUP6 PUSH2 0x135D JUMP JUMPDEST SWAP4 POP JUMPDEST PUSH2 0xEEC PUSH3 0x93A80 DUP7 PUSH2 0x135D JUMP JUMPDEST SWAP5 POP POP POP DUP1 DUP1 PUSH2 0xEFB SWAP1 PUSH2 0x1482 JUMP JUMPDEST SWAP2 POP POP PUSH2 0xDC6 JUMP JUMPDEST POP SWAP6 SWAP5 POP POP POP POP POP JUMP JUMPDEST PUSH1 0x40 DUP1 MLOAD PUSH1 0x1 PUSH1 0x1 PUSH1 0xA0 SHL SUB DUP5 AND PUSH1 0x24 DUP3 ADD MSTORE PUSH1 0x44 DUP1 DUP3 ADD DUP5 SWAP1 MSTORE DUP3 MLOAD DUP1 DUP4 SUB SWAP1 SWAP2 ADD DUP2 MSTORE PUSH1 0x64 SWAP1 SWAP2 ADD SWAP1 SWAP2 MSTORE PUSH1 0x20 DUP2 ADD DUP1 MLOAD PUSH1 0x1 PUSH1 0x1 PUSH1 0xE0 SHL SUB AND PUSH4 0xA9059CBB PUSH1 0xE0 SHL OR SWAP1 MSTORE PUSH2 0xF5F SWAP1 DUP5 SWAP1 PUSH2 0x116A JUMP JUMPDEST POP POP POP JUMP JUMPDEST PUSH1 0x0 SLOAD PUSH1 0x1 PUSH1 0x1 PUSH1 0xA0 SHL SUB AND CALLER EQ PUSH2 0x87D JUMPI PUSH1 0x40 MLOAD PUSH4 0x118CDAA7 PUSH1 0xE0 SHL DUP2 MSTORE CALLER PUSH1 0x4 DUP3 ADD MSTORE PUSH1 0x24 ADD PUSH2 0xA87 JUMP JUMPDEST PUSH1 0x0 DUP1 SLOAD PUSH1 0x1 PUSH1 0x1 PUSH1 0xA0 SHL SUB DUP4 DUP2 AND PUSH1 0x1 PUSH1 0x1 PUSH1 0xA0 SHL SUB NOT DUP4 AND DUP2 OR DUP5 SSTORE PUSH1 0x40 MLOAD SWAP2 SWAP1 SWAP3 AND SWAP3 DUP4 SWAP2 PUSH32 0x8BE0079C531659141344CD1FD0A4F28419497F9722A3DAAFE3B4186F6B6457E0 SWAP2 SWAP1 LOG3 POP POP JUMP JUMPDEST PUSH1 0x0 DUP1 PUSH1 0x0 SWAP1 POP PUSH1 0x0 PUSH32 0x0 PUSH1 0x1 PUSH1 0x1 PUSH1 0xA0 SHL SUB AND PUSH4 0x900CF0CF PUSH1 0x40 MLOAD DUP2 PUSH4 0xFFFFFFFF AND PUSH1 0xE0 SHL DUP2 MSTORE PUSH1 0x4 ADD PUSH1 0x20 PUSH1 0x40 MLOAD DUP1 DUP4 SUB DUP2 DUP7 GAS STATICCALL ISZERO DUP1 ISZERO PUSH2 0x1048 JUMPI RETURNDATASIZE PUSH1 0x0 DUP1 RETURNDATACOPY RETURNDATASIZE PUSH1 0x0 REVERT JUMPDEST POP POP POP POP PUSH1 0x40 MLOAD RETURNDATASIZE PUSH1 0x1F NOT PUSH1 0x1F DUP3 ADD AND DUP3 ADD DUP1 PUSH1 0x40 MSTORE POP DUP2 ADD SWAP1 PUSH2 0x106C SWAP2 SWAP1 PUSH2 0x1314 JUMP JUMPDEST SWAP1 POP PUSH1 0x0 JUMPDEST PUSH1 0x80 DUP2 LT ISZERO PUSH2 0x1161 JUMPI DUP2 DUP4 LT ISZERO PUSH2 0x1161 JUMPI PUSH1 0x0 PUSH1 0x2 PUSH2 0x1090 DUP5 DUP7 PUSH2 0x135D JUMP JUMPDEST PUSH2 0x109B SWAP1 PUSH1 0x2 PUSH2 0x135D JUMP JUMPDEST PUSH2 0x10A5 SWAP2 SWAP1 PUSH2 0x12B9 JUMP JUMPDEST PUSH1 0x40 MLOAD PUSH4 0xD1FEBFB9 PUSH1 0xE0 SHL DUP2 MSTORE PUSH1 0x4 DUP2 ADD DUP3 SWAP1 MSTORE SWAP1 SWAP2 POP PUSH1 0x0 SWAP1 PUSH1 0x1 PUSH1 0x1 PUSH1 0xA0 SHL SUB PUSH32 0x0 AND SWAP1 PUSH4 0xD1FEBFB9 SWAP1 PUSH1 0x24 ADD PUSH1 0x80 PUSH1 0x40 MLOAD DUP1 DUP4 SUB DUP2 DUP7 GAS STATICCALL ISZERO DUP1 ISZERO PUSH2 0x1110 JUMPI RETURNDATASIZE PUSH1 0x0 DUP1 RETURNDATACOPY RETURNDATASIZE PUSH1 0x0 REVERT JUMPDEST POP POP POP POP PUSH1 0x40 MLOAD RETURNDATASIZE PUSH1 0x1F NOT PUSH1 0x1F DUP3 ADD AND DUP3 ADD DUP1 PUSH1 0x40 MSTORE POP DUP2 ADD SWAP1 PUSH2 0x1134 SWAP2 SWAP1 PUSH2 0x1398 JUMP JUMPDEST SWAP1 POP DUP7 DUP2 PUSH1 0x40 ADD MLOAD GT PUSH2 0x1149 JUMPI DUP2 SWAP5 POP PUSH2 0x1157 JUMP JUMPDEST PUSH2 0x1154 PUSH1 0x1 DUP4 PUSH2 0x132D JUMP JUMPDEST SWAP4 POP JUMPDEST POP POP PUSH1 0x1 ADD PUSH2 0x1071 JUMP JUMPDEST POP SWAP1 SWAP4 SWAP3 POP POP POP JUMP JUMPDEST PUSH1 0x0 DUP1 PUSH1 0x20 PUSH1 0x0 DUP5 MLOAD PUSH1 0x20 DUP7 ADD PUSH1 0x0 DUP9 GAS CALL DUP1 PUSH2 0x118D JUMPI PUSH1 0x40 MLOAD RETURNDATASIZE PUSH1 0x0 DUP3 RETURNDATACOPY RETURNDATASIZE DUP2 REVERT JUMPDEST POP POP PUSH1 0x0 MLOAD RETURNDATASIZE SWAP2 POP DUP2 ISZERO PUSH2 0x11A5 JUMPI DUP1 PUSH1 0x1 EQ ISZERO PUSH2 0x11B2 JUMP JUMPDEST PUSH1 0x1 PUSH1 0x1 PUSH1 0xA0 SHL SUB DUP5 AND EXTCODESIZE ISZERO JUMPDEST ISZERO PUSH2 0x11DB JUMPI PUSH1 0x40 MLOAD PUSH4 0x5274AFE7 PUSH1 0xE0 SHL DUP2 MSTORE PUSH1 0x1 PUSH1 0x1 PUSH1 0xA0 SHL SUB DUP6 AND PUSH1 0x4 DUP3 ADD MSTORE PUSH1 0x24 ADD PUSH2 0xA87 JUMP JUMPDEST POP POP POP POP JUMP JUMPDEST PUSH1 0x0 PUSH1 0x20 DUP3 DUP5 SUB SLT ISZERO PUSH2 0x11F3 JUMPI PUSH1 0x0 DUP1 REVERT JUMPDEST POP CALLDATALOAD SWAP2 SWAP1 POP JUMP JUMPDEST PUSH1 0x0 DUP1 PUSH1 0x20 DUP4 DUP6 SUB SLT ISZERO PUSH2 0x120D JUMPI PUSH1 0x0 DUP1 REVERT JUMPDEST DUP3 CALLDATALOAD PUSH8 0xFFFFFFFFFFFFFFFF DUP2 GT ISZERO PUSH2 0x1224 JUMPI PUSH1 0x0 DUP1 REVERT JUMPDEST DUP4 ADD PUSH1 0x1F DUP2 ADD DUP6 SGT PUSH2 0x1235 JUMPI PUSH1 0x0 DUP1 REVERT JUMPDEST DUP1 CALLDATALOAD PUSH8 0xFFFFFFFFFFFFFFFF DUP2 GT ISZERO PUSH2 0x124C JUMPI PUSH1 0x0 DUP1 REVERT JUMPDEST DUP6 PUSH1 0x20 DUP3 PUSH1 0x5 SHL DUP5 ADD ADD GT ISZERO PUSH2 0x1261 JUMPI PUSH1 0x0 DUP1 REVERT JUMPDEST PUSH1 0x20 SWAP2 SWAP1 SWAP2 ADD SWAP6 SWAP1 SWAP5 POP SWAP3 POP POP POP JUMP JUMPDEST PUSH1 0x1 PUSH1 0x1 PUSH1 0xA0 SHL SUB DUP2 AND DUP2 EQ PUSH2 0xA99 JUMPI PUSH1 0x0 DUP1 REVERT JUMPDEST PUSH1 0x0 PUSH1 0x20 DUP3 DUP5 SUB SLT ISZERO PUSH2 0x1298 JUMPI PUSH1 0x0 DUP1 REVERT JUMPDEST DUP2 CALLDATALOAD PUSH2 0xA1F DUP2 PUSH2 0x1271 JUMP JUMPDEST PUSH4 0x4E487B71 PUSH1 0xE0 SHL PUSH1 0x0 MSTORE PUSH1 0x11 PUSH1 0x4 MSTORE PUSH1 0x24 PUSH1 0x0 REVERT JUMPDEST PUSH1 0x0 DUP3 PUSH2 0x12D6 JUMPI PUSH4 0x4E487B71 PUSH1 0xE0 SHL PUSH1 0x0 MSTORE PUSH1 0x12 PUSH1 0x4 MSTORE PUSH1 0x24 PUSH1 0x0 REVERT JUMPDEST POP DIV SWAP1 JUMP JUMPDEST DUP1 DUP3 MUL DUP2 ISZERO DUP3 DUP3 DIV DUP5 EQ OR PUSH2 0x9F2 JUMPI PUSH2 0x9F2 PUSH2 0x12A3 JUMP JUMPDEST PUSH1 0x0 PUSH1 0x20 DUP3 DUP5 SUB SLT ISZERO PUSH2 0x1304 JUMPI PUSH1 0x0 DUP1 REVERT JUMPDEST DUP2 MLOAD DUP1 ISZERO ISZERO DUP2 EQ PUSH2 0xA1F JUMPI PUSH1 0x0 DUP1 REVERT JUMPDEST PUSH1 0x0 PUSH1 0x20 DUP3 DUP5 SUB SLT ISZERO PUSH2 0x1326 JUMPI PUSH1 0x0 DUP1 REVERT JUMPDEST POP MLOAD SWAP2 SWAP1 POP JUMP JUMPDEST DUP2 DUP2 SUB DUP2 DUP2 GT ISZERO PUSH2 0x9F2 JUMPI PUSH2 0x9F2 PUSH2 0x12A3 JUMP JUMPDEST PUSH1 0x0 PUSH1 0x20 DUP3 DUP5 SUB SLT ISZERO PUSH2 0x1352 JUMPI PUSH1 0x0 DUP1 REVERT JUMPDEST DUP2 MLOAD PUSH2 0xA1F DUP2 PUSH2 0x1271 JUMP JUMPDEST DUP1 DUP3 ADD DUP1 DUP3 GT ISZERO PUSH2 0x9F2 JUMPI PUSH2 0x9F2 PUSH2 0x12A3 JUMP JUMPDEST PUSH4 0x4E487B71 PUSH1 0xE0 SHL PUSH1 0x0 MSTORE PUSH1 0x32 PUSH1 0x4 MSTORE PUSH1 0x24 PUSH1 0x0 REVERT JUMPDEST DUP1 MLOAD PUSH1 0xF DUP2 SWAP1 SIGNEXTEND DUP2 EQ PUSH2 0x678 JUMPI PUSH1 0x0 DUP1 REVERT JUMPDEST PUSH1 0x0 PUSH1 0x80 DUP3 DUP5 SUB SLT DUP1 ISZERO PUSH2 0x13AB JUMPI PUSH1 0x0 DUP1 REVERT JUMPDEST PUSH1 0x0 SWAP1 POP PUSH1 0x40 MLOAD PUSH1 0x80 DUP2 ADD DUP2 DUP2 LT PUSH8 0xFFFFFFFFFFFFFFFF DUP3 GT OR ISZERO PUSH2 0x13DE JUMPI PUSH4 0x4E487B71 PUSH1 0xE0 SHL DUP4 MSTORE PUSH1 0x41 PUSH1 0x4 MSTORE PUSH1 0x24 DUP4 REVERT JUMPDEST PUSH1 0x40 MSTORE PUSH2 0x13EA DUP5 PUSH2 0x1386 JUMP JUMPDEST DUP2 MSTORE PUSH2 0x13F8 PUSH1 0x20 DUP6 ADD PUSH2 0x1386 JUMP JUMPDEST PUSH1 0x20 DUP3 ADD MSTORE PUSH1 0x40 DUP5 DUP2 ADD MLOAD SWAP1 DUP3 ADD MSTORE PUSH1 0x60 SWAP4 DUP5 ADD MLOAD SWAP4 DUP2 ADD SWAP4 SWAP1 SWAP4 MSTORE POP SWAP1 SWAP3 SWAP2 POP POP JUMP JUMPDEST PUSH1 0x0 DUP3 PUSH1 0xF SIGNEXTEND DUP3 PUSH1 0xF SIGNEXTEND MUL DUP1 PUSH1 0xF SIGNEXTEND SWAP2 POP DUP1 DUP3 EQ PUSH2 0x143C JUMPI PUSH2 0x143C PUSH2 0x12A3 JUMP JUMPDEST POP SWAP3 SWAP2 POP POP JUMP JUMPDEST PUSH1 0xF DUP3 DUP2 SIGNEXTEND SWAP1 DUP3 SWAP1 SIGNEXTEND SUB PUSH16 0x7FFFFFFFFFFFFFFFFFFFFFFFFFFFFFFF NOT DUP2 SLT PUSH16 0x7FFFFFFFFFFFFFFFFFFFFFFFFFFFFFFF DUP3 SGT OR ISZERO PUSH2 0x9F2 JUMPI PUSH2 0x9F2 PUSH2 0x12A3 JUMP JUMPDEST PUSH1 0x0 PUSH1 0x1 DUP3 ADD PUSH2 0x1494 JUMPI PUSH2 0x1494 PUSH2 0x12A3 JUMP JUMPDEST POP PUSH1 0x1 ADD SWAP1 JUMP INVALID LOG2 PUSH5 0x6970667358 0x22 SLT KECCAK256 MCOPY 0xAC BASEFEE SHR MSTORE8 DELEGATECALL PUSH23 0x76AFC425A1B96A5E54985D4EAB7CB3CB92DCBA9E140ABF 0xA7 SWAP11 PUSH5 0x736F6C6343 STOP ADDMOD SHL STOP CALLER "
				},
				"gasEstimates": {
					"creation": {
						"codeDepositCost": "1065800",
						"executionCost": "infinite",
						"totalCost": "infinite"
					},
					"external": {
						"claim(uint256)": "infinite",
						"claimMany(uint256[])": "infinite",
						"claimable(uint256)": "infinite",
						"distributeRewards()": "infinite",
						"getCurrentVeSupply()": "2552",
						"getWeeklyRewards(uint256)": "2681",
						"lastUpdateTime()": "2351",
						"owner()": "2387",
						"renounceOwnership()": "infinite",
						"rewardsToken()": "infinite",
						"startTime()": "2307",
						"timeCursor()": "2329",
						"tokenEpoch(uint256)": "2450",
						"tokenTimeCursor(uint256)": "2471",
						"transferOwnership(address)": "infinite",
						"veSix()": "infinite",
						"veSupplyCache(uint256)": "2537",
						"weeklyRewards(uint256)": "2472"
					},
					"internal": {
						"_calculateClaim(uint256,uint256)": "infinite",
						"_findEpochForTimestamp(uint256)": "infinite",
						"_updateVeSupply()": "infinite"
					}
				},
				"methodIdentifiers": {
					"claim(uint256)": "379607f5",
					"claimMany(uint256[])": "925489a8",
					"claimable(uint256)": "d1d58b25",
					"distributeRewards()": "6f4a2cd0",
					"getCurrentVeSupply()": "069bf581",
					"getWeeklyRewards(uint256)": "eeff799a",
					"lastUpdateTime()": "c8f33c91",
					"owner()": "8da5cb5b",
					"renounceOwnership()": "715018a6",
					"rewardsToken()": "d1af0c7d",
					"startTime()": "78e97925",
					"timeCursor()": "8736659b",
					"tokenEpoch(uint256)": "98a3f422",
					"tokenTimeCursor(uint256)": "e6e00a8a",
					"transferOwnership(address)": "f2fde38b",
					"veSix()": "92815606",
					"veSupplyCache(uint256)": "f6dd9e43",
					"weeklyRewards(uint256)": "af364c05"
				}
			},
			"storageLayout": {
				"storage": [
					{
						"astId": 8,
						"contract": "contracts/rewardsDistributor.sol:SixRewardsDistributor",
						"label": "_owner",
						"offset": 0,
						"slot": "0",
						"type": "t_address"
					},
					{
						"astId": 248,
						"contract": "contracts/rewardsDistributor.sol:SixRewardsDistributor",
						"label": "_status",
						"offset": 0,
						"slot": "1",
						"type": "t_uint256"
					},
					{
						"astId": 1240,
						"contract": "contracts/rewardsDistributor.sol:SixRewardsDistributor",
						"label": "startTime",
						"offset": 0,
						"slot": "2",
						"type": "t_uint256"
					},
					{
						"astId": 1242,
						"contract": "contracts/rewardsDistributor.sol:SixRewardsDistributor",
						"label": "lastUpdateTime",
						"offset": 0,
						"slot": "3",
						"type": "t_uint256"
					},
					{
						"astId": 1244,
						"contract": "contracts/rewardsDistributor.sol:SixRewardsDistributor",
						"label": "timeCursor",
						"offset": 0,
						"slot": "4",
						"type": "t_uint256"
					},
					{
						"astId": 1248,
						"contract": "contracts/rewardsDistributor.sol:SixRewardsDistributor",
						"label": "tokenTimeCursor",
						"offset": 0,
						"slot": "5",
						"type": "t_mapping(t_uint256,t_uint256)"
					},
					{
						"astId": 1252,
						"contract": "contracts/rewardsDistributor.sol:SixRewardsDistributor",
						"label": "tokenEpoch",
						"offset": 0,
						"slot": "6",
						"type": "t_mapping(t_uint256,t_uint256)"
					},
					{
						"astId": 1256,
						"contract": "contracts/rewardsDistributor.sol:SixRewardsDistributor",
						"label": "weeklyRewards",
						"offset": 0,
						"slot": "7",
						"type": "t_mapping(t_uint256,t_uint256)"
					},
					{
						"astId": 1260,
						"contract": "contracts/rewardsDistributor.sol:SixRewardsDistributor",
						"label": "veSupplyCache",
						"offset": 0,
						"slot": "8",
						"type": "t_mapping(t_uint256,t_uint256)"
					},
					{
						"astId": 1262,
						"contract": "contracts/rewardsDistributor.sol:SixRewardsDistributor",
						"label": "rewardsBalance",
						"offset": 0,
						"slot": "9",
						"type": "t_uint256"
					}
				],
				"types": {
					"t_address": {
						"encoding": "inplace",
						"label": "address",
						"numberOfBytes": "20"
					},
					"t_mapping(t_uint256,t_uint256)": {
						"encoding": "mapping",
						"key": "t_uint256",
						"label": "mapping(uint256 => uint256)",
						"numberOfBytes": "32",
						"value": "t_uint256"
					},
					"t_uint256": {
						"encoding": "inplace",
						"label": "uint256",
						"numberOfBytes": "32"
					}
				}
			},
			"userdoc": {
				"kind": "user",
				"methods": {},
				"version": 1
			}
		}
	}
}